{
  "contractName": "BabyPixelDoods",
  "abi": [
    {
      "inputs": [],
      "stateMutability": "nonpayable",
      "type": "constructor"
    },
    {
      "anonymous": false,
      "inputs": [
        {
          "indexed": true,
          "internalType": "address",
          "name": "owner",
          "type": "address"
        },
        {
          "indexed": true,
          "internalType": "address",
          "name": "approved",
          "type": "address"
        },
        {
          "indexed": true,
          "internalType": "uint256",
          "name": "tokenId",
          "type": "uint256"
        }
      ],
      "name": "Approval",
      "type": "event"
    },
    {
      "anonymous": false,
      "inputs": [
        {
          "indexed": true,
          "internalType": "address",
          "name": "owner",
          "type": "address"
        },
        {
          "indexed": true,
          "internalType": "address",
          "name": "operator",
          "type": "address"
        },
        {
          "indexed": false,
          "internalType": "bool",
          "name": "approved",
          "type": "bool"
        }
      ],
      "name": "ApprovalForAll",
      "type": "event"
    },
    {
      "anonymous": false,
      "inputs": [
        {
          "indexed": false,
          "internalType": "string",
          "name": "baseURI",
          "type": "string"
        }
      ],
      "name": "BaseURI",
      "type": "event"
    },
    {
      "anonymous": false,
      "inputs": [
        {
          "indexed": false,
          "internalType": "bool",
          "name": "mintable",
          "type": "bool"
        }
      ],
      "name": "Mintable",
      "type": "event"
    },
    {
      "anonymous": false,
      "inputs": [
        {
          "indexed": true,
          "internalType": "address",
          "name": "previousOwner",
          "type": "address"
        },
        {
          "indexed": true,
          "internalType": "address",
          "name": "newOwner",
          "type": "address"
        }
      ],
      "name": "OwnershipTransferred",
      "type": "event"
    },
    {
      "anonymous": false,
      "inputs": [
        {
          "indexed": false,
          "internalType": "bool",
          "name": "revealed",
          "type": "bool"
        }
      ],
      "name": "Revealed",
      "type": "event"
    },
    {
      "anonymous": false,
      "inputs": [
        {
          "indexed": false,
          "internalType": "string",
          "name": "revealedURI",
          "type": "string"
        }
      ],
      "name": "RevealedURI",
      "type": "event"
    },
    {
      "anonymous": false,
      "inputs": [
        {
          "indexed": true,
          "internalType": "address",
          "name": "from",
          "type": "address"
        },
        {
          "indexed": true,
          "internalType": "address",
          "name": "to",
          "type": "address"
        },
        {
          "indexed": true,
          "internalType": "uint256",
          "name": "tokenId",
          "type": "uint256"
        }
      ],
      "name": "Transfer",
      "type": "event"
    },
    {
      "inputs": [],
      "name": "MAX_MINT_PER_TX",
      "outputs": [
        {
          "internalType": "uint256",
          "name": "",
          "type": "uint256"
        }
      ],
      "stateMutability": "view",
      "type": "function"
    },
    {
      "inputs": [],
      "name": "MAX_SUPPLY",
      "outputs": [
        {
          "internalType": "uint256",
          "name": "",
          "type": "uint256"
        }
      ],
      "stateMutability": "view",
      "type": "function"
    },
    {
      "inputs": [],
      "name": "PRICE",
      "outputs": [
        {
          "internalType": "uint256",
          "name": "",
          "type": "uint256"
        }
      ],
      "stateMutability": "view",
      "type": "function"
    },
    {
      "inputs": [
        {
          "internalType": "address",
          "name": "to",
          "type": "address"
        },
        {
          "internalType": "uint256",
          "name": "tokenId",
          "type": "uint256"
        }
      ],
      "name": "approve",
      "outputs": [],
      "stateMutability": "nonpayable",
      "type": "function"
    },
    {
      "inputs": [
        {
          "internalType": "address",
          "name": "owner",
          "type": "address"
        }
      ],
      "name": "balanceOf",
      "outputs": [
        {
          "internalType": "uint256",
          "name": "",
          "type": "uint256"
        }
      ],
      "stateMutability": "view",
      "type": "function"
    },
    {
      "inputs": [],
      "name": "baseURI",
      "outputs": [
        {
          "internalType": "string",
          "name": "",
          "type": "string"
        }
      ],
      "stateMutability": "view",
      "type": "function"
    },
    {
      "inputs": [
        {
          "internalType": "uint256",
          "name": "tokenId",
          "type": "uint256"
        }
      ],
      "name": "getApproved",
      "outputs": [
        {
          "internalType": "address",
          "name": "",
          "type": "address"
        }
      ],
      "stateMutability": "view",
      "type": "function"
    },
    {
      "inputs": [
        {
          "internalType": "address",
          "name": "owner",
          "type": "address"
        },
        {
          "internalType": "address",
          "name": "operator",
          "type": "address"
        }
      ],
      "name": "isApprovedForAll",
      "outputs": [
        {
          "internalType": "bool",
          "name": "",
          "type": "bool"
        }
      ],
      "stateMutability": "view",
      "type": "function"
    },
    {
      "inputs": [],
      "name": "mintable",
      "outputs": [
        {
          "internalType": "bool",
          "name": "",
          "type": "bool"
        }
      ],
      "stateMutability": "view",
      "type": "function"
    },
    {
      "inputs": [],
      "name": "name",
      "outputs": [
        {
          "internalType": "string",
          "name": "",
          "type": "string"
        }
      ],
      "stateMutability": "view",
      "type": "function"
    },
    {
      "inputs": [],
      "name": "nextOwnerToExplicitlySet",
      "outputs": [
        {
          "internalType": "uint256",
          "name": "",
          "type": "uint256"
        }
      ],
      "stateMutability": "view",
      "type": "function"
    },
    {
      "inputs": [],
      "name": "owner",
      "outputs": [
        {
          "internalType": "address",
          "name": "",
          "type": "address"
        }
      ],
      "stateMutability": "view",
      "type": "function"
    },
    {
      "inputs": [
        {
          "internalType": "uint256",
          "name": "tokenId",
          "type": "uint256"
        }
      ],
      "name": "ownerOf",
      "outputs": [
        {
          "internalType": "address",
          "name": "",
          "type": "address"
        }
      ],
      "stateMutability": "view",
      "type": "function"
    },
    {
      "inputs": [],
      "name": "renounceOwnership",
      "outputs": [],
      "stateMutability": "nonpayable",
      "type": "function"
    },
    {
      "inputs": [],
      "name": "revealed",
      "outputs": [
        {
          "internalType": "bool",
          "name": "",
          "type": "bool"
        }
      ],
      "stateMutability": "view",
      "type": "function"
    },
    {
      "inputs": [],
      "name": "revealedURI",
      "outputs": [
        {
          "internalType": "string",
          "name": "",
          "type": "string"
        }
      ],
      "stateMutability": "view",
      "type": "function"
    },
    {
      "inputs": [
        {
          "internalType": "address",
          "name": "from",
          "type": "address"
        },
        {
          "internalType": "address",
          "name": "to",
          "type": "address"
        },
        {
          "internalType": "uint256",
          "name": "tokenId",
          "type": "uint256"
        }
      ],
      "name": "safeTransferFrom",
      "outputs": [],
      "stateMutability": "nonpayable",
      "type": "function"
    },
    {
      "inputs": [
        {
          "internalType": "address",
          "name": "from",
          "type": "address"
        },
        {
          "internalType": "address",
          "name": "to",
          "type": "address"
        },
        {
          "internalType": "uint256",
          "name": "tokenId",
          "type": "uint256"
        },
        {
          "internalType": "bytes",
          "name": "_data",
          "type": "bytes"
        }
      ],
      "name": "safeTransferFrom",
      "outputs": [],
      "stateMutability": "nonpayable",
      "type": "function"
    },
    {
      "inputs": [
        {
          "internalType": "address",
          "name": "operator",
          "type": "address"
        },
        {
          "internalType": "bool",
          "name": "approved",
          "type": "bool"
        }
      ],
      "name": "setApprovalForAll",
      "outputs": [],
      "stateMutability": "nonpayable",
      "type": "function"
    },
    {
      "inputs": [
        {
          "internalType": "bytes4",
          "name": "interfaceId",
          "type": "bytes4"
        }
      ],
      "name": "supportsInterface",
      "outputs": [
        {
          "internalType": "bool",
          "name": "",
          "type": "bool"
        }
      ],
      "stateMutability": "view",
      "type": "function"
    },
    {
      "inputs": [],
      "name": "symbol",
      "outputs": [
        {
          "internalType": "string",
          "name": "",
          "type": "string"
        }
      ],
      "stateMutability": "view",
      "type": "function"
    },
    {
      "inputs": [
        {
          "internalType": "uint256",
          "name": "index",
          "type": "uint256"
        }
      ],
      "name": "tokenByIndex",
      "outputs": [
        {
          "internalType": "uint256",
          "name": "",
          "type": "uint256"
        }
      ],
      "stateMutability": "view",
      "type": "function"
    },
    {
      "inputs": [
        {
          "internalType": "address",
          "name": "owner",
          "type": "address"
        },
        {
          "internalType": "uint256",
          "name": "index",
          "type": "uint256"
        }
      ],
      "name": "tokenOfOwnerByIndex",
      "outputs": [
        {
          "internalType": "uint256",
          "name": "",
          "type": "uint256"
        }
      ],
      "stateMutability": "view",
      "type": "function"
    },
    {
      "inputs": [],
      "name": "totalSupply",
      "outputs": [
        {
          "internalType": "uint256",
          "name": "",
          "type": "uint256"
        }
      ],
      "stateMutability": "view",
      "type": "function"
    },
    {
      "inputs": [
        {
          "internalType": "address",
          "name": "from",
          "type": "address"
        },
        {
          "internalType": "address",
          "name": "to",
          "type": "address"
        },
        {
          "internalType": "uint256",
          "name": "tokenId",
          "type": "uint256"
        }
      ],
      "name": "transferFrom",
      "outputs": [],
      "stateMutability": "nonpayable",
      "type": "function"
    },
    {
      "inputs": [
        {
          "internalType": "address",
          "name": "newOwner",
          "type": "address"
        }
      ],
      "name": "transferOwnership",
      "outputs": [],
      "stateMutability": "nonpayable",
      "type": "function"
    },
    {
      "inputs": [
        {
          "internalType": "string",
          "name": "_URI",
          "type": "string"
        }
      ],
      "name": "setBaseURI",
      "outputs": [],
      "stateMutability": "nonpayable",
      "type": "function"
    },
    {
      "inputs": [
        {
          "internalType": "string",
          "name": "_URI",
          "type": "string"
        }
      ],
      "name": "setRevealedURI",
      "outputs": [],
      "stateMutability": "nonpayable",
      "type": "function"
    },
    {
      "inputs": [],
      "name": "flipMintable",
      "outputs": [],
      "stateMutability": "nonpayable",
      "type": "function"
    },
    {
      "inputs": [],
      "name": "flipRevealed",
      "outputs": [],
      "stateMutability": "nonpayable",
      "type": "function"
    },
    {
      "inputs": [
        {
          "internalType": "uint256",
          "name": "amount",
          "type": "uint256"
        }
      ],
      "name": "mint",
      "outputs": [],
      "stateMutability": "payable",
      "type": "function"
    },
    {
      "inputs": [
        {
          "internalType": "uint256",
          "name": "tokenId",
          "type": "uint256"
        }
      ],
      "name": "tokenURI",
      "outputs": [
        {
          "internalType": "string",
          "name": "",
          "type": "string"
        }
      ],
      "stateMutability": "view",
      "type": "function"
    },
    {
      "inputs": [],
      "name": "withdraw",
      "outputs": [],
      "stateMutability": "nonpayable",
      "type": "function"
    }
  ],
  "bytecode": "0x60a06040526000808055600755600b805461ffff191690553480156200002457600080fd5b506040518060400160405280600e81526020016d42616279506978656c446f6f647360901b8152506040518060400160405280600381526020016210941160ea1b815250600a60008111620000965760405162461bcd60e51b81526004016200008d90620001de565b60405180910390fd5b8251620000ab90600190602086019062000138565b508151620000c190600290602085019062000138565b5060805250620000dc9050620000d6620000e2565b620000e6565b62000262565b3390565b600880546001600160a01b038381166001600160a01b0319831681179093556040519116919082907f8be0079c531659141344cd1fd0a4f28419497f9722a3daafe3b4186f6b6457e090600090a35050565b828054620001469062000225565b90600052602060002090601f0160209004810192826200016a5760008555620001b5565b82601f106200018557805160ff1916838001178555620001b5565b82800160010185558215620001b5579182015b82811115620001b557825182559160200191906001019062000198565b50620001c3929150620001c7565b5090565b5b80821115620001c35760008155600101620001c8565b60208082526027908201527f455243373231413a206d61782062617463682073697a65206d757374206265206040820152666e6f6e7a65726f60c81b606082015260800190565b6002810460018216806200023a57607f821691505b602082108114156200025c57634e487b7160e01b600052602260045260246000fd5b50919050565b6080516128ae6200028c600039600081816115230152818161154d01526118fd01526128ae6000f3fe6080604052600436106101ee5760003560e01c80636352211e1161010d578063a0712d68116100a0578063c87b56dd1161006f578063c87b56dd1461050b578063d7224ba01461052b578063e985e9c514610540578063f2fde38b14610560578063f7e8d6ea14610580576101ee565b8063a0712d68146104a3578063a22cb465146104b6578063b7076681146104d6578063b88d4fde146104eb576101ee565b80638d859f3e116100dc5780638d859f3e1461044f5780638da5cb5b146104645780638ecad7211461047957806395d89b411461048e576101ee565b80636352211e146103e55780636c0360eb1461040557806370a082311461041a578063715018a61461043a576101ee565b806332cb6b0c116101855780634bf365df116101545780634bf365df1461037b5780634f6ccce71461039057806351830227146103b057806355f804b3146103c5576101ee565b806332cb6b0c1461031c5780633b2c3fb6146103315780633ccfd60b1461034657806342842e0e1461035b576101ee565b806318160ddd116101c157806318160ddd1461029a57806323b872dd146102bc5780632f745c59146102dc578063326d4388146102fc576101ee565b806301ffc9a7146101f357806306fdde0314610229578063081812fc1461024b578063095ea7b314610278575b600080fd5b3480156101ff57600080fd5b5061021361020e366004611dc2565b610595565b6040516102209190611f65565b60405180910390f35b34801561023557600080fd5b5061023e6105f8565b6040516102209190611f70565b34801561025757600080fd5b5061026b610266366004611e40565b61068a565b6040516102209190611f14565b34801561028457600080fd5b50610298610293366004611d99565b6106d6565b005b3480156102a657600080fd5b506102af61076f565b60405161022091906126b5565b3480156102c857600080fd5b506102986102d7366004611cab565b610775565b3480156102e857600080fd5b506102af6102f7366004611d99565b610780565b34801561030857600080fd5b50610298610317366004611dfa565b61087c565b34801561032857600080fd5b506102af61090a565b34801561033d57600080fd5b50610298610910565b34801561035257600080fd5b506102986109ad565b34801561036757600080fd5b50610298610376366004611cab565b610a2f565b34801561038757600080fd5b50610213610a4a565b34801561039c57600080fd5b506102af6103ab366004611e40565b610a53565b3480156103bc57600080fd5b50610213610a7f565b3480156103d157600080fd5b506102986103e0366004611dfa565b610a8d565b3480156103f157600080fd5b5061026b610400366004611e40565b610b10565b34801561041157600080fd5b5061023e610b22565b34801561042657600080fd5b506102af610435366004611c58565b610bb0565b34801561044657600080fd5b50610298610bfd565b34801561045b57600080fd5b506102af610c48565b34801561047057600080fd5b5061026b610c53565b34801561048557600080fd5b506102af610c62565b34801561049a57600080fd5b5061023e610c67565b6102986104b1366004611e40565b610c76565b3480156104c257600080fd5b506102986104d1366004611d5f565b610e05565b3480156104e257600080fd5b50610298610ed3565b3480156104f757600080fd5b50610298610506366004611ce6565b610f56565b34801561051757600080fd5b5061023e610526366004611e40565b610f89565b34801561053757600080fd5b506102af6110af565b34801561054c57600080fd5b5061021361055b366004611c79565b6110b5565b34801561056c57600080fd5b5061029861057b366004611c58565b6110e3565b34801561058c57600080fd5b5061023e611151565b60006001600160e01b031982166380ac58cd60e01b14806105c657506001600160e01b03198216635b5e139f60e01b145b806105e157506001600160e01b0319821663780e9d6360e01b145b806105f057506105f08261115e565b90505b919050565b606060018054610607906127b6565b80601f0160208091040260200160405190810160405280929190818152602001828054610633906127b6565b80156106805780601f1061065557610100808354040283529160200191610680565b820191906000526020600020905b81548152906001019060200180831161066357829003601f168201915b5050505050905090565b600061069582611177565b6106ba5760405162461bcd60e51b81526004016106b190612626565b60405180910390fd5b506000908152600560205260409020546001600160a01b031690565b60006106e182610b10565b9050806001600160a01b0316836001600160a01b031614156107155760405162461bcd60e51b81526004016106b19061247c565b806001600160a01b031661072761117e565b6001600160a01b0316148061074357506107438161055b61117e565b61075f5760405162461bcd60e51b81526004016106b1906121df565b61076a838383611182565b505050565b60005490565b61076a8383836111de565b600061078b83610bb0565b82106107a95760405162461bcd60e51b81526004016106b190612004565b60006107b361076f565b905060008060005b8381101561085d576000818152600360209081526040918290208251808401909352546001600160a01b038116808452600160a01b90910467ffffffffffffffff16918301919091521561080e57805192505b876001600160a01b0316836001600160a01b0316141561084a578684141561083c5750935061087692505050565b83610846816127f1565b9450505b5080610855816127f1565b9150506107bb565b5060405162461bcd60e51b81526004016106b190612589565b92915050565b61088461117e565b6001600160a01b0316610895610c53565b6001600160a01b0316146108bb5760405162461bcd60e51b81526004016106b19061232a565b80516108ce90600a906020840190611b25565b507f07b1ec03dab8cb8f2f82e2aa7eadf13c8e60fcddfffd3dc107758e4fcea377cf600a6040516108ff9190611f83565b60405180910390a150565b610ea681565b61091861117e565b6001600160a01b0316610929610c53565b6001600160a01b03161461094f5760405162461bcd60e51b81526004016106b19061232a565b600b805460ff610100808304821615810261ff001990931692909217928390556040517f20a5b4e05b29089957b31c76110692167d828e9ecb1be33824e11609370e8021936109a393900490911690611f65565b60405180910390a1565b6109b561117e565b6001600160a01b03166109c6610c53565b6001600160a01b0316146109ec5760405162461bcd60e51b81526004016106b19061232a565b6109f4610c53565b6001600160a01b03166108fc479081150290604051600060405180830381858888f19350505050158015610a2c573d6000803e3d6000fd5b50565b61076a83838360405180602001604052806000815250610f56565b600b5460ff1681565b6000610a5d61076f565b8210610a7b5760405162461bcd60e51b81526004016106b190612157565b5090565b600b54610100900460ff1681565b610a9561117e565b6001600160a01b0316610aa6610c53565b6001600160a01b031614610acc5760405162461bcd60e51b81526004016106b19061232a565b8051610adf906009906020840190611b25565b507f01e56a02aca7f26a28165a040851ba78f30282b55ca81c63a804cdc1e2dcea7260096040516108ff9190611f83565b6000610b1b826114f2565b5192915050565b60098054610b2f906127b6565b80601f0160208091040260200160405190810160405280929190818152602001828054610b5b906127b6565b8015610ba85780601f10610b7d57610100808354040283529160200191610ba8565b820191906000526020600020905b815481529060010190602001808311610b8b57829003601f168201915b505050505081565b60006001600160a01b038216610bd85760405162461bcd60e51b81526004016106b19061223c565b506001600160a01b03166000908152600460205260409020546001600160801b031690565b610c0561117e565b6001600160a01b0316610c16610c53565b6001600160a01b031614610c3c5760405162461bcd60e51b81526004016106b19061232a565b610c466000611605565b565b666a94d74f43000081565b6008546001600160a01b031690565b600a81565b606060028054610607906127b6565b600b5460ff16610c985760405162461bcd60e51b81526004016106b190612046565b8060008111610cb95760405162461bcd60e51b81526004016106b190612437565b600a811115610cda5760405162461bcd60e51b81526004016106b190612437565b81610ea681610ce761076f565b610cf191906126e9565b1115610d0f5760405162461bcd60e51b81526004016106b19061207d565b826102ee81610d1c61076f565b610d2691906126e9565b118015610d3b57506102ee610d3961076f565b105b15610d9557346102ee82610d4d61076f565b610d5791906126e9565b610d61919061275c565b610d7290666a94d74f430000612715565b1115610d905760405162461bcd60e51b81526004016106b1906122cd565b610df5565b6102ee81610da161076f565b610dab91906126e9565b118015610dc057506102ee610dbe61076f565b115b15610df55734610dd782666a94d74f430000612715565b1115610df55760405162461bcd60e51b81526004016106b1906122cd565b610dff3385611657565b50505050565b610e0d61117e565b6001600160a01b0316826001600160a01b03161415610e3e5760405162461bcd60e51b81526004016106b1906123ae565b8060066000610e4b61117e565b6001600160a01b03908116825260208083019390935260409182016000908120918716808252919093529120805460ff191692151592909217909155610e8f61117e565b6001600160a01b03167f17307eab39ab6107e8899845ad3d59bd9653f200f220920489ca2b5937696c3183604051610ec79190611f65565b60405180910390a35050565b610edb61117e565b6001600160a01b0316610eec610c53565b6001600160a01b031614610f125760405162461bcd60e51b81526004016106b19061232a565b600b805460ff19811660ff9182161517918290556040517f376fb9037f5cd4338df0a05e4b353c0c01adbc9a440d6db61d829606a8bec978926109a3921690611f65565b610f618484846111de565b610f6d84848484611675565b610dff5760405162461bcd60e51b81526004016106b1906124be565b6060610f9482611177565b610fb05760405162461bcd60e51b81526004016106b19061235f565b600b54610100900460ff1661105157600a8054610fcc906127b6565b80601f0160208091040260200160405190810160405280929190818152602001828054610ff8906127b6565b80156110455780601f1061101a57610100808354040283529160200191611045565b820191906000526020600020905b81548152906001019060200180831161102857829003601f168201915b505050505090506105f3565b600060098054611060906127b6565b90501161107c57604051806020016040528060008152506110a8565b600961108783611791565b604051602001611098929190611e84565b6040516020818303038152906040525b90506105f3565b60075481565b6001600160a01b03918216600090815260066020908152604080832093909416825291909152205460ff1690565b6110eb61117e565b6001600160a01b03166110fc610c53565b6001600160a01b0316146111225760405162461bcd60e51b81526004016106b19061232a565b6001600160a01b0381166111485760405162461bcd60e51b81526004016106b1906120c7565b610a2c81611605565b600a8054610b2f906127b6565b6001600160e01b031981166301ffc9a760e01b14919050565b6000541190565b3390565b60008281526005602052604080822080546001600160a01b0319166001600160a01b0387811691821790925591518593918516917f8c5be1e5ebec7d5bd14f71427d1e84f3dd0314c0f7b2291e5b200ac8c7c3b92591a4505050565b60006111e9826114f2565b9050600081600001516001600160a01b031661120361117e565b6001600160a01b03161480611238575061121b61117e565b6001600160a01b031661122d8461068a565b6001600160a01b0316145b8061124c5750815161124c9061055b61117e565b90508061126b5760405162461bcd60e51b81526004016106b1906123e5565b846001600160a01b031682600001516001600160a01b0316146112a05760405162461bcd60e51b81526004016106b190612287565b6001600160a01b0384166112c65760405162461bcd60e51b81526004016106b19061219a565b6112d38585856001610dff565b6112e36000848460000151611182565b6001600160a01b03851660009081526004602052604081208054600192906113159084906001600160801b0316612734565b82546101009290920a6001600160801b038181021990931691831602179091556001600160a01b03861660009081526004602052604081208054600194509092611361918591166126be565b82546001600160801b039182166101009390930a9283029190920219909116179055506040805180820182526001600160a01b03808716825267ffffffffffffffff428116602080850191825260008981526003909152948520935184549151909216600160a01b0267ffffffffffffffff60a01b19929093166001600160a01b031990911617161790556113f78460016126e9565b6000818152600360205260409020549091506001600160a01b031661149c5761141f81611177565b1561149c5760408051808201825284516001600160a01b03908116825260208087015167ffffffffffffffff90811682850190815260008781526003909352949091209251835494516001600160a01b031990951692169190911767ffffffffffffffff60a01b1916600160a01b93909116929092029190911790555b83856001600160a01b0316876001600160a01b03167fddf252ad1be2c89b69c2b068fc378daa952ba7f163c4a11628f55a4df523b3ef60405160405180910390a46114ea8686866001610dff565b505050505050565b6114fa611ba5565b61150382611177565b61151f5760405162461bcd60e51b81526004016106b19061210d565b60007f00000000000000000000000000000000000000000000000000000000000000008310611580576115727f00000000000000000000000000000000000000000000000000000000000000008461275c565b61157d9060016126e9565b90505b825b8181106115ec576000818152600360209081526040918290208251808401909352546001600160a01b038116808452600160a01b90910467ffffffffffffffff1691830191909152156115d95792506105f3915050565b50806115e48161279f565b915050611582565b5060405162461bcd60e51b81526004016106b1906125d7565b600880546001600160a01b038381166001600160a01b0319831681179093556040519116919082907f8be0079c531659141344cd1fd0a4f28419497f9722a3daafe3b4186f6b6457e090600090a35050565b6116718282604051806020016040528060008152506118ac565b5050565b6000611689846001600160a01b0316611b1f565b1561178557836001600160a01b031663150b7a026116a561117e565b8786866040518563ffffffff1660e01b81526004016116c79493929190611f28565b602060405180830381600087803b1580156116e157600080fd5b505af1925050508015611711575060408051601f3d908101601f1916820190925261170e91810190611dde565b60015b61176b573d80801561173f576040519150601f19603f3d011682016040523d82523d6000602084013e611744565b606091505b5080516117635760405162461bcd60e51b81526004016106b1906124be565b805181602001fd5b6001600160e01b031916630a85bd0160e11b149050611789565b5060015b949350505050565b6060816117b657506040805180820190915260018152600360fc1b60208201526105f3565b8160005b81156117e057806117ca816127f1565b91506117d99050600a83612701565b91506117ba565b60008167ffffffffffffffff81111561180957634e487b7160e01b600052604160045260246000fd5b6040519080825280601f01601f191660200182016040528015611833576020820181803683370190505b5090505b84156117895761184860018361275c565b9150611855600a8661280c565b6118609060306126e9565b60f81b81838151811061188357634e487b7160e01b600052603260045260246000fd5b60200101906001600160f81b031916908160001a9053506118a5600a86612701565b9450611837565b6000546001600160a01b0384166118d55760405162461bcd60e51b81526004016106b190612548565b6118de81611177565b156118fb5760405162461bcd60e51b81526004016106b190612511565b7f000000000000000000000000000000000000000000000000000000000000000083111561193b5760405162461bcd60e51b81526004016106b190612673565b6119486000858386610dff565b6001600160a01b0384166000908152600460209081526040918290208251808401845290546001600160801b038082168352600160801b90910416918101919091528151808301909252805190919081906119a49087906126be565b6001600160801b031681526020018583602001516119c291906126be565b6001600160801b039081169091526001600160a01b03808816600081815260046020908152604080832087518154988401518816600160801b029088166fffffffffffffffffffffffffffffffff1990991698909817909616969096179094558451808601865291825267ffffffffffffffff4281168386019081528883526003909552948120915182549451909516600160a01b0267ffffffffffffffff60a01b19959093166001600160a01b031990941693909317939093161790915582905b85811015611b0d5760405182906001600160a01b038916906000907fddf252ad1be2c89b69c2b068fc378daa952ba7f163c4a11628f55a4df523b3ef908290a4611ad16000888488611675565b611aed5760405162461bcd60e51b81526004016106b1906124be565b81611af7816127f1565b9250508080611b05906127f1565b915050611a84565b5060008181556114ea90878588610dff565b3b151590565b828054611b31906127b6565b90600052602060002090601f016020900481019282611b535760008555611b99565b82601f10611b6c57805160ff1916838001178555611b99565b82800160010185558215611b99579182015b82811115611b99578251825591602001919060010190611b7e565b50610a7b929150611bbc565b604080518082019091526000808252602082015290565b5b80821115610a7b5760008155600101611bbd565b600067ffffffffffffffff80841115611bec57611bec61284c565b604051601f8501601f191681016020018281118282101715611c1057611c1061284c565b604052848152915081838501861015611c2857600080fd5b8484602083013760006020868301015250509392505050565b80356001600160a01b03811681146105f357600080fd5b600060208284031215611c69578081fd5b611c7282611c41565b9392505050565b60008060408385031215611c8b578081fd5b611c9483611c41565b9150611ca260208401611c41565b90509250929050565b600080600060608486031215611cbf578081fd5b611cc884611c41565b9250611cd660208501611c41565b9150604084013590509250925092565b60008060008060808587031215611cfb578081fd5b611d0485611c41565b9350611d1260208601611c41565b925060408501359150606085013567ffffffffffffffff811115611d34578182fd5b8501601f81018713611d44578182fd5b611d5387823560208401611bd1565b91505092959194509250565b60008060408385031215611d71578182fd5b611d7a83611c41565b915060208301358015158114611d8e578182fd5b809150509250929050565b60008060408385031215611dab578182fd5b611db483611c41565b946020939093013593505050565b600060208284031215611dd3578081fd5b8135611c7281612862565b600060208284031215611def578081fd5b8151611c7281612862565b600060208284031215611e0b578081fd5b813567ffffffffffffffff811115611e21578182fd5b8201601f81018413611e31578182fd5b61178984823560208401611bd1565b600060208284031215611e51578081fd5b5035919050565b60008151808452611e70816020860160208601612773565b601f01601f19169290920160200192915050565b6000808454611e92816127b6565b60018281168015611eaa5760018114611ebb57611ee7565b60ff19841687528287019450611ee7565b8886526020808720875b85811015611ede5781548a820152908401908201611ec5565b50505082870194505b505050508351611efb818360208801612773565b64173539b7b760d91b9101908152600501949350505050565b6001600160a01b0391909116815260200190565b6001600160a01b0385811682528416602082015260408101839052608060608201819052600090611f5b90830184611e58565b9695505050505050565b901515815260200190565b600060208252611c726020830184611e58565b60006020808352818454611f96816127b6565b80848701526040600180841660008114611fb75760018114611fcb57611ff6565b60ff19851689840152606089019550611ff6565b898852868820885b85811015611fee5781548b8201860152908301908801611fd3565b8a0184019650505b509398975050505050505050565b60208082526022908201527f455243373231413a206f776e657220696e646578206f7574206f6620626f756e604082015261647360f01b606082015260800190565b60208082526019908201527f4e46542063616e6e6f74206265206d696e746564207965742e00000000000000604082015260600190565b6020808252602a908201527f546865726520617265206e6f206d6f72652072656d61696e696e67204e46542760408201526939903a379036b4b73a1760b11b606082015260800190565b60208082526026908201527f4f776e61626c653a206e6577206f776e657220697320746865207a65726f206160408201526564647265737360d01b606082015260800190565b6020808252602a908201527f455243373231413a206f776e657220717565727920666f72206e6f6e657869736040820152693a32b73a103a37b5b2b760b11b606082015260800190565b60208082526023908201527f455243373231413a20676c6f62616c20696e646578206f7574206f6620626f756040820152626e647360e81b606082015260800190565b60208082526025908201527f455243373231413a207472616e7366657220746f20746865207a65726f206164604082015264647265737360d81b606082015260800190565b60208082526039908201527f455243373231413a20617070726f76652063616c6c6572206973206e6f74206f60408201527f776e6572206e6f7220617070726f76656420666f7220616c6c00000000000000606082015260800190565b6020808252602b908201527f455243373231413a2062616c616e636520717565727920666f7220746865207a60408201526a65726f206164647265737360a81b606082015260800190565b60208082526026908201527f455243373231413a207472616e736665722066726f6d20696e636f72726563746040820152651037bbb732b960d11b606082015260800190565b6020808252603a908201527f546865726520776173206e6f7420656e6f7567682f657874726120455448207460408201527f72616e7366657272656420746f206d696e7420616e204e46542e000000000000606082015260800190565b6020808252818101527f4f776e61626c653a2063616c6c6572206973206e6f7420746865206f776e6572604082015260600190565b6020808252602f908201527f4552433732314d657461646174613a2055524920717565727920666f72206e6f60408201526e3732bc34b9ba32b73a103a37b5b2b760891b606082015260800190565b6020808252601a908201527f455243373231413a20617070726f766520746f2063616c6c6572000000000000604082015260600190565b60208082526032908201527f455243373231413a207472616e736665722063616c6c6572206973206e6f74206040820152711bdddb995c881b9bdc88185c1c1c9bdd995960721b606082015260800190565b60208082526025908201527f4d696e7420616d6f756e742065786365656473206d6178206c696d697420706560408201526439103a3c1760d91b606082015260800190565b60208082526022908201527f455243373231413a20617070726f76616c20746f2063757272656e74206f776e60408201526132b960f11b606082015260800190565b60208082526033908201527f455243373231413a207472616e7366657220746f206e6f6e204552433732315260408201527232b1b2b4bb32b91034b6b83632b6b2b73a32b960691b606082015260800190565b6020808252601d908201527f455243373231413a20746f6b656e20616c7265616479206d696e746564000000604082015260600190565b60208082526021908201527f455243373231413a206d696e7420746f20746865207a65726f206164647265736040820152607360f81b606082015260800190565b6020808252602e908201527f455243373231413a20756e61626c6520746f2067657420746f6b656e206f662060408201526d0deeedccae440c4f240d2dcc8caf60931b606082015260800190565b6020808252602f908201527f455243373231413a20756e61626c6520746f2064657465726d696e652074686560408201526e1037bbb732b91037b3103a37b5b2b760891b606082015260800190565b6020808252602d908201527f455243373231413a20617070726f76656420717565727920666f72206e6f6e6560408201526c3c34b9ba32b73a103a37b5b2b760991b606082015260800190565b60208082526022908201527f455243373231413a207175616e7469747920746f206d696e7420746f6f2068696040820152610ced60f31b606082015260800190565b90815260200190565b60006001600160801b038083168185168083038211156126e0576126e0612820565b01949350505050565b600082198211156126fc576126fc612820565b500190565b60008261271057612710612836565b500490565b600081600019048311821515161561272f5761272f612820565b500290565b60006001600160801b038381169083168181101561275457612754612820565b039392505050565b60008282101561276e5761276e612820565b500390565b60005b8381101561278e578181015183820152602001612776565b83811115610dff5750506000910152565b6000816127ae576127ae612820565b506000190190565b6002810460018216806127ca57607f821691505b602082108114156127eb57634e487b7160e01b600052602260045260246000fd5b50919050565b600060001982141561280557612805612820565b5060010190565b60008261281b5761281b612836565b500690565b634e487b7160e01b600052601160045260246000fd5b634e487b7160e01b600052601260045260246000fd5b634e487b7160e01b600052604160045260246000fd5b6001600160e01b031981168114610a2c57600080fdfea2646970667358221220fb92bbeb35c1a85270d9c77ac4801199621b799caa200c6fd3b90b6e24484e2764736f6c63430008000033",
  "immutableReferences": {
    "873": [
      {
        "length": 32,
        "start": 5411
      },
      {
        "length": 32,
        "start": 5453
      },
      {
        "length": 32,
        "start": 6397
      }
    ]
  },
  "source": "// File: @openzeppelin/contracts/utils/Strings.sol\n// SPDX-License-Identifier: MIT\n\n// OpenZeppelin Contracts v4.4.1 (utils/Strings.sol)\n\npragma solidity ^0.8.0;\n\n/**\n * @dev String operations.\n */\nlibrary Strings {\n    bytes16 private constant _HEX_SYMBOLS = \"0123456789abcdef\";\n\n    /**\n     * @dev Converts a `uint256` to its ASCII `string` decimal representation.\n     */\n    function toString(uint256 value) internal pure returns (string memory) {\n        // Inspired by OraclizeAPI's implementation - MIT licence\n        // https://github.com/oraclize/ethereum-api/blob/b42146b063c7d6ee1358846c198246239e9360e8/oraclizeAPI_0.4.25.sol\n\n        if (value == 0) {\n            return \"0\";\n        }\n        uint256 temp = value;\n        uint256 digits;\n        while (temp != 0) {\n            digits++;\n            temp /= 10;\n        }\n        bytes memory buffer = new bytes(digits);\n        while (value != 0) {\n            digits -= 1;\n            buffer[digits] = bytes1(uint8(48 + uint256(value % 10)));\n            value /= 10;\n        }\n        return string(buffer);\n    }\n\n    /**\n     * @dev Converts a `uint256` to its ASCII `string` hexadecimal representation.\n     */\n    function toHexString(uint256 value) internal pure returns (string memory) {\n        if (value == 0) {\n            return \"0x00\";\n        }\n        uint256 temp = value;\n        uint256 length = 0;\n        while (temp != 0) {\n            length++;\n            temp >>= 8;\n        }\n        return toHexString(value, length);\n    }\n\n    /**\n     * @dev Converts a `uint256` to its ASCII `string` hexadecimal representation with fixed length.\n     */\n    function toHexString(uint256 value, uint256 length)\n        internal\n        pure\n        returns (string memory)\n    {\n        bytes memory buffer = new bytes(2 * length + 2);\n        buffer[0] = \"0\";\n        buffer[1] = \"x\";\n        for (uint256 i = 2 * length + 1; i > 1; --i) {\n            buffer[i] = _HEX_SYMBOLS[value & 0xf];\n            value >>= 4;\n        }\n        require(value == 0, \"Strings: hex length insufficient\");\n        return string(buffer);\n    }\n}\n\n// File: @openzeppelin/contracts/utils/Context.sol\n\n// OpenZeppelin Contracts v4.4.1 (utils/Context.sol)\n\npragma solidity ^0.8.0;\n\n/**\n * @dev Provides information about the current execution context, including the\n * sender of the transaction and its data. While these are generally available\n * via msg.sender and msg.data, they should not be accessed in such a direct\n * manner, since when dealing with meta-transactions the account sending and\n * paying for execution may not be the actual sender (as far as an application\n * is concerned).\n *\n * This contract is only required for intermediate, library-like contracts.\n */\nabstract contract Context {\n    function _msgSender() internal view virtual returns (address) {\n        return msg.sender;\n    }\n\n    function _msgData() internal view virtual returns (bytes calldata) {\n        return msg.data;\n    }\n}\n\n// File: @openzeppelin/contracts/access/Ownable.sol\n\n// OpenZeppelin Contracts v4.4.1 (access/Ownable.sol)\n\npragma solidity ^0.8.0;\n\n/**\n * @dev Contract module which provides a basic access control mechanism, where\n * there is an account (an owner) that can be granted exclusive access to\n * specific functions.\n *\n * By default, the owner account will be the one that deploys the contract. This\n * can later be changed with {transferOwnership}.\n *\n * This module is used through inheritance. It will make available the modifier\n * `onlyOwner`, which can be applied to your functions to restrict their use to\n * the owner.\n */\nabstract contract Ownable is Context {\n    address private _owner;\n\n    event OwnershipTransferred(\n        address indexed previousOwner,\n        address indexed newOwner\n    );\n\n    /**\n     * @dev Initializes the contract setting the deployer as the initial owner.\n     */\n    constructor() {\n        _transferOwnership(_msgSender());\n    }\n\n    /**\n     * @dev Returns the address of the current owner.\n     */\n    function owner() public view virtual returns (address) {\n        return _owner;\n    }\n\n    /**\n     * @dev Throws if called by any account other than the owner.\n     */\n    modifier onlyOwner() {\n        require(owner() == _msgSender(), \"Ownable: caller is not the owner\");\n        _;\n    }\n\n    /**\n     * @dev Leaves the contract without owner. It will not be possible to call\n     * `onlyOwner` functions anymore. Can only be called by the current owner.\n     *\n     * NOTE: Renouncing ownership will leave the contract without an owner,\n     * thereby removing any functionality that is only available to the owner.\n     */\n    function renounceOwnership() public virtual onlyOwner {\n        _transferOwnership(address(0));\n    }\n\n    /**\n     * @dev Transfers ownership of the contract to a new account (`newOwner`).\n     * Can only be called by the current owner.\n     */\n    function transferOwnership(address newOwner) public virtual onlyOwner {\n        require(\n            newOwner != address(0),\n            \"Ownable: new owner is the zero address\"\n        );\n        _transferOwnership(newOwner);\n    }\n\n    /**\n     * @dev Transfers ownership of the contract to a new account (`newOwner`).\n     * Internal function without access restriction.\n     */\n    function _transferOwnership(address newOwner) internal virtual {\n        address oldOwner = _owner;\n        _owner = newOwner;\n        emit OwnershipTransferred(oldOwner, newOwner);\n    }\n}\n\n// File: @openzeppelin/contracts/utils/Address.sol\n\n// OpenZeppelin Contracts v4.4.1 (utils/Address.sol)\n\npragma solidity ^0.8.0;\n\n/**\n * @dev Collection of functions related to the address type\n */\nlibrary Address {\n    /**\n     * @dev Returns true if `account` is a contract.\n     *\n     * [IMPORTANT]\n     * ====\n     * It is unsafe to assume that an address for which this function returns\n     * false is an externally-owned account (EOA) and not a contract.\n     *\n     * Among others, `isContract` will return false for the following\n     * types of addresses:\n     *\n     *  - an externally-owned account\n     *  - a contract in construction\n     *  - an address where a contract will be created\n     *  - an address where a contract lived, but was destroyed\n     * ====\n     */\n    function isContract(address account) internal view returns (bool) {\n        // This method relies on extcodesize, which returns 0 for contracts in\n        // construction, since the code is only stored at the end of the\n        // constructor execution.\n\n        uint256 size;\n        assembly {\n            size := extcodesize(account)\n        }\n        return size > 0;\n    }\n\n    /**\n     * @dev Replacement for Solidity's `transfer`: sends `amount` wei to\n     * `recipient`, forwarding all available gas and reverting on errors.\n     *\n     * https://eips.ethereum.org/EIPS/eip-1884[EIP1884] increases the gas cost\n     * of certain opcodes, possibly making contracts go over the 2300 gas limit\n     * imposed by `transfer`, making them unable to receive funds via\n     * `transfer`. {sendValue} removes this limitation.\n     *\n     * https://diligence.consensys.net/posts/2019/09/stop-using-soliditys-transfer-now/[Learn more].\n     *\n     * IMPORTANT: because control is transferred to `recipient`, care must be\n     * taken to not create reentrancy vulnerabilities. Consider using\n     * {ReentrancyGuard} or the\n     * https://solidity.readthedocs.io/en/v0.5.11/security-considerations.html#use-the-checks-effects-interactions-pattern[checks-effects-interactions pattern].\n     */\n    function sendValue(address payable recipient, uint256 amount) internal {\n        require(\n            address(this).balance >= amount,\n            \"Address: insufficient balance\"\n        );\n\n        (bool success, ) = recipient.call{value: amount}(\"\");\n        require(\n            success,\n            \"Address: unable to send value, recipient may have reverted\"\n        );\n    }\n\n    /**\n     * @dev Performs a Solidity function call using a low level `call`. A\n     * plain `call` is an unsafe replacement for a function call: use this\n     * function instead.\n     *\n     * If `target` reverts with a revert reason, it is bubbled up by this\n     * function (like regular Solidity function calls).\n     *\n     * Returns the raw returned data. To convert to the expected return value,\n     * use https://solidity.readthedocs.io/en/latest/units-and-global-variables.html?highlight=abi.decode#abi-encoding-and-decoding-functions[`abi.decode`].\n     *\n     * Requirements:\n     *\n     * - `target` must be a contract.\n     * - calling `target` with `data` must not revert.\n     *\n     * _Available since v3.1._\n     */\n    function functionCall(address target, bytes memory data)\n        internal\n        returns (bytes memory)\n    {\n        return functionCall(target, data, \"Address: low-level call failed\");\n    }\n\n    /**\n     * @dev Same as {xref-Address-functionCall-address-bytes-}[`functionCall`], but with\n     * `errorMessage` as a fallback revert reason when `target` reverts.\n     *\n     * _Available since v3.1._\n     */\n    function functionCall(\n        address target,\n        bytes memory data,\n        string memory errorMessage\n    ) internal returns (bytes memory) {\n        return functionCallWithValue(target, data, 0, errorMessage);\n    }\n\n    /**\n     * @dev Same as {xref-Address-functionCall-address-bytes-}[`functionCall`],\n     * but also transferring `value` wei to `target`.\n     *\n     * Requirements:\n     *\n     * - the calling contract must have an ETH balance of at least `value`.\n     * - the called Solidity function must be `payable`.\n     *\n     * _Available since v3.1._\n     */\n    function functionCallWithValue(\n        address target,\n        bytes memory data,\n        uint256 value\n    ) internal returns (bytes memory) {\n        return\n            functionCallWithValue(\n                target,\n                data,\n                value,\n                \"Address: low-level call with value failed\"\n            );\n    }\n\n    /**\n     * @dev Same as {xref-Address-functionCallWithValue-address-bytes-uint256-}[`functionCallWithValue`], but\n     * with `errorMessage` as a fallback revert reason when `target` reverts.\n     *\n     * _Available since v3.1._\n     */\n    function functionCallWithValue(\n        address target,\n        bytes memory data,\n        uint256 value,\n        string memory errorMessage\n    ) internal returns (bytes memory) {\n        require(\n            address(this).balance >= value,\n            \"Address: insufficient balance for call\"\n        );\n        require(isContract(target), \"Address: call to non-contract\");\n\n        (bool success, bytes memory returndata) = target.call{value: value}(\n            data\n        );\n        return verifyCallResult(success, returndata, errorMessage);\n    }\n\n    /**\n     * @dev Same as {xref-Address-functionCall-address-bytes-}[`functionCall`],\n     * but performing a static call.\n     *\n     * _Available since v3.3._\n     */\n    function functionStaticCall(address target, bytes memory data)\n        internal\n        view\n        returns (bytes memory)\n    {\n        return\n            functionStaticCall(\n                target,\n                data,\n                \"Address: low-level static call failed\"\n            );\n    }\n\n    /**\n     * @dev Same as {xref-Address-functionCall-address-bytes-string-}[`functionCall`],\n     * but performing a static call.\n     *\n     * _Available since v3.3._\n     */\n    function functionStaticCall(\n        address target,\n        bytes memory data,\n        string memory errorMessage\n    ) internal view returns (bytes memory) {\n        require(isContract(target), \"Address: static call to non-contract\");\n\n        (bool success, bytes memory returndata) = target.staticcall(data);\n        return verifyCallResult(success, returndata, errorMessage);\n    }\n\n    /**\n     * @dev Same as {xref-Address-functionCall-address-bytes-}[`functionCall`],\n     * but performing a delegate call.\n     *\n     * _Available since v3.4._\n     */\n    function functionDelegateCall(address target, bytes memory data)\n        internal\n        returns (bytes memory)\n    {\n        return\n            functionDelegateCall(\n                target,\n                data,\n                \"Address: low-level delegate call failed\"\n            );\n    }\n\n    /**\n     * @dev Same as {xref-Address-functionCall-address-bytes-string-}[`functionCall`],\n     * but performing a delegate call.\n     *\n     * _Available since v3.4._\n     */\n    function functionDelegateCall(\n        address target,\n        bytes memory data,\n        string memory errorMessage\n    ) internal returns (bytes memory) {\n        require(isContract(target), \"Address: delegate call to non-contract\");\n\n        (bool success, bytes memory returndata) = target.delegatecall(data);\n        return verifyCallResult(success, returndata, errorMessage);\n    }\n\n    /**\n     * @dev Tool to verifies that a low level call was successful, and revert if it wasn't, either by bubbling the\n     * revert reason using the provided one.\n     *\n     * _Available since v4.3._\n     */\n    function verifyCallResult(\n        bool success,\n        bytes memory returndata,\n        string memory errorMessage\n    ) internal pure returns (bytes memory) {\n        if (success) {\n            return returndata;\n        } else {\n            // Look for revert reason and bubble it up if present\n            if (returndata.length > 0) {\n                // The easiest way to bubble the revert reason is using memory via assembly\n\n                assembly {\n                    let returndata_size := mload(returndata)\n                    revert(add(32, returndata), returndata_size)\n                }\n            } else {\n                revert(errorMessage);\n            }\n        }\n    }\n}\n\n// File: @openzeppelin/contracts/token/ERC721/IERC721Receiver.sol\n\n// OpenZeppelin Contracts v4.4.1 (token/ERC721/IERC721Receiver.sol)\n\npragma solidity ^0.8.0;\n\n/**\n * @title ERC721 token receiver interface\n * @dev Interface for any contract that wants to support safeTransfers\n * from ERC721 asset contracts.\n */\ninterface IERC721Receiver {\n    /**\n     * @dev Whenever an {IERC721} `tokenId` token is transferred to this contract via {IERC721-safeTransferFrom}\n     * by `operator` from `from`, this function is called.\n     *\n     * It must return its Solidity selector to confirm the token transfer.\n     * If any other value is returned or the interface is not implemented by the recipient, the transfer will be reverted.\n     *\n     * The selector can be obtained in Solidity with `IERC721.onERC721Received.selector`.\n     */\n    function onERC721Received(\n        address operator,\n        address from,\n        uint256 tokenId,\n        bytes calldata data\n    ) external returns (bytes4);\n}\n\n// File: @openzeppelin/contracts/utils/introspection/IERC165.sol\n\n// OpenZeppelin Contracts v4.4.1 (utils/introspection/IERC165.sol)\n\npragma solidity ^0.8.0;\n\n/**\n * @dev Interface of the ERC165 standard, as defined in the\n * https://eips.ethereum.org/EIPS/eip-165[EIP].\n *\n * Implementers can declare support of contract interfaces, which can then be\n * queried by others ({ERC165Checker}).\n *\n * For an implementation, see {ERC165}.\n */\ninterface IERC165 {\n    /**\n     * @dev Returns true if this contract implements the interface defined by\n     * `interfaceId`. See the corresponding\n     * https://eips.ethereum.org/EIPS/eip-165#how-interfaces-are-identified[EIP section]\n     * to learn more about how these ids are created.\n     *\n     * This function call must use less than 30 000 gas.\n     */\n    function supportsInterface(bytes4 interfaceId) external view returns (bool);\n}\n\n// File: @openzeppelin/contracts/utils/introspection/ERC165.sol\n\n// OpenZeppelin Contracts v4.4.1 (utils/introspection/ERC165.sol)\n\npragma solidity ^0.8.0;\n\n/**\n * @dev Implementation of the {IERC165} interface.\n *\n * Contracts that want to implement ERC165 should inherit from this contract and override {supportsInterface} to check\n * for the additional interface id that will be supported. For example:\n *\n * ```solidity\n * function supportsInterface(bytes4 interfaceId) public view virtual override returns (bool) {\n *     return interfaceId == type(MyInterface).interfaceId || super.supportsInterface(interfaceId);\n * }\n * ```\n *\n * Alternatively, {ERC165Storage} provides an easier to use but more expensive implementation.\n */\nabstract contract ERC165 is IERC165 {\n    /**\n     * @dev See {IERC165-supportsInterface}.\n     */\n    function supportsInterface(bytes4 interfaceId)\n        public\n        view\n        virtual\n        override\n        returns (bool)\n    {\n        return interfaceId == type(IERC165).interfaceId;\n    }\n}\n\n// File: @openzeppelin/contracts/token/ERC721/IERC721.sol\n\n// OpenZeppelin Contracts v4.4.1 (token/ERC721/IERC721.sol)\n\npragma solidity ^0.8.0;\n\n/**\n * @dev Required interface of an ERC721 compliant contract.\n */\ninterface IERC721 is IERC165 {\n    /**\n     * @dev Emitted when `tokenId` token is transferred from `from` to `to`.\n     */\n    event Transfer(\n        address indexed from,\n        address indexed to,\n        uint256 indexed tokenId\n    );\n\n    /**\n     * @dev Emitted when `owner` enables `approved` to manage the `tokenId` token.\n     */\n    event Approval(\n        address indexed owner,\n        address indexed approved,\n        uint256 indexed tokenId\n    );\n\n    /**\n     * @dev Emitted when `owner` enables or disables (`approved`) `operator` to manage all of its assets.\n     */\n    event ApprovalForAll(\n        address indexed owner,\n        address indexed operator,\n        bool approved\n    );\n\n    /**\n     * @dev Returns the number of tokens in ``owner``'s account.\n     */\n    function balanceOf(address owner) external view returns (uint256 balance);\n\n    /**\n     * @dev Returns the owner of the `tokenId` token.\n     *\n     * Requirements:\n     *\n     * - `tokenId` must exist.\n     */\n    function ownerOf(uint256 tokenId) external view returns (address owner);\n\n    /**\n     * @dev Safely transfers `tokenId` token from `from` to `to`, checking first that contract recipients\n     * are aware of the ERC721 protocol to prevent tokens from being forever locked.\n     *\n     * Requirements:\n     *\n     * - `from` cannot be the zero address.\n     * - `to` cannot be the zero address.\n     * - `tokenId` token must exist and be owned by `from`.\n     * - If the caller is not `from`, it must be have been allowed to move this token by either {approve} or {setApprovalForAll}.\n     * - If `to` refers to a smart contract, it must implement {IERC721Receiver-onERC721Received}, which is called upon a safe transfer.\n     *\n     * Emits a {Transfer} event.\n     */\n    function safeTransferFrom(\n        address from,\n        address to,\n        uint256 tokenId\n    ) external;\n\n    /**\n     * @dev Transfers `tokenId` token from `from` to `to`.\n     *\n     * WARNING: Usage of this method is discouraged, use {safeTransferFrom} whenever possible.\n     *\n     * Requirements:\n     *\n     * - `from` cannot be the zero address.\n     * - `to` cannot be the zero address.\n     * - `tokenId` token must be owned by `from`.\n     * - If the caller is not `from`, it must be approved to move this token by either {approve} or {setApprovalForAll}.\n     *\n     * Emits a {Transfer} event.\n     */\n    function transferFrom(\n        address from,\n        address to,\n        uint256 tokenId\n    ) external;\n\n    /**\n     * @dev Gives permission to `to` to transfer `tokenId` token to another account.\n     * The approval is cleared when the token is transferred.\n     *\n     * Only a single account can be approved at a time, so approving the zero address clears previous approvals.\n     *\n     * Requirements:\n     *\n     * - The caller must own the token or be an approved operator.\n     * - `tokenId` must exist.\n     *\n     * Emits an {Approval} event.\n     */\n    function approve(address to, uint256 tokenId) external;\n\n    /**\n     * @dev Returns the account approved for `tokenId` token.\n     *\n     * Requirements:\n     *\n     * - `tokenId` must exist.\n     */\n    function getApproved(uint256 tokenId)\n        external\n        view\n        returns (address operator);\n\n    /**\n     * @dev Approve or remove `operator` as an operator for the caller.\n     * Operators can call {transferFrom} or {safeTransferFrom} for any token owned by the caller.\n     *\n     * Requirements:\n     *\n     * - The `operator` cannot be the caller.\n     *\n     * Emits an {ApprovalForAll} event.\n     */\n    function setApprovalForAll(address operator, bool _approved) external;\n\n    /**\n     * @dev Returns if the `operator` is allowed to manage all of the assets of `owner`.\n     *\n     * See {setApprovalForAll}\n     */\n    function isApprovedForAll(address owner, address operator)\n        external\n        view\n        returns (bool);\n\n    /**\n     * @dev Safely transfers `tokenId` token from `from` to `to`.\n     *\n     * Requirements:\n     *\n     * - `from` cannot be the zero address.\n     * - `to` cannot be the zero address.\n     * - `tokenId` token must exist and be owned by `from`.\n     * - If the caller is not `from`, it must be approved to move this token by either {approve} or {setApprovalForAll}.\n     * - If `to` refers to a smart contract, it must implement {IERC721Receiver-onERC721Received}, which is called upon a safe transfer.\n     *\n     * Emits a {Transfer} event.\n     */\n    function safeTransferFrom(\n        address from,\n        address to,\n        uint256 tokenId,\n        bytes calldata data\n    ) external;\n}\n\n// File: @openzeppelin/contracts/token/ERC721/extensions/IERC721Enumerable.sol\n\n// OpenZeppelin Contracts v4.4.1 (token/ERC721/extensions/IERC721Enumerable.sol)\n\npragma solidity ^0.8.0;\n\n/**\n * @title ERC-721 Non-Fungible Token Standard, optional enumeration extension\n * @dev See https://eips.ethereum.org/EIPS/eip-721\n */\ninterface IERC721Enumerable is IERC721 {\n    /**\n     * @dev Returns the total amount of tokens stored by the contract.\n     */\n    function totalSupply() external view returns (uint256);\n\n    /**\n     * @dev Returns a token ID owned by `owner` at a given `index` of its token list.\n     * Use along with {balanceOf} to enumerate all of ``owner``'s tokens.\n     */\n    function tokenOfOwnerByIndex(address owner, uint256 index)\n        external\n        view\n        returns (uint256 tokenId);\n\n    /**\n     * @dev Returns a token ID at a given `index` of all the tokens stored by the contract.\n     * Use along with {totalSupply} to enumerate all tokens.\n     */\n    function tokenByIndex(uint256 index) external view returns (uint256);\n}\n\n// File: @openzeppelin/contracts/token/ERC721/extensions/IERC721Metadata.sol\n\n// OpenZeppelin Contracts v4.4.1 (token/ERC721/extensions/IERC721Metadata.sol)\n\npragma solidity ^0.8.0;\n\n/**\n * @title ERC-721 Non-Fungible Token Standard, optional metadata extension\n * @dev See https://eips.ethereum.org/EIPS/eip-721\n */\ninterface IERC721Metadata is IERC721 {\n    /**\n     * @dev Returns the token collection name.\n     */\n    function name() external view returns (string memory);\n\n    /**\n     * @dev Returns the token collection symbol.\n     */\n    function symbol() external view returns (string memory);\n\n    /**\n     * @dev Returns the Uniform Resource Identifier (URI) for `tokenId` token.\n     */\n    function tokenURI(uint256 tokenId) external view returns (string memory);\n}\n\n// File: contracts/ERC721A.sol\n\n// Creators: locationtba.eth, 2pmflow.eth\n\npragma solidity ^0.8.0;\n\n/**\n * @dev Implementation of https://eips.ethereum.org/EIPS/eip-721[ERC721] Non-Fungible Token Standard, including\n * the Metadata and Enumerable extension. Built to optimize for lower gas during batch mints.\n *\n * Assumes serials are sequentially minted starting at 0 (e.g. 0, 1, 2, 3..).\n *\n * Does not support burning tokens to address(0).\n */\ncontract ERC721A is\n    Context,\n    ERC165,\n    IERC721,\n    IERC721Metadata,\n    IERC721Enumerable\n{\n    using Address for address;\n    using Strings for uint256;\n\n    struct TokenOwnership {\n        address addr;\n        uint64 startTimestamp;\n    }\n\n    struct AddressData {\n        uint128 balance;\n        uint128 numberMinted;\n    }\n\n    uint256 private currentIndex = 0;\n\n    uint256 internal immutable maxBatchSize;\n\n    // Token name\n    string private _name;\n\n    // Token symbol\n    string private _symbol;\n\n    // Mapping from token ID to ownership details\n    // An empty struct value does not necessarily mean the token is unowned. See ownershipOf implementation for details.\n    mapping(uint256 => TokenOwnership) private _ownerships;\n\n    // Mapping owner address to address data\n    mapping(address => AddressData) private _addressData;\n\n    // Mapping from token ID to approved address\n    mapping(uint256 => address) private _tokenApprovals;\n\n    // Mapping from owner to operator approvals\n    mapping(address => mapping(address => bool)) private _operatorApprovals;\n\n    /**\n     * @dev\n     * `maxBatchSize` refers to how much a minter can mint at a time.\n     */\n    constructor(\n        string memory name_,\n        string memory symbol_,\n        uint256 maxBatchSize_\n    ) {\n        require(maxBatchSize_ > 0, \"ERC721A: max batch size must be nonzero\");\n        _name = name_;\n        _symbol = symbol_;\n        maxBatchSize = maxBatchSize_;\n    }\n\n    /**\n     * @dev See {IERC721Enumerable-totalSupply}.\n     */\n    function totalSupply() public view override returns (uint256) {\n        return currentIndex;\n    }\n\n    /**\n     * @dev See {IERC721Enumerable-tokenByIndex}.\n     */\n    function tokenByIndex(uint256 index)\n        public\n        view\n        override\n        returns (uint256)\n    {\n        require(index < totalSupply(), \"ERC721A: global index out of bounds\");\n        return index;\n    }\n\n    /**\n     * @dev See {IERC721Enumerable-tokenOfOwnerByIndex}.\n     * This read function is O(totalSupply). If calling from a separate contract, be sure to test gas first.\n     * It may also degrade with extremely large collection sizes (e.g >> 10000), test for your use case.\n     */\n    function tokenOfOwnerByIndex(address owner, uint256 index)\n        public\n        view\n        override\n        returns (uint256)\n    {\n        require(index < balanceOf(owner), \"ERC721A: owner index out of bounds\");\n        uint256 numMintedSoFar = totalSupply();\n        uint256 tokenIdsIdx = 0;\n        address currOwnershipAddr = address(0);\n        for (uint256 i = 0; i < numMintedSoFar; i++) {\n            TokenOwnership memory ownership = _ownerships[i];\n            if (ownership.addr != address(0)) {\n                currOwnershipAddr = ownership.addr;\n            }\n            if (currOwnershipAddr == owner) {\n                if (tokenIdsIdx == index) {\n                    return i;\n                }\n                tokenIdsIdx++;\n            }\n        }\n        revert(\"ERC721A: unable to get token of owner by index\");\n    }\n\n    /**\n     * @dev See {IERC165-supportsInterface}.\n     */\n    function supportsInterface(bytes4 interfaceId)\n        public\n        view\n        virtual\n        override(ERC165, IERC165)\n        returns (bool)\n    {\n        return\n            interfaceId == type(IERC721).interfaceId ||\n            interfaceId == type(IERC721Metadata).interfaceId ||\n            interfaceId == type(IERC721Enumerable).interfaceId ||\n            super.supportsInterface(interfaceId);\n    }\n\n    /**\n     * @dev See {IERC721-balanceOf}.\n     */\n    function balanceOf(address owner) public view override returns (uint256) {\n        require(\n            owner != address(0),\n            \"ERC721A: balance query for the zero address\"\n        );\n        return uint256(_addressData[owner].balance);\n    }\n\n    function _numberMinted(address owner) internal view returns (uint256) {\n        require(\n            owner != address(0),\n            \"ERC721A: number minted query for the zero address\"\n        );\n        return uint256(_addressData[owner].numberMinted);\n    }\n\n    function ownershipOf(uint256 tokenId)\n        internal\n        view\n        returns (TokenOwnership memory)\n    {\n        require(_exists(tokenId), \"ERC721A: owner query for nonexistent token\");\n\n        uint256 lowestTokenToCheck;\n        if (tokenId >= maxBatchSize) {\n            lowestTokenToCheck = tokenId - maxBatchSize + 1;\n        }\n\n        for (uint256 curr = tokenId; curr >= lowestTokenToCheck; curr--) {\n            TokenOwnership memory ownership = _ownerships[curr];\n            if (ownership.addr != address(0)) {\n                return ownership;\n            }\n        }\n\n        revert(\"ERC721A: unable to determine the owner of token\");\n    }\n\n    /**\n     * @dev See {IERC721-ownerOf}.\n     */\n    function ownerOf(uint256 tokenId) public view override returns (address) {\n        return ownershipOf(tokenId).addr;\n    }\n\n    /**\n     * @dev See {IERC721Metadata-name}.\n     */\n    function name() public view virtual override returns (string memory) {\n        return _name;\n    }\n\n    /**\n     * @dev See {IERC721Metadata-symbol}.\n     */\n    function symbol() public view virtual override returns (string memory) {\n        return _symbol;\n    }\n\n    /**\n     * @dev See {IERC721Metadata-tokenURI}.\n     */\n    function tokenURI(uint256 tokenId)\n        public\n        view\n        virtual\n        override\n        returns (string memory)\n    {\n        require(\n            _exists(tokenId),\n            \"ERC721Metadata: URI query for nonexistent token\"\n        );\n\n        string memory baseURI = _baseURI();\n        return\n            bytes(baseURI).length > 0\n                ? string(abi.encodePacked(baseURI, tokenId.toString(), \".json\"))\n                : \"\";\n    }\n\n    /**\n     * @dev Base URI for computing {tokenURI}. If set, the resulting URI for each\n     * token will be the concatenation of the `baseURI` and the `tokenId`. Empty\n     * by default, can be overriden in child contracts.\n     */\n    function _baseURI() internal view virtual returns (string memory) {\n        return \"\";\n    }\n\n    /**\n     * @dev See {IERC721-approve}.\n     */\n    function approve(address to, uint256 tokenId) public override {\n        address owner = ERC721A.ownerOf(tokenId);\n        require(to != owner, \"ERC721A: approval to current owner\");\n\n        require(\n            _msgSender() == owner || isApprovedForAll(owner, _msgSender()),\n            \"ERC721A: approve caller is not owner nor approved for all\"\n        );\n\n        _approve(to, tokenId, owner);\n    }\n\n    /**\n     * @dev See {IERC721-getApproved}.\n     */\n    function getApproved(uint256 tokenId)\n        public\n        view\n        override\n        returns (address)\n    {\n        require(\n            _exists(tokenId),\n            \"ERC721A: approved query for nonexistent token\"\n        );\n\n        return _tokenApprovals[tokenId];\n    }\n\n    /**\n     * @dev See {IERC721-setApprovalForAll}.\n     */\n    function setApprovalForAll(address operator, bool approved)\n        public\n        override\n    {\n        require(operator != _msgSender(), \"ERC721A: approve to caller\");\n\n        _operatorApprovals[_msgSender()][operator] = approved;\n        emit ApprovalForAll(_msgSender(), operator, approved);\n    }\n\n    /**\n     * @dev See {IERC721-isApprovedForAll}.\n     */\n    function isApprovedForAll(address owner, address operator)\n        public\n        view\n        virtual\n        override\n        returns (bool)\n    {\n        return _operatorApprovals[owner][operator];\n    }\n\n    /**\n     * @dev See {IERC721-transferFrom}.\n     */\n    function transferFrom(\n        address from,\n        address to,\n        uint256 tokenId\n    ) public override {\n        _transfer(from, to, tokenId);\n    }\n\n    /**\n     * @dev See {IERC721-safeTransferFrom}.\n     */\n    function safeTransferFrom(\n        address from,\n        address to,\n        uint256 tokenId\n    ) public override {\n        safeTransferFrom(from, to, tokenId, \"\");\n    }\n\n    /**\n     * @dev See {IERC721-safeTransferFrom}.\n     */\n    function safeTransferFrom(\n        address from,\n        address to,\n        uint256 tokenId,\n        bytes memory _data\n    ) public override {\n        _transfer(from, to, tokenId);\n        require(\n            _checkOnERC721Received(from, to, tokenId, _data),\n            \"ERC721A: transfer to non ERC721Receiver implementer\"\n        );\n    }\n\n    /**\n     * @dev Returns whether `tokenId` exists.\n     *\n     * Tokens can be managed by their owner or approved accounts via {approve} or {setApprovalForAll}.\n     *\n     * Tokens start existing when they are minted (`_mint`),\n     */\n    function _exists(uint256 tokenId) internal view returns (bool) {\n        return tokenId < currentIndex;\n    }\n\n    function _safeMint(address to, uint256 quantity) internal {\n        _safeMint(to, quantity, \"\");\n    }\n\n    /**\n     * @dev Mints `quantity` tokens and transfers them to `to`.\n     *\n     * Requirements:\n     *\n     * - `to` cannot be the zero address.\n     * - `quantity` cannot be larger than the max batch size.\n     *\n     * Emits a {Transfer} event.\n     */\n    function _safeMint(\n        address to,\n        uint256 quantity,\n        bytes memory _data\n    ) internal {\n        uint256 startTokenId = currentIndex;\n        require(to != address(0), \"ERC721A: mint to the zero address\");\n        // We know if the first token in the batch doesn't exist, the other ones don't as well, because of serial ordering.\n        require(!_exists(startTokenId), \"ERC721A: token already minted\");\n        require(quantity <= maxBatchSize, \"ERC721A: quantity to mint too high\");\n\n        _beforeTokenTransfers(address(0), to, startTokenId, quantity);\n\n        AddressData memory addressData = _addressData[to];\n        _addressData[to] = AddressData(\n            addressData.balance + uint128(quantity),\n            addressData.numberMinted + uint128(quantity)\n        );\n        _ownerships[startTokenId] = TokenOwnership(to, uint64(block.timestamp));\n\n        uint256 updatedIndex = startTokenId;\n\n        for (uint256 i = 0; i < quantity; i++) {\n            emit Transfer(address(0), to, updatedIndex);\n            require(\n                _checkOnERC721Received(address(0), to, updatedIndex, _data),\n                \"ERC721A: transfer to non ERC721Receiver implementer\"\n            );\n            updatedIndex++;\n        }\n\n        currentIndex = updatedIndex;\n        _afterTokenTransfers(address(0), to, startTokenId, quantity);\n    }\n\n    /**\n     * @dev Transfers `tokenId` from `from` to `to`.\n     *\n     * Requirements:\n     *\n     * - `to` cannot be the zero address.\n     * - `tokenId` token must be owned by `from`.\n     *\n     * Emits a {Transfer} event.\n     */\n    function _transfer(\n        address from,\n        address to,\n        uint256 tokenId\n    ) private {\n        TokenOwnership memory prevOwnership = ownershipOf(tokenId);\n\n        bool isApprovedOrOwner = (_msgSender() == prevOwnership.addr ||\n            getApproved(tokenId) == _msgSender() ||\n            isApprovedForAll(prevOwnership.addr, _msgSender()));\n\n        require(\n            isApprovedOrOwner,\n            \"ERC721A: transfer caller is not owner nor approved\"\n        );\n\n        require(\n            prevOwnership.addr == from,\n            \"ERC721A: transfer from incorrect owner\"\n        );\n        require(to != address(0), \"ERC721A: transfer to the zero address\");\n\n        _beforeTokenTransfers(from, to, tokenId, 1);\n\n        // Clear approvals from the previous owner\n        _approve(address(0), tokenId, prevOwnership.addr);\n\n        _addressData[from].balance -= 1;\n        _addressData[to].balance += 1;\n        _ownerships[tokenId] = TokenOwnership(to, uint64(block.timestamp));\n\n        // If the ownership slot of tokenId+1 is not explicitly set, that means the transfer initiator owns it.\n        // Set the slot of tokenId+1 explicitly in storage to maintain correctness for ownerOf(tokenId+1) calls.\n        uint256 nextTokenId = tokenId + 1;\n        if (_ownerships[nextTokenId].addr == address(0)) {\n            if (_exists(nextTokenId)) {\n                _ownerships[nextTokenId] = TokenOwnership(\n                    prevOwnership.addr,\n                    prevOwnership.startTimestamp\n                );\n            }\n        }\n\n        emit Transfer(from, to, tokenId);\n        _afterTokenTransfers(from, to, tokenId, 1);\n    }\n\n    /**\n     * @dev Approve `to` to operate on `tokenId`\n     *\n     * Emits a {Approval} event.\n     */\n    function _approve(\n        address to,\n        uint256 tokenId,\n        address owner\n    ) private {\n        _tokenApprovals[tokenId] = to;\n        emit Approval(owner, to, tokenId);\n    }\n\n    uint256 public nextOwnerToExplicitlySet = 0;\n\n    /**\n     * @dev Explicitly set `owners` to eliminate loops in future calls of ownerOf().\n     */\n    function _setOwnersExplicit(uint256 quantity) internal {\n        uint256 oldNextOwnerToSet = nextOwnerToExplicitlySet;\n        require(quantity > 0, \"quantity must be nonzero\");\n        uint256 endIndex = oldNextOwnerToSet + quantity - 1;\n        if (endIndex > currentIndex - 1) {\n            endIndex = currentIndex - 1;\n        }\n        // We know if the last one in the group exists, all in the group exist, due to serial ordering.\n        require(_exists(endIndex), \"not enough minted yet for this cleanup\");\n        for (uint256 i = oldNextOwnerToSet; i <= endIndex; i++) {\n            if (_ownerships[i].addr == address(0)) {\n                TokenOwnership memory ownership = ownershipOf(i);\n                _ownerships[i] = TokenOwnership(\n                    ownership.addr,\n                    ownership.startTimestamp\n                );\n            }\n        }\n        nextOwnerToExplicitlySet = endIndex + 1;\n    }\n\n    /**\n     * @dev Internal function to invoke {IERC721Receiver-onERC721Received} on a target address.\n     * The call is not executed if the target address is not a contract.\n     *\n     * @param from address representing the previous owner of the given token ID\n     * @param to target address that will receive the tokens\n     * @param tokenId uint256 ID of the token to be transferred\n     * @param _data bytes optional data to send along with the call\n     * @return bool whether the call correctly returned the expected magic value\n     */\n    function _checkOnERC721Received(\n        address from,\n        address to,\n        uint256 tokenId,\n        bytes memory _data\n    ) private returns (bool) {\n        if (to.isContract()) {\n            try\n                IERC721Receiver(to).onERC721Received(\n                    _msgSender(),\n                    from,\n                    tokenId,\n                    _data\n                )\n            returns (bytes4 retval) {\n                return retval == IERC721Receiver(to).onERC721Received.selector;\n            } catch (bytes memory reason) {\n                if (reason.length == 0) {\n                    revert(\n                        \"ERC721A: transfer to non ERC721Receiver implementer\"\n                    );\n                } else {\n                    assembly {\n                        revert(add(32, reason), mload(reason))\n                    }\n                }\n            }\n        } else {\n            return true;\n        }\n    }\n\n    /**\n     * @dev Hook that is called before a set of serially-ordered token ids are about to be transferred. This includes minting.\n     *\n     * startTokenId - the first token id to be transferred\n     * quantity - the amount to be transferred\n     *\n     * Calling conditions:\n     *\n     * - When `from` and `to` are both non-zero, ``from``'s `tokenId` will be\n     * transferred to `to`.\n     * - When `from` is zero, `tokenId` will be minted for `to`.\n     */\n    function _beforeTokenTransfers(\n        address from,\n        address to,\n        uint256 startTokenId,\n        uint256 quantity\n    ) internal virtual {}\n\n    /**\n     * @dev Hook that is called after a set of serially-ordered token ids have been transferred. This includes\n     * minting.\n     *\n     * startTokenId - the first token id to be transferred\n     * quantity - the amount to be transferred\n     *\n     * Calling conditions:\n     *\n     * - when `from` and `to` are both non-zero.\n     * - `from` and `to` are never both zero.\n     */\n    function _afterTokenTransfers(\n        address from,\n        address to,\n        uint256 startTokenId,\n        uint256 quantity\n    ) internal virtual {}\n}\n// File: contracts/BabyPixelDoods.sol\n\npragma solidity ^0.8.0;\n\ncontract BabyPixelDoods is ERC721A, Ownable {\n    using Strings for uint256;\n\n    uint256 public constant MAX_SUPPLY = 3750;\n\n    uint256 public constant MAX_MINT_PER_TX = 10;\n\n    uint256 public constant PRICE = 0.03 ether;\n\n    string public baseURI;\n\n    string public revealedURI;\n\n    bool public mintable = false;\n\n    bool public revealed = false;\n\n    event Mintable(bool mintable);\n\n    event Revealed(bool revealed);\n\n    event BaseURI(string baseURI);\n\n    event RevealedURI(string revealedURI);\n\n    constructor() ERC721A(\"BabyPixelDoods\", \"BPD\", MAX_MINT_PER_TX) {}\n\n    modifier isMintable() {\n        require(mintable, \"NFT cannot be minted yet.\");\n        _;\n    }\n\n    modifier isNotExceedMaxMintPerTx(uint256 amount) {\n        require(amount > 0, \"Mint amount exceeds max limit per tx.\");\n        require(\n            amount <= MAX_MINT_PER_TX,\n            \"Mint amount exceeds max limit per tx.\"\n        );\n        _;\n    }\n\n    modifier isNotExceedAvailableSupply(uint256 amount) {\n        require(\n            totalSupply() + amount <= MAX_SUPPLY,\n            \"There are no more remaining NFT's to mint.\"\n        );\n        _;\n    }\n\n    modifier isPaymentSufficient(uint256 amount) {\n        if (totalSupply() + amount > 750 && totalSupply() < 750) {\n            require(\n                PRICE * (totalSupply() + amount - 750) <= msg.value,\n                \"There was not enough/extra ETH transferred to mint an NFT.\"\n            );\n        } else if (totalSupply() + amount > 750 && totalSupply() > 750) {\n            require(\n                PRICE * amount <= msg.value,\n                \"There was not enough/extra ETH transferred to mint an NFT.\"\n            );\n        }\n        _;\n    }\n\n    function setBaseURI(string memory _URI) public onlyOwner {\n        baseURI = _URI;\n\n        emit BaseURI(baseURI);\n    }\n\n    function setRevealedURI(string memory _URI) public onlyOwner {\n        revealedURI = _URI;\n\n        emit RevealedURI(revealedURI);\n    }\n\n    function flipMintable() public onlyOwner {\n        mintable = !mintable;\n\n        emit Mintable(mintable);\n    }\n\n    function flipRevealed() public onlyOwner {\n        revealed = !revealed;\n\n        emit Revealed(revealed);\n    }\n\n    function mint(uint256 amount)\n        public\n        payable\n        isMintable\n        isNotExceedMaxMintPerTx(amount)\n        isNotExceedAvailableSupply(amount)\n        isPaymentSufficient(amount)\n    {\n        _safeMint(msg.sender, amount);\n    }\n\n    function _baseURI() internal view virtual override returns (string memory) {\n        return baseURI;\n    }\n\n    function tokenURI(uint256 tokenId)\n        public\n        view\n        virtual\n        override\n        returns (string memory)\n    {\n        require(\n            _exists(tokenId),\n            \"ERC721Metadata: URI query for nonexistent token\"\n        );\n\n        if (revealed == false) {\n            return revealedURI;\n        } else {\n            return\n                bytes(baseURI).length > 0\n                    ? string(\n                        abi.encodePacked(baseURI, tokenId.toString(), \".json\")\n                    )\n                    : \"\";\n        }\n    }\n\n    function withdraw() public onlyOwner {\n        payable(owner()).transfer(address(this).balance);\n    }\n}\n",
  "sourcePath": "/Users/ishreetbhullar/Documents/coding-folder/BabyPixelDoods/contracts/BabyPixelDoods.sol",
  "compiler": {
    "name": "solc",
    "version": "0.8.0+commit.c7dfd78e.Emscripten.clang"
  },
  "schemaVersion": "3.4.3",
  "updatedAt": "2022-01-26T02:02:53.358Z",
  "devdoc": {
    "kind": "dev",
    "methods": {
      "approve(address,uint256)": {
        "details": "See {IERC721-approve}."
      },
      "balanceOf(address)": {
        "details": "See {IERC721-balanceOf}."
      },
      "getApproved(uint256)": {
        "details": "See {IERC721-getApproved}."
      },
      "isApprovedForAll(address,address)": {
        "details": "See {IERC721-isApprovedForAll}."
      },
      "name()": {
        "details": "See {IERC721Metadata-name}."
      },
      "owner()": {
        "details": "Returns the address of the current owner."
      },
      "ownerOf(uint256)": {
        "details": "See {IERC721-ownerOf}."
      },
      "renounceOwnership()": {
        "details": "Leaves the contract without owner. It will not be possible to call `onlyOwner` functions anymore. Can only be called by the current owner. NOTE: Renouncing ownership will leave the contract without an owner, thereby removing any functionality that is only available to the owner."
      },
      "safeTransferFrom(address,address,uint256)": {
        "details": "See {IERC721-safeTransferFrom}."
      },
      "safeTransferFrom(address,address,uint256,bytes)": {
        "details": "See {IERC721-safeTransferFrom}."
      },
      "setApprovalForAll(address,bool)": {
        "details": "See {IERC721-setApprovalForAll}."
      },
      "supportsInterface(bytes4)": {
        "details": "See {IERC165-supportsInterface}."
      },
      "symbol()": {
        "details": "See {IERC721Metadata-symbol}."
      },
      "tokenByIndex(uint256)": {
        "details": "See {IERC721Enumerable-tokenByIndex}."
      },
      "tokenOfOwnerByIndex(address,uint256)": {
        "details": "See {IERC721Enumerable-tokenOfOwnerByIndex}. This read function is O(totalSupply). If calling from a separate contract, be sure to test gas first. It may also degrade with extremely large collection sizes (e.g >> 10000), test for your use case."
      },
      "tokenURI(uint256)": {
        "details": "See {IERC721Metadata-tokenURI}."
      },
      "totalSupply()": {
        "details": "See {IERC721Enumerable-totalSupply}."
      },
      "transferFrom(address,address,uint256)": {
        "details": "See {IERC721-transferFrom}."
      },
      "transferOwnership(address)": {
        "details": "Transfers ownership of the contract to a new account (`newOwner`). Can only be called by the current owner."
      }
    },
    "version": 1
  },
  "userdoc": {
    "kind": "user",
    "methods": {},
    "version": 1
  }
}