{
  "contractName": "BabyPixelDoods",
  "abi": [
    {
      "inputs": [],
      "stateMutability": "nonpayable",
      "type": "constructor"
    },
    {
      "anonymous": false,
      "inputs": [
        {
          "indexed": true,
          "internalType": "address",
          "name": "owner",
          "type": "address"
        },
        {
          "indexed": true,
          "internalType": "address",
          "name": "approved",
          "type": "address"
        },
        {
          "indexed": true,
          "internalType": "uint256",
          "name": "tokenId",
          "type": "uint256"
        }
      ],
      "name": "Approval",
      "type": "event"
    },
    {
      "anonymous": false,
      "inputs": [
        {
          "indexed": true,
          "internalType": "address",
          "name": "owner",
          "type": "address"
        },
        {
          "indexed": true,
          "internalType": "address",
          "name": "operator",
          "type": "address"
        },
        {
          "indexed": false,
          "internalType": "bool",
          "name": "approved",
          "type": "bool"
        }
      ],
      "name": "ApprovalForAll",
      "type": "event"
    },
    {
      "anonymous": false,
      "inputs": [
        {
          "indexed": true,
          "internalType": "address",
          "name": "previousOwner",
          "type": "address"
        },
        {
          "indexed": true,
          "internalType": "address",
          "name": "newOwner",
          "type": "address"
        }
      ],
      "name": "OwnershipTransferred",
      "type": "event"
    },
    {
      "anonymous": false,
      "inputs": [
        {
          "indexed": true,
          "internalType": "address",
          "name": "from",
          "type": "address"
        },
        {
          "indexed": true,
          "internalType": "address",
          "name": "to",
          "type": "address"
        },
        {
          "indexed": true,
          "internalType": "uint256",
          "name": "tokenId",
          "type": "uint256"
        }
      ],
      "name": "Transfer",
      "type": "event"
    },
    {
      "inputs": [
        {
          "internalType": "address",
          "name": "to",
          "type": "address"
        },
        {
          "internalType": "uint256",
          "name": "tokenId",
          "type": "uint256"
        }
      ],
      "name": "approve",
      "outputs": [],
      "stateMutability": "nonpayable",
      "type": "function"
    },
    {
      "inputs": [
        {
          "internalType": "address",
          "name": "owner",
          "type": "address"
        }
      ],
      "name": "balanceOf",
      "outputs": [
        {
          "internalType": "uint256",
          "name": "",
          "type": "uint256"
        }
      ],
      "stateMutability": "view",
      "type": "function",
      "constant": true
    },
    {
      "inputs": [],
      "name": "baseURI",
      "outputs": [
        {
          "internalType": "string",
          "name": "",
          "type": "string"
        }
      ],
      "stateMutability": "view",
      "type": "function",
      "constant": true
    },
    {
      "inputs": [
        {
          "internalType": "uint256",
          "name": "tokenId",
          "type": "uint256"
        }
      ],
      "name": "getApproved",
      "outputs": [
        {
          "internalType": "address",
          "name": "",
          "type": "address"
        }
      ],
      "stateMutability": "view",
      "type": "function",
      "constant": true
    },
    {
      "inputs": [
        {
          "internalType": "address",
          "name": "owner",
          "type": "address"
        },
        {
          "internalType": "address",
          "name": "operator",
          "type": "address"
        }
      ],
      "name": "isApprovedForAll",
      "outputs": [
        {
          "internalType": "bool",
          "name": "",
          "type": "bool"
        }
      ],
      "stateMutability": "view",
      "type": "function",
      "constant": true
    },
    {
      "inputs": [],
      "name": "maxNftPurchase",
      "outputs": [
        {
          "internalType": "uint256",
          "name": "",
          "type": "uint256"
        }
      ],
      "stateMutability": "view",
      "type": "function",
      "constant": true
    },
    {
      "inputs": [],
      "name": "maxSupply",
      "outputs": [
        {
          "internalType": "uint256",
          "name": "",
          "type": "uint256"
        }
      ],
      "stateMutability": "view",
      "type": "function",
      "constant": true
    },
    {
      "inputs": [],
      "name": "name",
      "outputs": [
        {
          "internalType": "string",
          "name": "",
          "type": "string"
        }
      ],
      "stateMutability": "view",
      "type": "function",
      "constant": true
    },
    {
      "inputs": [],
      "name": "nftPrice",
      "outputs": [
        {
          "internalType": "uint256",
          "name": "",
          "type": "uint256"
        }
      ],
      "stateMutability": "view",
      "type": "function",
      "constant": true
    },
    {
      "inputs": [],
      "name": "owner",
      "outputs": [
        {
          "internalType": "address",
          "name": "",
          "type": "address"
        }
      ],
      "stateMutability": "view",
      "type": "function",
      "constant": true
    },
    {
      "inputs": [
        {
          "internalType": "uint256",
          "name": "tokenId",
          "type": "uint256"
        }
      ],
      "name": "ownerOf",
      "outputs": [
        {
          "internalType": "address",
          "name": "",
          "type": "address"
        }
      ],
      "stateMutability": "view",
      "type": "function",
      "constant": true
    },
    {
      "inputs": [],
      "name": "renounceOwnership",
      "outputs": [],
      "stateMutability": "nonpayable",
      "type": "function"
    },
    {
      "inputs": [],
      "name": "revealed",
      "outputs": [
        {
          "internalType": "bool",
          "name": "",
          "type": "bool"
        }
      ],
      "stateMutability": "view",
      "type": "function",
      "constant": true
    },
    {
      "inputs": [],
      "name": "revealedURI",
      "outputs": [
        {
          "internalType": "string",
          "name": "",
          "type": "string"
        }
      ],
      "stateMutability": "view",
      "type": "function",
      "constant": true
    },
    {
      "inputs": [
        {
          "internalType": "address",
          "name": "from",
          "type": "address"
        },
        {
          "internalType": "address",
          "name": "to",
          "type": "address"
        },
        {
          "internalType": "uint256",
          "name": "tokenId",
          "type": "uint256"
        }
      ],
      "name": "safeTransferFrom",
      "outputs": [],
      "stateMutability": "nonpayable",
      "type": "function"
    },
    {
      "inputs": [
        {
          "internalType": "address",
          "name": "from",
          "type": "address"
        },
        {
          "internalType": "address",
          "name": "to",
          "type": "address"
        },
        {
          "internalType": "uint256",
          "name": "tokenId",
          "type": "uint256"
        },
        {
          "internalType": "bytes",
          "name": "_data",
          "type": "bytes"
        }
      ],
      "name": "safeTransferFrom",
      "outputs": [],
      "stateMutability": "nonpayable",
      "type": "function"
    },
    {
      "inputs": [],
      "name": "saleIsActive",
      "outputs": [
        {
          "internalType": "bool",
          "name": "",
          "type": "bool"
        }
      ],
      "stateMutability": "view",
      "type": "function",
      "constant": true
    },
    {
      "inputs": [
        {
          "internalType": "address",
          "name": "operator",
          "type": "address"
        },
        {
          "internalType": "bool",
          "name": "approved",
          "type": "bool"
        }
      ],
      "name": "setApprovalForAll",
      "outputs": [],
      "stateMutability": "nonpayable",
      "type": "function"
    },
    {
      "inputs": [
        {
          "internalType": "bytes4",
          "name": "interfaceId",
          "type": "bytes4"
        }
      ],
      "name": "supportsInterface",
      "outputs": [
        {
          "internalType": "bool",
          "name": "",
          "type": "bool"
        }
      ],
      "stateMutability": "view",
      "type": "function",
      "constant": true
    },
    {
      "inputs": [],
      "name": "symbol",
      "outputs": [
        {
          "internalType": "string",
          "name": "",
          "type": "string"
        }
      ],
      "stateMutability": "view",
      "type": "function",
      "constant": true
    },
    {
      "inputs": [
        {
          "internalType": "uint256",
          "name": "index",
          "type": "uint256"
        }
      ],
      "name": "tokenByIndex",
      "outputs": [
        {
          "internalType": "uint256",
          "name": "",
          "type": "uint256"
        }
      ],
      "stateMutability": "view",
      "type": "function",
      "constant": true
    },
    {
      "inputs": [
        {
          "internalType": "address",
          "name": "owner",
          "type": "address"
        },
        {
          "internalType": "uint256",
          "name": "index",
          "type": "uint256"
        }
      ],
      "name": "tokenOfOwnerByIndex",
      "outputs": [
        {
          "internalType": "uint256",
          "name": "",
          "type": "uint256"
        }
      ],
      "stateMutability": "view",
      "type": "function",
      "constant": true
    },
    {
      "inputs": [],
      "name": "totalSupply",
      "outputs": [
        {
          "internalType": "uint256",
          "name": "",
          "type": "uint256"
        }
      ],
      "stateMutability": "view",
      "type": "function",
      "constant": true
    },
    {
      "inputs": [
        {
          "internalType": "address",
          "name": "from",
          "type": "address"
        },
        {
          "internalType": "address",
          "name": "to",
          "type": "address"
        },
        {
          "internalType": "uint256",
          "name": "tokenId",
          "type": "uint256"
        }
      ],
      "name": "transferFrom",
      "outputs": [],
      "stateMutability": "nonpayable",
      "type": "function"
    },
    {
      "inputs": [
        {
          "internalType": "address",
          "name": "newOwner",
          "type": "address"
        }
      ],
      "name": "transferOwnership",
      "outputs": [],
      "stateMutability": "nonpayable",
      "type": "function"
    },
    {
      "inputs": [
        {
          "internalType": "string",
          "name": "baseURI_",
          "type": "string"
        }
      ],
      "name": "setBaseURI",
      "outputs": [],
      "stateMutability": "nonpayable",
      "type": "function"
    },
    {
      "inputs": [
        {
          "internalType": "string",
          "name": "revealedURI_",
          "type": "string"
        }
      ],
      "name": "setRevealedURI",
      "outputs": [],
      "stateMutability": "nonpayable",
      "type": "function"
    },
    {
      "inputs": [
        {
          "internalType": "uint256",
          "name": "_maxNftPurchase",
          "type": "uint256"
        }
      ],
      "name": "setMaxNftPurchase",
      "outputs": [],
      "stateMutability": "nonpayable",
      "type": "function"
    },
    {
      "inputs": [
        {
          "internalType": "uint256",
          "name": "_nftPrice",
          "type": "uint256"
        }
      ],
      "name": "setNftPrice",
      "outputs": [],
      "stateMutability": "nonpayable",
      "type": "function"
    },
    {
      "inputs": [
        {
          "internalType": "uint256",
          "name": "_maxSupply",
          "type": "uint256"
        }
      ],
      "name": "setMaxSupply",
      "outputs": [],
      "stateMutability": "nonpayable",
      "type": "function"
    },
    {
      "inputs": [],
      "name": "reveal",
      "outputs": [],
      "stateMutability": "nonpayable",
      "type": "function"
    },
    {
      "inputs": [],
      "name": "flipSaleState",
      "outputs": [],
      "stateMutability": "nonpayable",
      "type": "function"
    },
    {
      "inputs": [
        {
          "internalType": "uint256",
          "name": "numberOfTokens",
          "type": "uint256"
        }
      ],
      "name": "mint",
      "outputs": [],
      "stateMutability": "payable",
      "type": "function",
      "payable": true
    },
    {
      "inputs": [
        {
          "internalType": "uint256",
          "name": "tokenId",
          "type": "uint256"
        }
      ],
      "name": "tokenURI",
      "outputs": [
        {
          "internalType": "string",
          "name": "",
          "type": "string"
        }
      ],
      "stateMutability": "view",
      "type": "function",
      "constant": true
    },
    {
      "inputs": [],
      "name": "withdraw",
      "outputs": [],
      "stateMutability": "nonpayable",
      "type": "function"
    }
  ],
  "bytecode": "0x6080604052666a94d74f430000600b55600c8055610ea6600d55600e805461ffff191690553480156200003157600080fd5b50604080518082018252600e81526d42616279506978656c446f6f647360901b60208083019182528351808501909452600384526210941160ea1b908401528151919291620000839160009162000112565b5080516200009990600190602084019062000112565b505050620000b6620000b0620000bc60201b60201c565b620000c0565b620001f5565b3390565b600a80546001600160a01b038381166001600160a01b0319831681179093556040519116919082907f8be0079c531659141344cd1fd0a4f28419497f9722a3daafe3b4186f6b6457e090600090a35050565b8280546200012090620001b8565b90600052602060002090601f0160209004810192826200014457600085556200018f565b82601f106200015f57805160ff19168380011785556200018f565b828001600101855582156200018f579182015b828111156200018f57825182559160200191906001019062000172565b506200019d929150620001a1565b5090565b5b808211156200019d5760008155600101620001a2565b600281046001821680620001cd57607f821691505b60208210811415620001ef57634e487b7160e01b600052602260045260246000fd5b50919050565b61271c80620002056000396000f3fe6080604052600436106102045760003560e01c80636c0360eb11610118578063a475b5dd116100a0578063d5abeb011161006f578063d5abeb0114610577578063e985e9c51461058c578063eb8d2444146105ac578063f2fde38b146105c1578063f7e8d6ea146105e157610204565b8063a475b5dd1461050d578063b88d4fde14610522578063bde708f414610542578063c87b56dd1461055757610204565b80637d9a7a4c116100e75780637d9a7a4c146104905780638da5cb5b146104b057806395d89b41146104c5578063a0712d68146104da578063a22cb465146104ed57610204565b80636c0360eb146104265780636f8b44b01461043b57806370a082311461045b578063715018a61461047b57610204565b8063326d43881161019b5780634f6ccce71161016a5780634f6ccce71461039157806351830227146103b157806355f804b3146103c657806360a896c7146103e65780636352211e1461040657610204565b8063326d43881461032757806334918dfd146103475780633ccfd60b1461035c57806342842e0e1461037157610204565b80630d39fc81116101d75780630d39fc81146102b057806318160ddd146102d257806323b872dd146102e75780632f745c591461030757610204565b806301ffc9a71461020957806306fdde031461023f578063081812fc14610261578063095ea7b31461028e575b600080fd5b34801561021557600080fd5b50610229610224366004611d08565b6105f6565b6040516102369190611ef6565b60405180910390f35b34801561024b57600080fd5b50610254610623565b6040516102369190611f01565b34801561026d57600080fd5b5061028161027c366004611d86565b6106b5565b6040516102369190611ea5565b34801561029a57600080fd5b506102ae6102a9366004611cdf565b610701565b005b3480156102bc57600080fd5b506102c5610799565b6040516102369190612581565b3480156102de57600080fd5b506102c561079f565b3480156102f357600080fd5b506102ae610302366004611bf1565b6107a5565b34801561031357600080fd5b506102c5610322366004611cdf565b6107dd565b34801561033357600080fd5b506102ae610342366004611d40565b61082f565b34801561035357600080fd5b506102ae610885565b34801561036857600080fd5b506102ae6108d8565b34801561037d57600080fd5b506102ae61038c366004611bf1565b610946565b34801561039d57600080fd5b506102c56103ac366004611d86565b610961565b3480156103bd57600080fd5b506102296109bc565b3480156103d257600080fd5b506102ae6103e1366004611d40565b6109ca565b3480156103f257600080fd5b506102ae610401366004611d86565b610a1c565b34801561041257600080fd5b50610281610421366004611d86565b610a60565b34801561043257600080fd5b50610254610a95565b34801561044757600080fd5b506102ae610456366004611d86565b610b23565b34801561046757600080fd5b506102c5610476366004611ba5565b610b67565b34801561048757600080fd5b506102ae610bab565b34801561049c57600080fd5b506102ae6104ab366004611d86565b610bf6565b3480156104bc57600080fd5b50610281610c3a565b3480156104d157600080fd5b50610254610c49565b6102ae6104e8366004611d86565b610c58565b3480156104f957600080fd5b506102ae610508366004611ca5565b610dff565b34801561051957600080fd5b506102ae610ecd565b34801561052e57600080fd5b506102ae61053d366004611c2c565b610f1d565b34801561054e57600080fd5b506102c5610f5c565b34801561056357600080fd5b50610254610572366004611d86565b610f62565b34801561058357600080fd5b506102c561105c565b34801561059857600080fd5b506102296105a7366004611bbf565b611062565b3480156105b857600080fd5b50610229611090565b3480156105cd57600080fd5b506102ae6105dc366004611ba5565b611099565b3480156105ed57600080fd5b50610254611107565b60006001600160e01b0319821663780e9d6360e01b148061061b575061061b82611114565b90505b919050565b60606000805461063290612624565b80601f016020809104026020016040519081016040528092919081815260200182805461065e90612624565b80156106ab5780601f10610680576101008083540402835291602001916106ab565b820191906000526020600020905b81548152906001019060200180831161068e57829003601f168201915b5050505050905090565b60006106c082611154565b6106e55760405162461bcd60e51b81526004016106dc9061237c565b60405180910390fd5b506000908152600460205260409020546001600160a01b031690565b600061070c82610a60565b9050806001600160a01b0316836001600160a01b031614156107405760405162461bcd60e51b81526004016106dc906124a3565b806001600160a01b0316610752611171565b6001600160a01b0316148061076e575061076e816105a7611171565b61078a5760405162461bcd60e51b81526004016106dc90612257565b6107948383611175565b505050565b600b5481565b60085490565b6107b66107b0611171565b826111e3565b6107d25760405162461bcd60e51b81526004016106dc906124e4565b610794838383611268565b60006107e883610b67565b82106108065760405162461bcd60e51b81526004016106dc90611f14565b506001600160a01b03919091166000908152600660209081526040808320938352929052205490565b610837611171565b6001600160a01b0316610848610c3a565b6001600160a01b03161461086e5760405162461bcd60e51b81526004016106dc906123c8565b8051610881906010906020840190611a85565b5050565b61088d611171565b6001600160a01b031661089e610c3a565b6001600160a01b0316146108c45760405162461bcd60e51b81526004016106dc906123c8565b600e805460ff19811660ff90911615179055565b6108e0611171565b6001600160a01b03166108f1610c3a565b6001600160a01b0316146109175760405162461bcd60e51b81526004016106dc906123c8565b6040514790339082156108fc029083906000818181858888f19350505050158015610881573d6000803e3d6000fd5b61079483838360405180602001604052806000815250610f1d565b600061096b61079f565b82106109895760405162461bcd60e51b81526004016106dc90612535565b600882815481106109aa57634e487b7160e01b600052603260045260246000fd5b90600052602060002001549050919050565b600e54610100900460ff1681565b6109d2611171565b6001600160a01b03166109e3610c3a565b6001600160a01b031614610a095760405162461bcd60e51b81526004016106dc906123c8565b805161088190600f906020840190611a85565b610a24611171565b6001600160a01b0316610a35610c3a565b6001600160a01b031614610a5b5760405162461bcd60e51b81526004016106dc906123c8565b600c55565b6000818152600260205260408120546001600160a01b03168061061b5760405162461bcd60e51b81526004016106dc906122fe565b600f8054610aa290612624565b80601f0160208091040260200160405190810160405280929190818152602001828054610ace90612624565b8015610b1b5780601f10610af057610100808354040283529160200191610b1b565b820191906000526020600020905b815481529060010190602001808311610afe57829003601f168201915b505050505081565b610b2b611171565b6001600160a01b0316610b3c610c3a565b6001600160a01b031614610b625760405162461bcd60e51b81526004016106dc906123c8565b600d55565b60006001600160a01b038216610b8f5760405162461bcd60e51b81526004016106dc906122b4565b506001600160a01b031660009081526003602052604090205490565b610bb3611171565b6001600160a01b0316610bc4610c3a565b6001600160a01b031614610bea5760405162461bcd60e51b81526004016106dc906123c8565b610bf46000611395565b565b610bfe611171565b6001600160a01b0316610c0f610c3a565b6001600160a01b031614610c355760405162461bcd60e51b81526004016106dc906123c8565b600b55565b600a546001600160a01b031690565b60606001805461063290612624565b60008111610c785760405162461bcd60e51b81526004016106dc9061202e565b600d54610c8d82610c8761079f565b906113e7565b1115610cab5760405162461bcd60e51b81526004016106dc90612446565b610cb3610c3a565b6001600160a01b0316336001600160a01b031614610daa576102ee610cd661079f565b1115610d0957600b543490610ceb90836113fa565b1115610d095760405162461bcd60e51b81526004016106dc9061215a565b600c54811115610d2b5760405162461bcd60e51b81526004016106dc9061208b565b600e5460ff16610d4d5760405162461bcd60e51b81526004016106dc90612220565b60005b81811015610da4576000610d6261079f565b9050600d54610d6f61079f565b1015610d9157610d7f3382611406565b610d9181610d8c83610f62565b611420565b5080610d9c8161265f565b915050610d50565b50610dfc565b60005b81811015610881576000610dbf61079f565b9050600d54610dcc61079f565b1015610de957610ddc3382611406565b610de981610d8c83610f62565b5080610df48161265f565b915050610dad565b50565b610e07611171565b6001600160a01b0316826001600160a01b03161415610e385760405162461bcd60e51b81526004016106dc90612123565b8060056000610e45611171565b6001600160a01b03908116825260208083019390935260409182016000908120918716808252919093529120805460ff191692151592909217909155610e89611171565b6001600160a01b03167f17307eab39ab6107e8899845ad3d59bd9653f200f220920489ca2b5937696c3183604051610ec19190611ef6565b60405180910390a35050565b610ed5611171565b6001600160a01b0316610ee6610c3a565b6001600160a01b031614610f0c5760405162461bcd60e51b81526004016106dc906123c8565b600e805461ff001916610100179055565b610f2e610f28611171565b836111e3565b610f4a5760405162461bcd60e51b81526004016106dc906124e4565b610f5684848484611464565b50505050565b600c5481565b6060610f6d82611154565b610f895760405162461bcd60e51b81526004016106dc906121a6565b600e54610100900460ff1661102a5760108054610fa590612624565b80601f0160208091040260200160405190810160405280929190818152602001828054610fd190612624565b801561101e5780601f10610ff35761010080835404028352916020019161101e565b820191906000526020600020905b81548152906001019060200180831161100157829003601f168201915b5050505050905061061e565b600f61103583611497565b604051602001611046929190611df7565b6040516020818303038152906040529050919050565b600d5481565b6001600160a01b03918216600090815260056020908152604080832093909416825291909152205460ff1690565b600e5460ff1681565b6110a1611171565b6001600160a01b03166110b2610c3a565b6001600160a01b0316146110d85760405162461bcd60e51b81526004016106dc906123c8565b6001600160a01b0381166110fe5760405162461bcd60e51b81526004016106dc90611fb1565b610dfc81611395565b60108054610aa290612624565b60006001600160e01b031982166380ac58cd60e01b148061114557506001600160e01b03198216635b5e139f60e01b145b8061061b575061061b826115b2565b6000908152600260205260409020546001600160a01b0316151590565b3390565b600081815260046020526040902080546001600160a01b0319166001600160a01b03841690811790915581906111aa82610a60565b6001600160a01b03167f8c5be1e5ebec7d5bd14f71427d1e84f3dd0314c0f7b2291e5b200ac8c7c3b92560405160405180910390a45050565b60006111ee82611154565b61120a5760405162461bcd60e51b81526004016106dc906121d4565b600061121583610a60565b9050806001600160a01b0316846001600160a01b031614806112505750836001600160a01b0316611245846106b5565b6001600160a01b0316145b8061126057506112608185611062565b949350505050565b826001600160a01b031661127b82610a60565b6001600160a01b0316146112a15760405162461bcd60e51b81526004016106dc906123fd565b6001600160a01b0382166112c75760405162461bcd60e51b81526004016106dc906120df565b6112d28383836115cb565b6112dd600082611175565b6001600160a01b03831660009081526003602052604081208054600192906113069084906125e1565b90915550506001600160a01b0382166000908152600360205260408120805460019290611334908490612596565b909155505060008181526002602052604080822080546001600160a01b0319166001600160a01b0386811691821790925591518493918716917fddf252ad1be2c89b69c2b068fc378daa952ba7f163c4a11628f55a4df523b3ef91a4505050565b600a80546001600160a01b038381166001600160a01b0319831681179093556040519116919082907f8be0079c531659141344cd1fd0a4f28419497f9722a3daafe3b4186f6b6457e090600090a35050565b60006113f38284612596565b9392505050565b60006113f382846125c2565b610881828260405180602001604052806000815250611654565b61142982611154565b6114455760405162461bcd60e51b81526004016106dc906121a6565b6000828152601160209081526040909120825161079492840190611a85565b61146f848484611268565b61147b84848484611687565b610f565760405162461bcd60e51b81526004016106dc90611f5f565b6060816114bc57506040805180820190915260018152600360fc1b602082015261061e565b8160005b81156114e657806114d08161265f565b91506114df9050600a836125ae565b91506114c0565b60008167ffffffffffffffff81111561150f57634e487b7160e01b600052604160045260246000fd5b6040519080825280601f01601f191660200182016040528015611539576020820181803683370190505b5090505b84156112605761154e6001836125e1565b915061155b600a8661267a565b611566906030612596565b60f81b81838151811061158957634e487b7160e01b600052603260045260246000fd5b60200101906001600160f81b031916908160001a9053506115ab600a866125ae565b945061153d565b6001600160e01b031981166301ffc9a760e01b14919050565b6115d6838383610794565b6001600160a01b0383166115f2576115ed816117a2565b611615565b816001600160a01b0316836001600160a01b0316146116155761161583826117e6565b6001600160a01b0382166116315761162c81611883565b610794565b826001600160a01b0316826001600160a01b03161461079457610794828261195c565b61165e83836119a0565b61166b6000848484611687565b6107945760405162461bcd60e51b81526004016106dc90611f5f565b600061169b846001600160a01b0316611a7f565b1561179757836001600160a01b031663150b7a026116b7611171565b8786866040518563ffffffff1660e01b81526004016116d99493929190611eb9565b602060405180830381600087803b1580156116f357600080fd5b505af1925050508015611723575060408051601f3d908101601f1916820190925261172091810190611d24565b60015b61177d573d808015611751576040519150601f19603f3d011682016040523d82523d6000602084013e611756565b606091505b5080516117755760405162461bcd60e51b81526004016106dc90611f5f565b805181602001fd5b6001600160e01b031916630a85bd0160e11b149050611260565b506001949350505050565b600880546000838152600960205260408120829055600182018355919091527ff3f7a9fe364faab93b216da50a3214154f22a0a2b415b23a84c8169e8b636ee30155565b600060016117f384610b67565b6117fd91906125e1565b600083815260076020526040902054909150808214611850576001600160a01b03841660009081526006602090815260408083208584528252808320548484528184208190558352600790915290208190555b5060009182526007602090815260408084208490556001600160a01b039094168352600681528383209183525290812055565b600854600090611895906001906125e1565b600083815260096020526040812054600880549394509092849081106118cb57634e487b7160e01b600052603260045260246000fd5b9060005260206000200154905080600883815481106118fa57634e487b7160e01b600052603260045260246000fd5b600091825260208083209091019290925582815260099091526040808220849055858252812055600880548061194057634e487b7160e01b600052603160045260246000fd5b6001900381819060005260206000200160009055905550505050565b600061196783610b67565b6001600160a01b039093166000908152600660209081526040808320868452825280832085905593825260079052919091209190915550565b6001600160a01b0382166119c65760405162461bcd60e51b81526004016106dc90612347565b6119cf81611154565b156119ec5760405162461bcd60e51b81526004016106dc90611ff7565b6119f8600083836115cb565b6001600160a01b0382166000908152600360205260408120805460019290611a21908490612596565b909155505060008181526002602052604080822080546001600160a01b0319166001600160a01b03861690811790915590518392907fddf252ad1be2c89b69c2b068fc378daa952ba7f163c4a11628f55a4df523b3ef908290a45050565b3b151590565b828054611a9190612624565b90600052602060002090601f016020900481019282611ab35760008555611af9565b82601f10611acc57805160ff1916838001178555611af9565b82800160010185558215611af9579182015b82811115611af9578251825591602001919060010190611ade565b50611b05929150611b09565b5090565b5b80821115611b055760008155600101611b0a565b600067ffffffffffffffff80841115611b3957611b396126ba565b604051601f8501601f191681016020018281118282101715611b5d57611b5d6126ba565b604052848152915081838501861015611b7557600080fd5b8484602083013760006020868301015250509392505050565b80356001600160a01b038116811461061e57600080fd5b600060208284031215611bb6578081fd5b6113f382611b8e565b60008060408385031215611bd1578081fd5b611bda83611b8e565b9150611be860208401611b8e565b90509250929050565b600080600060608486031215611c05578081fd5b611c0e84611b8e565b9250611c1c60208501611b8e565b9150604084013590509250925092565b60008060008060808587031215611c41578081fd5b611c4a85611b8e565b9350611c5860208601611b8e565b925060408501359150606085013567ffffffffffffffff811115611c7a578182fd5b8501601f81018713611c8a578182fd5b611c9987823560208401611b1e565b91505092959194509250565b60008060408385031215611cb7578182fd5b611cc083611b8e565b915060208301358015158114611cd4578182fd5b809150509250929050565b60008060408385031215611cf1578182fd5b611cfa83611b8e565b946020939093013593505050565b600060208284031215611d19578081fd5b81356113f3816126d0565b600060208284031215611d35578081fd5b81516113f3816126d0565b600060208284031215611d51578081fd5b813567ffffffffffffffff811115611d67578182fd5b8201601f81018413611d77578182fd5b61126084823560208401611b1e565b600060208284031215611d97578081fd5b5035919050565b60008151808452611db68160208601602086016125f8565b601f01601f19169290920160200192915050565b60008151611ddc8185602086016125f8565b9290920192915050565b64173539b7b760d91b815260050190565b8254600090819060028104600180831680611e1357607f831692505b6020808410821415611e3357634e487b7160e01b87526022600452602487fd5b818015611e475760018114611e5857611e84565b60ff19861689528489019650611e84565b611e618b61258a565b885b86811015611e7c5781548b820152908501908301611e63565b505084890196505b505050505050611e9c611e978286611dca565b611de6565b95945050505050565b6001600160a01b0391909116815260200190565b6001600160a01b0385811682528416602082015260408101839052608060608201819052600090611eec90830184611d9e565b9695505050505050565b901515815260200190565b6000602082526113f36020830184611d9e565b6020808252602b908201527f455243373231456e756d657261626c653a206f776e657220696e646578206f7560408201526a74206f6620626f756e647360a81b606082015260800190565b60208082526032908201527f4552433732313a207472616e7366657220746f206e6f6e20455243373231526560408201527131b2b4bb32b91034b6b83632b6b2b73a32b960711b606082015260800190565b60208082526026908201527f4f776e61626c653a206e6577206f776e657220697320746865207a65726f206160408201526564647265737360d01b606082015260800190565b6020808252601c908201527f4552433732313a20746f6b656e20616c7265616479206d696e74656400000000604082015260600190565b60208082526037908201527f546865206e756d626572206f6620746f6b656e732063616e206e6f742062652060408201527f6c657373207468616e206f7220657175616c20746f2030000000000000000000606082015260800190565b60208082526034908201527f54686520636f6e74726163742063616e206f6e6c79206d696e7420757020746f60408201527320313220746f6b656e7320617420612074696d6560601b606082015260800190565b60208082526024908201527f4552433732313a207472616e7366657220746f20746865207a65726f206164646040820152637265737360e01b606082015260800190565b60208082526019908201527f4552433732313a20617070726f766520746f2063616c6c657200000000000000604082015260600190565b6020808252602c908201527f54686520636f6e747261637420646964206e6f74207265636569766520656e6f60408201526b75676820457468657265756d60a01b606082015260800190565b602080825260149082015273151bdad95b88191bd95cc81b9bdd08195e1a5cdd60621b604082015260600190565b6020808252602c908201527f4552433732313a206f70657261746f7220717565727920666f72206e6f6e657860408201526b34b9ba32b73a103a37b5b2b760a11b606082015260800190565b6020808252601f908201527f54686520636f6e74726163742073616c65206973206e6f742061637469766500604082015260600190565b60208082526038908201527f4552433732313a20617070726f76652063616c6c6572206973206e6f74206f7760408201527f6e6572206e6f7220617070726f76656420666f7220616c6c0000000000000000606082015260800190565b6020808252602a908201527f4552433732313a2062616c616e636520717565727920666f7220746865207a65604082015269726f206164647265737360b01b606082015260800190565b60208082526029908201527f4552433732313a206f776e657220717565727920666f72206e6f6e657869737460408201526832b73a103a37b5b2b760b91b606082015260800190565b6020808252818101527f4552433732313a206d696e7420746f20746865207a65726f2061646472657373604082015260600190565b6020808252602c908201527f4552433732313a20617070726f76656420717565727920666f72206e6f6e657860408201526b34b9ba32b73a103a37b5b2b760a11b606082015260800190565b6020808252818101527f4f776e61626c653a2063616c6c6572206973206e6f7420746865206f776e6572604082015260600190565b60208082526029908201527f4552433732313a207472616e73666572206f6620746f6b656e2074686174206960408201526839903737ba1037bbb760b91b606082015260800190565b6020808252603a908201527f54686520707572636861736520776f756c642065786365656420746865206d6160408201527f7820737570706c79206f662042616279506978656c446f6f6473000000000000606082015260800190565b60208082526021908201527f4552433732313a20617070726f76616c20746f2063757272656e74206f776e656040820152603960f91b606082015260800190565b60208082526031908201527f4552433732313a207472616e736665722063616c6c6572206973206e6f74206f6040820152701ddb995c881b9bdc88185c1c1c9bdd9959607a1b606082015260800190565b6020808252602c908201527f455243373231456e756d657261626c653a20676c6f62616c20696e646578206f60408201526b7574206f6620626f756e647360a01b606082015260800190565b90815260200190565b60009081526020902090565b600082198211156125a9576125a961268e565b500190565b6000826125bd576125bd6126a4565b500490565b60008160001904831182151516156125dc576125dc61268e565b500290565b6000828210156125f3576125f361268e565b500390565b60005b838110156126135781810151838201526020016125fb565b83811115610f565750506000910152565b60028104600182168061263857607f821691505b6020821081141561265957634e487b7160e01b600052602260045260246000fd5b50919050565b60006000198214156126735761267361268e565b5060010190565b600082612689576126896126a4565b500690565b634e487b7160e01b600052601160045260246000fd5b634e487b7160e01b600052601260045260246000fd5b634e487b7160e01b600052604160045260246000fd5b6001600160e01b031981168114610dfc57600080fdfea2646970667358221220824a6f33765802a41c0ebf2565cd899b65d264248e1614cc4100a3cdc904d63f64736f6c63430008000033",
  "immutableReferences": {},
  "source": "// SPDX-License-Identifier: MIT\npragma solidity ^0.8.0;\n\n// import statements\nimport \"@openzeppelin/contracts/token/ERC721/ERC721.sol\";\nimport \"@openzeppelin/contracts/access/Ownable.sol\";\nimport \"@openzeppelin/contracts/utils/math/SafeMath.sol\";\nimport \"@openzeppelin/contracts/token/ERC721/extensions/ERC721Enumerable.sol\";\n\n// contract class\n// TODO BabyPixelDoodz\ncontract BabyPixelDoods is ERC721Enumerable, Ownable {\n    // utilities\n    using Strings for uint256;\n    using SafeMath for uint256;\n\n    // uint256\n    uint256 public nftPrice = 30000000000000000;\n    uint256 public maxNftPurchase = 12;\n    uint256 public maxSupply = 3750;\n\n    // booleans\n    bool public saleIsActive = false; // false\n    bool public revealed = false;\n\n    // strings\n    // TODO change baseURI to private?\n    string public baseURI;\n    string public revealedURI;\n\n    // mappings\n    mapping(uint256 => string) _tokenURIs;\n\n    // contract constructor\n    constructor() ERC721(\"BabyPixelDoods\", \"BPD\") {}\n\n    // get functions\n    function getBaseURI() internal view virtual returns (string memory) {\n        return baseURI;\n    }\n\n    // set functions\n    function setBaseURI(string memory baseURI_) external onlyOwner {\n        baseURI = baseURI_;\n    }\n\n    function setRevealedURI(string memory revealedURI_) external onlyOwner {\n        revealedURI = revealedURI_;\n    }\n\n    function setMaxNftPurchase(uint256 _maxNftPurchase) public onlyOwner {\n        maxNftPurchase = _maxNftPurchase;\n    }\n\n    function setNftPrice(uint256 _nftPrice) public onlyOwner {\n        nftPrice = _nftPrice;\n    }\n\n    function setMaxSupply(uint256 _maxSupply) public onlyOwner {\n        maxSupply = _maxSupply;\n    }\n\n    function reveal() public onlyOwner {\n        revealed = true;\n    }\n\n    function flipSaleState() public onlyOwner {\n        saleIsActive = !saleIsActive;\n    }\n\n    function _setTokenURI(uint256 tokenId, string memory _tokenURI)\n        internal\n        virtual\n    {\n        require(_exists(tokenId), \"Token does not exist\");\n        _tokenURIs[tokenId] = _tokenURI;\n    }\n\n    // unnecessarily long mint function\n    function mint(uint256 numberOfTokens) public payable {\n        require(\n            numberOfTokens > 0,\n            \"The number of tokens can not be less than or equal to 0\"\n        );\n        require(\n            totalSupply().add(numberOfTokens) <= maxSupply,\n            \"The purchase would exceed the max supply of BabyPixelDoods\"\n        );\n\n        if (msg.sender != owner()) {\n            if (totalSupply() > 750) {\n                require(\n                    nftPrice.mul(numberOfTokens) <= msg.value,\n                    \"The contract did not receive enough Ethereum\"\n                );\n            }\n\n            require(\n                numberOfTokens <= maxNftPurchase,\n                \"The contract can only mint up to 12 tokens at a time\"\n            );\n\n            require(saleIsActive, \"The contract sale is not active\");\n\n            for (uint256 i = 0; i < numberOfTokens; i++) {\n                uint256 newId = totalSupply();\n                if (totalSupply() < maxSupply) {\n                    _safeMint(msg.sender, newId);\n                    _setTokenURI(newId, tokenURI(newId));\n                }\n            }\n        } else {\n            for (uint256 i = 0; i < numberOfTokens; i++) {\n                uint256 newId = totalSupply();\n                if (totalSupply() < maxSupply) {\n                    _safeMint(msg.sender, newId);\n                    _setTokenURI(newId, tokenURI(newId));\n                }\n            }\n        }\n    }\n\n    // token URI retriever\n    function tokenURI(uint256 tokenId)\n        public\n        view\n        virtual\n        override\n        returns (string memory)\n    {\n        require(_exists(tokenId), \"Token does not exist\");\n        if (revealed == false) {\n            return revealedURI;\n        }\n\n        return string(abi.encodePacked(baseURI, tokenId.toString(), \".json\"));\n    }\n\n    // classic withdraw function\n    function withdraw() public onlyOwner {\n        uint256 balance = address(this).balance;\n        payable(msg.sender).transfer(balance);\n    }\n}\n",
  "sourcePath": "/Users/ishreetbhullar/Documents/coding-folder/BabyPixelDoods/contracts/BabyPixelDoods.sol",
  "compiler": {
    "name": "solc",
    "version": "0.8.0+commit.c7dfd78e.Emscripten.clang"
  },
  "schemaVersion": "3.4.3",
  "updatedAt": "2022-01-11T05:23:27.793Z",
  "networkType": "ethereum",
  "devdoc": {
    "kind": "dev",
    "methods": {
      "approve(address,uint256)": {
        "details": "See {IERC721-approve}."
      },
      "balanceOf(address)": {
        "details": "See {IERC721-balanceOf}."
      },
      "getApproved(uint256)": {
        "details": "See {IERC721-getApproved}."
      },
      "isApprovedForAll(address,address)": {
        "details": "See {IERC721-isApprovedForAll}."
      },
      "name()": {
        "details": "See {IERC721Metadata-name}."
      },
      "owner()": {
        "details": "Returns the address of the current owner."
      },
      "ownerOf(uint256)": {
        "details": "See {IERC721-ownerOf}."
      },
      "renounceOwnership()": {
        "details": "Leaves the contract without owner. It will not be possible to call `onlyOwner` functions anymore. Can only be called by the current owner. NOTE: Renouncing ownership will leave the contract without an owner, thereby removing any functionality that is only available to the owner."
      },
      "safeTransferFrom(address,address,uint256)": {
        "details": "See {IERC721-safeTransferFrom}."
      },
      "safeTransferFrom(address,address,uint256,bytes)": {
        "details": "See {IERC721-safeTransferFrom}."
      },
      "setApprovalForAll(address,bool)": {
        "details": "See {IERC721-setApprovalForAll}."
      },
      "supportsInterface(bytes4)": {
        "details": "See {IERC165-supportsInterface}."
      },
      "symbol()": {
        "details": "See {IERC721Metadata-symbol}."
      },
      "tokenByIndex(uint256)": {
        "details": "See {IERC721Enumerable-tokenByIndex}."
      },
      "tokenOfOwnerByIndex(address,uint256)": {
        "details": "See {IERC721Enumerable-tokenOfOwnerByIndex}."
      },
      "tokenURI(uint256)": {
        "details": "See {IERC721Metadata-tokenURI}."
      },
      "totalSupply()": {
        "details": "See {IERC721Enumerable-totalSupply}."
      },
      "transferFrom(address,address,uint256)": {
        "details": "See {IERC721-transferFrom}."
      },
      "transferOwnership(address)": {
        "details": "Transfers ownership of the contract to a new account (`newOwner`). Can only be called by the current owner."
      }
    },
    "version": 1
  },
  "userdoc": {
    "kind": "user",
    "methods": {},
    "version": 1
  }
}