{
  "contractName": "BabyPixelDoods",
  "abi": [
    {
      "inputs": [],
      "stateMutability": "nonpayable",
      "type": "constructor"
    },
    {
      "anonymous": false,
      "inputs": [
        {
          "indexed": true,
          "internalType": "address",
          "name": "owner",
          "type": "address"
        },
        {
          "indexed": true,
          "internalType": "address",
          "name": "approved",
          "type": "address"
        },
        {
          "indexed": true,
          "internalType": "uint256",
          "name": "tokenId",
          "type": "uint256"
        }
      ],
      "name": "Approval",
      "type": "event"
    },
    {
      "anonymous": false,
      "inputs": [
        {
          "indexed": true,
          "internalType": "address",
          "name": "owner",
          "type": "address"
        },
        {
          "indexed": true,
          "internalType": "address",
          "name": "operator",
          "type": "address"
        },
        {
          "indexed": false,
          "internalType": "bool",
          "name": "approved",
          "type": "bool"
        }
      ],
      "name": "ApprovalForAll",
      "type": "event"
    },
    {
      "anonymous": false,
      "inputs": [
        {
          "indexed": true,
          "internalType": "address",
          "name": "previousOwner",
          "type": "address"
        },
        {
          "indexed": true,
          "internalType": "address",
          "name": "newOwner",
          "type": "address"
        }
      ],
      "name": "OwnershipTransferred",
      "type": "event"
    },
    {
      "anonymous": false,
      "inputs": [
        {
          "indexed": true,
          "internalType": "address",
          "name": "from",
          "type": "address"
        },
        {
          "indexed": true,
          "internalType": "address",
          "name": "to",
          "type": "address"
        },
        {
          "indexed": true,
          "internalType": "uint256",
          "name": "tokenId",
          "type": "uint256"
        }
      ],
      "name": "Transfer",
      "type": "event"
    },
    {
      "inputs": [
        {
          "internalType": "address",
          "name": "to",
          "type": "address"
        },
        {
          "internalType": "uint256",
          "name": "tokenId",
          "type": "uint256"
        }
      ],
      "name": "approve",
      "outputs": [],
      "stateMutability": "nonpayable",
      "type": "function"
    },
    {
      "inputs": [
        {
          "internalType": "address",
          "name": "owner",
          "type": "address"
        }
      ],
      "name": "balanceOf",
      "outputs": [
        {
          "internalType": "uint256",
          "name": "",
          "type": "uint256"
        }
      ],
      "stateMutability": "view",
      "type": "function",
      "constant": true
    },
    {
      "inputs": [],
      "name": "baseURI",
      "outputs": [
        {
          "internalType": "string",
          "name": "",
          "type": "string"
        }
      ],
      "stateMutability": "view",
      "type": "function",
      "constant": true
    },
    {
      "inputs": [
        {
          "internalType": "uint256",
          "name": "tokenId",
          "type": "uint256"
        }
      ],
      "name": "getApproved",
      "outputs": [
        {
          "internalType": "address",
          "name": "",
          "type": "address"
        }
      ],
      "stateMutability": "view",
      "type": "function",
      "constant": true
    },
    {
      "inputs": [
        {
          "internalType": "address",
          "name": "owner",
          "type": "address"
        },
        {
          "internalType": "address",
          "name": "operator",
          "type": "address"
        }
      ],
      "name": "isApprovedForAll",
      "outputs": [
        {
          "internalType": "bool",
          "name": "",
          "type": "bool"
        }
      ],
      "stateMutability": "view",
      "type": "function",
      "constant": true
    },
    {
      "inputs": [],
      "name": "maxNftPurchase",
      "outputs": [
        {
          "internalType": "uint256",
          "name": "",
          "type": "uint256"
        }
      ],
      "stateMutability": "view",
      "type": "function",
      "constant": true
    },
    {
      "inputs": [],
      "name": "maxSupply",
      "outputs": [
        {
          "internalType": "uint256",
          "name": "",
          "type": "uint256"
        }
      ],
      "stateMutability": "view",
      "type": "function",
      "constant": true
    },
    {
      "inputs": [],
      "name": "name",
      "outputs": [
        {
          "internalType": "string",
          "name": "",
          "type": "string"
        }
      ],
      "stateMutability": "view",
      "type": "function",
      "constant": true
    },
    {
      "inputs": [],
      "name": "nftPrice",
      "outputs": [
        {
          "internalType": "uint256",
          "name": "",
          "type": "uint256"
        }
      ],
      "stateMutability": "view",
      "type": "function",
      "constant": true
    },
    {
      "inputs": [],
      "name": "owner",
      "outputs": [
        {
          "internalType": "address",
          "name": "",
          "type": "address"
        }
      ],
      "stateMutability": "view",
      "type": "function",
      "constant": true
    },
    {
      "inputs": [
        {
          "internalType": "uint256",
          "name": "tokenId",
          "type": "uint256"
        }
      ],
      "name": "ownerOf",
      "outputs": [
        {
          "internalType": "address",
          "name": "",
          "type": "address"
        }
      ],
      "stateMutability": "view",
      "type": "function",
      "constant": true
    },
    {
      "inputs": [],
      "name": "renounceOwnership",
      "outputs": [],
      "stateMutability": "nonpayable",
      "type": "function"
    },
    {
      "inputs": [],
      "name": "revealed",
      "outputs": [
        {
          "internalType": "bool",
          "name": "",
          "type": "bool"
        }
      ],
      "stateMutability": "view",
      "type": "function",
      "constant": true
    },
    {
      "inputs": [],
      "name": "revealedURI",
      "outputs": [
        {
          "internalType": "string",
          "name": "",
          "type": "string"
        }
      ],
      "stateMutability": "view",
      "type": "function",
      "constant": true
    },
    {
      "inputs": [
        {
          "internalType": "address",
          "name": "from",
          "type": "address"
        },
        {
          "internalType": "address",
          "name": "to",
          "type": "address"
        },
        {
          "internalType": "uint256",
          "name": "tokenId",
          "type": "uint256"
        }
      ],
      "name": "safeTransferFrom",
      "outputs": [],
      "stateMutability": "nonpayable",
      "type": "function"
    },
    {
      "inputs": [
        {
          "internalType": "address",
          "name": "from",
          "type": "address"
        },
        {
          "internalType": "address",
          "name": "to",
          "type": "address"
        },
        {
          "internalType": "uint256",
          "name": "tokenId",
          "type": "uint256"
        },
        {
          "internalType": "bytes",
          "name": "_data",
          "type": "bytes"
        }
      ],
      "name": "safeTransferFrom",
      "outputs": [],
      "stateMutability": "nonpayable",
      "type": "function"
    },
    {
      "inputs": [],
      "name": "saleIsActive",
      "outputs": [
        {
          "internalType": "bool",
          "name": "",
          "type": "bool"
        }
      ],
      "stateMutability": "view",
      "type": "function",
      "constant": true
    },
    {
      "inputs": [
        {
          "internalType": "address",
          "name": "operator",
          "type": "address"
        },
        {
          "internalType": "bool",
          "name": "approved",
          "type": "bool"
        }
      ],
      "name": "setApprovalForAll",
      "outputs": [],
      "stateMutability": "nonpayable",
      "type": "function"
    },
    {
      "inputs": [
        {
          "internalType": "bytes4",
          "name": "interfaceId",
          "type": "bytes4"
        }
      ],
      "name": "supportsInterface",
      "outputs": [
        {
          "internalType": "bool",
          "name": "",
          "type": "bool"
        }
      ],
      "stateMutability": "view",
      "type": "function",
      "constant": true
    },
    {
      "inputs": [],
      "name": "symbol",
      "outputs": [
        {
          "internalType": "string",
          "name": "",
          "type": "string"
        }
      ],
      "stateMutability": "view",
      "type": "function",
      "constant": true
    },
    {
      "inputs": [
        {
          "internalType": "uint256",
          "name": "index",
          "type": "uint256"
        }
      ],
      "name": "tokenByIndex",
      "outputs": [
        {
          "internalType": "uint256",
          "name": "",
          "type": "uint256"
        }
      ],
      "stateMutability": "view",
      "type": "function",
      "constant": true
    },
    {
      "inputs": [
        {
          "internalType": "address",
          "name": "owner",
          "type": "address"
        },
        {
          "internalType": "uint256",
          "name": "index",
          "type": "uint256"
        }
      ],
      "name": "tokenOfOwnerByIndex",
      "outputs": [
        {
          "internalType": "uint256",
          "name": "",
          "type": "uint256"
        }
      ],
      "stateMutability": "view",
      "type": "function",
      "constant": true
    },
    {
      "inputs": [],
      "name": "totalSupply",
      "outputs": [
        {
          "internalType": "uint256",
          "name": "",
          "type": "uint256"
        }
      ],
      "stateMutability": "view",
      "type": "function",
      "constant": true
    },
    {
      "inputs": [
        {
          "internalType": "address",
          "name": "from",
          "type": "address"
        },
        {
          "internalType": "address",
          "name": "to",
          "type": "address"
        },
        {
          "internalType": "uint256",
          "name": "tokenId",
          "type": "uint256"
        }
      ],
      "name": "transferFrom",
      "outputs": [],
      "stateMutability": "nonpayable",
      "type": "function"
    },
    {
      "inputs": [
        {
          "internalType": "address",
          "name": "newOwner",
          "type": "address"
        }
      ],
      "name": "transferOwnership",
      "outputs": [],
      "stateMutability": "nonpayable",
      "type": "function"
    },
    {
      "inputs": [
        {
          "internalType": "string",
          "name": "baseURI_",
          "type": "string"
        }
      ],
      "name": "setBaseURI",
      "outputs": [],
      "stateMutability": "nonpayable",
      "type": "function"
    },
    {
      "inputs": [
        {
          "internalType": "string",
          "name": "revealedURI_",
          "type": "string"
        }
      ],
      "name": "setRevealedURI",
      "outputs": [],
      "stateMutability": "nonpayable",
      "type": "function"
    },
    {
      "inputs": [
        {
          "internalType": "uint256",
          "name": "_maxNftPurchase",
          "type": "uint256"
        }
      ],
      "name": "setMaxNftPurchase",
      "outputs": [],
      "stateMutability": "nonpayable",
      "type": "function"
    },
    {
      "inputs": [
        {
          "internalType": "uint256",
          "name": "_nftPrice",
          "type": "uint256"
        }
      ],
      "name": "setNftPrice",
      "outputs": [],
      "stateMutability": "nonpayable",
      "type": "function"
    },
    {
      "inputs": [
        {
          "internalType": "uint256",
          "name": "_maxSupply",
          "type": "uint256"
        }
      ],
      "name": "setMaxSupply",
      "outputs": [],
      "stateMutability": "nonpayable",
      "type": "function"
    },
    {
      "inputs": [],
      "name": "reveal",
      "outputs": [],
      "stateMutability": "nonpayable",
      "type": "function"
    },
    {
      "inputs": [],
      "name": "flipSaleState",
      "outputs": [],
      "stateMutability": "nonpayable",
      "type": "function"
    },
    {
      "inputs": [
        {
          "internalType": "uint256",
          "name": "numberOfTokens",
          "type": "uint256"
        }
      ],
      "name": "mint",
      "outputs": [],
      "stateMutability": "payable",
      "type": "function",
      "payable": true
    },
    {
      "inputs": [
        {
          "internalType": "uint256",
          "name": "tokenId",
          "type": "uint256"
        }
      ],
      "name": "tokenURI",
      "outputs": [
        {
          "internalType": "string",
          "name": "",
          "type": "string"
        }
      ],
      "stateMutability": "view",
      "type": "function",
      "constant": true
    },
    {
      "inputs": [],
      "name": "withdraw",
      "outputs": [],
      "stateMutability": "nonpayable",
      "type": "function"
    }
  ],
  "bytecode": "0x6080604052666a94d74f430000600b55600a600c55610ea6600d55600e805461ffff191690553480156200003257600080fd5b50604080518082018252600e81526d42616279506978656c446f6f647360901b60208083019182528351808501909452600384526210941160ea1b908401528151919291620000849160009162000c6c565b5080516200009a90600190602084019062000c6c565b505050620000b7620000b1620000c960201b60201c565b620000cd565b620000c3600a6200011f565b620012a1565b3390565b600a80546001600160a01b038381166001600160a01b0319831681179093556040519116919082907f8be0079c531659141344cd1fd0a4f28419497f9722a3daafe3b4186f6b6457e090600090a35050565b600081116200014b5760405162461bcd60e51b8152600401620001429062000f06565b60405180910390fd5b600d5462000171826200015d620003d9565b620003df60201b620011981790919060201c565b1115620001925760405162461bcd60e51b81526004016200014290620010f9565b6200019c620003f4565b6001600160a01b0316336001600160a01b0316146200037357600f620001c6826200015d620003d9565b118015620001dd5750600f620001db620003d9565b105b156200024f57346200022862000211600f620001fd856200015d620003d9565b6200040360201b620011ab1790919060201c565b600b546200041160201b620011b71790919060201c565b1115620002495760405162461bcd60e51b8152600401620001429062000f63565b620002bb565b600f62000260826200015d620003d9565b118015620002775750600f62000275620003d9565b115b15620002bb57346200029a82600b546200041160201b620011b71790919060201c565b1115620002bb5760405162461bcd60e51b8152600401620001429062000f63565b600c54811115620002e05760405162461bcd60e51b815260040162000142906200101d565b600e5460ff16620003055760405162461bcd60e51b8152600401620001429062000fe6565b60005b818110156200036c5760006200031d620003d9565b600d549091506200032d620003d9565b101562000356576200034033826200041f565b6200035681620003508162000441565b6200055a565b5080620003638162001240565b91505062000308565b50620003d6565b60005b81811015620003d45760006200038b620003d9565b600d549091506200039b620003d9565b1015620003be57620003ae33826200041f565b620003be81620003508162000441565b5080620003cb8162001240565b91505062000376565b505b50565b60085490565b6000620003ed828462001162565b9392505050565b600a546001600160a01b031690565b6000620003ed8284620011b6565b6000620003ed828462001194565b620003d4828260405180602001604052806000815250620005aa60201b60201c565b60606200044e82620005e4565b6200046d5760405162461bcd60e51b8152600401620001429062000faf565b600e54610100900460ff166200051857601080546200048c9062001203565b80601f0160208091040260200160405190810160405280929190818152602001828054620004ba9062001203565b80156200050b5780601f10620004df576101008083540402835291602001916200050b565b820191906000526020600020905b815481529060010190602001808311620004ed57829003601f168201915b5050505050905062000555565b600f62000530836200060160201b620011c31760201c565b6040516020016200054392919062000d6b565b60405160208183030381529060405290505b919050565b6200056582620005e4565b620005845760405162461bcd60e51b8152600401620001429062000faf565b60008281526011602090815260409091208251620005a59284019062000c6c565b505050565b620005b6838362000738565b620005c5600084848462000823565b620005a55760405162461bcd60e51b8152600401620001429062000e7d565b6000908152600260205260409020546001600160a01b0316151590565b6060816200062857506040805180820190915260018152600360fc1b602082015262000555565b8160005b81156200065857806200063f8162001240565b9150620006509050600a836200117d565b91506200062c565b6000816001600160401b038111156200068157634e487b7160e01b600052604160045260246000fd5b6040519080825280601f01601f191660200182016040528015620006ac576020820181803683370190505b5090505b84156200073057620006c4600183620011b6565b9150620006d3600a866200125e565b620006e090603062001162565b60f81b8183815181106200070457634e487b7160e01b600052603260045260246000fd5b60200101906001600160f81b031916908160001a90535062000728600a866200117d565b9450620006b0565b949350505050565b6001600160a01b038216620007615760405162461bcd60e51b81526004016200014290620010c4565b6200076c81620005e4565b156200078c5760405162461bcd60e51b8152600401620001429062000ecf565b6200079a600083836200095b565b6001600160a01b0382166000908152600360205260408120805460019290620007c590849062001162565b909155505060008181526002602052604080822080546001600160a01b0319166001600160a01b03861690811790915590518392907fddf252ad1be2c89b69c2b068fc378daa952ba7f163c4a11628f55a4df523b3ef908290a45050565b600062000844846001600160a01b0316620009ff60201b620012e61760201c565b1562000950576001600160a01b03841663150b7a0262000863620000c9565b8786866040518563ffffffff1660e01b815260040162000887949392919062000e27565b602060405180830381600087803b158015620008a257600080fd5b505af1925050508015620008d5575060408051601f3d908101601f19168201909252620008d29181019062000d12565b60015b62000935573d80801562000906576040519150601f19603f3d011682016040523d82523d6000602084013e6200090b565b606091505b5080516200092d5760405162461bcd60e51b8152600401620001429062000e7d565b805181602001fd5b6001600160e01b031916630a85bd0160e11b14905062000730565b506001949350505050565b62000973838383620005a560201b620007941760201c565b6001600160a01b03831662000993576200098d8162000a05565b620009b9565b816001600160a01b0316836001600160a01b031614620009b957620009b9838262000a49565b6001600160a01b038216620009d957620009d38162000af6565b620005a5565b826001600160a01b0316826001600160a01b031614620005a557620005a5828262000bd4565b3b151590565b600880546000838152600960205260408120829055600182018355919091527ff3f7a9fe364faab93b216da50a3214154f22a0a2b415b23a84c8169e8b636ee30155565b6000600162000a638462000c2560201b62000b671760201c565b62000a6f9190620011b6565b60008381526007602052604090205490915080821462000ac3576001600160a01b03841660009081526006602090815260408083208584528252808320548484528184208190558352600790915290208190555b5060009182526007602090815260408084208490556001600160a01b039094168352600681528383209183525290812055565b60085460009062000b0a90600190620011b6565b6000838152600960205260408120546008805493945090928490811062000b4157634e487b7160e01b600052603260045260246000fd5b90600052602060002001549050806008838154811062000b7157634e487b7160e01b600052603260045260246000fd5b600091825260208083209091019290925582815260099091526040808220849055858252812055600880548062000bb857634e487b7160e01b600052603160045260246000fd5b6001900381819060005260206000200160009055905550505050565b600062000bec8362000c2560201b62000b671760201c565b6001600160a01b039093166000908152600660209081526040808320868452825280832085905593825260079052919091209190915550565b60006001600160a01b03821662000c505760405162461bcd60e51b815260040162000142906200107a565b506001600160a01b031660009081526003602052604090205490565b82805462000c7a9062001203565b90600052602060002090601f01602090048101928262000c9e576000855562000ce9565b82601f1062000cb957805160ff191683800117855562000ce9565b8280016001018555821562000ce9579182015b8281111562000ce957825182559160200191906001019062000ccc565b5062000cf792915062000cfb565b5090565b5b8082111562000cf7576000815560010162000cfc565b60006020828403121562000d24578081fd5b81516001600160e01b031981168114620003ed578182fd5b6000815162000d50818560208601620011d0565b9290920192915050565b64173539b7b760d91b815260050190565b825460009081906002810460018083168062000d8857607f831692505b602080841082141562000da957634e487b7160e01b87526022600452602487fd5b81801562000dc0576001811462000dd25762000e02565b60ff1986168952848901965062000e02565b62000ddd8b62001156565b885b8681101562000dfa5781548b82015290850190830162000ddf565b505084890196505b50505050505062000e1e62000e18828662000d3c565b62000d5a565b95945050505050565b600060018060a01b03808716835280861660208401525083604083015260806060830152825180608084015262000e668160a0850160208701620011d0565b601f01601f19169190910160a00195945050505050565b60208082526032908201527f4552433732313a207472616e7366657220746f206e6f6e20455243373231526560408201527131b2b4bb32b91034b6b83632b6b2b73a32b960711b606082015260800190565b6020808252601c908201527f4552433732313a20746f6b656e20616c7265616479206d696e74656400000000604082015260600190565b60208082526037908201527f546865206e756d626572206f6620746f6b656e732063616e206e6f742062652060408201527f6c657373207468616e206f7220657175616c20746f2030000000000000000000606082015260800190565b6020808252602c908201527f54686520636f6e747261637420646964206e6f74207265636569766520656e6f60408201526b75676820457468657265756d60a01b606082015260800190565b60208082526014908201527f546f6b656e20646f6573206e6f74206578697374000000000000000000000000604082015260600190565b6020808252601f908201527f54686520636f6e74726163742073616c65206973206e6f742061637469766500604082015260600190565b60208082526034908201527f54686520636f6e74726163742063616e206f6e6c79206d696e7420757020746f60408201527f20313020746f6b656e7320617420612074696d65000000000000000000000000606082015260800190565b6020808252602a908201527f4552433732313a2062616c616e636520717565727920666f7220746865207a65604082015269726f206164647265737360b01b606082015260800190565b6020808252818101527f4552433732313a206d696e7420746f20746865207a65726f2061646472657373604082015260600190565b6020808252603a908201527f54686520707572636861736520776f756c642065786365656420746865206d6160408201527f7820737570706c79206f662042616279506978656c446f6f6473000000000000606082015260800190565b60009081526020902090565b6000821982111562001178576200117862001275565b500190565b6000826200118f576200118f6200128b565b500490565b6000816000190483118215151615620011b157620011b162001275565b500290565b600082821015620011cb57620011cb62001275565b500390565b60005b83811015620011ed578181015183820152602001620011d3565b83811115620011fd576000848401525b50505050565b6002810460018216806200121857607f821691505b602082108114156200123a57634e487b7160e01b600052602260045260246000fd5b50919050565b600060001982141562001257576200125762001275565b5060010190565b6000826200127057620012706200128b565b500690565b634e487b7160e01b600052601160045260246000fd5b634e487b7160e01b600052601260045260246000fd5b6127ac80620012b16000396000f3fe6080604052600436106102045760003560e01c80636c0360eb11610118578063a475b5dd116100a0578063d5abeb011161006f578063d5abeb0114610577578063e985e9c51461058c578063eb8d2444146105ac578063f2fde38b146105c1578063f7e8d6ea146105e157610204565b8063a475b5dd1461050d578063b88d4fde14610522578063bde708f414610542578063c87b56dd1461055757610204565b80637d9a7a4c116100e75780637d9a7a4c146104905780638da5cb5b146104b057806395d89b41146104c5578063a0712d68146104da578063a22cb465146104ed57610204565b80636c0360eb146104265780636f8b44b01461043b57806370a082311461045b578063715018a61461047b57610204565b8063326d43881161019b5780634f6ccce71161016a5780634f6ccce71461039157806351830227146103b157806355f804b3146103c657806360a896c7146103e65780636352211e1461040657610204565b8063326d43881461032757806334918dfd146103475780633ccfd60b1461035c57806342842e0e1461037157610204565b80630d39fc81116101d75780630d39fc81146102b057806318160ddd146102d257806323b872dd146102e75780632f745c591461030757610204565b806301ffc9a71461020957806306fdde031461023f578063081812fc14610261578063095ea7b31461028e575b600080fd5b34801561021557600080fd5b50610229610224366004611d98565b6105f6565b6040516102369190611f86565b60405180910390f35b34801561024b57600080fd5b50610254610623565b6040516102369190611f91565b34801561026d57600080fd5b5061028161027c366004611e16565b6106b5565b6040516102369190611f35565b34801561029a57600080fd5b506102ae6102a9366004611d6f565b610701565b005b3480156102bc57600080fd5b506102c5610799565b6040516102369190612611565b3480156102de57600080fd5b506102c561079f565b3480156102f357600080fd5b506102ae610302366004611c81565b6107a5565b34801561031357600080fd5b506102c5610322366004611d6f565b6107dd565b34801561033357600080fd5b506102ae610342366004611dd0565b61082f565b34801561035357600080fd5b506102ae610885565b34801561036857600080fd5b506102ae6108d8565b34801561037d57600080fd5b506102ae61038c366004611c81565b610946565b34801561039d57600080fd5b506102c56103ac366004611e16565b610961565b3480156103bd57600080fd5b506102296109bc565b3480156103d257600080fd5b506102ae6103e1366004611dd0565b6109ca565b3480156103f257600080fd5b506102ae610401366004611e16565b610a1c565b34801561041257600080fd5b50610281610421366004611e16565b610a60565b34801561043257600080fd5b50610254610a95565b34801561044757600080fd5b506102ae610456366004611e16565b610b23565b34801561046757600080fd5b506102c5610476366004611c35565b610b67565b34801561048757600080fd5b506102ae610bab565b34801561049c57600080fd5b506102ae6104ab366004611e16565b610bf6565b3480156104bc57600080fd5b50610281610c3a565b3480156104d157600080fd5b50610254610c49565b6102ae6104e8366004611e16565b610c58565b3480156104f957600080fd5b506102ae610508366004611d35565b610e83565b34801561051957600080fd5b506102ae610f51565b34801561052e57600080fd5b506102ae61053d366004611cbc565b610fa1565b34801561054e57600080fd5b506102c5610fe0565b34801561056357600080fd5b50610254610572366004611e16565b610fe6565b34801561058357600080fd5b506102c56110e0565b34801561059857600080fd5b506102296105a7366004611c4f565b6110e6565b3480156105b857600080fd5b50610229611114565b3480156105cd57600080fd5b506102ae6105dc366004611c35565b61111d565b3480156105ed57600080fd5b5061025461118b565b60006001600160e01b0319821663780e9d6360e01b148061061b575061061b826112ec565b90505b919050565b606060008054610632906126b4565b80601f016020809104026020016040519081016040528092919081815260200182805461065e906126b4565b80156106ab5780601f10610680576101008083540402835291602001916106ab565b820191906000526020600020905b81548152906001019060200180831161068e57829003601f168201915b5050505050905090565b60006106c08261132c565b6106e55760405162461bcd60e51b81526004016106dc9061240c565b60405180910390fd5b506000908152600460205260409020546001600160a01b031690565b600061070c82610a60565b9050806001600160a01b0316836001600160a01b031614156107405760405162461bcd60e51b81526004016106dc90612533565b806001600160a01b0316610752611349565b6001600160a01b0316148061076e575061076e816105a7611349565b61078a5760405162461bcd60e51b81526004016106dc906122e7565b610794838361134d565b505050565b600b5481565b60085490565b6107b66107b0611349565b826113bb565b6107d25760405162461bcd60e51b81526004016106dc90612574565b610794838383611438565b60006107e883610b67565b82106108065760405162461bcd60e51b81526004016106dc90611fa4565b506001600160a01b03919091166000908152600660209081526040808320938352929052205490565b610837611349565b6001600160a01b0316610848610c3a565b6001600160a01b03161461086e5760405162461bcd60e51b81526004016106dc90612458565b8051610881906010906020840190611b15565b5050565b61088d611349565b6001600160a01b031661089e610c3a565b6001600160a01b0316146108c45760405162461bcd60e51b81526004016106dc90612458565b600e805460ff19811660ff90911615179055565b6108e0611349565b6001600160a01b03166108f1610c3a565b6001600160a01b0316146109175760405162461bcd60e51b81526004016106dc90612458565b6040514790339082156108fc029083906000818181858888f19350505050158015610881573d6000803e3d6000fd5b61079483838360405180602001604052806000815250610fa1565b600061096b61079f565b82106109895760405162461bcd60e51b81526004016106dc906125c5565b600882815481106109aa57634e487b7160e01b600052603260045260246000fd5b90600052602060002001549050919050565b600e54610100900460ff1681565b6109d2611349565b6001600160a01b03166109e3610c3a565b6001600160a01b031614610a095760405162461bcd60e51b81526004016106dc90612458565b805161088190600f906020840190611b15565b610a24611349565b6001600160a01b0316610a35610c3a565b6001600160a01b031614610a5b5760405162461bcd60e51b81526004016106dc90612458565b600c55565b6000818152600260205260408120546001600160a01b03168061061b5760405162461bcd60e51b81526004016106dc9061238e565b600f8054610aa2906126b4565b80601f0160208091040260200160405190810160405280929190818152602001828054610ace906126b4565b8015610b1b5780601f10610af057610100808354040283529160200191610b1b565b820191906000526020600020905b815481529060010190602001808311610afe57829003601f168201915b505050505081565b610b2b611349565b6001600160a01b0316610b3c610c3a565b6001600160a01b031614610b625760405162461bcd60e51b81526004016106dc90612458565b600d55565b60006001600160a01b038216610b8f5760405162461bcd60e51b81526004016106dc90612344565b506001600160a01b031660009081526003602052604090205490565b610bb3611349565b6001600160a01b0316610bc4610c3a565b6001600160a01b031614610bea5760405162461bcd60e51b81526004016106dc90612458565b610bf46000611565565b565b610bfe611349565b6001600160a01b0316610c0f610c3a565b6001600160a01b031614610c355760405162461bcd60e51b81526004016106dc90612458565b600b55565b600a546001600160a01b031690565b606060018054610632906126b4565b60008111610c785760405162461bcd60e51b81526004016106dc906120be565b600d54610c8d82610c8761079f565b90611198565b1115610cab5760405162461bcd60e51b81526004016106dc906124d6565b610cb3610c3a565b6001600160a01b0316336001600160a01b031614610e2e57600f610cd982610c8761079f565b118015610ced5750600f610ceb61079f565b105b15610d395734610d16610d0d600f610d0785610c8761079f565b906111ab565b600b54906111b7565b1115610d345760405162461bcd60e51b81526004016106dc90612196565b610d8d565b600f610d4782610c8761079f565b118015610d5b5750600f610d5961079f565b115b15610d8d57600b543490610d6f90836111b7565b1115610d8d5760405162461bcd60e51b81526004016106dc90612196565b600c54811115610daf5760405162461bcd60e51b81526004016106dc90612293565b600e5460ff16610dd15760405162461bcd60e51b81526004016106dc9061225c565b60005b81811015610e28576000610de661079f565b9050600d54610df361079f565b1015610e1557610e0333826115b7565b610e1581610e1083610fe6565b6115d1565b5080610e20816126ef565b915050610dd4565b50610e80565b60005b81811015610881576000610e4361079f565b9050600d54610e5061079f565b1015610e6d57610e6033826115b7565b610e6d81610e1083610fe6565b5080610e78816126ef565b915050610e31565b50565b610e8b611349565b6001600160a01b0316826001600160a01b03161415610ebc5760405162461bcd60e51b81526004016106dc9061215f565b8060056000610ec9611349565b6001600160a01b03908116825260208083019390935260409182016000908120918716808252919093529120805460ff191692151592909217909155610f0d611349565b6001600160a01b03167f17307eab39ab6107e8899845ad3d59bd9653f200f220920489ca2b5937696c3183604051610f459190611f86565b60405180910390a35050565b610f59611349565b6001600160a01b0316610f6a610c3a565b6001600160a01b031614610f905760405162461bcd60e51b81526004016106dc90612458565b600e805461ff001916610100179055565b610fb2610fac611349565b836113bb565b610fce5760405162461bcd60e51b81526004016106dc90612574565b610fda84848484611615565b50505050565b600c5481565b6060610ff18261132c565b61100d5760405162461bcd60e51b81526004016106dc906121e2565b600e54610100900460ff166110ae5760108054611029906126b4565b80601f0160208091040260200160405190810160405280929190818152602001828054611055906126b4565b80156110a25780601f10611077576101008083540402835291602001916110a2565b820191906000526020600020905b81548152906001019060200180831161108557829003601f168201915b5050505050905061061e565b600f6110b9836111c3565b6040516020016110ca929190611e87565b6040516020818303038152906040529050919050565b600d5481565b6001600160a01b03918216600090815260056020908152604080832093909416825291909152205460ff1690565b600e5460ff1681565b611125611349565b6001600160a01b0316611136610c3a565b6001600160a01b03161461115c5760405162461bcd60e51b81526004016106dc90612458565b6001600160a01b0381166111825760405162461bcd60e51b81526004016106dc90612041565b610e8081611565565b60108054610aa2906126b4565b60006111a48284612626565b9392505050565b60006111a48284612671565b60006111a48284612652565b6060816111e857506040805180820190915260018152600360fc1b602082015261061e565b8160005b811561121257806111fc816126ef565b915061120b9050600a8361263e565b91506111ec565b60008167ffffffffffffffff81111561123b57634e487b7160e01b600052604160045260246000fd5b6040519080825280601f01601f191660200182016040528015611265576020820181803683370190505b5090505b84156112de5761127a600183612671565b9150611287600a8661270a565b611292906030612626565b60f81b8183815181106112b557634e487b7160e01b600052603260045260246000fd5b60200101906001600160f81b031916908160001a9053506112d7600a8661263e565b9450611269565b949350505050565b3b151590565b60006001600160e01b031982166380ac58cd60e01b148061131d57506001600160e01b03198216635b5e139f60e01b145b8061061b575061061b82611648565b6000908152600260205260409020546001600160a01b0316151590565b3390565b600081815260046020526040902080546001600160a01b0319166001600160a01b038416908117909155819061138282610a60565b6001600160a01b03167f8c5be1e5ebec7d5bd14f71427d1e84f3dd0314c0f7b2291e5b200ac8c7c3b92560405160405180910390a45050565b60006113c68261132c565b6113e25760405162461bcd60e51b81526004016106dc90612210565b60006113ed83610a60565b9050806001600160a01b0316846001600160a01b031614806114285750836001600160a01b031661141d846106b5565b6001600160a01b0316145b806112de57506112de81856110e6565b826001600160a01b031661144b82610a60565b6001600160a01b0316146114715760405162461bcd60e51b81526004016106dc9061248d565b6001600160a01b0382166114975760405162461bcd60e51b81526004016106dc9061211b565b6114a2838383611661565b6114ad60008261134d565b6001600160a01b03831660009081526003602052604081208054600192906114d6908490612671565b90915550506001600160a01b0382166000908152600360205260408120805460019290611504908490612626565b909155505060008181526002602052604080822080546001600160a01b0319166001600160a01b0386811691821790925591518493918716917fddf252ad1be2c89b69c2b068fc378daa952ba7f163c4a11628f55a4df523b3ef91a4505050565b600a80546001600160a01b038381166001600160a01b0319831681179093556040519116919082907f8be0079c531659141344cd1fd0a4f28419497f9722a3daafe3b4186f6b6457e090600090a35050565b6108818282604051806020016040528060008152506116ea565b6115da8261132c565b6115f65760405162461bcd60e51b81526004016106dc906121e2565b6000828152601160209081526040909120825161079492840190611b15565b611620848484611438565b61162c8484848461171d565b610fda5760405162461bcd60e51b81526004016106dc90611fef565b6001600160e01b031981166301ffc9a760e01b14919050565b61166c838383610794565b6001600160a01b0383166116885761168381611838565b6116ab565b816001600160a01b0316836001600160a01b0316146116ab576116ab838261187c565b6001600160a01b0382166116c7576116c281611919565b610794565b826001600160a01b0316826001600160a01b0316146107945761079482826119f2565b6116f48383611a36565b611701600084848461171d565b6107945760405162461bcd60e51b81526004016106dc90611fef565b6000611731846001600160a01b03166112e6565b1561182d57836001600160a01b031663150b7a0261174d611349565b8786866040518563ffffffff1660e01b815260040161176f9493929190611f49565b602060405180830381600087803b15801561178957600080fd5b505af19250505080156117b9575060408051601f3d908101601f191682019092526117b691810190611db4565b60015b611813573d8080156117e7576040519150601f19603f3d011682016040523d82523d6000602084013e6117ec565b606091505b50805161180b5760405162461bcd60e51b81526004016106dc90611fef565b805181602001fd5b6001600160e01b031916630a85bd0160e11b1490506112de565b506001949350505050565b600880546000838152600960205260408120829055600182018355919091527ff3f7a9fe364faab93b216da50a3214154f22a0a2b415b23a84c8169e8b636ee30155565b6000600161188984610b67565b6118939190612671565b6000838152600760205260409020549091508082146118e6576001600160a01b03841660009081526006602090815260408083208584528252808320548484528184208190558352600790915290208190555b5060009182526007602090815260408084208490556001600160a01b039094168352600681528383209183525290812055565b60085460009061192b90600190612671565b6000838152600960205260408120546008805493945090928490811061196157634e487b7160e01b600052603260045260246000fd5b90600052602060002001549050806008838154811061199057634e487b7160e01b600052603260045260246000fd5b60009182526020808320909101929092558281526009909152604080822084905585825281205560088054806119d657634e487b7160e01b600052603160045260246000fd5b6001900381819060005260206000200160009055905550505050565b60006119fd83610b67565b6001600160a01b039093166000908152600660209081526040808320868452825280832085905593825260079052919091209190915550565b6001600160a01b038216611a5c5760405162461bcd60e51b81526004016106dc906123d7565b611a658161132c565b15611a825760405162461bcd60e51b81526004016106dc90612087565b611a8e60008383611661565b6001600160a01b0382166000908152600360205260408120805460019290611ab7908490612626565b909155505060008181526002602052604080822080546001600160a01b0319166001600160a01b03861690811790915590518392907fddf252ad1be2c89b69c2b068fc378daa952ba7f163c4a11628f55a4df523b3ef908290a45050565b828054611b21906126b4565b90600052602060002090601f016020900481019282611b435760008555611b89565b82601f10611b5c57805160ff1916838001178555611b89565b82800160010185558215611b89579182015b82811115611b89578251825591602001919060010190611b6e565b50611b95929150611b99565b5090565b5b80821115611b955760008155600101611b9a565b600067ffffffffffffffff80841115611bc957611bc961274a565b604051601f8501601f191681016020018281118282101715611bed57611bed61274a565b604052848152915081838501861015611c0557600080fd5b8484602083013760006020868301015250509392505050565b80356001600160a01b038116811461061e57600080fd5b600060208284031215611c46578081fd5b6111a482611c1e565b60008060408385031215611c61578081fd5b611c6a83611c1e565b9150611c7860208401611c1e565b90509250929050565b600080600060608486031215611c95578081fd5b611c9e84611c1e565b9250611cac60208501611c1e565b9150604084013590509250925092565b60008060008060808587031215611cd1578081fd5b611cda85611c1e565b9350611ce860208601611c1e565b925060408501359150606085013567ffffffffffffffff811115611d0a578182fd5b8501601f81018713611d1a578182fd5b611d2987823560208401611bae565b91505092959194509250565b60008060408385031215611d47578182fd5b611d5083611c1e565b915060208301358015158114611d64578182fd5b809150509250929050565b60008060408385031215611d81578182fd5b611d8a83611c1e565b946020939093013593505050565b600060208284031215611da9578081fd5b81356111a481612760565b600060208284031215611dc5578081fd5b81516111a481612760565b600060208284031215611de1578081fd5b813567ffffffffffffffff811115611df7578182fd5b8201601f81018413611e07578182fd5b6112de84823560208401611bae565b600060208284031215611e27578081fd5b5035919050565b60008151808452611e46816020860160208601612688565b601f01601f19169290920160200192915050565b60008151611e6c818560208601612688565b9290920192915050565b64173539b7b760d91b815260050190565b8254600090819060028104600180831680611ea357607f831692505b6020808410821415611ec357634e487b7160e01b87526022600452602487fd5b818015611ed75760018114611ee857611f14565b60ff19861689528489019650611f14565b611ef18b61261a565b885b86811015611f0c5781548b820152908501908301611ef3565b505084890196505b505050505050611f2c611f278286611e5a565b611e76565b95945050505050565b6001600160a01b0391909116815260200190565b6001600160a01b0385811682528416602082015260408101839052608060608201819052600090611f7c90830184611e2e565b9695505050505050565b901515815260200190565b6000602082526111a46020830184611e2e565b6020808252602b908201527f455243373231456e756d657261626c653a206f776e657220696e646578206f7560408201526a74206f6620626f756e647360a81b606082015260800190565b60208082526032908201527f4552433732313a207472616e7366657220746f206e6f6e20455243373231526560408201527131b2b4bb32b91034b6b83632b6b2b73a32b960711b606082015260800190565b60208082526026908201527f4f776e61626c653a206e6577206f776e657220697320746865207a65726f206160408201526564647265737360d01b606082015260800190565b6020808252601c908201527f4552433732313a20746f6b656e20616c7265616479206d696e74656400000000604082015260600190565b60208082526037908201527f546865206e756d626572206f6620746f6b656e732063616e206e6f742062652060408201527f6c657373207468616e206f7220657175616c20746f2030000000000000000000606082015260800190565b60208082526024908201527f4552433732313a207472616e7366657220746f20746865207a65726f206164646040820152637265737360e01b606082015260800190565b60208082526019908201527f4552433732313a20617070726f766520746f2063616c6c657200000000000000604082015260600190565b6020808252602c908201527f54686520636f6e747261637420646964206e6f74207265636569766520656e6f60408201526b75676820457468657265756d60a01b606082015260800190565b602080825260149082015273151bdad95b88191bd95cc81b9bdd08195e1a5cdd60621b604082015260600190565b6020808252602c908201527f4552433732313a206f70657261746f7220717565727920666f72206e6f6e657860408201526b34b9ba32b73a103a37b5b2b760a11b606082015260800190565b6020808252601f908201527f54686520636f6e74726163742073616c65206973206e6f742061637469766500604082015260600190565b60208082526034908201527f54686520636f6e74726163742063616e206f6e6c79206d696e7420757020746f60408201527320313020746f6b656e7320617420612074696d6560601b606082015260800190565b60208082526038908201527f4552433732313a20617070726f76652063616c6c6572206973206e6f74206f7760408201527f6e6572206e6f7220617070726f76656420666f7220616c6c0000000000000000606082015260800190565b6020808252602a908201527f4552433732313a2062616c616e636520717565727920666f7220746865207a65604082015269726f206164647265737360b01b606082015260800190565b60208082526029908201527f4552433732313a206f776e657220717565727920666f72206e6f6e657869737460408201526832b73a103a37b5b2b760b91b606082015260800190565b6020808252818101527f4552433732313a206d696e7420746f20746865207a65726f2061646472657373604082015260600190565b6020808252602c908201527f4552433732313a20617070726f76656420717565727920666f72206e6f6e657860408201526b34b9ba32b73a103a37b5b2b760a11b606082015260800190565b6020808252818101527f4f776e61626c653a2063616c6c6572206973206e6f7420746865206f776e6572604082015260600190565b60208082526029908201527f4552433732313a207472616e73666572206f6620746f6b656e2074686174206960408201526839903737ba1037bbb760b91b606082015260800190565b6020808252603a908201527f54686520707572636861736520776f756c642065786365656420746865206d6160408201527f7820737570706c79206f662042616279506978656c446f6f6473000000000000606082015260800190565b60208082526021908201527f4552433732313a20617070726f76616c20746f2063757272656e74206f776e656040820152603960f91b606082015260800190565b60208082526031908201527f4552433732313a207472616e736665722063616c6c6572206973206e6f74206f6040820152701ddb995c881b9bdc88185c1c1c9bdd9959607a1b606082015260800190565b6020808252602c908201527f455243373231456e756d657261626c653a20676c6f62616c20696e646578206f60408201526b7574206f6620626f756e647360a01b606082015260800190565b90815260200190565b60009081526020902090565b600082198211156126395761263961271e565b500190565b60008261264d5761264d612734565b500490565b600081600019048311821515161561266c5761266c61271e565b500290565b6000828210156126835761268361271e565b500390565b60005b838110156126a357818101518382015260200161268b565b83811115610fda5750506000910152565b6002810460018216806126c857607f821691505b602082108114156126e957634e487b7160e01b600052602260045260246000fd5b50919050565b60006000198214156127035761270361271e565b5060010190565b60008261271957612719612734565b500690565b634e487b7160e01b600052601160045260246000fd5b634e487b7160e01b600052601260045260246000fd5b634e487b7160e01b600052604160045260246000fd5b6001600160e01b031981168114610e8057600080fdfea26469706673582212202f12886440d246f312c61085e0cae7d5bf0685a79125a898e9b168c807360f3564736f6c63430008000033",
  "immutableReferences": {},
  "source": "// SPDX-License-Identifier: MIT\npragma solidity ^0.8.0;\n\n// import statements\nimport \"@openzeppelin/contracts/token/ERC721/ERC721.sol\";\nimport \"@openzeppelin/contracts/access/Ownable.sol\";\nimport \"@openzeppelin/contracts/utils/math/SafeMath.sol\";\nimport \"@openzeppelin/contracts/token/ERC721/extensions/ERC721Enumerable.sol\";\n\n// contract class\ncontract BabyPixelDoods is ERC721Enumerable, Ownable {\n    // utilities\n    using Strings for uint256;\n    using SafeMath for uint256;\n\n    // uint256\n    uint256 public nftPrice = 30000000000000000;\n    uint256 public maxNftPurchase = 10;\n    uint256 public maxSupply = 3750;\n\n    // booleans\n    bool public saleIsActive = false; // false\n    bool public revealed = false;\n\n    // strings\n    // TODO change baseURI to private?\n    string public baseURI;\n    string public revealedURI;\n\n    // mappings\n    mapping(uint256 => string) _tokenURIs;\n\n    // contract constructor\n    constructor() ERC721(\"BabyPixelDoods\", \"BPD\") {\n        mint(10);\n    }\n\n    // get functions\n    function getBaseURI() internal view virtual returns (string memory) {\n        return baseURI;\n    }\n\n    // set functions\n    function setBaseURI(string memory baseURI_) external onlyOwner {\n        baseURI = baseURI_;\n    }\n\n    function setRevealedURI(string memory revealedURI_) external onlyOwner {\n        revealedURI = revealedURI_;\n    }\n\n    function setMaxNftPurchase(uint256 _maxNftPurchase) public onlyOwner {\n        maxNftPurchase = _maxNftPurchase;\n    }\n\n    function setNftPrice(uint256 _nftPrice) public onlyOwner {\n        nftPrice = _nftPrice;\n    }\n\n    function setMaxSupply(uint256 _maxSupply) public onlyOwner {\n        maxSupply = _maxSupply;\n    }\n\n    function reveal() public onlyOwner {\n        revealed = true;\n    }\n\n    function flipSaleState() public onlyOwner {\n        saleIsActive = !saleIsActive;\n    }\n\n    function _setTokenURI(uint256 tokenId, string memory _tokenURI)\n        internal\n        virtual\n    {\n        require(_exists(tokenId), \"Token does not exist\");\n        _tokenURIs[tokenId] = _tokenURI;\n    }\n\n    // unnecessarily long mint function\n    function mint(uint256 numberOfTokens) public payable {\n        require(\n            numberOfTokens > 0,\n            \"The number of tokens can not be less than or equal to 0\"\n        );\n        require(\n            totalSupply().add(numberOfTokens) <= maxSupply,\n            \"The purchase would exceed the max supply of BabyPixelDoods\"\n        );\n\n        // TODO change number to 750\n        if (msg.sender != owner()) {\n            if (totalSupply().add(numberOfTokens) > 15 && totalSupply() < 15) {\n                require(\n                    nftPrice.mul(totalSupply().add(numberOfTokens).sub(15)) <=\n                        msg.value,\n                    \"The contract did not receive enough Ethereum\"\n                );\n            } else if (\n                totalSupply().add(numberOfTokens) > 15 && totalSupply() > 15\n            ) {\n                require(\n                    nftPrice.mul(numberOfTokens) <= msg.value,\n                    \"The contract did not receive enough Ethereum\"\n                );\n            }\n\n            require(\n                numberOfTokens <= maxNftPurchase,\n                \"The contract can only mint up to 10 tokens at a time\"\n            );\n\n            require(saleIsActive, \"The contract sale is not active\");\n\n            for (uint256 i = 0; i < numberOfTokens; i++) {\n                uint256 newId = totalSupply();\n                if (totalSupply() < maxSupply) {\n                    _safeMint(msg.sender, newId);\n                    _setTokenURI(newId, tokenURI(newId));\n                }\n            }\n        } else {\n            for (uint256 i = 0; i < numberOfTokens; i++) {\n                uint256 newId = totalSupply();\n                if (totalSupply() < maxSupply) {\n                    _safeMint(msg.sender, newId);\n                    _setTokenURI(newId, tokenURI(newId));\n                }\n            }\n        }\n    }\n\n    // token URI retriever\n    function tokenURI(uint256 tokenId)\n        public\n        view\n        virtual\n        override\n        returns (string memory)\n    {\n        require(_exists(tokenId), \"Token does not exist\");\n        if (revealed == false) {\n            return revealedURI;\n        }\n\n        return string(abi.encodePacked(baseURI, tokenId.toString(), \".json\"));\n    }\n\n    // classic withdraw function\n    function withdraw() public onlyOwner {\n        uint256 balance = address(this).balance;\n        payable(msg.sender).transfer(balance);\n    }\n}\n",
  "sourcePath": "/Users/ishreetbhullar/Documents/coding-folder/BabyPixelDoods/contracts/BabyPixelDoods.sol",
  "compiler": {
    "name": "solc",
    "version": "0.8.0+commit.c7dfd78e.Emscripten.clang"
  },
  "schemaVersion": "3.4.3",
  "updatedAt": "2022-01-11T22:15:11.591Z",
  "networkType": "ethereum",
  "devdoc": {
    "kind": "dev",
    "methods": {
      "approve(address,uint256)": {
        "details": "See {IERC721-approve}."
      },
      "balanceOf(address)": {
        "details": "See {IERC721-balanceOf}."
      },
      "getApproved(uint256)": {
        "details": "See {IERC721-getApproved}."
      },
      "isApprovedForAll(address,address)": {
        "details": "See {IERC721-isApprovedForAll}."
      },
      "name()": {
        "details": "See {IERC721Metadata-name}."
      },
      "owner()": {
        "details": "Returns the address of the current owner."
      },
      "ownerOf(uint256)": {
        "details": "See {IERC721-ownerOf}."
      },
      "renounceOwnership()": {
        "details": "Leaves the contract without owner. It will not be possible to call `onlyOwner` functions anymore. Can only be called by the current owner. NOTE: Renouncing ownership will leave the contract without an owner, thereby removing any functionality that is only available to the owner."
      },
      "safeTransferFrom(address,address,uint256)": {
        "details": "See {IERC721-safeTransferFrom}."
      },
      "safeTransferFrom(address,address,uint256,bytes)": {
        "details": "See {IERC721-safeTransferFrom}."
      },
      "setApprovalForAll(address,bool)": {
        "details": "See {IERC721-setApprovalForAll}."
      },
      "supportsInterface(bytes4)": {
        "details": "See {IERC165-supportsInterface}."
      },
      "symbol()": {
        "details": "See {IERC721Metadata-symbol}."
      },
      "tokenByIndex(uint256)": {
        "details": "See {IERC721Enumerable-tokenByIndex}."
      },
      "tokenOfOwnerByIndex(address,uint256)": {
        "details": "See {IERC721Enumerable-tokenOfOwnerByIndex}."
      },
      "tokenURI(uint256)": {
        "details": "See {IERC721Metadata-tokenURI}."
      },
      "totalSupply()": {
        "details": "See {IERC721Enumerable-totalSupply}."
      },
      "transferFrom(address,address,uint256)": {
        "details": "See {IERC721-transferFrom}."
      },
      "transferOwnership(address)": {
        "details": "Transfers ownership of the contract to a new account (`newOwner`). Can only be called by the current owner."
      }
    },
    "version": 1
  },
  "userdoc": {
    "kind": "user",
    "methods": {},
    "version": 1
  }
}