{
  "contractName": "ERC721A",
  "abi": [
    {
      "inputs": [
        {
          "internalType": "string",
          "name": "name_",
          "type": "string"
        },
        {
          "internalType": "string",
          "name": "symbol_",
          "type": "string"
        },
        {
          "internalType": "uint256",
          "name": "maxBatchSize_",
          "type": "uint256"
        }
      ],
      "stateMutability": "nonpayable",
      "type": "constructor"
    },
    {
      "anonymous": false,
      "inputs": [
        {
          "indexed": true,
          "internalType": "address",
          "name": "owner",
          "type": "address"
        },
        {
          "indexed": true,
          "internalType": "address",
          "name": "approved",
          "type": "address"
        },
        {
          "indexed": true,
          "internalType": "uint256",
          "name": "tokenId",
          "type": "uint256"
        }
      ],
      "name": "Approval",
      "type": "event"
    },
    {
      "anonymous": false,
      "inputs": [
        {
          "indexed": true,
          "internalType": "address",
          "name": "owner",
          "type": "address"
        },
        {
          "indexed": true,
          "internalType": "address",
          "name": "operator",
          "type": "address"
        },
        {
          "indexed": false,
          "internalType": "bool",
          "name": "approved",
          "type": "bool"
        }
      ],
      "name": "ApprovalForAll",
      "type": "event"
    },
    {
      "anonymous": false,
      "inputs": [
        {
          "indexed": true,
          "internalType": "address",
          "name": "from",
          "type": "address"
        },
        {
          "indexed": true,
          "internalType": "address",
          "name": "to",
          "type": "address"
        },
        {
          "indexed": true,
          "internalType": "uint256",
          "name": "tokenId",
          "type": "uint256"
        }
      ],
      "name": "Transfer",
      "type": "event"
    },
    {
      "inputs": [],
      "name": "nextOwnerToExplicitlySet",
      "outputs": [
        {
          "internalType": "uint256",
          "name": "",
          "type": "uint256"
        }
      ],
      "stateMutability": "view",
      "type": "function"
    },
    {
      "inputs": [],
      "name": "totalSupply",
      "outputs": [
        {
          "internalType": "uint256",
          "name": "",
          "type": "uint256"
        }
      ],
      "stateMutability": "view",
      "type": "function"
    },
    {
      "inputs": [
        {
          "internalType": "uint256",
          "name": "index",
          "type": "uint256"
        }
      ],
      "name": "tokenByIndex",
      "outputs": [
        {
          "internalType": "uint256",
          "name": "",
          "type": "uint256"
        }
      ],
      "stateMutability": "view",
      "type": "function"
    },
    {
      "inputs": [
        {
          "internalType": "address",
          "name": "owner",
          "type": "address"
        },
        {
          "internalType": "uint256",
          "name": "index",
          "type": "uint256"
        }
      ],
      "name": "tokenOfOwnerByIndex",
      "outputs": [
        {
          "internalType": "uint256",
          "name": "",
          "type": "uint256"
        }
      ],
      "stateMutability": "view",
      "type": "function"
    },
    {
      "inputs": [
        {
          "internalType": "bytes4",
          "name": "interfaceId",
          "type": "bytes4"
        }
      ],
      "name": "supportsInterface",
      "outputs": [
        {
          "internalType": "bool",
          "name": "",
          "type": "bool"
        }
      ],
      "stateMutability": "view",
      "type": "function"
    },
    {
      "inputs": [
        {
          "internalType": "address",
          "name": "owner",
          "type": "address"
        }
      ],
      "name": "balanceOf",
      "outputs": [
        {
          "internalType": "uint256",
          "name": "",
          "type": "uint256"
        }
      ],
      "stateMutability": "view",
      "type": "function"
    },
    {
      "inputs": [
        {
          "internalType": "uint256",
          "name": "tokenId",
          "type": "uint256"
        }
      ],
      "name": "ownerOf",
      "outputs": [
        {
          "internalType": "address",
          "name": "",
          "type": "address"
        }
      ],
      "stateMutability": "view",
      "type": "function"
    },
    {
      "inputs": [],
      "name": "name",
      "outputs": [
        {
          "internalType": "string",
          "name": "",
          "type": "string"
        }
      ],
      "stateMutability": "view",
      "type": "function"
    },
    {
      "inputs": [],
      "name": "symbol",
      "outputs": [
        {
          "internalType": "string",
          "name": "",
          "type": "string"
        }
      ],
      "stateMutability": "view",
      "type": "function"
    },
    {
      "inputs": [
        {
          "internalType": "uint256",
          "name": "tokenId",
          "type": "uint256"
        }
      ],
      "name": "tokenURI",
      "outputs": [
        {
          "internalType": "string",
          "name": "",
          "type": "string"
        }
      ],
      "stateMutability": "view",
      "type": "function"
    },
    {
      "inputs": [
        {
          "internalType": "address",
          "name": "to",
          "type": "address"
        },
        {
          "internalType": "uint256",
          "name": "tokenId",
          "type": "uint256"
        }
      ],
      "name": "approve",
      "outputs": [],
      "stateMutability": "nonpayable",
      "type": "function"
    },
    {
      "inputs": [
        {
          "internalType": "uint256",
          "name": "tokenId",
          "type": "uint256"
        }
      ],
      "name": "getApproved",
      "outputs": [
        {
          "internalType": "address",
          "name": "",
          "type": "address"
        }
      ],
      "stateMutability": "view",
      "type": "function"
    },
    {
      "inputs": [
        {
          "internalType": "address",
          "name": "operator",
          "type": "address"
        },
        {
          "internalType": "bool",
          "name": "approved",
          "type": "bool"
        }
      ],
      "name": "setApprovalForAll",
      "outputs": [],
      "stateMutability": "nonpayable",
      "type": "function"
    },
    {
      "inputs": [
        {
          "internalType": "address",
          "name": "owner",
          "type": "address"
        },
        {
          "internalType": "address",
          "name": "operator",
          "type": "address"
        }
      ],
      "name": "isApprovedForAll",
      "outputs": [
        {
          "internalType": "bool",
          "name": "",
          "type": "bool"
        }
      ],
      "stateMutability": "view",
      "type": "function"
    },
    {
      "inputs": [
        {
          "internalType": "address",
          "name": "from",
          "type": "address"
        },
        {
          "internalType": "address",
          "name": "to",
          "type": "address"
        },
        {
          "internalType": "uint256",
          "name": "tokenId",
          "type": "uint256"
        }
      ],
      "name": "transferFrom",
      "outputs": [],
      "stateMutability": "nonpayable",
      "type": "function"
    },
    {
      "inputs": [
        {
          "internalType": "address",
          "name": "from",
          "type": "address"
        },
        {
          "internalType": "address",
          "name": "to",
          "type": "address"
        },
        {
          "internalType": "uint256",
          "name": "tokenId",
          "type": "uint256"
        }
      ],
      "name": "safeTransferFrom",
      "outputs": [],
      "stateMutability": "nonpayable",
      "type": "function"
    },
    {
      "inputs": [
        {
          "internalType": "address",
          "name": "from",
          "type": "address"
        },
        {
          "internalType": "address",
          "name": "to",
          "type": "address"
        },
        {
          "internalType": "uint256",
          "name": "tokenId",
          "type": "uint256"
        },
        {
          "internalType": "bytes",
          "name": "_data",
          "type": "bytes"
        }
      ],
      "name": "safeTransferFrom",
      "outputs": [],
      "stateMutability": "nonpayable",
      "type": "function"
    }
  ],
  "bytecode": "0x60a06040526000805560006007553480156200001a57600080fd5b5060405162001b1938038062001b198339810160408190526200003d91620001f2565b60008111620000695760405162461bcd60e51b8152600401620000609062000262565b60405180910390fd5b82516200007e906001906020860190620000a1565b50815162000094906002906020850190620000a1565b5060805250620002fc9050565b828054620000af90620002a9565b90600052602060002090601f016020900481019282620000d357600085556200011e565b82601f10620000ee57805160ff19168380011785556200011e565b828001600101855582156200011e579182015b828111156200011e57825182559160200191906001019062000101565b506200012c92915062000130565b5090565b5b808211156200012c576000815560010162000131565b600082601f83011262000158578081fd5b81516001600160401b0380821115620001755762000175620002e6565b6040516020601f8401601f19168201810183811183821017156200019d576200019d620002e6565b6040528382528584018101871015620001b4578485fd5b8492505b83831015620001d75785830181015182840182015291820191620001b8565b83831115620001e857848185840101525b5095945050505050565b60008060006060848603121562000207578283fd5b83516001600160401b03808211156200021e578485fd5b6200022c8783880162000147565b9450602086015191508082111562000242578384fd5b50620002518682870162000147565b925050604084015190509250925092565b60208082526027908201527f455243373231413a206d61782062617463682073697a65206d757374206265206040820152666e6f6e7a65726f60c81b606082015260800190565b600281046001821680620002be57607f821691505b60208210811415620002e057634e487b7160e01b600052602260045260246000fd5b50919050565b634e487b7160e01b600052604160045260246000fd5b6080516117fa6200031f60003960008181610b850152610baf01526117fa6000f3fe608060405234801561001057600080fd5b506004361061010b5760003560e01c80634f6ccce7116100a2578063a22cb46511610071578063a22cb46514610212578063b88d4fde14610225578063c87b56dd14610238578063d7224ba01461024b578063e985e9c5146102535761010b565b80634f6ccce7146101d15780636352211e146101e457806370a08231146101f757806395d89b411461020a5761010b565b806318160ddd116100de57806318160ddd1461018357806323b872dd146101985780632f745c59146101ab57806342842e0e146101be5761010b565b806301ffc9a71461011057806306fdde0314610139578063081812fc1461014e578063095ea7b31461016e575b600080fd5b61012361011e36600461109a565b610266565b60405161013091906111a6565b60405180910390f35b6101416102c9565b60405161013091906111b1565b61016161015c3660046110d2565b61035b565b6040516101309190611155565b61018161017c366004611071565b6103a7565b005b61018b610440565b604051610130919061161d565b6101816101a6366004610f30565b610446565b61018b6101b9366004611071565b610451565b6101816101cc366004610f30565b61054d565b61018b6101df3660046110d2565b610568565b6101616101f23660046110d2565b610594565b61018b610205366004610ee4565b6105a6565b6101416105f3565b610181610220366004611037565b610602565b610181610233366004610f6b565b6106d0565b6101416102463660046110d2565b610709565b61018b61078c565b610123610261366004610efe565b610792565b60006001600160e01b031982166380ac58cd60e01b148061029757506001600160e01b03198216635b5e139f60e01b145b806102b257506001600160e01b0319821663780e9d6360e01b145b806102c157506102c1826107c0565b90505b919050565b6060600180546102d8906116ff565b80601f0160208091040260200160405190810160405280929190818152602001828054610304906116ff565b80156103515780601f1061032657610100808354040283529160200191610351565b820191906000526020600020905b81548152906001019060200180831161033457829003601f168201915b5050505050905090565b6000610366826107d9565b61038b5760405162461bcd60e51b8152600401610382906115d0565b60405180910390fd5b506000908152600560205260409020546001600160a01b031690565b60006103b282610594565b9050806001600160a01b0316836001600160a01b031614156103e65760405162461bcd60e51b81526004016103829061149e565b806001600160a01b03166103f86107e0565b6001600160a01b031614806104145750610414816102616107e0565b6104305760405162461bcd60e51b8152600401610382906112d8565b61043b8383836107e4565b505050565b60005490565b61043b838383610840565b600061045c836105a6565b821061047a5760405162461bcd60e51b8152600401610382906111c4565b6000610484610440565b905060008060005b8381101561052e576000818152600360209081526040918290208251808401909352546001600160a01b038116808452600160a01b90910467ffffffffffffffff1691830191909152156104df57805192505b876001600160a01b0316836001600160a01b0316141561051b578684141561050d5750935061054792505050565b836105178161173a565b9450505b50806105268161173a565b91505061048c565b5060405162461bcd60e51b815260040161038290611533565b92915050565b61043b838383604051806020016040528060008152506106d0565b6000610572610440565b82106105905760405162461bcd60e51b815260040161038290611250565b5090565b600061059f82610b54565b5192915050565b60006001600160a01b0382166105ce5760405162461bcd60e51b815260040161038290611335565b506001600160a01b03166000908152600460205260409020546001600160801b031690565b6060600280546102d8906116ff565b61060a6107e0565b6001600160a01b0316826001600160a01b0316141561063b5760405162461bcd60e51b815260040161038290611415565b80600660006106486107e0565b6001600160a01b03908116825260208083019390935260409182016000908120918716808252919093529120805460ff19169215159290921790915561068c6107e0565b6001600160a01b03167f17307eab39ab6107e8899845ad3d59bd9653f200f220920489ca2b5937696c31836040516106c491906111a6565b60405180910390a35050565b6106db848484610840565b6106e784848484610c67565b6107035760405162461bcd60e51b8152600401610382906114e0565b50505050565b6060610714826107d9565b6107305760405162461bcd60e51b8152600401610382906113c6565b600061073a610d83565b9050600081511161075a5760405180602001604052806000815250610785565b8061076484610d95565b604051602001610775929190611116565b6040516020818303038152906040525b9392505050565b60075481565b6001600160a01b03918216600090815260066020908152604080832093909416825291909152205460ff1690565b6001600160e01b031981166301ffc9a760e01b14919050565b6000541190565b3390565b60008281526005602052604080822080546001600160a01b0319166001600160a01b0387811691821790925591518593918516917f8c5be1e5ebec7d5bd14f71427d1e84f3dd0314c0f7b2291e5b200ac8c7c3b92591a4505050565b600061084b82610b54565b9050600081600001516001600160a01b03166108656107e0565b6001600160a01b0316148061089a575061087d6107e0565b6001600160a01b031661088f8461035b565b6001600160a01b0316145b806108ae575081516108ae906102616107e0565b9050806108cd5760405162461bcd60e51b81526004016103829061144c565b846001600160a01b031682600001516001600160a01b0316146109025760405162461bcd60e51b815260040161038290611380565b6001600160a01b0384166109285760405162461bcd60e51b815260040161038290611293565b6109358585856001610703565b61094560008484600001516107e4565b6001600160a01b03851660009081526004602052604081208054600192906109779084906001600160801b031661167d565b82546101009290920a6001600160801b038181021990931691831602179091556001600160a01b038616600090815260046020526040812080546001945090926109c391859116611626565b82546001600160801b039182166101009390930a9283029190920219909116179055506040805180820182526001600160a01b03808716825267ffffffffffffffff428116602080850191825260008981526003909152948520935184549151909216600160a01b0267ffffffffffffffff60a01b19929093166001600160a01b03199091161716179055610a59846001611651565b6000818152600360205260409020549091506001600160a01b0316610afe57610a81816107d9565b15610afe5760408051808201825284516001600160a01b03908116825260208087015167ffffffffffffffff90811682850190815260008781526003909352949091209251835494516001600160a01b031990951692169190911767ffffffffffffffff60a01b1916600160a01b93909116929092029190911790555b83856001600160a01b0316876001600160a01b03167fddf252ad1be2c89b69c2b068fc378daa952ba7f163c4a11628f55a4df523b3ef60405160405180910390a4610b4c8686866001610703565b505050505050565b610b5c610eb6565b610b65826107d9565b610b815760405162461bcd60e51b815260040161038290611206565b60007f00000000000000000000000000000000000000000000000000000000000000008310610be257610bd47f0000000000000000000000000000000000000000000000000000000000000000846116a5565b610bdf906001611651565b90505b825b818110610c4e576000818152600360209081526040918290208251808401909352546001600160a01b038116808452600160a01b90910467ffffffffffffffff169183019190915215610c3b5792506102c4915050565b5080610c46816116e8565b915050610be4565b5060405162461bcd60e51b815260040161038290611581565b6000610c7b846001600160a01b0316610eb0565b15610d7757836001600160a01b031663150b7a02610c976107e0565b8786866040518563ffffffff1660e01b8152600401610cb99493929190611169565b602060405180830381600087803b158015610cd357600080fd5b505af1925050508015610d03575060408051601f3d908101601f19168201909252610d00918101906110b6565b60015b610d5d573d808015610d31576040519150601f19603f3d011682016040523d82523d6000602084013e610d36565b606091505b508051610d555760405162461bcd60e51b8152600401610382906114e0565b805181602001fd5b6001600160e01b031916630a85bd0160e11b149050610d7b565b5060015b949350505050565b60408051602081019091526000815290565b606081610dba57506040805180820190915260018152600360fc1b60208201526102c4565b8160005b8115610de45780610dce8161173a565b9150610ddd9050600a83611669565b9150610dbe565b60008167ffffffffffffffff811115610e0d57634e487b7160e01b600052604160045260246000fd5b6040519080825280601f01601f191660200182016040528015610e37576020820181803683370190505b5090505b8415610d7b57610e4c6001836116a5565b9150610e59600a86611755565b610e64906030611651565b60f81b818381518110610e8757634e487b7160e01b600052603260045260246000fd5b60200101906001600160f81b031916908160001a905350610ea9600a86611669565b9450610e3b565b3b151590565b604080518082019091526000808252602082015290565b80356001600160a01b03811681146102c457600080fd5b600060208284031215610ef5578081fd5b61078582610ecd565b60008060408385031215610f10578081fd5b610f1983610ecd565b9150610f2760208401610ecd565b90509250929050565b600080600060608486031215610f44578081fd5b610f4d84610ecd565b9250610f5b60208501610ecd565b9150604084013590509250925092565b60008060008060808587031215610f80578081fd5b610f8985610ecd565b93506020610f98818701610ecd565b935060408601359250606086013567ffffffffffffffff80821115610fbb578384fd5b818801915088601f830112610fce578384fd5b813581811115610fe057610fe0611795565b604051601f8201601f191681018501838111828210171561100357611003611795565b60405281815283820185018b1015611019578586fd5b81858501868301379081019093019390935250939692955090935050565b60008060408385031215611049578182fd5b61105283610ecd565b915060208301358015158114611066578182fd5b809150509250929050565b60008060408385031215611083578182fd5b61108c83610ecd565b946020939093013593505050565b6000602082840312156110ab578081fd5b8135610785816117ab565b6000602082840312156110c7578081fd5b8151610785816117ab565b6000602082840312156110e3578081fd5b5035919050565b600081518084526111028160208601602086016116bc565b601f01601f19169290920160200192915050565b600083516111288184602088016116bc565b83519083019061113c8183602088016116bc565b64173539b7b760d91b9101908152600501949350505050565b6001600160a01b0391909116815260200190565b6001600160a01b038581168252841660208201526040810183905260806060820181905260009061119c908301846110ea565b9695505050505050565b901515815260200190565b60006020825261078560208301846110ea565b60208082526022908201527f455243373231413a206f776e657220696e646578206f7574206f6620626f756e604082015261647360f01b606082015260800190565b6020808252602a908201527f455243373231413a206f776e657220717565727920666f72206e6f6e657869736040820152693a32b73a103a37b5b2b760b11b606082015260800190565b60208082526023908201527f455243373231413a20676c6f62616c20696e646578206f7574206f6620626f756040820152626e647360e81b606082015260800190565b60208082526025908201527f455243373231413a207472616e7366657220746f20746865207a65726f206164604082015264647265737360d81b606082015260800190565b60208082526039908201527f455243373231413a20617070726f76652063616c6c6572206973206e6f74206f60408201527f776e6572206e6f7220617070726f76656420666f7220616c6c00000000000000606082015260800190565b6020808252602b908201527f455243373231413a2062616c616e636520717565727920666f7220746865207a60408201526a65726f206164647265737360a81b606082015260800190565b60208082526026908201527f455243373231413a207472616e736665722066726f6d20696e636f72726563746040820152651037bbb732b960d11b606082015260800190565b6020808252602f908201527f4552433732314d657461646174613a2055524920717565727920666f72206e6f60408201526e3732bc34b9ba32b73a103a37b5b2b760891b606082015260800190565b6020808252601a908201527f455243373231413a20617070726f766520746f2063616c6c6572000000000000604082015260600190565b60208082526032908201527f455243373231413a207472616e736665722063616c6c6572206973206e6f74206040820152711bdddb995c881b9bdc88185c1c1c9bdd995960721b606082015260800190565b60208082526022908201527f455243373231413a20617070726f76616c20746f2063757272656e74206f776e60408201526132b960f11b606082015260800190565b60208082526033908201527f455243373231413a207472616e7366657220746f206e6f6e204552433732315260408201527232b1b2b4bb32b91034b6b83632b6b2b73a32b960691b606082015260800190565b6020808252602e908201527f455243373231413a20756e61626c6520746f2067657420746f6b656e206f662060408201526d0deeedccae440c4f240d2dcc8caf60931b606082015260800190565b6020808252602f908201527f455243373231413a20756e61626c6520746f2064657465726d696e652074686560408201526e1037bbb732b91037b3103a37b5b2b760891b606082015260800190565b6020808252602d908201527f455243373231413a20617070726f76656420717565727920666f72206e6f6e6560408201526c3c34b9ba32b73a103a37b5b2b760991b606082015260800190565b90815260200190565b60006001600160801b0380831681851680830382111561164857611648611769565b01949350505050565b6000821982111561166457611664611769565b500190565b6000826116785761167861177f565b500490565b60006001600160801b038381169083168181101561169d5761169d611769565b039392505050565b6000828210156116b7576116b7611769565b500390565b60005b838110156116d75781810151838201526020016116bf565b838111156107035750506000910152565b6000816116f7576116f7611769565b506000190190565b60028104600182168061171357607f821691505b6020821081141561173457634e487b7160e01b600052602260045260246000fd5b50919050565b600060001982141561174e5761174e611769565b5060010190565b6000826117645761176461177f565b500690565b634e487b7160e01b600052601160045260246000fd5b634e487b7160e01b600052601260045260246000fd5b634e487b7160e01b600052604160045260246000fd5b6001600160e01b0319811681146117c157600080fd5b5056fea2646970667358221220c936153262f94cd31de19191a70af8823e04942e77cd28f3b44867d7ee95e1b864736f6c63430008000033",
  "immutableReferences": {
    "873": [
      {
        "length": 32,
        "start": 2949
      },
      {
        "length": 32,
        "start": 2991
      }
    ]
  },
  "source": "// File: @openzeppelin/contracts/utils/Strings.sol\n// SPDX-License-Identifier: MIT\n\n// OpenZeppelin Contracts v4.4.1 (utils/Strings.sol)\n\npragma solidity ^0.8.0;\n\n/**\n * @dev String operations.\n */\nlibrary Strings {\n    bytes16 private constant _HEX_SYMBOLS = \"0123456789abcdef\";\n\n    /**\n     * @dev Converts a `uint256` to its ASCII `string` decimal representation.\n     */\n    function toString(uint256 value) internal pure returns (string memory) {\n        // Inspired by OraclizeAPI's implementation - MIT licence\n        // https://github.com/oraclize/ethereum-api/blob/b42146b063c7d6ee1358846c198246239e9360e8/oraclizeAPI_0.4.25.sol\n\n        if (value == 0) {\n            return \"0\";\n        }\n        uint256 temp = value;\n        uint256 digits;\n        while (temp != 0) {\n            digits++;\n            temp /= 10;\n        }\n        bytes memory buffer = new bytes(digits);\n        while (value != 0) {\n            digits -= 1;\n            buffer[digits] = bytes1(uint8(48 + uint256(value % 10)));\n            value /= 10;\n        }\n        return string(buffer);\n    }\n\n    /**\n     * @dev Converts a `uint256` to its ASCII `string` hexadecimal representation.\n     */\n    function toHexString(uint256 value) internal pure returns (string memory) {\n        if (value == 0) {\n            return \"0x00\";\n        }\n        uint256 temp = value;\n        uint256 length = 0;\n        while (temp != 0) {\n            length++;\n            temp >>= 8;\n        }\n        return toHexString(value, length);\n    }\n\n    /**\n     * @dev Converts a `uint256` to its ASCII `string` hexadecimal representation with fixed length.\n     */\n    function toHexString(uint256 value, uint256 length)\n        internal\n        pure\n        returns (string memory)\n    {\n        bytes memory buffer = new bytes(2 * length + 2);\n        buffer[0] = \"0\";\n        buffer[1] = \"x\";\n        for (uint256 i = 2 * length + 1; i > 1; --i) {\n            buffer[i] = _HEX_SYMBOLS[value & 0xf];\n            value >>= 4;\n        }\n        require(value == 0, \"Strings: hex length insufficient\");\n        return string(buffer);\n    }\n}\n\n// File: @openzeppelin/contracts/utils/Context.sol\n\n// OpenZeppelin Contracts v4.4.1 (utils/Context.sol)\n\npragma solidity ^0.8.0;\n\n/**\n * @dev Provides information about the current execution context, including the\n * sender of the transaction and its data. While these are generally available\n * via msg.sender and msg.data, they should not be accessed in such a direct\n * manner, since when dealing with meta-transactions the account sending and\n * paying for execution may not be the actual sender (as far as an application\n * is concerned).\n *\n * This contract is only required for intermediate, library-like contracts.\n */\nabstract contract Context {\n    function _msgSender() internal view virtual returns (address) {\n        return msg.sender;\n    }\n\n    function _msgData() internal view virtual returns (bytes calldata) {\n        return msg.data;\n    }\n}\n\n// File: @openzeppelin/contracts/access/Ownable.sol\n\n// OpenZeppelin Contracts v4.4.1 (access/Ownable.sol)\n\npragma solidity ^0.8.0;\n\n/**\n * @dev Contract module which provides a basic access control mechanism, where\n * there is an account (an owner) that can be granted exclusive access to\n * specific functions.\n *\n * By default, the owner account will be the one that deploys the contract. This\n * can later be changed with {transferOwnership}.\n *\n * This module is used through inheritance. It will make available the modifier\n * `onlyOwner`, which can be applied to your functions to restrict their use to\n * the owner.\n */\nabstract contract Ownable is Context {\n    address private _owner;\n\n    event OwnershipTransferred(\n        address indexed previousOwner,\n        address indexed newOwner\n    );\n\n    /**\n     * @dev Initializes the contract setting the deployer as the initial owner.\n     */\n    constructor() {\n        _transferOwnership(_msgSender());\n    }\n\n    /**\n     * @dev Returns the address of the current owner.\n     */\n    function owner() public view virtual returns (address) {\n        return _owner;\n    }\n\n    /**\n     * @dev Throws if called by any account other than the owner.\n     */\n    modifier onlyOwner() {\n        require(owner() == _msgSender(), \"Ownable: caller is not the owner\");\n        _;\n    }\n\n    /**\n     * @dev Leaves the contract without owner. It will not be possible to call\n     * `onlyOwner` functions anymore. Can only be called by the current owner.\n     *\n     * NOTE: Renouncing ownership will leave the contract without an owner,\n     * thereby removing any functionality that is only available to the owner.\n     */\n    function renounceOwnership() public virtual onlyOwner {\n        _transferOwnership(address(0));\n    }\n\n    /**\n     * @dev Transfers ownership of the contract to a new account (`newOwner`).\n     * Can only be called by the current owner.\n     */\n    function transferOwnership(address newOwner) public virtual onlyOwner {\n        require(\n            newOwner != address(0),\n            \"Ownable: new owner is the zero address\"\n        );\n        _transferOwnership(newOwner);\n    }\n\n    /**\n     * @dev Transfers ownership of the contract to a new account (`newOwner`).\n     * Internal function without access restriction.\n     */\n    function _transferOwnership(address newOwner) internal virtual {\n        address oldOwner = _owner;\n        _owner = newOwner;\n        emit OwnershipTransferred(oldOwner, newOwner);\n    }\n}\n\n// File: @openzeppelin/contracts/utils/Address.sol\n\n// OpenZeppelin Contracts v4.4.1 (utils/Address.sol)\n\npragma solidity ^0.8.0;\n\n/**\n * @dev Collection of functions related to the address type\n */\nlibrary Address {\n    /**\n     * @dev Returns true if `account` is a contract.\n     *\n     * [IMPORTANT]\n     * ====\n     * It is unsafe to assume that an address for which this function returns\n     * false is an externally-owned account (EOA) and not a contract.\n     *\n     * Among others, `isContract` will return false for the following\n     * types of addresses:\n     *\n     *  - an externally-owned account\n     *  - a contract in construction\n     *  - an address where a contract will be created\n     *  - an address where a contract lived, but was destroyed\n     * ====\n     */\n    function isContract(address account) internal view returns (bool) {\n        // This method relies on extcodesize, which returns 0 for contracts in\n        // construction, since the code is only stored at the end of the\n        // constructor execution.\n\n        uint256 size;\n        assembly {\n            size := extcodesize(account)\n        }\n        return size > 0;\n    }\n\n    /**\n     * @dev Replacement for Solidity's `transfer`: sends `amount` wei to\n     * `recipient`, forwarding all available gas and reverting on errors.\n     *\n     * https://eips.ethereum.org/EIPS/eip-1884[EIP1884] increases the gas cost\n     * of certain opcodes, possibly making contracts go over the 2300 gas limit\n     * imposed by `transfer`, making them unable to receive funds via\n     * `transfer`. {sendValue} removes this limitation.\n     *\n     * https://diligence.consensys.net/posts/2019/09/stop-using-soliditys-transfer-now/[Learn more].\n     *\n     * IMPORTANT: because control is transferred to `recipient`, care must be\n     * taken to not create reentrancy vulnerabilities. Consider using\n     * {ReentrancyGuard} or the\n     * https://solidity.readthedocs.io/en/v0.5.11/security-considerations.html#use-the-checks-effects-interactions-pattern[checks-effects-interactions pattern].\n     */\n    function sendValue(address payable recipient, uint256 amount) internal {\n        require(\n            address(this).balance >= amount,\n            \"Address: insufficient balance\"\n        );\n\n        (bool success, ) = recipient.call{value: amount}(\"\");\n        require(\n            success,\n            \"Address: unable to send value, recipient may have reverted\"\n        );\n    }\n\n    /**\n     * @dev Performs a Solidity function call using a low level `call`. A\n     * plain `call` is an unsafe replacement for a function call: use this\n     * function instead.\n     *\n     * If `target` reverts with a revert reason, it is bubbled up by this\n     * function (like regular Solidity function calls).\n     *\n     * Returns the raw returned data. To convert to the expected return value,\n     * use https://solidity.readthedocs.io/en/latest/units-and-global-variables.html?highlight=abi.decode#abi-encoding-and-decoding-functions[`abi.decode`].\n     *\n     * Requirements:\n     *\n     * - `target` must be a contract.\n     * - calling `target` with `data` must not revert.\n     *\n     * _Available since v3.1._\n     */\n    function functionCall(address target, bytes memory data)\n        internal\n        returns (bytes memory)\n    {\n        return functionCall(target, data, \"Address: low-level call failed\");\n    }\n\n    /**\n     * @dev Same as {xref-Address-functionCall-address-bytes-}[`functionCall`], but with\n     * `errorMessage` as a fallback revert reason when `target` reverts.\n     *\n     * _Available since v3.1._\n     */\n    function functionCall(\n        address target,\n        bytes memory data,\n        string memory errorMessage\n    ) internal returns (bytes memory) {\n        return functionCallWithValue(target, data, 0, errorMessage);\n    }\n\n    /**\n     * @dev Same as {xref-Address-functionCall-address-bytes-}[`functionCall`],\n     * but also transferring `value` wei to `target`.\n     *\n     * Requirements:\n     *\n     * - the calling contract must have an ETH balance of at least `value`.\n     * - the called Solidity function must be `payable`.\n     *\n     * _Available since v3.1._\n     */\n    function functionCallWithValue(\n        address target,\n        bytes memory data,\n        uint256 value\n    ) internal returns (bytes memory) {\n        return\n            functionCallWithValue(\n                target,\n                data,\n                value,\n                \"Address: low-level call with value failed\"\n            );\n    }\n\n    /**\n     * @dev Same as {xref-Address-functionCallWithValue-address-bytes-uint256-}[`functionCallWithValue`], but\n     * with `errorMessage` as a fallback revert reason when `target` reverts.\n     *\n     * _Available since v3.1._\n     */\n    function functionCallWithValue(\n        address target,\n        bytes memory data,\n        uint256 value,\n        string memory errorMessage\n    ) internal returns (bytes memory) {\n        require(\n            address(this).balance >= value,\n            \"Address: insufficient balance for call\"\n        );\n        require(isContract(target), \"Address: call to non-contract\");\n\n        (bool success, bytes memory returndata) = target.call{value: value}(\n            data\n        );\n        return verifyCallResult(success, returndata, errorMessage);\n    }\n\n    /**\n     * @dev Same as {xref-Address-functionCall-address-bytes-}[`functionCall`],\n     * but performing a static call.\n     *\n     * _Available since v3.3._\n     */\n    function functionStaticCall(address target, bytes memory data)\n        internal\n        view\n        returns (bytes memory)\n    {\n        return\n            functionStaticCall(\n                target,\n                data,\n                \"Address: low-level static call failed\"\n            );\n    }\n\n    /**\n     * @dev Same as {xref-Address-functionCall-address-bytes-string-}[`functionCall`],\n     * but performing a static call.\n     *\n     * _Available since v3.3._\n     */\n    function functionStaticCall(\n        address target,\n        bytes memory data,\n        string memory errorMessage\n    ) internal view returns (bytes memory) {\n        require(isContract(target), \"Address: static call to non-contract\");\n\n        (bool success, bytes memory returndata) = target.staticcall(data);\n        return verifyCallResult(success, returndata, errorMessage);\n    }\n\n    /**\n     * @dev Same as {xref-Address-functionCall-address-bytes-}[`functionCall`],\n     * but performing a delegate call.\n     *\n     * _Available since v3.4._\n     */\n    function functionDelegateCall(address target, bytes memory data)\n        internal\n        returns (bytes memory)\n    {\n        return\n            functionDelegateCall(\n                target,\n                data,\n                \"Address: low-level delegate call failed\"\n            );\n    }\n\n    /**\n     * @dev Same as {xref-Address-functionCall-address-bytes-string-}[`functionCall`],\n     * but performing a delegate call.\n     *\n     * _Available since v3.4._\n     */\n    function functionDelegateCall(\n        address target,\n        bytes memory data,\n        string memory errorMessage\n    ) internal returns (bytes memory) {\n        require(isContract(target), \"Address: delegate call to non-contract\");\n\n        (bool success, bytes memory returndata) = target.delegatecall(data);\n        return verifyCallResult(success, returndata, errorMessage);\n    }\n\n    /**\n     * @dev Tool to verifies that a low level call was successful, and revert if it wasn't, either by bubbling the\n     * revert reason using the provided one.\n     *\n     * _Available since v4.3._\n     */\n    function verifyCallResult(\n        bool success,\n        bytes memory returndata,\n        string memory errorMessage\n    ) internal pure returns (bytes memory) {\n        if (success) {\n            return returndata;\n        } else {\n            // Look for revert reason and bubble it up if present\n            if (returndata.length > 0) {\n                // The easiest way to bubble the revert reason is using memory via assembly\n\n                assembly {\n                    let returndata_size := mload(returndata)\n                    revert(add(32, returndata), returndata_size)\n                }\n            } else {\n                revert(errorMessage);\n            }\n        }\n    }\n}\n\n// File: @openzeppelin/contracts/token/ERC721/IERC721Receiver.sol\n\n// OpenZeppelin Contracts v4.4.1 (token/ERC721/IERC721Receiver.sol)\n\npragma solidity ^0.8.0;\n\n/**\n * @title ERC721 token receiver interface\n * @dev Interface for any contract that wants to support safeTransfers\n * from ERC721 asset contracts.\n */\ninterface IERC721Receiver {\n    /**\n     * @dev Whenever an {IERC721} `tokenId` token is transferred to this contract via {IERC721-safeTransferFrom}\n     * by `operator` from `from`, this function is called.\n     *\n     * It must return its Solidity selector to confirm the token transfer.\n     * If any other value is returned or the interface is not implemented by the recipient, the transfer will be reverted.\n     *\n     * The selector can be obtained in Solidity with `IERC721.onERC721Received.selector`.\n     */\n    function onERC721Received(\n        address operator,\n        address from,\n        uint256 tokenId,\n        bytes calldata data\n    ) external returns (bytes4);\n}\n\n// File: @openzeppelin/contracts/utils/introspection/IERC165.sol\n\n// OpenZeppelin Contracts v4.4.1 (utils/introspection/IERC165.sol)\n\npragma solidity ^0.8.0;\n\n/**\n * @dev Interface of the ERC165 standard, as defined in the\n * https://eips.ethereum.org/EIPS/eip-165[EIP].\n *\n * Implementers can declare support of contract interfaces, which can then be\n * queried by others ({ERC165Checker}).\n *\n * For an implementation, see {ERC165}.\n */\ninterface IERC165 {\n    /**\n     * @dev Returns true if this contract implements the interface defined by\n     * `interfaceId`. See the corresponding\n     * https://eips.ethereum.org/EIPS/eip-165#how-interfaces-are-identified[EIP section]\n     * to learn more about how these ids are created.\n     *\n     * This function call must use less than 30 000 gas.\n     */\n    function supportsInterface(bytes4 interfaceId) external view returns (bool);\n}\n\n// File: @openzeppelin/contracts/utils/introspection/ERC165.sol\n\n// OpenZeppelin Contracts v4.4.1 (utils/introspection/ERC165.sol)\n\npragma solidity ^0.8.0;\n\n/**\n * @dev Implementation of the {IERC165} interface.\n *\n * Contracts that want to implement ERC165 should inherit from this contract and override {supportsInterface} to check\n * for the additional interface id that will be supported. For example:\n *\n * ```solidity\n * function supportsInterface(bytes4 interfaceId) public view virtual override returns (bool) {\n *     return interfaceId == type(MyInterface).interfaceId || super.supportsInterface(interfaceId);\n * }\n * ```\n *\n * Alternatively, {ERC165Storage} provides an easier to use but more expensive implementation.\n */\nabstract contract ERC165 is IERC165 {\n    /**\n     * @dev See {IERC165-supportsInterface}.\n     */\n    function supportsInterface(bytes4 interfaceId)\n        public\n        view\n        virtual\n        override\n        returns (bool)\n    {\n        return interfaceId == type(IERC165).interfaceId;\n    }\n}\n\n// File: @openzeppelin/contracts/token/ERC721/IERC721.sol\n\n// OpenZeppelin Contracts v4.4.1 (token/ERC721/IERC721.sol)\n\npragma solidity ^0.8.0;\n\n/**\n * @dev Required interface of an ERC721 compliant contract.\n */\ninterface IERC721 is IERC165 {\n    /**\n     * @dev Emitted when `tokenId` token is transferred from `from` to `to`.\n     */\n    event Transfer(\n        address indexed from,\n        address indexed to,\n        uint256 indexed tokenId\n    );\n\n    /**\n     * @dev Emitted when `owner` enables `approved` to manage the `tokenId` token.\n     */\n    event Approval(\n        address indexed owner,\n        address indexed approved,\n        uint256 indexed tokenId\n    );\n\n    /**\n     * @dev Emitted when `owner` enables or disables (`approved`) `operator` to manage all of its assets.\n     */\n    event ApprovalForAll(\n        address indexed owner,\n        address indexed operator,\n        bool approved\n    );\n\n    /**\n     * @dev Returns the number of tokens in ``owner``'s account.\n     */\n    function balanceOf(address owner) external view returns (uint256 balance);\n\n    /**\n     * @dev Returns the owner of the `tokenId` token.\n     *\n     * Requirements:\n     *\n     * - `tokenId` must exist.\n     */\n    function ownerOf(uint256 tokenId) external view returns (address owner);\n\n    /**\n     * @dev Safely transfers `tokenId` token from `from` to `to`, checking first that contract recipients\n     * are aware of the ERC721 protocol to prevent tokens from being forever locked.\n     *\n     * Requirements:\n     *\n     * - `from` cannot be the zero address.\n     * - `to` cannot be the zero address.\n     * - `tokenId` token must exist and be owned by `from`.\n     * - If the caller is not `from`, it must be have been allowed to move this token by either {approve} or {setApprovalForAll}.\n     * - If `to` refers to a smart contract, it must implement {IERC721Receiver-onERC721Received}, which is called upon a safe transfer.\n     *\n     * Emits a {Transfer} event.\n     */\n    function safeTransferFrom(\n        address from,\n        address to,\n        uint256 tokenId\n    ) external;\n\n    /**\n     * @dev Transfers `tokenId` token from `from` to `to`.\n     *\n     * WARNING: Usage of this method is discouraged, use {safeTransferFrom} whenever possible.\n     *\n     * Requirements:\n     *\n     * - `from` cannot be the zero address.\n     * - `to` cannot be the zero address.\n     * - `tokenId` token must be owned by `from`.\n     * - If the caller is not `from`, it must be approved to move this token by either {approve} or {setApprovalForAll}.\n     *\n     * Emits a {Transfer} event.\n     */\n    function transferFrom(\n        address from,\n        address to,\n        uint256 tokenId\n    ) external;\n\n    /**\n     * @dev Gives permission to `to` to transfer `tokenId` token to another account.\n     * The approval is cleared when the token is transferred.\n     *\n     * Only a single account can be approved at a time, so approving the zero address clears previous approvals.\n     *\n     * Requirements:\n     *\n     * - The caller must own the token or be an approved operator.\n     * - `tokenId` must exist.\n     *\n     * Emits an {Approval} event.\n     */\n    function approve(address to, uint256 tokenId) external;\n\n    /**\n     * @dev Returns the account approved for `tokenId` token.\n     *\n     * Requirements:\n     *\n     * - `tokenId` must exist.\n     */\n    function getApproved(uint256 tokenId)\n        external\n        view\n        returns (address operator);\n\n    /**\n     * @dev Approve or remove `operator` as an operator for the caller.\n     * Operators can call {transferFrom} or {safeTransferFrom} for any token owned by the caller.\n     *\n     * Requirements:\n     *\n     * - The `operator` cannot be the caller.\n     *\n     * Emits an {ApprovalForAll} event.\n     */\n    function setApprovalForAll(address operator, bool _approved) external;\n\n    /**\n     * @dev Returns if the `operator` is allowed to manage all of the assets of `owner`.\n     *\n     * See {setApprovalForAll}\n     */\n    function isApprovedForAll(address owner, address operator)\n        external\n        view\n        returns (bool);\n\n    /**\n     * @dev Safely transfers `tokenId` token from `from` to `to`.\n     *\n     * Requirements:\n     *\n     * - `from` cannot be the zero address.\n     * - `to` cannot be the zero address.\n     * - `tokenId` token must exist and be owned by `from`.\n     * - If the caller is not `from`, it must be approved to move this token by either {approve} or {setApprovalForAll}.\n     * - If `to` refers to a smart contract, it must implement {IERC721Receiver-onERC721Received}, which is called upon a safe transfer.\n     *\n     * Emits a {Transfer} event.\n     */\n    function safeTransferFrom(\n        address from,\n        address to,\n        uint256 tokenId,\n        bytes calldata data\n    ) external;\n}\n\n// File: @openzeppelin/contracts/token/ERC721/extensions/IERC721Enumerable.sol\n\n// OpenZeppelin Contracts v4.4.1 (token/ERC721/extensions/IERC721Enumerable.sol)\n\npragma solidity ^0.8.0;\n\n/**\n * @title ERC-721 Non-Fungible Token Standard, optional enumeration extension\n * @dev See https://eips.ethereum.org/EIPS/eip-721\n */\ninterface IERC721Enumerable is IERC721 {\n    /**\n     * @dev Returns the total amount of tokens stored by the contract.\n     */\n    function totalSupply() external view returns (uint256);\n\n    /**\n     * @dev Returns a token ID owned by `owner` at a given `index` of its token list.\n     * Use along with {balanceOf} to enumerate all of ``owner``'s tokens.\n     */\n    function tokenOfOwnerByIndex(address owner, uint256 index)\n        external\n        view\n        returns (uint256 tokenId);\n\n    /**\n     * @dev Returns a token ID at a given `index` of all the tokens stored by the contract.\n     * Use along with {totalSupply} to enumerate all tokens.\n     */\n    function tokenByIndex(uint256 index) external view returns (uint256);\n}\n\n// File: @openzeppelin/contracts/token/ERC721/extensions/IERC721Metadata.sol\n\n// OpenZeppelin Contracts v4.4.1 (token/ERC721/extensions/IERC721Metadata.sol)\n\npragma solidity ^0.8.0;\n\n/**\n * @title ERC-721 Non-Fungible Token Standard, optional metadata extension\n * @dev See https://eips.ethereum.org/EIPS/eip-721\n */\ninterface IERC721Metadata is IERC721 {\n    /**\n     * @dev Returns the token collection name.\n     */\n    function name() external view returns (string memory);\n\n    /**\n     * @dev Returns the token collection symbol.\n     */\n    function symbol() external view returns (string memory);\n\n    /**\n     * @dev Returns the Uniform Resource Identifier (URI) for `tokenId` token.\n     */\n    function tokenURI(uint256 tokenId) external view returns (string memory);\n}\n\n// File: contracts/ERC721A.sol\n\n// Creators: locationtba.eth, 2pmflow.eth\n\npragma solidity ^0.8.0;\n\n/**\n * @dev Implementation of https://eips.ethereum.org/EIPS/eip-721[ERC721] Non-Fungible Token Standard, including\n * the Metadata and Enumerable extension. Built to optimize for lower gas during batch mints.\n *\n * Assumes serials are sequentially minted starting at 0 (e.g. 0, 1, 2, 3..).\n *\n * Does not support burning tokens to address(0).\n */\ncontract ERC721A is\n    Context,\n    ERC165,\n    IERC721,\n    IERC721Metadata,\n    IERC721Enumerable\n{\n    using Address for address;\n    using Strings for uint256;\n\n    struct TokenOwnership {\n        address addr;\n        uint64 startTimestamp;\n    }\n\n    struct AddressData {\n        uint128 balance;\n        uint128 numberMinted;\n    }\n\n    uint256 private currentIndex = 0;\n\n    uint256 internal immutable maxBatchSize;\n\n    // Token name\n    string private _name;\n\n    // Token symbol\n    string private _symbol;\n\n    // Mapping from token ID to ownership details\n    // An empty struct value does not necessarily mean the token is unowned. See ownershipOf implementation for details.\n    mapping(uint256 => TokenOwnership) private _ownerships;\n\n    // Mapping owner address to address data\n    mapping(address => AddressData) private _addressData;\n\n    // Mapping from token ID to approved address\n    mapping(uint256 => address) private _tokenApprovals;\n\n    // Mapping from owner to operator approvals\n    mapping(address => mapping(address => bool)) private _operatorApprovals;\n\n    /**\n     * @dev\n     * `maxBatchSize` refers to how much a minter can mint at a time.\n     */\n    constructor(\n        string memory name_,\n        string memory symbol_,\n        uint256 maxBatchSize_\n    ) {\n        require(maxBatchSize_ > 0, \"ERC721A: max batch size must be nonzero\");\n        _name = name_;\n        _symbol = symbol_;\n        maxBatchSize = maxBatchSize_;\n    }\n\n    /**\n     * @dev See {IERC721Enumerable-totalSupply}.\n     */\n    function totalSupply() public view override returns (uint256) {\n        return currentIndex;\n    }\n\n    /**\n     * @dev See {IERC721Enumerable-tokenByIndex}.\n     */\n    function tokenByIndex(uint256 index)\n        public\n        view\n        override\n        returns (uint256)\n    {\n        require(index < totalSupply(), \"ERC721A: global index out of bounds\");\n        return index;\n    }\n\n    /**\n     * @dev See {IERC721Enumerable-tokenOfOwnerByIndex}.\n     * This read function is O(totalSupply). If calling from a separate contract, be sure to test gas first.\n     * It may also degrade with extremely large collection sizes (e.g >> 10000), test for your use case.\n     */\n    function tokenOfOwnerByIndex(address owner, uint256 index)\n        public\n        view\n        override\n        returns (uint256)\n    {\n        require(index < balanceOf(owner), \"ERC721A: owner index out of bounds\");\n        uint256 numMintedSoFar = totalSupply();\n        uint256 tokenIdsIdx = 0;\n        address currOwnershipAddr = address(0);\n        for (uint256 i = 0; i < numMintedSoFar; i++) {\n            TokenOwnership memory ownership = _ownerships[i];\n            if (ownership.addr != address(0)) {\n                currOwnershipAddr = ownership.addr;\n            }\n            if (currOwnershipAddr == owner) {\n                if (tokenIdsIdx == index) {\n                    return i;\n                }\n                tokenIdsIdx++;\n            }\n        }\n        revert(\"ERC721A: unable to get token of owner by index\");\n    }\n\n    /**\n     * @dev See {IERC165-supportsInterface}.\n     */\n    function supportsInterface(bytes4 interfaceId)\n        public\n        view\n        virtual\n        override(ERC165, IERC165)\n        returns (bool)\n    {\n        return\n            interfaceId == type(IERC721).interfaceId ||\n            interfaceId == type(IERC721Metadata).interfaceId ||\n            interfaceId == type(IERC721Enumerable).interfaceId ||\n            super.supportsInterface(interfaceId);\n    }\n\n    /**\n     * @dev See {IERC721-balanceOf}.\n     */\n    function balanceOf(address owner) public view override returns (uint256) {\n        require(\n            owner != address(0),\n            \"ERC721A: balance query for the zero address\"\n        );\n        return uint256(_addressData[owner].balance);\n    }\n\n    function _numberMinted(address owner) internal view returns (uint256) {\n        require(\n            owner != address(0),\n            \"ERC721A: number minted query for the zero address\"\n        );\n        return uint256(_addressData[owner].numberMinted);\n    }\n\n    function ownershipOf(uint256 tokenId)\n        internal\n        view\n        returns (TokenOwnership memory)\n    {\n        require(_exists(tokenId), \"ERC721A: owner query for nonexistent token\");\n\n        uint256 lowestTokenToCheck;\n        if (tokenId >= maxBatchSize) {\n            lowestTokenToCheck = tokenId - maxBatchSize + 1;\n        }\n\n        for (uint256 curr = tokenId; curr >= lowestTokenToCheck; curr--) {\n            TokenOwnership memory ownership = _ownerships[curr];\n            if (ownership.addr != address(0)) {\n                return ownership;\n            }\n        }\n\n        revert(\"ERC721A: unable to determine the owner of token\");\n    }\n\n    /**\n     * @dev See {IERC721-ownerOf}.\n     */\n    function ownerOf(uint256 tokenId) public view override returns (address) {\n        return ownershipOf(tokenId).addr;\n    }\n\n    /**\n     * @dev See {IERC721Metadata-name}.\n     */\n    function name() public view virtual override returns (string memory) {\n        return _name;\n    }\n\n    /**\n     * @dev See {IERC721Metadata-symbol}.\n     */\n    function symbol() public view virtual override returns (string memory) {\n        return _symbol;\n    }\n\n    /**\n     * @dev See {IERC721Metadata-tokenURI}.\n     */\n    function tokenURI(uint256 tokenId)\n        public\n        view\n        virtual\n        override\n        returns (string memory)\n    {\n        require(\n            _exists(tokenId),\n            \"ERC721Metadata: URI query for nonexistent token\"\n        );\n\n        string memory baseURI = _baseURI();\n        return\n            bytes(baseURI).length > 0\n                ? string(abi.encodePacked(baseURI, tokenId.toString(), \".json\"))\n                : \"\";\n    }\n\n    /**\n     * @dev Base URI for computing {tokenURI}. If set, the resulting URI for each\n     * token will be the concatenation of the `baseURI` and the `tokenId`. Empty\n     * by default, can be overriden in child contracts.\n     */\n    function _baseURI() internal view virtual returns (string memory) {\n        return \"\";\n    }\n\n    /**\n     * @dev See {IERC721-approve}.\n     */\n    function approve(address to, uint256 tokenId) public override {\n        address owner = ERC721A.ownerOf(tokenId);\n        require(to != owner, \"ERC721A: approval to current owner\");\n\n        require(\n            _msgSender() == owner || isApprovedForAll(owner, _msgSender()),\n            \"ERC721A: approve caller is not owner nor approved for all\"\n        );\n\n        _approve(to, tokenId, owner);\n    }\n\n    /**\n     * @dev See {IERC721-getApproved}.\n     */\n    function getApproved(uint256 tokenId)\n        public\n        view\n        override\n        returns (address)\n    {\n        require(\n            _exists(tokenId),\n            \"ERC721A: approved query for nonexistent token\"\n        );\n\n        return _tokenApprovals[tokenId];\n    }\n\n    /**\n     * @dev See {IERC721-setApprovalForAll}.\n     */\n    function setApprovalForAll(address operator, bool approved)\n        public\n        override\n    {\n        require(operator != _msgSender(), \"ERC721A: approve to caller\");\n\n        _operatorApprovals[_msgSender()][operator] = approved;\n        emit ApprovalForAll(_msgSender(), operator, approved);\n    }\n\n    /**\n     * @dev See {IERC721-isApprovedForAll}.\n     */\n    function isApprovedForAll(address owner, address operator)\n        public\n        view\n        virtual\n        override\n        returns (bool)\n    {\n        return _operatorApprovals[owner][operator];\n    }\n\n    /**\n     * @dev See {IERC721-transferFrom}.\n     */\n    function transferFrom(\n        address from,\n        address to,\n        uint256 tokenId\n    ) public override {\n        _transfer(from, to, tokenId);\n    }\n\n    /**\n     * @dev See {IERC721-safeTransferFrom}.\n     */\n    function safeTransferFrom(\n        address from,\n        address to,\n        uint256 tokenId\n    ) public override {\n        safeTransferFrom(from, to, tokenId, \"\");\n    }\n\n    /**\n     * @dev See {IERC721-safeTransferFrom}.\n     */\n    function safeTransferFrom(\n        address from,\n        address to,\n        uint256 tokenId,\n        bytes memory _data\n    ) public override {\n        _transfer(from, to, tokenId);\n        require(\n            _checkOnERC721Received(from, to, tokenId, _data),\n            \"ERC721A: transfer to non ERC721Receiver implementer\"\n        );\n    }\n\n    /**\n     * @dev Returns whether `tokenId` exists.\n     *\n     * Tokens can be managed by their owner or approved accounts via {approve} or {setApprovalForAll}.\n     *\n     * Tokens start existing when they are minted (`_mint`),\n     */\n    function _exists(uint256 tokenId) internal view returns (bool) {\n        return tokenId < currentIndex;\n    }\n\n    function _safeMint(address to, uint256 quantity) internal {\n        _safeMint(to, quantity, \"\");\n    }\n\n    /**\n     * @dev Mints `quantity` tokens and transfers them to `to`.\n     *\n     * Requirements:\n     *\n     * - `to` cannot be the zero address.\n     * - `quantity` cannot be larger than the max batch size.\n     *\n     * Emits a {Transfer} event.\n     */\n    function _safeMint(\n        address to,\n        uint256 quantity,\n        bytes memory _data\n    ) internal {\n        uint256 startTokenId = currentIndex;\n        require(to != address(0), \"ERC721A: mint to the zero address\");\n        // We know if the first token in the batch doesn't exist, the other ones don't as well, because of serial ordering.\n        require(!_exists(startTokenId), \"ERC721A: token already minted\");\n        require(quantity <= maxBatchSize, \"ERC721A: quantity to mint too high\");\n\n        _beforeTokenTransfers(address(0), to, startTokenId, quantity);\n\n        AddressData memory addressData = _addressData[to];\n        _addressData[to] = AddressData(\n            addressData.balance + uint128(quantity),\n            addressData.numberMinted + uint128(quantity)\n        );\n        _ownerships[startTokenId] = TokenOwnership(to, uint64(block.timestamp));\n\n        uint256 updatedIndex = startTokenId;\n\n        for (uint256 i = 0; i < quantity; i++) {\n            emit Transfer(address(0), to, updatedIndex);\n            require(\n                _checkOnERC721Received(address(0), to, updatedIndex, _data),\n                \"ERC721A: transfer to non ERC721Receiver implementer\"\n            );\n            updatedIndex++;\n        }\n\n        currentIndex = updatedIndex;\n        _afterTokenTransfers(address(0), to, startTokenId, quantity);\n    }\n\n    /**\n     * @dev Transfers `tokenId` from `from` to `to`.\n     *\n     * Requirements:\n     *\n     * - `to` cannot be the zero address.\n     * - `tokenId` token must be owned by `from`.\n     *\n     * Emits a {Transfer} event.\n     */\n    function _transfer(\n        address from,\n        address to,\n        uint256 tokenId\n    ) private {\n        TokenOwnership memory prevOwnership = ownershipOf(tokenId);\n\n        bool isApprovedOrOwner = (_msgSender() == prevOwnership.addr ||\n            getApproved(tokenId) == _msgSender() ||\n            isApprovedForAll(prevOwnership.addr, _msgSender()));\n\n        require(\n            isApprovedOrOwner,\n            \"ERC721A: transfer caller is not owner nor approved\"\n        );\n\n        require(\n            prevOwnership.addr == from,\n            \"ERC721A: transfer from incorrect owner\"\n        );\n        require(to != address(0), \"ERC721A: transfer to the zero address\");\n\n        _beforeTokenTransfers(from, to, tokenId, 1);\n\n        // Clear approvals from the previous owner\n        _approve(address(0), tokenId, prevOwnership.addr);\n\n        _addressData[from].balance -= 1;\n        _addressData[to].balance += 1;\n        _ownerships[tokenId] = TokenOwnership(to, uint64(block.timestamp));\n\n        // If the ownership slot of tokenId+1 is not explicitly set, that means the transfer initiator owns it.\n        // Set the slot of tokenId+1 explicitly in storage to maintain correctness for ownerOf(tokenId+1) calls.\n        uint256 nextTokenId = tokenId + 1;\n        if (_ownerships[nextTokenId].addr == address(0)) {\n            if (_exists(nextTokenId)) {\n                _ownerships[nextTokenId] = TokenOwnership(\n                    prevOwnership.addr,\n                    prevOwnership.startTimestamp\n                );\n            }\n        }\n\n        emit Transfer(from, to, tokenId);\n        _afterTokenTransfers(from, to, tokenId, 1);\n    }\n\n    /**\n     * @dev Approve `to` to operate on `tokenId`\n     *\n     * Emits a {Approval} event.\n     */\n    function _approve(\n        address to,\n        uint256 tokenId,\n        address owner\n    ) private {\n        _tokenApprovals[tokenId] = to;\n        emit Approval(owner, to, tokenId);\n    }\n\n    uint256 public nextOwnerToExplicitlySet = 0;\n\n    /**\n     * @dev Explicitly set `owners` to eliminate loops in future calls of ownerOf().\n     */\n    function _setOwnersExplicit(uint256 quantity) internal {\n        uint256 oldNextOwnerToSet = nextOwnerToExplicitlySet;\n        require(quantity > 0, \"quantity must be nonzero\");\n        uint256 endIndex = oldNextOwnerToSet + quantity - 1;\n        if (endIndex > currentIndex - 1) {\n            endIndex = currentIndex - 1;\n        }\n        // We know if the last one in the group exists, all in the group exist, due to serial ordering.\n        require(_exists(endIndex), \"not enough minted yet for this cleanup\");\n        for (uint256 i = oldNextOwnerToSet; i <= endIndex; i++) {\n            if (_ownerships[i].addr == address(0)) {\n                TokenOwnership memory ownership = ownershipOf(i);\n                _ownerships[i] = TokenOwnership(\n                    ownership.addr,\n                    ownership.startTimestamp\n                );\n            }\n        }\n        nextOwnerToExplicitlySet = endIndex + 1;\n    }\n\n    /**\n     * @dev Internal function to invoke {IERC721Receiver-onERC721Received} on a target address.\n     * The call is not executed if the target address is not a contract.\n     *\n     * @param from address representing the previous owner of the given token ID\n     * @param to target address that will receive the tokens\n     * @param tokenId uint256 ID of the token to be transferred\n     * @param _data bytes optional data to send along with the call\n     * @return bool whether the call correctly returned the expected magic value\n     */\n    function _checkOnERC721Received(\n        address from,\n        address to,\n        uint256 tokenId,\n        bytes memory _data\n    ) private returns (bool) {\n        if (to.isContract()) {\n            try\n                IERC721Receiver(to).onERC721Received(\n                    _msgSender(),\n                    from,\n                    tokenId,\n                    _data\n                )\n            returns (bytes4 retval) {\n                return retval == IERC721Receiver(to).onERC721Received.selector;\n            } catch (bytes memory reason) {\n                if (reason.length == 0) {\n                    revert(\n                        \"ERC721A: transfer to non ERC721Receiver implementer\"\n                    );\n                } else {\n                    assembly {\n                        revert(add(32, reason), mload(reason))\n                    }\n                }\n            }\n        } else {\n            return true;\n        }\n    }\n\n    /**\n     * @dev Hook that is called before a set of serially-ordered token ids are about to be transferred. This includes minting.\n     *\n     * startTokenId - the first token id to be transferred\n     * quantity - the amount to be transferred\n     *\n     * Calling conditions:\n     *\n     * - When `from` and `to` are both non-zero, ``from``'s `tokenId` will be\n     * transferred to `to`.\n     * - When `from` is zero, `tokenId` will be minted for `to`.\n     */\n    function _beforeTokenTransfers(\n        address from,\n        address to,\n        uint256 startTokenId,\n        uint256 quantity\n    ) internal virtual {}\n\n    /**\n     * @dev Hook that is called after a set of serially-ordered token ids have been transferred. This includes\n     * minting.\n     *\n     * startTokenId - the first token id to be transferred\n     * quantity - the amount to be transferred\n     *\n     * Calling conditions:\n     *\n     * - when `from` and `to` are both non-zero.\n     * - `from` and `to` are never both zero.\n     */\n    function _afterTokenTransfers(\n        address from,\n        address to,\n        uint256 startTokenId,\n        uint256 quantity\n    ) internal virtual {}\n}\n// File: contracts/BabyPixelDoods.sol\n\npragma solidity ^0.8.0;\n\ncontract BabyPixelDoods is ERC721A, Ownable {\n    using Strings for uint256;\n\n    uint256 public constant MAX_SUPPLY = 3750;\n\n    uint256 public constant MAX_MINT_PER_TX = 10;\n\n    uint256 public constant PRICE = 0.03 ether;\n\n    string public baseURI;\n\n    string public revealedURI;\n\n    bool public mintable = false;\n\n    bool public revealed = false;\n\n    event Mintable(bool mintable);\n\n    event Revealed(bool revealed);\n\n    event BaseURI(string baseURI);\n\n    event RevealedURI(string revealedURI);\n\n    constructor() ERC721A(\"BabyPixelDoods\", \"BPD\", MAX_MINT_PER_TX) {}\n\n    modifier isMintable() {\n        require(mintable, \"NFT cannot be minted yet.\");\n        _;\n    }\n\n    modifier isNotExceedMaxMintPerTx(uint256 amount) {\n        require(amount > 0, \"Mint amount exceeds max limit per tx.\");\n        require(\n            amount <= MAX_MINT_PER_TX,\n            \"Mint amount exceeds max limit per tx.\"\n        );\n        _;\n    }\n\n    modifier isNotExceedAvailableSupply(uint256 amount) {\n        require(\n            totalSupply() + amount <= MAX_SUPPLY,\n            \"There are no more remaining NFT's to mint.\"\n        );\n        _;\n    }\n\n    modifier isPaymentSufficient(uint256 amount) {\n        if (totalSupply() + amount > 15 && totalSupply() < 15) {\n            require(\n                PRICE * (totalSupply() + amount - 15) <= msg.value,\n                \"There was not enough/extra ETH transferred to mint an NFT.\"\n            );\n        } else if (totalSupply() + amount > 15 && totalSupply() > 15) {\n            require(\n                PRICE * amount <= msg.value,\n                \"There was not enough/extra ETH transferred to mint an NFT.\"\n            );\n        }\n        _;\n    }\n\n    function setBaseURI(string memory _URI) public onlyOwner {\n        baseURI = _URI;\n\n        emit BaseURI(baseURI);\n    }\n\n    function setRevealedURI(string memory _URI) public onlyOwner {\n        revealedURI = _URI;\n\n        emit RevealedURI(revealedURI);\n    }\n\n    function flipMintable() public onlyOwner {\n        mintable = !mintable;\n\n        emit Mintable(mintable);\n    }\n\n    function flipRevealed() public onlyOwner {\n        revealed = !revealed;\n\n        emit Revealed(revealed);\n    }\n\n    function mint(uint256 amount)\n        public\n        payable\n        isMintable\n        isNotExceedMaxMintPerTx(amount)\n        isNotExceedAvailableSupply(amount)\n        isPaymentSufficient(amount)\n    {\n        _safeMint(msg.sender, amount);\n    }\n\n    function _baseURI() internal view virtual override returns (string memory) {\n        return baseURI;\n    }\n\n    function withdraw() public onlyOwner {\n        payable(owner()).transfer(address(this).balance);\n    }\n}\n",
  "sourcePath": "/Users/ishreetbhullar/Documents/coding-folder/BabyPixelDoods/contracts/BabyPixelDoods.sol",
  "compiler": {
    "name": "solc",
    "version": "0.8.0+commit.c7dfd78e.Emscripten.clang"
  },
  "schemaVersion": "3.4.3",
  "updatedAt": "2022-01-14T17:30:10.152Z",
  "devdoc": {
    "details": "Implementation of https://eips.ethereum.org/EIPS/eip-721[ERC721] Non-Fungible Token Standard, including the Metadata and Enumerable extension. Built to optimize for lower gas during batch mints. Assumes serials are sequentially minted starting at 0 (e.g. 0, 1, 2, 3..). Does not support burning tokens to address(0).",
    "kind": "dev",
    "methods": {
      "approve(address,uint256)": {
        "details": "See {IERC721-approve}."
      },
      "balanceOf(address)": {
        "details": "See {IERC721-balanceOf}."
      },
      "constructor": {
        "details": "`maxBatchSize` refers to how much a minter can mint at a time."
      },
      "getApproved(uint256)": {
        "details": "See {IERC721-getApproved}."
      },
      "isApprovedForAll(address,address)": {
        "details": "See {IERC721-isApprovedForAll}."
      },
      "name()": {
        "details": "See {IERC721Metadata-name}."
      },
      "ownerOf(uint256)": {
        "details": "See {IERC721-ownerOf}."
      },
      "safeTransferFrom(address,address,uint256)": {
        "details": "See {IERC721-safeTransferFrom}."
      },
      "safeTransferFrom(address,address,uint256,bytes)": {
        "details": "See {IERC721-safeTransferFrom}."
      },
      "setApprovalForAll(address,bool)": {
        "details": "See {IERC721-setApprovalForAll}."
      },
      "supportsInterface(bytes4)": {
        "details": "See {IERC165-supportsInterface}."
      },
      "symbol()": {
        "details": "See {IERC721Metadata-symbol}."
      },
      "tokenByIndex(uint256)": {
        "details": "See {IERC721Enumerable-tokenByIndex}."
      },
      "tokenOfOwnerByIndex(address,uint256)": {
        "details": "See {IERC721Enumerable-tokenOfOwnerByIndex}. This read function is O(totalSupply). If calling from a separate contract, be sure to test gas first. It may also degrade with extremely large collection sizes (e.g >> 10000), test for your use case."
      },
      "tokenURI(uint256)": {
        "details": "See {IERC721Metadata-tokenURI}."
      },
      "totalSupply()": {
        "details": "See {IERC721Enumerable-totalSupply}."
      },
      "transferFrom(address,address,uint256)": {
        "details": "See {IERC721-transferFrom}."
      }
    },
    "version": 1
  },
  "userdoc": {
    "kind": "user",
    "methods": {},
    "version": 1
  }
}