{
  "contractName": "Heartz",
  "abi": [
    {
      "inputs": [],
      "stateMutability": "nonpayable",
      "type": "constructor"
    },
    {
      "anonymous": false,
      "inputs": [
        {
          "indexed": true,
          "internalType": "address",
          "name": "owner",
          "type": "address"
        },
        {
          "indexed": true,
          "internalType": "address",
          "name": "approved",
          "type": "address"
        },
        {
          "indexed": true,
          "internalType": "uint256",
          "name": "tokenId",
          "type": "uint256"
        }
      ],
      "name": "Approval",
      "type": "event"
    },
    {
      "anonymous": false,
      "inputs": [
        {
          "indexed": true,
          "internalType": "address",
          "name": "owner",
          "type": "address"
        },
        {
          "indexed": true,
          "internalType": "address",
          "name": "operator",
          "type": "address"
        },
        {
          "indexed": false,
          "internalType": "bool",
          "name": "approved",
          "type": "bool"
        }
      ],
      "name": "ApprovalForAll",
      "type": "event"
    },
    {
      "anonymous": false,
      "inputs": [
        {
          "indexed": true,
          "internalType": "address",
          "name": "previousOwner",
          "type": "address"
        },
        {
          "indexed": true,
          "internalType": "address",
          "name": "newOwner",
          "type": "address"
        }
      ],
      "name": "OwnershipTransferred",
      "type": "event"
    },
    {
      "anonymous": false,
      "inputs": [
        {
          "indexed": true,
          "internalType": "address",
          "name": "from",
          "type": "address"
        },
        {
          "indexed": true,
          "internalType": "address",
          "name": "to",
          "type": "address"
        },
        {
          "indexed": true,
          "internalType": "uint256",
          "name": "tokenId",
          "type": "uint256"
        }
      ],
      "name": "Transfer",
      "type": "event"
    },
    {
      "inputs": [
        {
          "internalType": "address",
          "name": "to",
          "type": "address"
        },
        {
          "internalType": "uint256",
          "name": "tokenId",
          "type": "uint256"
        }
      ],
      "name": "approve",
      "outputs": [],
      "stateMutability": "nonpayable",
      "type": "function"
    },
    {
      "inputs": [
        {
          "internalType": "address",
          "name": "owner",
          "type": "address"
        }
      ],
      "name": "balanceOf",
      "outputs": [
        {
          "internalType": "uint256",
          "name": "",
          "type": "uint256"
        }
      ],
      "stateMutability": "view",
      "type": "function",
      "constant": true
    },
    {
      "inputs": [],
      "name": "baseURI",
      "outputs": [
        {
          "internalType": "string",
          "name": "",
          "type": "string"
        }
      ],
      "stateMutability": "view",
      "type": "function",
      "constant": true
    },
    {
      "inputs": [
        {
          "internalType": "uint256",
          "name": "tokenId",
          "type": "uint256"
        }
      ],
      "name": "getApproved",
      "outputs": [
        {
          "internalType": "address",
          "name": "",
          "type": "address"
        }
      ],
      "stateMutability": "view",
      "type": "function",
      "constant": true
    },
    {
      "inputs": [
        {
          "internalType": "address",
          "name": "owner",
          "type": "address"
        },
        {
          "internalType": "address",
          "name": "operator",
          "type": "address"
        }
      ],
      "name": "isApprovedForAll",
      "outputs": [
        {
          "internalType": "bool",
          "name": "",
          "type": "bool"
        }
      ],
      "stateMutability": "view",
      "type": "function",
      "constant": true
    },
    {
      "inputs": [],
      "name": "maxNftPurchase",
      "outputs": [
        {
          "internalType": "uint256",
          "name": "",
          "type": "uint256"
        }
      ],
      "stateMutability": "view",
      "type": "function",
      "constant": true
    },
    {
      "inputs": [],
      "name": "maxSupply",
      "outputs": [
        {
          "internalType": "uint256",
          "name": "",
          "type": "uint256"
        }
      ],
      "stateMutability": "view",
      "type": "function",
      "constant": true
    },
    {
      "inputs": [],
      "name": "name",
      "outputs": [
        {
          "internalType": "string",
          "name": "",
          "type": "string"
        }
      ],
      "stateMutability": "view",
      "type": "function",
      "constant": true
    },
    {
      "inputs": [],
      "name": "nftPerAddressLimit",
      "outputs": [
        {
          "internalType": "uint256",
          "name": "",
          "type": "uint256"
        }
      ],
      "stateMutability": "view",
      "type": "function",
      "constant": true
    },
    {
      "inputs": [],
      "name": "nftPrice",
      "outputs": [
        {
          "internalType": "uint256",
          "name": "",
          "type": "uint256"
        }
      ],
      "stateMutability": "view",
      "type": "function",
      "constant": true
    },
    {
      "inputs": [],
      "name": "onlyWhitelisted",
      "outputs": [
        {
          "internalType": "bool",
          "name": "",
          "type": "bool"
        }
      ],
      "stateMutability": "view",
      "type": "function",
      "constant": true
    },
    {
      "inputs": [],
      "name": "owner",
      "outputs": [
        {
          "internalType": "address",
          "name": "",
          "type": "address"
        }
      ],
      "stateMutability": "view",
      "type": "function",
      "constant": true
    },
    {
      "inputs": [
        {
          "internalType": "uint256",
          "name": "tokenId",
          "type": "uint256"
        }
      ],
      "name": "ownerOf",
      "outputs": [
        {
          "internalType": "address",
          "name": "",
          "type": "address"
        }
      ],
      "stateMutability": "view",
      "type": "function",
      "constant": true
    },
    {
      "inputs": [],
      "name": "publicMintingStatus",
      "outputs": [
        {
          "internalType": "bool",
          "name": "",
          "type": "bool"
        }
      ],
      "stateMutability": "view",
      "type": "function",
      "constant": true
    },
    {
      "inputs": [],
      "name": "renounceOwnership",
      "outputs": [],
      "stateMutability": "nonpayable",
      "type": "function"
    },
    {
      "inputs": [],
      "name": "revealed",
      "outputs": [
        {
          "internalType": "bool",
          "name": "",
          "type": "bool"
        }
      ],
      "stateMutability": "view",
      "type": "function",
      "constant": true
    },
    {
      "inputs": [
        {
          "internalType": "address",
          "name": "from",
          "type": "address"
        },
        {
          "internalType": "address",
          "name": "to",
          "type": "address"
        },
        {
          "internalType": "uint256",
          "name": "tokenId",
          "type": "uint256"
        }
      ],
      "name": "safeTransferFrom",
      "outputs": [],
      "stateMutability": "nonpayable",
      "type": "function"
    },
    {
      "inputs": [
        {
          "internalType": "address",
          "name": "from",
          "type": "address"
        },
        {
          "internalType": "address",
          "name": "to",
          "type": "address"
        },
        {
          "internalType": "uint256",
          "name": "tokenId",
          "type": "uint256"
        },
        {
          "internalType": "bytes",
          "name": "_data",
          "type": "bytes"
        }
      ],
      "name": "safeTransferFrom",
      "outputs": [],
      "stateMutability": "nonpayable",
      "type": "function"
    },
    {
      "inputs": [],
      "name": "saleIsActive",
      "outputs": [
        {
          "internalType": "bool",
          "name": "",
          "type": "bool"
        }
      ],
      "stateMutability": "view",
      "type": "function",
      "constant": true
    },
    {
      "inputs": [
        {
          "internalType": "address",
          "name": "operator",
          "type": "address"
        },
        {
          "internalType": "bool",
          "name": "approved",
          "type": "bool"
        }
      ],
      "name": "setApprovalForAll",
      "outputs": [],
      "stateMutability": "nonpayable",
      "type": "function"
    },
    {
      "inputs": [
        {
          "internalType": "bytes4",
          "name": "interfaceId",
          "type": "bytes4"
        }
      ],
      "name": "supportsInterface",
      "outputs": [
        {
          "internalType": "bool",
          "name": "",
          "type": "bool"
        }
      ],
      "stateMutability": "view",
      "type": "function",
      "constant": true
    },
    {
      "inputs": [],
      "name": "symbol",
      "outputs": [
        {
          "internalType": "string",
          "name": "",
          "type": "string"
        }
      ],
      "stateMutability": "view",
      "type": "function",
      "constant": true
    },
    {
      "inputs": [
        {
          "internalType": "uint256",
          "name": "index",
          "type": "uint256"
        }
      ],
      "name": "tokenByIndex",
      "outputs": [
        {
          "internalType": "uint256",
          "name": "",
          "type": "uint256"
        }
      ],
      "stateMutability": "view",
      "type": "function",
      "constant": true
    },
    {
      "inputs": [
        {
          "internalType": "address",
          "name": "owner",
          "type": "address"
        },
        {
          "internalType": "uint256",
          "name": "index",
          "type": "uint256"
        }
      ],
      "name": "tokenOfOwnerByIndex",
      "outputs": [
        {
          "internalType": "uint256",
          "name": "",
          "type": "uint256"
        }
      ],
      "stateMutability": "view",
      "type": "function",
      "constant": true
    },
    {
      "inputs": [],
      "name": "totalSupply",
      "outputs": [
        {
          "internalType": "uint256",
          "name": "",
          "type": "uint256"
        }
      ],
      "stateMutability": "view",
      "type": "function",
      "constant": true
    },
    {
      "inputs": [
        {
          "internalType": "address",
          "name": "from",
          "type": "address"
        },
        {
          "internalType": "address",
          "name": "to",
          "type": "address"
        },
        {
          "internalType": "uint256",
          "name": "tokenId",
          "type": "uint256"
        }
      ],
      "name": "transferFrom",
      "outputs": [],
      "stateMutability": "nonpayable",
      "type": "function"
    },
    {
      "inputs": [
        {
          "internalType": "address",
          "name": "newOwner",
          "type": "address"
        }
      ],
      "name": "transferOwnership",
      "outputs": [],
      "stateMutability": "nonpayable",
      "type": "function"
    },
    {
      "inputs": [
        {
          "internalType": "uint256",
          "name": "",
          "type": "uint256"
        }
      ],
      "name": "whitelistAddresses",
      "outputs": [
        {
          "internalType": "address",
          "name": "",
          "type": "address"
        }
      ],
      "stateMutability": "view",
      "type": "function",
      "constant": true
    },
    {
      "inputs": [],
      "name": "getBalance",
      "outputs": [
        {
          "internalType": "uint256",
          "name": "",
          "type": "uint256"
        }
      ],
      "stateMutability": "view",
      "type": "function",
      "constant": true
    },
    {
      "inputs": [],
      "name": "getWhitelistedAddresses",
      "outputs": [
        {
          "internalType": "address[]",
          "name": "",
          "type": "address[]"
        }
      ],
      "stateMutability": "view",
      "type": "function",
      "constant": true
    },
    {
      "inputs": [
        {
          "internalType": "string",
          "name": "baseURI_",
          "type": "string"
        }
      ],
      "name": "setBaseURI",
      "outputs": [],
      "stateMutability": "nonpayable",
      "type": "function"
    },
    {
      "inputs": [],
      "name": "reveal",
      "outputs": [],
      "stateMutability": "nonpayable",
      "type": "function"
    },
    {
      "inputs": [],
      "name": "flipPublicMintingStatus",
      "outputs": [],
      "stateMutability": "nonpayable",
      "type": "function"
    },
    {
      "inputs": [],
      "name": "flipSaleState",
      "outputs": [],
      "stateMutability": "nonpayable",
      "type": "function"
    },
    {
      "inputs": [],
      "name": "flipOnlyWhitelisted",
      "outputs": [],
      "stateMutability": "nonpayable",
      "type": "function"
    },
    {
      "inputs": [
        {
          "internalType": "uint256",
          "name": "numberOfTokens",
          "type": "uint256"
        }
      ],
      "name": "mint",
      "outputs": [],
      "stateMutability": "payable",
      "type": "function",
      "payable": true
    },
    {
      "inputs": [
        {
          "internalType": "uint256",
          "name": "tokenId",
          "type": "uint256"
        }
      ],
      "name": "tokenURI",
      "outputs": [
        {
          "internalType": "string",
          "name": "",
          "type": "string"
        }
      ],
      "stateMutability": "view",
      "type": "function",
      "constant": true
    },
    {
      "inputs": [],
      "name": "withdraw",
      "outputs": [],
      "stateMutability": "payable",
      "type": "function",
      "payable": true
    },
    {
      "inputs": [
        {
          "internalType": "address",
          "name": "user",
          "type": "address"
        }
      ],
      "name": "isWhitelisted",
      "outputs": [
        {
          "internalType": "bool",
          "name": "",
          "type": "bool"
        }
      ],
      "stateMutability": "view",
      "type": "function",
      "constant": true
    },
    {
      "inputs": [
        {
          "internalType": "address[]",
          "name": "users",
          "type": "address[]"
        }
      ],
      "name": "whitelistUsers",
      "outputs": [],
      "stateMutability": "nonpayable",
      "type": "function"
    }
  ],
  "bytecode": "0x6080604052611d4c600b556005600c55600d805463ff0000001962ff00001961ff001960ff1990931660011792909216610100179190911662010000171690553480156200004c57600080fd5b5060408051808201825260068152652432b0b93a3d60d11b60208083019182528351808501909452600484526324292a2d60e11b908401528151919291620000979160009162000126565b508051620000ad90600190602084019062000126565b505050620000ca620000c4620000d060201b60201c565b620000d4565b62000209565b3390565b600a80546001600160a01b038381166001600160a01b0319831681179093556040519116919082907f8be0079c531659141344cd1fd0a4f28419497f9722a3daafe3b4186f6b6457e090600090a35050565b8280546200013490620001cc565b90600052602060002090601f016020900481019282620001585760008555620001a3565b82601f106200017357805160ff1916838001178555620001a3565b82800160010185558215620001a3579182015b82811115620001a357825182559160200191906001019062000186565b50620001b1929150620001b5565b5090565b5b80821115620001b15760008155600101620001b6565b600281046001821680620001e157607f821691505b602082108114156200020357634e487b7160e01b600052602260045260246000fd5b50919050565b612b7b80620002196000396000f3fe60806040526004361061023b5760003560e01c80636c47a4311161012e578063b88d4fde116100ab578063d5abeb011161006f578063d5abeb0114610601578063e985e9c514610616578063eb8d244414610636578063edec5f271461064b578063f2fde38b1461066b5761023b565b8063b88d4fde14610582578063ba628c9e146105a2578063ba7d2c76146105b7578063bde708f4146105cc578063c87b56dd146105e15761023b565b806395d89b41116100f257806395d89b41146105105780639c70b51214610525578063a0712d681461053a578063a22cb4651461054d578063a475b5dd1461056d5761023b565b80636c47a4311461048f5780636d028027146104a457806370a08231146104c6578063715018a6146104e65780638da5cb5b146104fb5761023b565b806334918dfd116101bc5780635183022711610180578063518302271461040557806355f804b31461041a5780635d1235d41461043a5780636352211e1461045a5780636c0360eb1461047a5761023b565b806334918dfd146103885780633af32abf1461039d5780633ccfd60b146103bd57806342842e0e146103c55780634f6ccce7146103e55761023b565b80630d39fc81116102035780630d39fc81146102fc57806312065fe01461031e57806318160ddd1461033357806323b872dd146103485780632f745c59146103685761023b565b806301ffc9a71461024057806306fdde0314610276578063081812fc1461029857806308c8507e146102c5578063095ea7b3146102dc575b600080fd5b34801561024c57600080fd5b5061026061025b366004612047565b61068b565b60405161026d9190612285565b60405180910390f35b34801561028257600080fd5b5061028b6106b8565b60405161026d9190612290565b3480156102a457600080fd5b506102b86102b33660046120c5565b61074a565b60405161026d91906121e7565b3480156102d157600080fd5b506102da610796565b005b3480156102e857600080fd5b506102da6102f7366004611faf565b6107f2565b34801561030857600080fd5b5061031161088a565b60405161026d919061299d565b34801561032a57600080fd5b50610311610895565b34801561033f57600080fd5b50610311610899565b34801561035457600080fd5b506102da610363366004611ec1565b61089f565b34801561037457600080fd5b50610311610383366004611faf565b6108d7565b34801561039457600080fd5b506102da610929565b3480156103a957600080fd5b506102606103b8366004611e75565b61097c565b6102da6109f5565b3480156103d157600080fd5b506102da6103e0366004611ec1565b610aa0565b3480156103f157600080fd5b506103116104003660046120c5565b610abb565b34801561041157600080fd5b50610260610b16565b34801561042657600080fd5b506102da61043536600461207f565b610b26565b34801561044657600080fd5b506102b86104553660046120c5565b610b7c565b34801561046657600080fd5b506102b86104753660046120c5565b610ba6565b34801561048657600080fd5b5061028b610bdb565b34801561049b57600080fd5b50610260610c69565b3480156104b057600080fd5b506104b9610c77565b60405161026d9190612238565b3480156104d257600080fd5b506103116104e1366004611e75565b610cd8565b3480156104f257600080fd5b506102da610d1c565b34801561050757600080fd5b506102b8610d67565b34801561051c57600080fd5b5061028b610d76565b34801561053157600080fd5b50610260610d85565b6102da6105483660046120c5565b610d94565b34801561055957600080fd5b506102da610568366004611f75565b611011565b34801561057957600080fd5b506102da6110df565b34801561058e57600080fd5b506102da61059d366004611efc565b611133565b3480156105ae57600080fd5b506102da611172565b3480156105c357600080fd5b506103116111d0565b3480156105d857600080fd5b506103116111d6565b3480156105ed57600080fd5b5061028b6105fc3660046120c5565b6111db565b34801561060d57600080fd5b50610311611265565b34801561062257600080fd5b50610260610631366004611e8f565b61126b565b34801561064257600080fd5b50610260611299565b34801561065757600080fd5b506102da610666366004611fd8565b6112a2565b34801561067757600080fd5b506102da610686366004611e75565b6112f9565b60006001600160e01b0319821663780e9d6360e01b14806106b057506106b082611367565b90505b919050565b6060600080546106c790612a40565b80601f01602080910402602001604051908101604052809291908181526020018280546106f390612a40565b80156107405780601f1061071557610100808354040283529160200191610740565b820191906000526020600020905b81548152906001019060200180831161072357829003601f168201915b5050505050905090565b6000610755826113a7565b61077a5760405162461bcd60e51b81526004016107719061274f565b60405180910390fd5b506000908152600460205260409020546001600160a01b031690565b61079e6113c4565b6001600160a01b03166107af610d67565b6001600160a01b0316146107d55760405162461bcd60e51b81526004016107719061279b565b600d805461ff001981166101009182900460ff1615909102179055565b60006107fd82610ba6565b9050806001600160a01b0316836001600160a01b031614156108315760405162461bcd60e51b815260040161077190612819565b806001600160a01b03166108436113c4565b6001600160a01b0316148061085f575061085f816106316113c4565b61087b5760405162461bcd60e51b81526004016107719061262a565b61088583836113c8565b505050565b66b1a2bc2ec5000081565b4790565b60085490565b6108b06108aa6113c4565b82611436565b6108cc5760405162461bcd60e51b8152600401610771906128ae565b6108858383836114bb565b60006108e283610cd8565b82106109005760405162461bcd60e51b8152600401610771906122f6565b506001600160a01b03919091166000908152600660209081526040808320938352929052205490565b6109316113c4565b6001600160a01b0316610942610d67565b6001600160a01b0316146109685760405162461bcd60e51b81526004016107719061279b565b600d805460ff19811660ff90911615179055565b6000805b600e548110156109ec57826001600160a01b0316600e82815481106109b557634e487b7160e01b600052603260045260246000fd5b6000918252602090912001546001600160a01b031614156109da5760019150506106b3565b806109e481612a7b565b915050610980565b50600092915050565b6109fd6113c4565b6001600160a01b0316610a0e610d67565b6001600160a01b031614610a345760405162461bcd60e51b81526004016107719061279b565b6000336001600160a01b031647604051610a4d906121e4565b60006040518083038185875af1925050503d8060008114610a8a576040519150601f19603f3d011682016040523d82523d6000602084013e610a8f565b606091505b5050905080610a9d57600080fd5b50565b61088583838360405180602001604052806000815250611133565b6000610ac5610899565b8210610ae35760405162461bcd60e51b8152600401610771906128ff565b60088281548110610b0457634e487b7160e01b600052603260045260246000fd5b90600052602060002001549050919050565b600d546301000000900460ff1681565b610b2e6113c4565b6001600160a01b0316610b3f610d67565b6001600160a01b031614610b655760405162461bcd60e51b81526004016107719061279b565b8051610b7890600f906020840190611ce4565b5050565b600e8181548110610b8c57600080fd5b6000918252602090912001546001600160a01b0316905081565b6000818152600260205260408120546001600160a01b0316806106b05760405162461bcd60e51b8152600401610771906126d1565b600f8054610be890612a40565b80601f0160208091040260200160405190810160405280929190818152602001828054610c1490612a40565b8015610c615780601f10610c3657610100808354040283529160200191610c61565b820191906000526020600020905b815481529060010190602001808311610c4457829003601f168201915b505050505081565b600d54610100900460ff1681565b6060600e80548060200260200160405190810160405280929190818152602001828054801561074057602002820191906000526020600020905b81546001600160a01b03168152600190910190602001808311610cb1575050505050905090565b60006001600160a01b038216610d005760405162461bcd60e51b815260040161077190612687565b506001600160a01b031660009081526003602052604090205490565b610d246113c4565b6001600160a01b0316610d35610d67565b6001600160a01b031614610d5b5760405162461bcd60e51b81526004016107719061279b565b610d6560006115e8565b565b600a546001600160a01b031690565b6060600180546106c790612a40565b600d5462010000900460ff1681565b60008111610db45760405162461bcd60e51b815260040161077190612410565b600b54610dc982610dc3610899565b9061163a565b1115610de75760405162461bcd60e51b81526004016107719061294b565b610def610d67565b6001600160a01b0316336001600160a01b031614610fbf576014811115610e285760405162461bcd60e51b81526004016107719061285a565b34610e3a66b1a2bc2ec500008361164d565b1115610e585760405162461bcd60e51b8152600401610771906124e8565b600d5460ff16610e7a5760405162461bcd60e51b8152600401610771906125ae565b600d54610100900460ff1615610ee75760005b81811015610ee1576000610e9f610899565b9050600b54610eac610899565b1015610ece57610ebc3382611659565b610ece81610ec9836111db565b611673565b5080610ed981612a7b565b915050610e8d565b50610fba565b600d5462010000900460ff1615610fba57610f013361097c565b610f1d5760405162461bcd60e51b8152600401610771906125e5565b600c54610f2933610cd8565b108015610f4a5750610f46610f3d33610cd8565b600c54906116b7565b8111155b610f665760405162461bcd60e51b8152600401610771906122a3565b60005b81811015610fb8576000610f7b610899565b9050600b54610f88610899565b1015610fa557610f983382611659565b610fa581610ec9836111db565b5080610fb081612a7b565b915050610f69565b505b610a9d565b60005b81811015610b78576000610fd4610899565b9050600b54610fe1610899565b1015610ffe57610ff13382611659565b610ffe81610ec9836111db565b508061100981612a7b565b915050610fc2565b6110196113c4565b6001600160a01b0316826001600160a01b0316141561104a5760405162461bcd60e51b8152600401610771906124b1565b80600560006110576113c4565b6001600160a01b03908116825260208083019390935260409182016000908120918716808252919093529120805460ff19169215159290921790915561109b6113c4565b6001600160a01b03167f17307eab39ab6107e8899845ad3d59bd9653f200f220920489ca2b5937696c31836040516110d39190612285565b60405180910390a35050565b6110e76113c4565b6001600160a01b03166110f8610d67565b6001600160a01b03161461111e5760405162461bcd60e51b81526004016107719061279b565b600d805463ff00000019166301000000179055565b61114461113e6113c4565b83611436565b6111605760405162461bcd60e51b8152600401610771906128ae565b61116c848484846116c3565b50505050565b61117a6113c4565b6001600160a01b031661118b610d67565b6001600160a01b0316146111b15760405162461bcd60e51b81526004016107719061279b565b600d805462ff0000198116620100009182900460ff1615909102179055565b600c5481565b601481565b60606111e6826113a7565b6112025760405162461bcd60e51b815260040161077190612534565b600d546301000000900460ff1661123357604051806080016040528060438152602001612b036043913990506106b3565b600f61123e836116f6565b60405160200161124f929190612136565b6040516020818303038152906040529050919050565b600b5481565b6001600160a01b03918216600090815260056020908152604080832093909416825291909152205460ff1690565b600d5460ff1681565b6112aa6113c4565b6001600160a01b03166112bb610d67565b6001600160a01b0316146112e15760405162461bcd60e51b81526004016107719061279b565b6112ed600e6000611d68565b610885600e8383611d86565b6113016113c4565b6001600160a01b0316611312610d67565b6001600160a01b0316146113385760405162461bcd60e51b81526004016107719061279b565b6001600160a01b03811661135e5760405162461bcd60e51b815260040161077190612393565b610a9d816115e8565b60006001600160e01b031982166380ac58cd60e01b148061139857506001600160e01b03198216635b5e139f60e01b145b806106b057506106b082611811565b6000908152600260205260409020546001600160a01b0316151590565b3390565b600081815260046020526040902080546001600160a01b0319166001600160a01b03841690811790915581906113fd82610ba6565b6001600160a01b03167f8c5be1e5ebec7d5bd14f71427d1e84f3dd0314c0f7b2291e5b200ac8c7c3b92560405160405180910390a45050565b6000611441826113a7565b61145d5760405162461bcd60e51b815260040161077190612562565b600061146883610ba6565b9050806001600160a01b0316846001600160a01b031614806114a35750836001600160a01b03166114988461074a565b6001600160a01b0316145b806114b357506114b3818561126b565b949350505050565b826001600160a01b03166114ce82610ba6565b6001600160a01b0316146114f45760405162461bcd60e51b8152600401610771906127d0565b6001600160a01b03821661151a5760405162461bcd60e51b81526004016107719061246d565b61152583838361182a565b6115306000826113c8565b6001600160a01b03831660009081526003602052604081208054600192906115599084906129fd565b90915550506001600160a01b03821660009081526003602052604081208054600192906115879084906129b2565b909155505060008181526002602052604080822080546001600160a01b0319166001600160a01b0386811691821790925591518493918716917fddf252ad1be2c89b69c2b068fc378daa952ba7f163c4a11628f55a4df523b3ef91a4505050565b600a80546001600160a01b038381166001600160a01b0319831681179093556040519116919082907f8be0079c531659141344cd1fd0a4f28419497f9722a3daafe3b4186f6b6457e090600090a35050565b600061164682846129b2565b9392505050565b600061164682846129de565b610b788282604051806020016040528060008152506118b3565b61167c826113a7565b6116985760405162461bcd60e51b815260040161077190612534565b6000828152601060209081526040909120825161088592840190611ce4565b600061164682846129fd565b6116ce8484846114bb565b6116da848484846118e6565b61116c5760405162461bcd60e51b815260040161077190612341565b60608161171b57506040805180820190915260018152600360fc1b60208201526106b3565b8160005b8115611745578061172f81612a7b565b915061173e9050600a836129ca565b915061171f565b60008167ffffffffffffffff81111561176e57634e487b7160e01b600052604160045260246000fd5b6040519080825280601f01601f191660200182016040528015611798576020820181803683370190505b5090505b84156114b3576117ad6001836129fd565b91506117ba600a86612a96565b6117c59060306129b2565b60f81b8183815181106117e857634e487b7160e01b600052603260045260246000fd5b60200101906001600160f81b031916908160001a90535061180a600a866129ca565b945061179c565b6001600160e01b031981166301ffc9a760e01b14919050565b611835838383610885565b6001600160a01b0383166118515761184c81611a01565b611874565b816001600160a01b0316836001600160a01b031614611874576118748382611a45565b6001600160a01b0382166118905761188b81611ae2565b610885565b826001600160a01b0316826001600160a01b031614610885576108858282611bbb565b6118bd8383611bff565b6118ca60008484846118e6565b6108855760405162461bcd60e51b815260040161077190612341565b60006118fa846001600160a01b0316611cde565b156119f657836001600160a01b031663150b7a026119166113c4565b8786866040518563ffffffff1660e01b815260040161193894939291906121fb565b602060405180830381600087803b15801561195257600080fd5b505af1925050508015611982575060408051601f3d908101601f1916820190925261197f91810190612063565b60015b6119dc573d8080156119b0576040519150601f19603f3d011682016040523d82523d6000602084013e6119b5565b606091505b5080516119d45760405162461bcd60e51b815260040161077190612341565b805181602001fd5b6001600160e01b031916630a85bd0160e11b1490506114b3565b506001949350505050565b600880546000838152600960205260408120829055600182018355919091527ff3f7a9fe364faab93b216da50a3214154f22a0a2b415b23a84c8169e8b636ee30155565b60006001611a5284610cd8565b611a5c91906129fd565b600083815260076020526040902054909150808214611aaf576001600160a01b03841660009081526006602090815260408083208584528252808320548484528184208190558352600790915290208190555b5060009182526007602090815260408084208490556001600160a01b039094168352600681528383209183525290812055565b600854600090611af4906001906129fd565b60008381526009602052604081205460088054939450909284908110611b2a57634e487b7160e01b600052603260045260246000fd5b906000526020600020015490508060088381548110611b5957634e487b7160e01b600052603260045260246000fd5b6000918252602080832090910192909255828152600990915260408082208490558582528120556008805480611b9f57634e487b7160e01b600052603160045260246000fd5b6001900381819060005260206000200160009055905550505050565b6000611bc683610cd8565b6001600160a01b039093166000908152600660209081526040808320868452825280832085905593825260079052919091209190915550565b6001600160a01b038216611c255760405162461bcd60e51b81526004016107719061271a565b611c2e816113a7565b15611c4b5760405162461bcd60e51b8152600401610771906123d9565b611c576000838361182a565b6001600160a01b0382166000908152600360205260408120805460019290611c809084906129b2565b909155505060008181526002602052604080822080546001600160a01b0319166001600160a01b03861690811790915590518392907fddf252ad1be2c89b69c2b068fc378daa952ba7f163c4a11628f55a4df523b3ef908290a45050565b3b151590565b828054611cf090612a40565b90600052602060002090601f016020900481019282611d125760008555611d58565b82601f10611d2b57805160ff1916838001178555611d58565b82800160010185558215611d58579182015b82811115611d58578251825591602001919060010190611d3d565b50611d64929150611dd9565b5090565b5080546000825590600052602060002090810190610a9d9190611dd9565b828054828255906000526020600020908101928215611d58579160200282015b82811115611d585781546001600160a01b0319166001600160a01b03843516178255602090920191600190910190611da6565b5b80821115611d645760008155600101611dda565b600067ffffffffffffffff80841115611e0957611e09612ad6565b604051601f8501601f191681016020018281118282101715611e2d57611e2d612ad6565b604052848152915081838501861015611e4557600080fd5b8484602083013760006020868301015250509392505050565b80356001600160a01b03811681146106b357600080fd5b600060208284031215611e86578081fd5b61164682611e5e565b60008060408385031215611ea1578081fd5b611eaa83611e5e565b9150611eb860208401611e5e565b90509250929050565b600080600060608486031215611ed5578081fd5b611ede84611e5e565b9250611eec60208501611e5e565b9150604084013590509250925092565b60008060008060808587031215611f11578081fd5b611f1a85611e5e565b9350611f2860208601611e5e565b925060408501359150606085013567ffffffffffffffff811115611f4a578182fd5b8501601f81018713611f5a578182fd5b611f6987823560208401611dee565b91505092959194509250565b60008060408385031215611f87578182fd5b611f9083611e5e565b915060208301358015158114611fa4578182fd5b809150509250929050565b60008060408385031215611fc1578182fd5b611fca83611e5e565b946020939093013593505050565b60008060208385031215611fea578182fd5b823567ffffffffffffffff80821115612001578384fd5b818501915085601f830112612014578384fd5b813581811115612022578485fd5b8660208083028501011115612035578485fd5b60209290920196919550909350505050565b600060208284031215612058578081fd5b813561164681612aec565b600060208284031215612074578081fd5b815161164681612aec565b600060208284031215612090578081fd5b813567ffffffffffffffff8111156120a6578182fd5b8201601f810184136120b6578182fd5b6114b384823560208401611dee565b6000602082840312156120d6578081fd5b5035919050565b600081518084526120f5816020860160208601612a14565b601f01601f19169290920160200192915050565b6000815161211b818560208601612a14565b9290920192915050565b64173539b7b760d91b815260050190565b825460009081906002810460018083168061215257607f831692505b602080841082141561217257634e487b7160e01b87526022600452602487fd5b8180156121865760018114612197576121c3565b60ff198616895284890196506121c3565b6121a08b6129a6565b885b868110156121bb5781548b8201529085019083016121a2565b505084890196505b5050505050506121db6121d68286612109565b612125565b95945050505050565b90565b6001600160a01b0391909116815260200190565b6001600160a01b038581168252841660208201526040810183905260806060820181905260009061222e908301846120dd565b9695505050505050565b6020808252825182820181905260009190848201906040850190845b818110156122795783516001600160a01b031683529284019291840191600101612254565b50909695505050505050565b901515815260200190565b60006020825261164660208301846120dd565b60208082526033908201527f54686520636f6e74726163742063616e206f6e6c79206d696e7420757020746f604082015272203520746f6b656e7320617420612074696d6560681b606082015260800190565b6020808252602b908201527f455243373231456e756d657261626c653a206f776e657220696e646578206f7560408201526a74206f6620626f756e647360a81b606082015260800190565b60208082526032908201527f4552433732313a207472616e7366657220746f206e6f6e20455243373231526560408201527131b2b4bb32b91034b6b83632b6b2b73a32b960711b606082015260800190565b60208082526026908201527f4f776e61626c653a206e6577206f776e657220697320746865207a65726f206160408201526564647265737360d01b606082015260800190565b6020808252601c908201527f4552433732313a20746f6b656e20616c7265616479206d696e74656400000000604082015260600190565b60208082526037908201527f546865206e756d626572206f6620746f6b656e732063616e206e6f742062652060408201527f6c657373207468616e206f7220657175616c20746f2030000000000000000000606082015260800190565b60208082526024908201527f4552433732313a207472616e7366657220746f20746865207a65726f206164646040820152637265737360e01b606082015260800190565b60208082526019908201527f4552433732313a20617070726f766520746f2063616c6c657200000000000000604082015260600190565b6020808252602c908201527f54686520636f6e747261637420646964206e6f74207265636569766520656e6f60408201526b75676820457468657265756d60a01b606082015260800190565b602080825260149082015273151bdad95b88191bd95cc81b9bdd08195e1a5cdd60621b604082015260600190565b6020808252602c908201527f4552433732313a206f70657261746f7220717565727920666f72206e6f6e657860408201526b34b9ba32b73a103a37b5b2b760a11b606082015260800190565b6020808252601f908201527f54686520636f6e74726163742073616c65206973206e6f742061637469766500604082015260600190565b60208082526025908201527f5468652075736572206973206e6f742063757272656e746c792077686974656c6040820152641a5cdd195960da1b606082015260800190565b60208082526038908201527f4552433732313a20617070726f76652063616c6c6572206973206e6f74206f7760408201527f6e6572206e6f7220617070726f76656420666f7220616c6c0000000000000000606082015260800190565b6020808252602a908201527f4552433732313a2062616c616e636520717565727920666f7220746865207a65604082015269726f206164647265737360b01b606082015260800190565b60208082526029908201527f4552433732313a206f776e657220717565727920666f72206e6f6e657869737460408201526832b73a103a37b5b2b760b91b606082015260800190565b6020808252818101527f4552433732313a206d696e7420746f20746865207a65726f2061646472657373604082015260600190565b6020808252602c908201527f4552433732313a20617070726f76656420717565727920666f72206e6f6e657860408201526b34b9ba32b73a103a37b5b2b760a11b606082015260800190565b6020808252818101527f4f776e61626c653a2063616c6c6572206973206e6f7420746865206f776e6572604082015260600190565b60208082526029908201527f4552433732313a207472616e73666572206f6620746f6b656e2074686174206960408201526839903737ba1037bbb760b91b606082015260800190565b60208082526021908201527f4552433732313a20617070726f76616c20746f2063757272656e74206f776e656040820152603960f91b606082015260800190565b60208082526034908201527f54686520636f6e74726163742063616e206f6e6c79206d696e7420757020746f60408201527320323020746f6b656e7320617420612074696d6560601b606082015260800190565b60208082526031908201527f4552433732313a207472616e736665722063616c6c6572206973206e6f74206f6040820152701ddb995c881b9bdc88185c1c1c9bdd9959607a1b606082015260800190565b6020808252602c908201527f455243373231456e756d657261626c653a20676c6f62616c20696e646578206f60408201526b7574206f6620626f756e647360a01b606082015260800190565b60208082526032908201527f54686520707572636861736520776f756c642065786365656420746865206d616040820152713c1039bab838363c9037b3102432b0b93a3d60711b606082015260800190565b90815260200190565b60009081526020902090565b600082198211156129c5576129c5612aaa565b500190565b6000826129d9576129d9612ac0565b500490565b60008160001904831182151516156129f8576129f8612aaa565b500290565b600082821015612a0f57612a0f612aaa565b500390565b60005b83811015612a2f578181015183820152602001612a17565b8381111561116c5750506000910152565b600281046001821680612a5457607f821691505b60208210811415612a7557634e487b7160e01b600052602260045260246000fd5b50919050565b6000600019821415612a8f57612a8f612aaa565b5060010190565b600082612aa557612aa5612ac0565b500690565b634e487b7160e01b600052601160045260246000fd5b634e487b7160e01b600052601260045260246000fd5b634e487b7160e01b600052604160045260246000fd5b6001600160e01b031981168114610a9d57600080fdfe68747470733a2f2f697066732e696f2f697066732f516d5051334b4274564269376b6165636a77424b395276504739437a5471436e51534b7042563378746e52676f4ea2646970667358221220917b4f1f2b1f24b0fb9546ffd1cc6ae9a6b2a88896b1f78aeed8e00b7c0ba29964736f6c63430008000033",
  "immutableReferences": {},
  "source": "// SPDX-License-Identifier: MIT\npragma solidity ^0.8.0;\n\n// import statements\nimport \"@openzeppelin/contracts/token/ERC721/ERC721.sol\";\nimport \"@openzeppelin/contracts/access/Ownable.sol\";\nimport \"@openzeppelin/contracts/utils/math/SafeMath.sol\";\nimport \"@openzeppelin/contracts/token/ERC721/extensions/ERC721Enumerable.sol\";\n\n// contract class\ncontract Heartz is ERC721Enumerable, Ownable {\n    // utilities\n    using Strings for uint256;\n    using SafeMath for uint256;\n\n    // uint256\n    uint256 public constant nftPrice = 50000000000000000;\n    uint256 public constant maxNftPurchase = 20;\n    uint256 public maxSupply = 7500;\n    uint256 public nftPerAddressLimit = 5;\n\n    // booleans\n    bool public saleIsActive = true; // false\n    bool public publicMintingStatus = true; // false\n    bool public onlyWhitelisted = true; // true\n    bool public revealed = false;\n\n    // addresses\n    address[] public whitelistAddresses;\n\n    // strings\n    string public baseURI;\n\n    // mappings\n    mapping(uint256 => string) _tokenURIs;\n\n    // contract constructor\n    constructor() ERC721(\"Heartz\", \"HRTZ\") {}\n\n    // get functions\n    function getBalance() public view returns (uint256) {\n        return address(this).balance;\n    }\n\n    function getWhitelistedAddresses() public view returns (address[] memory) {\n        return whitelistAddresses;\n    }\n\n    function getBaseURI() internal view virtual returns (string memory) {\n        return baseURI;\n    }\n\n    // set functions\n    function setBaseURI(string memory baseURI_) external onlyOwner {\n        baseURI = baseURI_;\n    }\n\n    function reveal() public onlyOwner {\n        revealed = true;\n    }\n\n    function flipPublicMintingStatus() public onlyOwner {\n        publicMintingStatus = !publicMintingStatus;\n    }\n\n    function flipSaleState() public onlyOwner {\n        saleIsActive = !saleIsActive;\n    }\n\n    function flipOnlyWhitelisted() public onlyOwner {\n        onlyWhitelisted = !onlyWhitelisted;\n    }\n\n    function _setTokenURI(uint256 tokenId, string memory _tokenURI)\n        internal\n        virtual\n    {\n        require(_exists(tokenId), \"Token does not exist\");\n        _tokenURIs[tokenId] = _tokenURI;\n    }\n\n    // unnecessarily long mint function\n    function mint(uint256 numberOfTokens) public payable {\n        require(\n            numberOfTokens > 0,\n            \"The number of tokens can not be less than or equal to 0\"\n        );\n        require(\n            totalSupply().add(numberOfTokens) <= maxSupply,\n            \"The purchase would exceed the max supply of Heartz\"\n        );\n\n        if (msg.sender != owner()) {\n            require(\n                numberOfTokens <= maxNftPurchase,\n                \"The contract can only mint up to 20 tokens at a time\"\n            );\n            require(\n                nftPrice.mul(numberOfTokens) <= msg.value,\n                \"The contract did not receive enough Ethereum\"\n            );\n            require(saleIsActive, \"The contract sale is not active\");\n\n            if (publicMintingStatus) {\n                for (uint256 i = 0; i < numberOfTokens; i++) {\n                    uint256 newId = totalSupply();\n                    if (totalSupply() < maxSupply) {\n                        _safeMint(msg.sender, newId);\n                        _setTokenURI(newId, tokenURI(newId));\n                    }\n                }\n            } else if (onlyWhitelisted) {\n                require(\n                    isWhitelisted(msg.sender),\n                    \"The user is not currently whitelisted\"\n                );\n                require(\n                    (balanceOf(msg.sender) < nftPerAddressLimit) &&\n                        (numberOfTokens <=\n                            (nftPerAddressLimit.sub(balanceOf(msg.sender)))),\n                    \"The contract can only mint up to 5 tokens at a time\"\n                );\n\n                for (uint256 i = 0; i < numberOfTokens; i++) {\n                    uint256 newId = totalSupply();\n                    if (totalSupply() < maxSupply) {\n                        _safeMint(msg.sender, newId);\n                        _setTokenURI(newId, tokenURI(newId));\n                    }\n                }\n            }\n        } else {\n            for (uint256 i = 0; i < numberOfTokens; i++) {\n                uint256 newId = totalSupply();\n                if (totalSupply() < maxSupply) {\n                    _safeMint(msg.sender, newId);\n                    _setTokenURI(newId, tokenURI(newId));\n                }\n            }\n        }\n    }\n\n    // token URI retriever\n    function tokenURI(uint256 tokenId)\n        public\n        view\n        virtual\n        override\n        returns (string memory)\n    {\n        require(_exists(tokenId), \"Token does not exist\");\n        if (revealed == false) {\n            return\n                \"https://ipfs.io/ipfs/QmPQ3KBtVBi7kaecjwBK9RvPG9CzTqCnQSKpBV3xtnRgoN\";\n        }\n\n        return string(abi.encodePacked(baseURI, tokenId.toString(), \".json\"));\n    }\n\n    // classic withdraw function\n    function withdraw() public payable onlyOwner {\n        (bool success, ) = payable(msg.sender).call{\n            value: address(this).balance\n        }(\"\");\n        require(success);\n    }\n\n    // check if specified user is whitelisted\n    function isWhitelisted(address user) public view returns (bool) {\n        for (uint256 i = 0; i < whitelistAddresses.length; i++) {\n            if (whitelistAddresses[i] == user) {\n                return true;\n            }\n        }\n        return false;\n    }\n\n    // generate list of whitelist users\n    function whitelistUsers(address[] calldata users) public onlyOwner {\n        delete whitelistAddresses;\n        whitelistAddresses = users;\n    }\n}\n",
  "sourcePath": "/Users/ishreetbhullar/Documents/coding-folder/Heartz/contracts/Heartz.sol",
  "compiler": {
    "name": "solc",
    "version": "0.8.0+commit.c7dfd78e.Emscripten.clang"
  },
  "schemaVersion": "3.4.3",
  "updatedAt": "2021-11-09T10:39:37.792Z",
  "networkType": "ethereum",
  "devdoc": {
    "kind": "dev",
    "methods": {
      "approve(address,uint256)": {
        "details": "See {IERC721-approve}."
      },
      "balanceOf(address)": {
        "details": "See {IERC721-balanceOf}."
      },
      "getApproved(uint256)": {
        "details": "See {IERC721-getApproved}."
      },
      "isApprovedForAll(address,address)": {
        "details": "See {IERC721-isApprovedForAll}."
      },
      "name()": {
        "details": "See {IERC721Metadata-name}."
      },
      "owner()": {
        "details": "Returns the address of the current owner."
      },
      "ownerOf(uint256)": {
        "details": "See {IERC721-ownerOf}."
      },
      "renounceOwnership()": {
        "details": "Leaves the contract without owner. It will not be possible to call `onlyOwner` functions anymore. Can only be called by the current owner. NOTE: Renouncing ownership will leave the contract without an owner, thereby removing any functionality that is only available to the owner."
      },
      "safeTransferFrom(address,address,uint256)": {
        "details": "See {IERC721-safeTransferFrom}."
      },
      "safeTransferFrom(address,address,uint256,bytes)": {
        "details": "See {IERC721-safeTransferFrom}."
      },
      "setApprovalForAll(address,bool)": {
        "details": "See {IERC721-setApprovalForAll}."
      },
      "supportsInterface(bytes4)": {
        "details": "See {IERC165-supportsInterface}."
      },
      "symbol()": {
        "details": "See {IERC721Metadata-symbol}."
      },
      "tokenByIndex(uint256)": {
        "details": "See {IERC721Enumerable-tokenByIndex}."
      },
      "tokenOfOwnerByIndex(address,uint256)": {
        "details": "See {IERC721Enumerable-tokenOfOwnerByIndex}."
      },
      "tokenURI(uint256)": {
        "details": "See {IERC721Metadata-tokenURI}."
      },
      "totalSupply()": {
        "details": "See {IERC721Enumerable-totalSupply}."
      },
      "transferFrom(address,address,uint256)": {
        "details": "See {IERC721-transferFrom}."
      },
      "transferOwnership(address)": {
        "details": "Transfers ownership of the contract to a new account (`newOwner`). Can only be called by the current owner."
      }
    },
    "version": 1
  },
  "userdoc": {
    "kind": "user",
    "methods": {},
    "version": 1
  }
}