{
  "contractName": "LilBabyDood",
  "abi": [
    {
      "inputs": [],
      "stateMutability": "nonpayable",
      "type": "constructor"
    },
    {
      "anonymous": false,
      "inputs": [
        {
          "indexed": true,
          "internalType": "address",
          "name": "owner",
          "type": "address"
        },
        {
          "indexed": true,
          "internalType": "address",
          "name": "approved",
          "type": "address"
        },
        {
          "indexed": true,
          "internalType": "uint256",
          "name": "tokenId",
          "type": "uint256"
        }
      ],
      "name": "Approval",
      "type": "event"
    },
    {
      "anonymous": false,
      "inputs": [
        {
          "indexed": true,
          "internalType": "address",
          "name": "owner",
          "type": "address"
        },
        {
          "indexed": true,
          "internalType": "address",
          "name": "operator",
          "type": "address"
        },
        {
          "indexed": false,
          "internalType": "bool",
          "name": "approved",
          "type": "bool"
        }
      ],
      "name": "ApprovalForAll",
      "type": "event"
    },
    {
      "anonymous": false,
      "inputs": [
        {
          "indexed": true,
          "internalType": "address",
          "name": "previousOwner",
          "type": "address"
        },
        {
          "indexed": true,
          "internalType": "address",
          "name": "newOwner",
          "type": "address"
        }
      ],
      "name": "OwnershipTransferred",
      "type": "event"
    },
    {
      "anonymous": false,
      "inputs": [
        {
          "indexed": true,
          "internalType": "address",
          "name": "from",
          "type": "address"
        },
        {
          "indexed": true,
          "internalType": "address",
          "name": "to",
          "type": "address"
        },
        {
          "indexed": true,
          "internalType": "uint256",
          "name": "tokenId",
          "type": "uint256"
        }
      ],
      "name": "Transfer",
      "type": "event"
    },
    {
      "inputs": [
        {
          "internalType": "address",
          "name": "to",
          "type": "address"
        },
        {
          "internalType": "uint256",
          "name": "tokenId",
          "type": "uint256"
        }
      ],
      "name": "approve",
      "outputs": [],
      "stateMutability": "nonpayable",
      "type": "function"
    },
    {
      "inputs": [
        {
          "internalType": "address",
          "name": "owner",
          "type": "address"
        }
      ],
      "name": "balanceOf",
      "outputs": [
        {
          "internalType": "uint256",
          "name": "",
          "type": "uint256"
        }
      ],
      "stateMutability": "view",
      "type": "function",
      "constant": true
    },
    {
      "inputs": [],
      "name": "baseURI",
      "outputs": [
        {
          "internalType": "string",
          "name": "",
          "type": "string"
        }
      ],
      "stateMutability": "view",
      "type": "function",
      "constant": true
    },
    {
      "inputs": [
        {
          "internalType": "uint256",
          "name": "tokenId",
          "type": "uint256"
        }
      ],
      "name": "getApproved",
      "outputs": [
        {
          "internalType": "address",
          "name": "",
          "type": "address"
        }
      ],
      "stateMutability": "view",
      "type": "function",
      "constant": true
    },
    {
      "inputs": [
        {
          "internalType": "address",
          "name": "owner",
          "type": "address"
        },
        {
          "internalType": "address",
          "name": "operator",
          "type": "address"
        }
      ],
      "name": "isApprovedForAll",
      "outputs": [
        {
          "internalType": "bool",
          "name": "",
          "type": "bool"
        }
      ],
      "stateMutability": "view",
      "type": "function",
      "constant": true
    },
    {
      "inputs": [],
      "name": "maxNftPurchase",
      "outputs": [
        {
          "internalType": "uint256",
          "name": "",
          "type": "uint256"
        }
      ],
      "stateMutability": "view",
      "type": "function",
      "constant": true
    },
    {
      "inputs": [],
      "name": "maxSupply",
      "outputs": [
        {
          "internalType": "uint256",
          "name": "",
          "type": "uint256"
        }
      ],
      "stateMutability": "view",
      "type": "function",
      "constant": true
    },
    {
      "inputs": [],
      "name": "name",
      "outputs": [
        {
          "internalType": "string",
          "name": "",
          "type": "string"
        }
      ],
      "stateMutability": "view",
      "type": "function",
      "constant": true
    },
    {
      "inputs": [],
      "name": "nftPerAddressLimit",
      "outputs": [
        {
          "internalType": "uint256",
          "name": "",
          "type": "uint256"
        }
      ],
      "stateMutability": "view",
      "type": "function",
      "constant": true
    },
    {
      "inputs": [],
      "name": "nftPrice",
      "outputs": [
        {
          "internalType": "uint256",
          "name": "",
          "type": "uint256"
        }
      ],
      "stateMutability": "view",
      "type": "function",
      "constant": true
    },
    {
      "inputs": [],
      "name": "owner",
      "outputs": [
        {
          "internalType": "address",
          "name": "",
          "type": "address"
        }
      ],
      "stateMutability": "view",
      "type": "function",
      "constant": true
    },
    {
      "inputs": [
        {
          "internalType": "uint256",
          "name": "tokenId",
          "type": "uint256"
        }
      ],
      "name": "ownerOf",
      "outputs": [
        {
          "internalType": "address",
          "name": "",
          "type": "address"
        }
      ],
      "stateMutability": "view",
      "type": "function",
      "constant": true
    },
    {
      "inputs": [],
      "name": "publicMintingStatus",
      "outputs": [
        {
          "internalType": "bool",
          "name": "",
          "type": "bool"
        }
      ],
      "stateMutability": "view",
      "type": "function",
      "constant": true
    },
    {
      "inputs": [],
      "name": "renounceOwnership",
      "outputs": [],
      "stateMutability": "nonpayable",
      "type": "function"
    },
    {
      "inputs": [],
      "name": "revealed",
      "outputs": [
        {
          "internalType": "bool",
          "name": "",
          "type": "bool"
        }
      ],
      "stateMutability": "view",
      "type": "function",
      "constant": true
    },
    {
      "inputs": [
        {
          "internalType": "address",
          "name": "from",
          "type": "address"
        },
        {
          "internalType": "address",
          "name": "to",
          "type": "address"
        },
        {
          "internalType": "uint256",
          "name": "tokenId",
          "type": "uint256"
        }
      ],
      "name": "safeTransferFrom",
      "outputs": [],
      "stateMutability": "nonpayable",
      "type": "function"
    },
    {
      "inputs": [
        {
          "internalType": "address",
          "name": "from",
          "type": "address"
        },
        {
          "internalType": "address",
          "name": "to",
          "type": "address"
        },
        {
          "internalType": "uint256",
          "name": "tokenId",
          "type": "uint256"
        },
        {
          "internalType": "bytes",
          "name": "_data",
          "type": "bytes"
        }
      ],
      "name": "safeTransferFrom",
      "outputs": [],
      "stateMutability": "nonpayable",
      "type": "function"
    },
    {
      "inputs": [],
      "name": "saleIsActive",
      "outputs": [
        {
          "internalType": "bool",
          "name": "",
          "type": "bool"
        }
      ],
      "stateMutability": "view",
      "type": "function",
      "constant": true
    },
    {
      "inputs": [
        {
          "internalType": "address",
          "name": "operator",
          "type": "address"
        },
        {
          "internalType": "bool",
          "name": "approved",
          "type": "bool"
        }
      ],
      "name": "setApprovalForAll",
      "outputs": [],
      "stateMutability": "nonpayable",
      "type": "function"
    },
    {
      "inputs": [
        {
          "internalType": "bytes4",
          "name": "interfaceId",
          "type": "bytes4"
        }
      ],
      "name": "supportsInterface",
      "outputs": [
        {
          "internalType": "bool",
          "name": "",
          "type": "bool"
        }
      ],
      "stateMutability": "view",
      "type": "function",
      "constant": true
    },
    {
      "inputs": [],
      "name": "symbol",
      "outputs": [
        {
          "internalType": "string",
          "name": "",
          "type": "string"
        }
      ],
      "stateMutability": "view",
      "type": "function",
      "constant": true
    },
    {
      "inputs": [
        {
          "internalType": "uint256",
          "name": "index",
          "type": "uint256"
        }
      ],
      "name": "tokenByIndex",
      "outputs": [
        {
          "internalType": "uint256",
          "name": "",
          "type": "uint256"
        }
      ],
      "stateMutability": "view",
      "type": "function",
      "constant": true
    },
    {
      "inputs": [
        {
          "internalType": "address",
          "name": "owner",
          "type": "address"
        },
        {
          "internalType": "uint256",
          "name": "index",
          "type": "uint256"
        }
      ],
      "name": "tokenOfOwnerByIndex",
      "outputs": [
        {
          "internalType": "uint256",
          "name": "",
          "type": "uint256"
        }
      ],
      "stateMutability": "view",
      "type": "function",
      "constant": true
    },
    {
      "inputs": [],
      "name": "totalSupply",
      "outputs": [
        {
          "internalType": "uint256",
          "name": "",
          "type": "uint256"
        }
      ],
      "stateMutability": "view",
      "type": "function",
      "constant": true
    },
    {
      "inputs": [
        {
          "internalType": "address",
          "name": "from",
          "type": "address"
        },
        {
          "internalType": "address",
          "name": "to",
          "type": "address"
        },
        {
          "internalType": "uint256",
          "name": "tokenId",
          "type": "uint256"
        }
      ],
      "name": "transferFrom",
      "outputs": [],
      "stateMutability": "nonpayable",
      "type": "function"
    },
    {
      "inputs": [
        {
          "internalType": "address",
          "name": "newOwner",
          "type": "address"
        }
      ],
      "name": "transferOwnership",
      "outputs": [],
      "stateMutability": "nonpayable",
      "type": "function"
    },
    {
      "inputs": [],
      "name": "getBalance",
      "outputs": [
        {
          "internalType": "uint256",
          "name": "",
          "type": "uint256"
        }
      ],
      "stateMutability": "view",
      "type": "function",
      "constant": true
    },
    {
      "inputs": [
        {
          "internalType": "string",
          "name": "baseURI_",
          "type": "string"
        }
      ],
      "name": "setBaseURI",
      "outputs": [],
      "stateMutability": "nonpayable",
      "type": "function"
    },
    {
      "inputs": [],
      "name": "reveal",
      "outputs": [],
      "stateMutability": "nonpayable",
      "type": "function"
    },
    {
      "inputs": [],
      "name": "flipPublicMintingStatus",
      "outputs": [],
      "stateMutability": "nonpayable",
      "type": "function"
    },
    {
      "inputs": [],
      "name": "flipSaleState",
      "outputs": [],
      "stateMutability": "nonpayable",
      "type": "function"
    },
    {
      "inputs": [
        {
          "internalType": "uint256",
          "name": "numberOfTokens",
          "type": "uint256"
        }
      ],
      "name": "mint",
      "outputs": [],
      "stateMutability": "payable",
      "type": "function",
      "payable": true
    },
    {
      "inputs": [
        {
          "internalType": "uint256",
          "name": "tokenId",
          "type": "uint256"
        }
      ],
      "name": "tokenURI",
      "outputs": [
        {
          "internalType": "string",
          "name": "",
          "type": "string"
        }
      ],
      "stateMutability": "view",
      "type": "function",
      "constant": true
    },
    {
      "inputs": [],
      "name": "withdraw",
      "outputs": [],
      "stateMutability": "payable",
      "type": "function",
      "payable": true
    }
  ],
  "bytecode": "0x6080604052610bb8600b556005600c55600d805462ffffff191690553480156200002857600080fd5b50604080518082018252600b81526a131a5b1098589e511bdbd960aa1b60208083019182528351808501909452600384526213109160ea1b908401528151919291620000779160009162000106565b5080516200008d90600190602084019062000106565b505050620000aa620000a4620000b060201b60201c565b620000b4565b620001e9565b3390565b600a80546001600160a01b038381166001600160a01b0319831681179093556040519116919082907f8be0079c531659141344cd1fd0a4f28419497f9722a3daafe3b4186f6b6457e090600090a35050565b8280546200011490620001ac565b90600052602060002090601f01602090048101928262000138576000855562000183565b82601f106200015357805160ff191683800117855562000183565b8280016001018555821562000183579182015b828111156200018357825182559160200191906001019062000166565b506200019192915062000195565b5090565b5b8082111562000191576000815560010162000196565b600281046001821680620001c157607f821691505b60208210811415620001e357634e487b7160e01b600052602260045260246000fd5b50919050565b61263480620001f96000396000f3fe6080604052600436106101f95760003560e01c80636c0360eb1161010d578063a475b5dd116100a0578063c87b56dd1161006f578063c87b56dd14610513578063d5abeb0114610533578063e985e9c514610548578063eb8d244414610568578063f2fde38b1461057d576101f9565b8063a475b5dd146104b4578063b88d4fde146104c9578063ba7d2c76146104e9578063bde708f4146104fe576101f9565b80638da5cb5b116100dc5780638da5cb5b1461045757806395d89b411461046c578063a0712d6814610481578063a22cb46514610494576101f9565b80636c0360eb146103f85780636c47a4311461040d57806370a0823114610422578063715018a614610442576101f9565b806323b872dd1161019057806342842e0e1161015f57806342842e0e146103635780634f6ccce71461038357806351830227146103a357806355f804b3146103b85780636352211e146103d8576101f9565b806323b872dd146103065780632f745c591461032657806334918dfd146103465780633ccfd60b1461035b576101f9565b8063095ea7b3116101cc578063095ea7b31461029a5780630d39fc81146102ba57806312065fe0146102dc57806318160ddd146102f1576101f9565b806301ffc9a7146101fe57806306fdde0314610234578063081812fc1461025657806308c8507e14610283575b600080fd5b34801561020a57600080fd5b5061021e610219366004611bda565b61059d565b60405161022b9190611dcb565b60405180910390f35b34801561024057600080fd5b506102496105ca565b60405161022b9190611dd6565b34801561026257600080fd5b50610276610271366004611c58565b61065c565b60405161022b9190611d7a565b34801561028f57600080fd5b506102986106a8565b005b3480156102a657600080fd5b506102986102b5366004611bb1565b610704565b3480156102c657600080fd5b506102cf61079c565b60405161022b9190612456565b3480156102e857600080fd5b506102cf6107a7565b3480156102fd57600080fd5b506102cf6107ab565b34801561031257600080fd5b50610298610321366004611ac3565b6107b1565b34801561033257600080fd5b506102cf610341366004611bb1565b6107e9565b34801561035257600080fd5b5061029861083b565b61029861088e565b34801561036f57600080fd5b5061029861037e366004611ac3565b610939565b34801561038f57600080fd5b506102cf61039e366004611c58565b610954565b3480156103af57600080fd5b5061021e6109af565b3480156103c457600080fd5b506102986103d3366004611c12565b6109be565b3480156103e457600080fd5b506102766103f3366004611c58565b610a14565b34801561040457600080fd5b50610249610a49565b34801561041957600080fd5b5061021e610ad7565b34801561042e57600080fd5b506102cf61043d366004611a77565b610ae5565b34801561044e57600080fd5b50610298610b29565b34801561046357600080fd5b50610276610b74565b34801561047857600080fd5b50610249610b83565b61029861048f366004611c58565b610b92565b3480156104a057600080fd5b506102986104af366004611b77565b610d48565b3480156104c057600080fd5b50610298610e16565b3480156104d557600080fd5b506102986104e4366004611afe565b610e68565b3480156104f557600080fd5b506102cf610ea7565b34801561050a57600080fd5b506102cf610ead565b34801561051f57600080fd5b5061024961052e366004611c58565b610eb2565b34801561053f57600080fd5b506102cf610f3b565b34801561055457600080fd5b5061021e610563366004611a91565b610f41565b34801561057457600080fd5b5061021e610f6f565b34801561058957600080fd5b50610298610598366004611a77565b610f78565b60006001600160e01b0319821663780e9d6360e01b14806105c257506105c282610fe6565b90505b919050565b6060600080546105d9906124f9565b80601f0160208091040260200160405190810160405280929190818152602001828054610605906124f9565b80156106525780601f1061062757610100808354040283529160200191610652565b820191906000526020600020905b81548152906001019060200180831161063557829003601f168201915b5050505050905090565b600061066782611026565b61068c5760405162461bcd60e51b81526004016106839061225a565b60405180910390fd5b506000908152600460205260409020546001600160a01b031690565b6106b0611043565b6001600160a01b03166106c1610b74565b6001600160a01b0316146106e75760405162461bcd60e51b8152600401610683906122a6565b600d805461ff001981166101009182900460ff1615909102179055565b600061070f82610a14565b9050806001600160a01b0316836001600160a01b031614156107435760405162461bcd60e51b815260040161068390612324565b806001600160a01b0316610755611043565b6001600160a01b03161480610771575061077181610563611043565b61078d5760405162461bcd60e51b815260040161068390612135565b6107978383611047565b505050565b666a94d74f43000081565b4790565b60085490565b6107c26107bc611043565b826110b5565b6107de5760405162461bcd60e51b8152600401610683906123b9565b61079783838361113a565b60006107f483610ae5565b82106108125760405162461bcd60e51b815260040161068390611de9565b506001600160a01b03919091166000908152600660209081526040808320938352929052205490565b610843611043565b6001600160a01b0316610854610b74565b6001600160a01b03161461087a5760405162461bcd60e51b8152600401610683906122a6565b600d805460ff19811660ff90911615179055565b610896611043565b6001600160a01b03166108a7610b74565b6001600160a01b0316146108cd5760405162461bcd60e51b8152600401610683906122a6565b6000336001600160a01b0316476040516108e690611d77565b60006040518083038185875af1925050503d8060008114610923576040519150601f19603f3d011682016040523d82523d6000602084013e610928565b606091505b505090508061093657600080fd5b50565b61079783838360405180602001604052806000815250610e68565b600061095e6107ab565b821061097c5760405162461bcd60e51b81526004016106839061240a565b6008828154811061099d57634e487b7160e01b600052603260045260246000fd5b90600052602060002001549050919050565b600d5462010000900460ff1681565b6109c6611043565b6001600160a01b03166109d7610b74565b6001600160a01b0316146109fd5760405162461bcd60e51b8152600401610683906122a6565b8051610a1090600e906020840190611957565b5050565b6000818152600260205260408120546001600160a01b0316806105c25760405162461bcd60e51b8152600401610683906121dc565b600e8054610a56906124f9565b80601f0160208091040260200160405190810160405280929190818152602001828054610a82906124f9565b8015610acf5780601f10610aa457610100808354040283529160200191610acf565b820191906000526020600020905b815481529060010190602001808311610ab257829003601f168201915b505050505081565b600d54610100900460ff1681565b60006001600160a01b038216610b0d5760405162461bcd60e51b815260040161068390612192565b506001600160a01b031660009081526003602052604090205490565b610b31611043565b6001600160a01b0316610b42610b74565b6001600160a01b031614610b685760405162461bcd60e51b8152600401610683906122a6565b610b726000611267565b565b600a546001600160a01b031690565b6060600180546105d9906124f9565b60008111610bb25760405162461bcd60e51b815260040161068390611f03565b600b54610bc782610bc16107ab565b906112b9565b1115610be55760405162461bcd60e51b8152600401610683906120d8565b610bed610b74565b6001600160a01b0316336001600160a01b031614610cf65761014d610c106107ab565b11610c455734610c27666a94d74f430000836112cc565b1115610c455760405162461bcd60e51b815260040161068390611fdb565b6008811115610c665760405162461bcd60e51b815260040161068390612365565b600d5460ff16610c885760405162461bcd60e51b8152600401610683906120a1565b600d54610100900460ff1615610cf15760005b81811015610cef576000610cad6107ab565b9050600b54610cba6107ab565b1015610cdc57610cca33826112d8565b610cdc81610cd783610eb2565b6112f2565b5080610ce781612534565b915050610c9b565b505b610936565b60005b81811015610a10576000610d0b6107ab565b9050600b54610d186107ab565b1015610d3557610d2833826112d8565b610d3581610cd783610eb2565b5080610d4081612534565b915050610cf9565b610d50611043565b6001600160a01b0316826001600160a01b03161415610d815760405162461bcd60e51b815260040161068390611fa4565b8060056000610d8e611043565b6001600160a01b03908116825260208083019390935260409182016000908120918716808252919093529120805460ff191692151592909217909155610dd2611043565b6001600160a01b03167f17307eab39ab6107e8899845ad3d59bd9653f200f220920489ca2b5937696c3183604051610e0a9190611dcb565b60405180910390a35050565b610e1e611043565b6001600160a01b0316610e2f610b74565b6001600160a01b031614610e555760405162461bcd60e51b8152600401610683906122a6565b600d805462ff0000191662010000179055565b610e79610e73611043565b836110b5565b610e955760405162461bcd60e51b8152600401610683906123b9565b610ea184848484611336565b50505050565b600c5481565b600881565b6060610ebd82611026565b610ed95760405162461bcd60e51b815260040161068390612027565b600d5462010000900460ff16610f09576040518060800160405280604381526020016125bc6043913990506105c5565b600e610f1483611369565b604051602001610f25929190611cc9565b6040516020818303038152906040529050919050565b600b5481565b6001600160a01b03918216600090815260056020908152604080832093909416825291909152205460ff1690565b600d5460ff1681565b610f80611043565b6001600160a01b0316610f91610b74565b6001600160a01b031614610fb75760405162461bcd60e51b8152600401610683906122a6565b6001600160a01b038116610fdd5760405162461bcd60e51b815260040161068390611e86565b61093681611267565b60006001600160e01b031982166380ac58cd60e01b148061101757506001600160e01b03198216635b5e139f60e01b145b806105c257506105c282611484565b6000908152600260205260409020546001600160a01b0316151590565b3390565b600081815260046020526040902080546001600160a01b0319166001600160a01b038416908117909155819061107c82610a14565b6001600160a01b03167f8c5be1e5ebec7d5bd14f71427d1e84f3dd0314c0f7b2291e5b200ac8c7c3b92560405160405180910390a45050565b60006110c082611026565b6110dc5760405162461bcd60e51b815260040161068390612055565b60006110e783610a14565b9050806001600160a01b0316846001600160a01b031614806111225750836001600160a01b03166111178461065c565b6001600160a01b0316145b8061113257506111328185610f41565b949350505050565b826001600160a01b031661114d82610a14565b6001600160a01b0316146111735760405162461bcd60e51b8152600401610683906122db565b6001600160a01b0382166111995760405162461bcd60e51b815260040161068390611f60565b6111a483838361149d565b6111af600082611047565b6001600160a01b03831660009081526003602052604081208054600192906111d89084906124b6565b90915550506001600160a01b038216600090815260036020526040812080546001929061120690849061246b565b909155505060008181526002602052604080822080546001600160a01b0319166001600160a01b0386811691821790925591518493918716917fddf252ad1be2c89b69c2b068fc378daa952ba7f163c4a11628f55a4df523b3ef91a4505050565b600a80546001600160a01b038381166001600160a01b0319831681179093556040519116919082907f8be0079c531659141344cd1fd0a4f28419497f9722a3daafe3b4186f6b6457e090600090a35050565b60006112c5828461246b565b9392505050565b60006112c58284612497565b610a10828260405180602001604052806000815250611526565b6112fb82611026565b6113175760405162461bcd60e51b815260040161068390612027565b6000828152600f60209081526040909120825161079792840190611957565b61134184848461113a565b61134d84848484611559565b610ea15760405162461bcd60e51b815260040161068390611e34565b60608161138e57506040805180820190915260018152600360fc1b60208201526105c5565b8160005b81156113b857806113a281612534565b91506113b19050600a83612483565b9150611392565b60008167ffffffffffffffff8111156113e157634e487b7160e01b600052604160045260246000fd5b6040519080825280601f01601f19166020018201604052801561140b576020820181803683370190505b5090505b8415611132576114206001836124b6565b915061142d600a8661254f565b61143890603061246b565b60f81b81838151811061145b57634e487b7160e01b600052603260045260246000fd5b60200101906001600160f81b031916908160001a90535061147d600a86612483565b945061140f565b6001600160e01b031981166301ffc9a760e01b14919050565b6114a8838383610797565b6001600160a01b0383166114c4576114bf81611674565b6114e7565b816001600160a01b0316836001600160a01b0316146114e7576114e783826116b8565b6001600160a01b038216611503576114fe81611755565b610797565b826001600160a01b0316826001600160a01b03161461079757610797828261182e565b6115308383611872565b61153d6000848484611559565b6107975760405162461bcd60e51b815260040161068390611e34565b600061156d846001600160a01b0316611951565b1561166957836001600160a01b031663150b7a02611589611043565b8786866040518563ffffffff1660e01b81526004016115ab9493929190611d8e565b602060405180830381600087803b1580156115c557600080fd5b505af19250505080156115f5575060408051601f3d908101601f191682019092526115f291810190611bf6565b60015b61164f573d808015611623576040519150601f19603f3d011682016040523d82523d6000602084013e611628565b606091505b5080516116475760405162461bcd60e51b815260040161068390611e34565b805181602001fd5b6001600160e01b031916630a85bd0160e11b149050611132565b506001949350505050565b600880546000838152600960205260408120829055600182018355919091527ff3f7a9fe364faab93b216da50a3214154f22a0a2b415b23a84c8169e8b636ee30155565b600060016116c584610ae5565b6116cf91906124b6565b600083815260076020526040902054909150808214611722576001600160a01b03841660009081526006602090815260408083208584528252808320548484528184208190558352600790915290208190555b5060009182526007602090815260408084208490556001600160a01b039094168352600681528383209183525290812055565b600854600090611767906001906124b6565b6000838152600960205260408120546008805493945090928490811061179d57634e487b7160e01b600052603260045260246000fd5b9060005260206000200154905080600883815481106117cc57634e487b7160e01b600052603260045260246000fd5b600091825260208083209091019290925582815260099091526040808220849055858252812055600880548061181257634e487b7160e01b600052603160045260246000fd5b6001900381819060005260206000200160009055905550505050565b600061183983610ae5565b6001600160a01b039093166000908152600660209081526040808320868452825280832085905593825260079052919091209190915550565b6001600160a01b0382166118985760405162461bcd60e51b815260040161068390612225565b6118a181611026565b156118be5760405162461bcd60e51b815260040161068390611ecc565b6118ca6000838361149d565b6001600160a01b03821660009081526003602052604081208054600192906118f390849061246b565b909155505060008181526002602052604080822080546001600160a01b0319166001600160a01b03861690811790915590518392907fddf252ad1be2c89b69c2b068fc378daa952ba7f163c4a11628f55a4df523b3ef908290a45050565b3b151590565b828054611963906124f9565b90600052602060002090601f01602090048101928261198557600085556119cb565b82601f1061199e57805160ff19168380011785556119cb565b828001600101855582156119cb579182015b828111156119cb5782518255916020019190600101906119b0565b506119d79291506119db565b5090565b5b808211156119d757600081556001016119dc565b600067ffffffffffffffff80841115611a0b57611a0b61258f565b604051601f8501601f191681016020018281118282101715611a2f57611a2f61258f565b604052848152915081838501861015611a4757600080fd5b8484602083013760006020868301015250509392505050565b80356001600160a01b03811681146105c557600080fd5b600060208284031215611a88578081fd5b6112c582611a60565b60008060408385031215611aa3578081fd5b611aac83611a60565b9150611aba60208401611a60565b90509250929050565b600080600060608486031215611ad7578081fd5b611ae084611a60565b9250611aee60208501611a60565b9150604084013590509250925092565b60008060008060808587031215611b13578081fd5b611b1c85611a60565b9350611b2a60208601611a60565b925060408501359150606085013567ffffffffffffffff811115611b4c578182fd5b8501601f81018713611b5c578182fd5b611b6b878235602084016119f0565b91505092959194509250565b60008060408385031215611b89578182fd5b611b9283611a60565b915060208301358015158114611ba6578182fd5b809150509250929050565b60008060408385031215611bc3578182fd5b611bcc83611a60565b946020939093013593505050565b600060208284031215611beb578081fd5b81356112c5816125a5565b600060208284031215611c07578081fd5b81516112c5816125a5565b600060208284031215611c23578081fd5b813567ffffffffffffffff811115611c39578182fd5b8201601f81018413611c49578182fd5b611132848235602084016119f0565b600060208284031215611c69578081fd5b5035919050565b60008151808452611c888160208601602086016124cd565b601f01601f19169290920160200192915050565b60008151611cae8185602086016124cd565b9290920192915050565b64173539b7b760d91b815260050190565b8254600090819060028104600180831680611ce557607f831692505b6020808410821415611d0557634e487b7160e01b87526022600452602487fd5b818015611d195760018114611d2a57611d56565b60ff19861689528489019650611d56565b611d338b61245f565b885b86811015611d4e5781548b820152908501908301611d35565b505084890196505b505050505050611d6e611d698286611c9c565b611cb8565b95945050505050565b90565b6001600160a01b0391909116815260200190565b6001600160a01b0385811682528416602082015260408101839052608060608201819052600090611dc190830184611c70565b9695505050505050565b901515815260200190565b6000602082526112c56020830184611c70565b6020808252602b908201527f455243373231456e756d657261626c653a206f776e657220696e646578206f7560408201526a74206f6620626f756e647360a81b606082015260800190565b60208082526032908201527f4552433732313a207472616e7366657220746f206e6f6e20455243373231526560408201527131b2b4bb32b91034b6b83632b6b2b73a32b960711b606082015260800190565b60208082526026908201527f4f776e61626c653a206e6577206f776e657220697320746865207a65726f206160408201526564647265737360d01b606082015260800190565b6020808252601c908201527f4552433732313a20746f6b656e20616c7265616479206d696e74656400000000604082015260600190565b60208082526037908201527f546865206e756d626572206f6620746f6b656e732063616e206e6f742062652060408201527f6c657373207468616e206f7220657175616c20746f2030000000000000000000606082015260800190565b60208082526024908201527f4552433732313a207472616e7366657220746f20746865207a65726f206164646040820152637265737360e01b606082015260800190565b60208082526019908201527f4552433732313a20617070726f766520746f2063616c6c657200000000000000604082015260600190565b6020808252602c908201527f54686520636f6e747261637420646964206e6f74207265636569766520656e6f60408201526b75676820457468657265756d60a01b606082015260800190565b602080825260149082015273151bdad95b88191bd95cc81b9bdd08195e1a5cdd60621b604082015260600190565b6020808252602c908201527f4552433732313a206f70657261746f7220717565727920666f72206e6f6e657860408201526b34b9ba32b73a103a37b5b2b760a11b606082015260800190565b6020808252601f908201527f54686520636f6e74726163742073616c65206973206e6f742061637469766500604082015260600190565b60208082526038908201527f54686520707572636861736520776f756c642065786365656420746865206d6160408201527f7820737570706c79206f66204c696c42616279446f6f64730000000000000000606082015260800190565b60208082526038908201527f4552433732313a20617070726f76652063616c6c6572206973206e6f74206f7760408201527f6e6572206e6f7220617070726f76656420666f7220616c6c0000000000000000606082015260800190565b6020808252602a908201527f4552433732313a2062616c616e636520717565727920666f7220746865207a65604082015269726f206164647265737360b01b606082015260800190565b60208082526029908201527f4552433732313a206f776e657220717565727920666f72206e6f6e657869737460408201526832b73a103a37b5b2b760b91b606082015260800190565b6020808252818101527f4552433732313a206d696e7420746f20746865207a65726f2061646472657373604082015260600190565b6020808252602c908201527f4552433732313a20617070726f76656420717565727920666f72206e6f6e657860408201526b34b9ba32b73a103a37b5b2b760a11b606082015260800190565b6020808252818101527f4f776e61626c653a2063616c6c6572206973206e6f7420746865206f776e6572604082015260600190565b60208082526029908201527f4552433732313a207472616e73666572206f6620746f6b656e2074686174206960408201526839903737ba1037bbb760b91b606082015260800190565b60208082526021908201527f4552433732313a20617070726f76616c20746f2063757272656e74206f776e656040820152603960f91b606082015260800190565b60208082526034908201527f54686520636f6e74726163742063616e206f6e6c79206d696e7420757020746f60408201527320323020746f6b656e7320617420612074696d6560601b606082015260800190565b60208082526031908201527f4552433732313a207472616e736665722063616c6c6572206973206e6f74206f6040820152701ddb995c881b9bdc88185c1c1c9bdd9959607a1b606082015260800190565b6020808252602c908201527f455243373231456e756d657261626c653a20676c6f62616c20696e646578206f60408201526b7574206f6620626f756e647360a01b606082015260800190565b90815260200190565b60009081526020902090565b6000821982111561247e5761247e612563565b500190565b60008261249257612492612579565b500490565b60008160001904831182151516156124b1576124b1612563565b500290565b6000828210156124c8576124c8612563565b500390565b60005b838110156124e85781810151838201526020016124d0565b83811115610ea15750506000910152565b60028104600182168061250d57607f821691505b6020821081141561252e57634e487b7160e01b600052602260045260246000fd5b50919050565b600060001982141561254857612548612563565b5060010190565b60008261255e5761255e612579565b500690565b634e487b7160e01b600052601160045260246000fd5b634e487b7160e01b600052601260045260246000fd5b634e487b7160e01b600052604160045260246000fd5b6001600160e01b03198116811461093657600080fdfe68747470733a2f2f697066732e696f2f697066732f516d646d5936474a7171557a524b6745626e4433513745324759796b564d576734674768724b57614a4261506632a2646970667358221220bf0a662841eae4e157986d1a727544b200f118f04d287bdc07960aefa691a43064736f6c63430008000033",
  "immutableReferences": {},
  "source": "// SPDX-License-Identifier: MIT\npragma solidity ^0.8.0;\n\n// import statements\nimport \"@openzeppelin/contracts/token/ERC721/ERC721.sol\";\nimport \"@openzeppelin/contracts/access/Ownable.sol\";\nimport \"@openzeppelin/contracts/utils/math/SafeMath.sol\";\nimport \"@openzeppelin/contracts/token/ERC721/extensions/ERC721Enumerable.sol\";\n\n// contract class\ncontract LilBabyDood is ERC721Enumerable, Ownable {\n    // utilities\n    using Strings for uint256;\n    using SafeMath for uint256;\n\n    // uint256\n    uint256 public constant nftPrice = 30000000000000000;\n    uint256 public constant maxNftPurchase = 8;\n    uint256 public maxSupply = 3000;\n    uint256 public nftPerAddressLimit = 5;\n\n    // booleans\n    bool public saleIsActive = false; // false\n    bool public publicMintingStatus = false; // false\n    bool public revealed = false;\n\n    // strings\n    string public baseURI;\n\n    // mappings\n    mapping(uint256 => string) _tokenURIs;\n\n    // contract constructor\n    constructor() ERC721(\"LilBabyDood\", \"LBD\") {}\n\n    // get functions\n    function getBalance() public view returns (uint256) {\n        return address(this).balance;\n    }\n\n    function getBaseURI() internal view virtual returns (string memory) {\n        return baseURI;\n    }\n\n    // set functions\n    function setBaseURI(string memory baseURI_) external onlyOwner {\n        baseURI = baseURI_;\n    }\n\n    function reveal() public onlyOwner {\n        revealed = true;\n    }\n\n    function flipPublicMintingStatus() public onlyOwner {\n        publicMintingStatus = !publicMintingStatus;\n    }\n\n    function flipSaleState() public onlyOwner {\n        saleIsActive = !saleIsActive;\n    }\n\n    function _setTokenURI(uint256 tokenId, string memory _tokenURI)\n        internal\n        virtual\n    {\n        require(_exists(tokenId), \"Token does not exist\");\n        _tokenURIs[tokenId] = _tokenURI;\n    }\n\n    // unnecessarily long mint function\n    function mint(uint256 numberOfTokens) public payable {\n        require(\n            numberOfTokens > 0,\n            \"The number of tokens can not be less than or equal to 0\"\n        );\n        require(\n            totalSupply().add(numberOfTokens) <= maxSupply,\n            \"The purchase would exceed the max supply of LilBabyDoods\"\n        );\n\n        if (msg.sender != owner()) {\n            if (totalSupply() <= 333) {\n                require(\n                    nftPrice.mul(numberOfTokens) <= msg.value,\n                    \"The contract did not receive enough Ethereum\"\n                );\n            }\n\n            require(\n                numberOfTokens <= maxNftPurchase,\n                \"The contract can only mint up to 20 tokens at a time\"\n            );\n\n            require(saleIsActive, \"The contract sale is not active\");\n\n            if (publicMintingStatus) {\n                for (uint256 i = 0; i < numberOfTokens; i++) {\n                    uint256 newId = totalSupply();\n                    if (totalSupply() < maxSupply) {\n                        _safeMint(msg.sender, newId);\n                        _setTokenURI(newId, tokenURI(newId));\n                    }\n                }\n            }\n        } else {\n            for (uint256 i = 0; i < numberOfTokens; i++) {\n                uint256 newId = totalSupply();\n                if (totalSupply() < maxSupply) {\n                    _safeMint(msg.sender, newId);\n                    _setTokenURI(newId, tokenURI(newId));\n                }\n            }\n        }\n    }\n\n    // token URI retriever\n    function tokenURI(uint256 tokenId)\n        public\n        view\n        virtual\n        override\n        returns (string memory)\n    {\n        require(_exists(tokenId), \"Token does not exist\");\n        if (revealed == false) {\n            return\n                \"https://ipfs.io/ipfs/QmdmY6GJqqUzRKgEbnD3Q7E2GYykVMWg4gGhrKWaJBaPf2\";\n        }\n\n        return string(abi.encodePacked(baseURI, tokenId.toString(), \".json\"));\n    }\n\n    // classic withdraw function\n    //  TODO make withdraw non payable\n    function withdraw() public payable onlyOwner {\n        (bool success, ) = payable(msg.sender).call{\n            value: address(this).balance\n        }(\"\");\n        require(success);\n    }\n}\n",
  "sourcePath": "/Users/ishreetbhullar/Documents/coding-folder/LilBabyDoodzFinal/contracts/LilBabyDood.sol",
  "compiler": {
    "name": "solc",
    "version": "0.8.0+commit.c7dfd78e.Emscripten.clang"
  },
  "schemaVersion": "3.4.3",
  "updatedAt": "2022-01-10T01:01:30.474Z",
  "networkType": "ethereum",
  "devdoc": {
    "kind": "dev",
    "methods": {
      "approve(address,uint256)": {
        "details": "See {IERC721-approve}."
      },
      "balanceOf(address)": {
        "details": "See {IERC721-balanceOf}."
      },
      "getApproved(uint256)": {
        "details": "See {IERC721-getApproved}."
      },
      "isApprovedForAll(address,address)": {
        "details": "See {IERC721-isApprovedForAll}."
      },
      "name()": {
        "details": "See {IERC721Metadata-name}."
      },
      "owner()": {
        "details": "Returns the address of the current owner."
      },
      "ownerOf(uint256)": {
        "details": "See {IERC721-ownerOf}."
      },
      "renounceOwnership()": {
        "details": "Leaves the contract without owner. It will not be possible to call `onlyOwner` functions anymore. Can only be called by the current owner. NOTE: Renouncing ownership will leave the contract without an owner, thereby removing any functionality that is only available to the owner."
      },
      "safeTransferFrom(address,address,uint256)": {
        "details": "See {IERC721-safeTransferFrom}."
      },
      "safeTransferFrom(address,address,uint256,bytes)": {
        "details": "See {IERC721-safeTransferFrom}."
      },
      "setApprovalForAll(address,bool)": {
        "details": "See {IERC721-setApprovalForAll}."
      },
      "supportsInterface(bytes4)": {
        "details": "See {IERC165-supportsInterface}."
      },
      "symbol()": {
        "details": "See {IERC721Metadata-symbol}."
      },
      "tokenByIndex(uint256)": {
        "details": "See {IERC721Enumerable-tokenByIndex}."
      },
      "tokenOfOwnerByIndex(address,uint256)": {
        "details": "See {IERC721Enumerable-tokenOfOwnerByIndex}."
      },
      "tokenURI(uint256)": {
        "details": "See {IERC721Metadata-tokenURI}."
      },
      "totalSupply()": {
        "details": "See {IERC721Enumerable-totalSupply}."
      },
      "transferFrom(address,address,uint256)": {
        "details": "See {IERC721-transferFrom}."
      },
      "transferOwnership(address)": {
        "details": "Transfers ownership of the contract to a new account (`newOwner`). Can only be called by the current owner."
      }
    },
    "version": 1
  },
  "userdoc": {
    "kind": "user",
    "methods": {},
    "version": 1
  }
}