{
  "contractName": "TinyTurtles",
  "abi": [
    {
      "inputs": [],
      "stateMutability": "nonpayable",
      "type": "constructor"
    },
    {
      "anonymous": false,
      "inputs": [
        {
          "indexed": true,
          "internalType": "address",
          "name": "owner",
          "type": "address"
        },
        {
          "indexed": true,
          "internalType": "address",
          "name": "approved",
          "type": "address"
        },
        {
          "indexed": true,
          "internalType": "uint256",
          "name": "tokenId",
          "type": "uint256"
        }
      ],
      "name": "Approval",
      "type": "event"
    },
    {
      "anonymous": false,
      "inputs": [
        {
          "indexed": true,
          "internalType": "address",
          "name": "owner",
          "type": "address"
        },
        {
          "indexed": true,
          "internalType": "address",
          "name": "operator",
          "type": "address"
        },
        {
          "indexed": false,
          "internalType": "bool",
          "name": "approved",
          "type": "bool"
        }
      ],
      "name": "ApprovalForAll",
      "type": "event"
    },
    {
      "anonymous": false,
      "inputs": [
        {
          "indexed": true,
          "internalType": "address",
          "name": "previousOwner",
          "type": "address"
        },
        {
          "indexed": true,
          "internalType": "address",
          "name": "newOwner",
          "type": "address"
        }
      ],
      "name": "OwnershipTransferred",
      "type": "event"
    },
    {
      "anonymous": false,
      "inputs": [
        {
          "indexed": true,
          "internalType": "address",
          "name": "from",
          "type": "address"
        },
        {
          "indexed": true,
          "internalType": "address",
          "name": "to",
          "type": "address"
        },
        {
          "indexed": true,
          "internalType": "uint256",
          "name": "tokenId",
          "type": "uint256"
        }
      ],
      "name": "Transfer",
      "type": "event"
    },
    {
      "inputs": [],
      "name": "MAX_NFT_PURCHASE",
      "outputs": [
        {
          "internalType": "uint256",
          "name": "",
          "type": "uint256"
        }
      ],
      "stateMutability": "view",
      "type": "function",
      "constant": true
    },
    {
      "inputs": [],
      "name": "MAX_SUPPLY",
      "outputs": [
        {
          "internalType": "uint256",
          "name": "",
          "type": "uint256"
        }
      ],
      "stateMutability": "view",
      "type": "function",
      "constant": true
    },
    {
      "inputs": [],
      "name": "NFT_PRICE",
      "outputs": [
        {
          "internalType": "uint256",
          "name": "",
          "type": "uint256"
        }
      ],
      "stateMutability": "view",
      "type": "function",
      "constant": true
    },
    {
      "inputs": [],
      "name": "TT_PROVENANCE",
      "outputs": [
        {
          "internalType": "string",
          "name": "",
          "type": "string"
        }
      ],
      "stateMutability": "view",
      "type": "function",
      "constant": true
    },
    {
      "inputs": [
        {
          "internalType": "address",
          "name": "to",
          "type": "address"
        },
        {
          "internalType": "uint256",
          "name": "tokenId",
          "type": "uint256"
        }
      ],
      "name": "approve",
      "outputs": [],
      "stateMutability": "nonpayable",
      "type": "function"
    },
    {
      "inputs": [
        {
          "internalType": "address",
          "name": "owner",
          "type": "address"
        }
      ],
      "name": "balanceOf",
      "outputs": [
        {
          "internalType": "uint256",
          "name": "",
          "type": "uint256"
        }
      ],
      "stateMutability": "view",
      "type": "function",
      "constant": true
    },
    {
      "inputs": [
        {
          "internalType": "uint256",
          "name": "tokenId",
          "type": "uint256"
        }
      ],
      "name": "getApproved",
      "outputs": [
        {
          "internalType": "address",
          "name": "",
          "type": "address"
        }
      ],
      "stateMutability": "view",
      "type": "function",
      "constant": true
    },
    {
      "inputs": [
        {
          "internalType": "address",
          "name": "owner",
          "type": "address"
        },
        {
          "internalType": "address",
          "name": "operator",
          "type": "address"
        }
      ],
      "name": "isApprovedForAll",
      "outputs": [
        {
          "internalType": "bool",
          "name": "",
          "type": "bool"
        }
      ],
      "stateMutability": "view",
      "type": "function",
      "constant": true
    },
    {
      "inputs": [],
      "name": "name",
      "outputs": [
        {
          "internalType": "string",
          "name": "",
          "type": "string"
        }
      ],
      "stateMutability": "view",
      "type": "function",
      "constant": true
    },
    {
      "inputs": [],
      "name": "owner",
      "outputs": [
        {
          "internalType": "address",
          "name": "",
          "type": "address"
        }
      ],
      "stateMutability": "view",
      "type": "function",
      "constant": true
    },
    {
      "inputs": [
        {
          "internalType": "uint256",
          "name": "tokenId",
          "type": "uint256"
        }
      ],
      "name": "ownerOf",
      "outputs": [
        {
          "internalType": "address",
          "name": "",
          "type": "address"
        }
      ],
      "stateMutability": "view",
      "type": "function",
      "constant": true
    },
    {
      "inputs": [],
      "name": "renounceOwnership",
      "outputs": [],
      "stateMutability": "nonpayable",
      "type": "function"
    },
    {
      "inputs": [
        {
          "internalType": "address",
          "name": "from",
          "type": "address"
        },
        {
          "internalType": "address",
          "name": "to",
          "type": "address"
        },
        {
          "internalType": "uint256",
          "name": "tokenId",
          "type": "uint256"
        }
      ],
      "name": "safeTransferFrom",
      "outputs": [],
      "stateMutability": "nonpayable",
      "type": "function"
    },
    {
      "inputs": [
        {
          "internalType": "address",
          "name": "from",
          "type": "address"
        },
        {
          "internalType": "address",
          "name": "to",
          "type": "address"
        },
        {
          "internalType": "uint256",
          "name": "tokenId",
          "type": "uint256"
        },
        {
          "internalType": "bytes",
          "name": "_data",
          "type": "bytes"
        }
      ],
      "name": "safeTransferFrom",
      "outputs": [],
      "stateMutability": "nonpayable",
      "type": "function"
    },
    {
      "inputs": [],
      "name": "saleIsActive",
      "outputs": [
        {
          "internalType": "bool",
          "name": "",
          "type": "bool"
        }
      ],
      "stateMutability": "view",
      "type": "function",
      "constant": true
    },
    {
      "inputs": [
        {
          "internalType": "address",
          "name": "operator",
          "type": "address"
        },
        {
          "internalType": "bool",
          "name": "approved",
          "type": "bool"
        }
      ],
      "name": "setApprovalForAll",
      "outputs": [],
      "stateMutability": "nonpayable",
      "type": "function"
    },
    {
      "inputs": [
        {
          "internalType": "bytes4",
          "name": "interfaceId",
          "type": "bytes4"
        }
      ],
      "name": "supportsInterface",
      "outputs": [
        {
          "internalType": "bool",
          "name": "",
          "type": "bool"
        }
      ],
      "stateMutability": "view",
      "type": "function",
      "constant": true
    },
    {
      "inputs": [],
      "name": "symbol",
      "outputs": [
        {
          "internalType": "string",
          "name": "",
          "type": "string"
        }
      ],
      "stateMutability": "view",
      "type": "function",
      "constant": true
    },
    {
      "inputs": [
        {
          "internalType": "uint256",
          "name": "index",
          "type": "uint256"
        }
      ],
      "name": "tokenByIndex",
      "outputs": [
        {
          "internalType": "uint256",
          "name": "",
          "type": "uint256"
        }
      ],
      "stateMutability": "view",
      "type": "function",
      "constant": true
    },
    {
      "inputs": [
        {
          "internalType": "address",
          "name": "owner",
          "type": "address"
        },
        {
          "internalType": "uint256",
          "name": "index",
          "type": "uint256"
        }
      ],
      "name": "tokenOfOwnerByIndex",
      "outputs": [
        {
          "internalType": "uint256",
          "name": "",
          "type": "uint256"
        }
      ],
      "stateMutability": "view",
      "type": "function",
      "constant": true
    },
    {
      "inputs": [],
      "name": "totalSupply",
      "outputs": [
        {
          "internalType": "uint256",
          "name": "",
          "type": "uint256"
        }
      ],
      "stateMutability": "view",
      "type": "function",
      "constant": true
    },
    {
      "inputs": [
        {
          "internalType": "address",
          "name": "from",
          "type": "address"
        },
        {
          "internalType": "address",
          "name": "to",
          "type": "address"
        },
        {
          "internalType": "uint256",
          "name": "tokenId",
          "type": "uint256"
        }
      ],
      "name": "transferFrom",
      "outputs": [],
      "stateMutability": "nonpayable",
      "type": "function"
    },
    {
      "inputs": [
        {
          "internalType": "address",
          "name": "newOwner",
          "type": "address"
        }
      ],
      "name": "transferOwnership",
      "outputs": [],
      "stateMutability": "nonpayable",
      "type": "function"
    },
    {
      "inputs": [],
      "name": "flipSaleState",
      "outputs": [],
      "stateMutability": "nonpayable",
      "type": "function"
    },
    {
      "inputs": [
        {
          "internalType": "string",
          "name": "baseURI_",
          "type": "string"
        }
      ],
      "name": "setBaseURI",
      "outputs": [],
      "stateMutability": "nonpayable",
      "type": "function"
    },
    {
      "inputs": [
        {
          "internalType": "uint256",
          "name": "tokenId",
          "type": "uint256"
        }
      ],
      "name": "tokenURI",
      "outputs": [
        {
          "internalType": "string",
          "name": "",
          "type": "string"
        }
      ],
      "stateMutability": "view",
      "type": "function",
      "constant": true
    },
    {
      "inputs": [],
      "name": "getTotalSupply",
      "outputs": [
        {
          "internalType": "uint256",
          "name": "",
          "type": "uint256"
        }
      ],
      "stateMutability": "view",
      "type": "function",
      "constant": true
    },
    {
      "inputs": [],
      "name": "getAllTokens",
      "outputs": [
        {
          "components": [
            {
              "internalType": "uint256",
              "name": "id",
              "type": "uint256"
            },
            {
              "internalType": "string",
              "name": "uri",
              "type": "string"
            }
          ],
          "internalType": "struct TinyTurtles.RenderToken[]",
          "name": "",
          "type": "tuple[]"
        }
      ],
      "stateMutability": "view",
      "type": "function",
      "constant": true
    },
    {
      "inputs": [],
      "name": "withdraw",
      "outputs": [],
      "stateMutability": "nonpayable",
      "type": "function"
    },
    {
      "inputs": [],
      "name": "reserveTokens",
      "outputs": [],
      "stateMutability": "nonpayable",
      "type": "function"
    },
    {
      "inputs": [
        {
          "internalType": "uint256",
          "name": "numberOfTokens",
          "type": "uint256"
        }
      ],
      "name": "mint",
      "outputs": [],
      "stateMutability": "payable",
      "type": "function",
      "payable": true
    }
  ],
  "bytecode": "0x60a06040819052600060808190526200001b91600b9162000125565b50612710600c55600d805460ff1916600117905566d529ae9e8600006011553480156200004757600080fd5b50604080518082018252600c81526b54696e7920547572746c657360a01b602080830191825283518085019094526002845261151560f21b908401528151919291620000969160009162000125565b508051620000ac90600190602084019062000125565b505050620000c9620000c3620000cf60201b60201c565b620000d3565b62000208565b3390565b600a80546001600160a01b038381166001600160a01b0319831681179093556040519116919082907f8be0079c531659141344cd1fd0a4f28419497f9722a3daafe3b4186f6b6457e090600090a35050565b8280546200013390620001cb565b90600052602060002090601f016020900481019282620001575760008555620001a2565b82601f106200017257805160ff1916838001178555620001a2565b82800160010185558215620001a2579182015b82811115620001a257825182559160200191906001019062000185565b50620001b0929150620001b4565b5090565b5b80821115620001b05760008155600101620001b5565b600281046001821680620001e057607f821691505b602082108114156200020257634e487b7160e01b600052602260045260246000fd5b50919050565b6125d380620002186000396000f3fe6080604052600436106101d85760003560e01c80634f6ccce711610102578063a0712d6811610095578063c87b56dd11610064578063c87b56dd146104e2578063e985e9c514610502578063eb8d244414610522578063f2fde38b14610537576101d8565b8063a0712d681461047a578063a22cb4651461048d578063b88d4fde146104ad578063c4e41b22146104cd576101d8565b806370a08231116100d157806370a082311461041b578063715018a61461043b5780638da5cb5b1461045057806395d89b4114610465576101d8565b80634f6ccce7146103a657806355f804b3146103c65780636352211e146103e6578063676dd56314610406576101d8565b806323b872dd1161017a57806332cb6b0c1161014957806332cb6b0c1461034757806334918dfd1461035c5780633ccfd60b1461037157806342842e0e14610386576101d8565b806323b872dd146102d057806327ac36c4146102f05780632a5c792a146103055780632f745c5914610327576101d8565b806306fdde03116101b657806306fdde0314610257578063081812fc1461026c578063095ea7b31461029957806318160ddd146102bb576101d8565b8063015b82f3146101dd57806301ffc9a714610208578063020b39cc14610235575b600080fd5b3480156101e957600080fd5b506101f2610557565b6040516101ff9190611d9d565b60405180910390f35b34801561021457600080fd5b50610228610223366004611b94565b6105e5565b6040516101ff9190611d92565b34801561024157600080fd5b5061024a610612565b6040516101ff9190612444565b34801561026357600080fd5b506101f2610617565b34801561027857600080fd5b5061028c610287366004611c12565b6106a9565b6040516101ff9190611cd0565b3480156102a557600080fd5b506102b96102b4366004611b6b565b6106f5565b005b3480156102c757600080fd5b5061024a61078d565b3480156102dc57600080fd5b506102b96102eb366004611a7d565b610793565b3480156102fc57600080fd5b506102b96107cb565b34801561031157600080fd5b5061031a61084b565b6040516101ff9190611d21565b34801561033357600080fd5b5061024a610342366004611b6b565b61094f565b34801561035357600080fd5b5061024a6109a1565b34801561036857600080fd5b506102b96109a7565b34801561037d57600080fd5b506102b96109fa565b34801561039257600080fd5b506102b96103a1366004611a7d565b610a7a565b3480156103b257600080fd5b5061024a6103c1366004611c12565b610a95565b3480156103d257600080fd5b506102b96103e1366004611bcc565b610af0565b3480156103f257600080fd5b5061028c610401366004611c12565b610b42565b34801561041257600080fd5b5061024a610b77565b34801561042757600080fd5b5061024a610436366004611a31565b610b82565b34801561044757600080fd5b506102b9610bc6565b34801561045c57600080fd5b5061028c610c11565b34801561047157600080fd5b506101f2610c20565b6102b9610488366004611c12565b610c2f565b34801561049957600080fd5b506102b96104a8366004611b31565b610d50565b3480156104b957600080fd5b506102b96104c8366004611ab8565b610e1e565b3480156104d957600080fd5b5061024a610e5d565b3480156104ee57600080fd5b506101f26104fd366004611c12565b610e6c565b34801561050e57600080fd5b5061022861051d366004611a4b565b610ecf565b34801561052e57600080fd5b50610228610efd565b34801561054357600080fd5b506102b9610552366004611a31565b610f06565b600b8054610564906124db565b80601f0160208091040260200160405190810160405280929190818152602001828054610590906124db565b80156105dd5780601f106105b2576101008083540402835291602001916105dd565b820191906000526020600020905b8154815290600101906020018083116105c057829003601f168201915b505050505081565b60006001600160e01b0319821663780e9d6360e01b148061060a575061060a82610f77565b90505b919050565b601481565b606060008054610626906124db565b80601f0160208091040260200160405190810160405280929190818152602001828054610652906124db565b801561069f5780601f106106745761010080835404028352916020019161069f565b820191906000526020600020905b81548152906001019060200180831161068257829003601f168201915b5050505050905090565b60006106b482610fb7565b6106d95760405162461bcd60e51b81526004016106d090612183565b60405180910390fd5b506000908152600460205260409020546001600160a01b031690565b600061070082610b42565b9050806001600160a01b0316836001600160a01b031614156107345760405162461bcd60e51b81526004016106d0906122e8565b806001600160a01b0316610746610fd4565b6001600160a01b0316148061076257506107628161051d610fd4565b61077e5760405162461bcd60e51b81526004016106d090612027565b6107888383610fd8565b505050565b60085490565b6107a461079e610fd4565b82611046565b6107c05760405162461bcd60e51b81526004016106d090612329565b6107888383836110cb565b6107d3610fd4565b6001600160a01b03166107e4610c11565b6001600160a01b03161461080a5760405162461bcd60e51b81526004016106d09061221b565b600061081461078d565b905060005b60148110156108475761083533610830838561244d565b6111f8565b8061083f81612516565b915050610819565b5050565b6060600061085761078d565b90506000808267ffffffffffffffff81111561088357634e487b7160e01b600052604160045260246000fd5b6040519080825280602002602001820160405280156108bc57816020015b6108a96118f7565b8152602001906001900390816108a15790505b50905060005b83811015610947576108d383610fb7565b156109275760006108e384610e6c565b905060405180604001604052808581526020018281525083858151811061091a57634e487b7160e01b600052603260045260246000fd5b6020026020010181905250505b8261093181612516565b935050808061093f90612516565b9150506108c2565b509250505090565b600061095a83610b82565b82106109785760405162461bcd60e51b81526004016106d090611e03565b506001600160a01b03919091166000908152600660209081526040808320938352929052205490565b600c5481565b6109af610fd4565b6001600160a01b03166109c0610c11565b6001600160a01b0316146109e65760405162461bcd60e51b81526004016106d09061221b565b600d805460ff19811660ff90911615179055565b610a02610fd4565b6001600160a01b0316610a13610c11565b6001600160a01b031614610a395760405162461bcd60e51b81526004016106d09061221b565b47610a42610fd4565b6001600160a01b03166108fc829081150290604051600060405180830381858888f19350505050158015610847573d6000803e3d6000fd5b61078883838360405180602001604052806000815250610e1e565b6000610a9f61078d565b8210610abd5760405162461bcd60e51b81526004016106d09061237a565b60088281548110610ade57634e487b7160e01b600052603260045260246000fd5b90600052602060002001549050919050565b610af8610fd4565b6001600160a01b0316610b09610c11565b6001600160a01b031614610b2f5760405162461bcd60e51b81526004016106d09061221b565b805161084790600e906020840190611911565b6000818152600260205260408120546001600160a01b03168061060a5760405162461bcd60e51b81526004016106d0906120ce565b66d529ae9e86000081565b60006001600160a01b038216610baa5760405162461bcd60e51b81526004016106d090612084565b506001600160a01b031660009081526003602052604090205490565b610bce610fd4565b6001600160a01b0316610bdf610c11565b6001600160a01b031614610c055760405162461bcd60e51b81526004016106d09061221b565b610c0f6000611212565b565b600a546001600160a01b031690565b606060018054610626906124db565b600d5460ff16610c515760405162461bcd60e51b81526004016106d09061240f565b60008111610c715760405162461bcd60e51b81526004016106d090611db0565b600c54610c8b6001610c8584610c8561078d565b90611264565b1115610ca95760405162461bcd60e51b81526004016106d0906123c6565b6014811115610cca5760405162461bcd60e51b81526004016106d090611fe4565b34610cdc66d529ae9e86000083611277565b14610cf95760405162461bcd60e51b81526004016106d090612117565b60005b81811015610847576000610d0e61078d565b9050600c54610d1b61078d565b1015610d3d57610d2b33826111f8565b610d3d81610d3883610e6c565b611283565b5080610d4881612516565b915050610cfc565b610d58610fd4565b6001600160a01b0316826001600160a01b03161415610d895760405162461bcd60e51b81526004016106d090611f61565b8060056000610d96610fd4565b6001600160a01b03908116825260208083019390935260409182016000908120918716808252919093529120805460ff191692151592909217909155610dda610fd4565b6001600160a01b03167f17307eab39ab6107e8899845ad3d59bd9653f200f220920489ca2b5937696c3183604051610e129190611d92565b60405180910390a35050565b610e2f610e29610fd4565b83611046565b610e4b5760405162461bcd60e51b81526004016106d090612329565b610e57848484846112c7565b50505050565b6000610e6761078d565b905090565b6060610e7782610fb7565b610e935760405162461bcd60e51b81526004016106d090612299565b6000610e9d6112fa565b9050610ea883611309565b604051602001610eb89190611c56565b604051602081830303815290604052915050919050565b6001600160a01b03918216600090815260056020908152604080832093909416825291909152205460ff1690565b600d5460ff1681565b610f0e610fd4565b6001600160a01b0316610f1f610c11565b6001600160a01b031614610f455760405162461bcd60e51b81526004016106d09061221b565b6001600160a01b038116610f6b5760405162461bcd60e51b81526004016106d090611ea0565b610f7481611212565b50565b60006001600160e01b031982166380ac58cd60e01b1480610fa857506001600160e01b03198216635b5e139f60e01b145b8061060a575061060a82611424565b6000908152600260205260409020546001600160a01b0316151590565b3390565b600081815260046020526040902080546001600160a01b0319166001600160a01b038416908117909155819061100d82610b42565b6001600160a01b03167f8c5be1e5ebec7d5bd14f71427d1e84f3dd0314c0f7b2291e5b200ac8c7c3b92560405160405180910390a45050565b600061105182610fb7565b61106d5760405162461bcd60e51b81526004016106d090611f98565b600061107883610b42565b9050806001600160a01b0316846001600160a01b031614806110b35750836001600160a01b03166110a8846106a9565b6001600160a01b0316145b806110c357506110c38185610ecf565b949350505050565b826001600160a01b03166110de82610b42565b6001600160a01b0316146111045760405162461bcd60e51b81526004016106d090612250565b6001600160a01b03821661112a5760405162461bcd60e51b81526004016106d090611f1d565b61113583838361143d565b611140600082610fd8565b6001600160a01b0383166000908152600360205260408120805460019290611169908490612498565b90915550506001600160a01b038216600090815260036020526040812080546001929061119790849061244d565b909155505060008181526002602052604080822080546001600160a01b0319166001600160a01b0386811691821790925591518493918716917fddf252ad1be2c89b69c2b068fc378daa952ba7f163c4a11628f55a4df523b3ef91a4505050565b6108478282604051806020016040528060008152506114c6565b600a80546001600160a01b038381166001600160a01b0319831681179093556040519116919082907f8be0079c531659141344cd1fd0a4f28419497f9722a3daafe3b4186f6b6457e090600090a35050565b6000611270828461244d565b9392505050565b60006112708284612479565b61128c82610fb7565b6112a85760405162461bcd60e51b81526004016106d0906121cf565b6000828152600f60209081526040909120825161078892840190611911565b6112d28484846110cb565b6112de848484846114f9565b610e575760405162461bcd60e51b81526004016106d090611e4e565b6060600e8054610626906124db565b60608161132e57506040805180820190915260018152600360fc1b602082015261060d565b8160005b8115611358578061134281612516565b91506113519050600a83612465565b9150611332565b60008167ffffffffffffffff81111561138157634e487b7160e01b600052604160045260246000fd5b6040519080825280601f01601f1916602001820160405280156113ab576020820181803683370190505b5090505b84156110c3576113c0600183612498565b91506113cd600a86612531565b6113d890603061244d565b60f81b8183815181106113fb57634e487b7160e01b600052603260045260246000fd5b60200101906001600160f81b031916908160001a90535061141d600a86612465565b94506113af565b6001600160e01b031981166301ffc9a760e01b14919050565b611448838383610788565b6001600160a01b0383166114645761145f81611614565b611487565b816001600160a01b0316836001600160a01b031614611487576114878382611658565b6001600160a01b0382166114a35761149e816116f5565b610788565b826001600160a01b0316826001600160a01b0316146107885761078882826117ce565b6114d08383611812565b6114dd60008484846114f9565b6107885760405162461bcd60e51b81526004016106d090611e4e565b600061150d846001600160a01b03166118f1565b1561160957836001600160a01b031663150b7a02611529610fd4565b8786866040518563ffffffff1660e01b815260040161154b9493929190611ce4565b602060405180830381600087803b15801561156557600080fd5b505af1925050508015611595575060408051601f3d908101601f1916820190925261159291810190611bb0565b60015b6115ef573d8080156115c3576040519150601f19603f3d011682016040523d82523d6000602084013e6115c8565b606091505b5080516115e75760405162461bcd60e51b81526004016106d090611e4e565b805181602001fd5b6001600160e01b031916630a85bd0160e11b1490506110c3565b506001949350505050565b600880546000838152600960205260408120829055600182018355919091527ff3f7a9fe364faab93b216da50a3214154f22a0a2b415b23a84c8169e8b636ee30155565b6000600161166584610b82565b61166f9190612498565b6000838152600760205260409020549091508082146116c2576001600160a01b03841660009081526006602090815260408083208584528252808320548484528184208190558352600790915290208190555b5060009182526007602090815260408084208490556001600160a01b039094168352600681528383209183525290812055565b60085460009061170790600190612498565b6000838152600960205260408120546008805493945090928490811061173d57634e487b7160e01b600052603260045260246000fd5b90600052602060002001549050806008838154811061176c57634e487b7160e01b600052603260045260246000fd5b60009182526020808320909101929092558281526009909152604080822084905585825281205560088054806117b257634e487b7160e01b600052603160045260246000fd5b6001900381819060005260206000200160009055905550505050565b60006117d983610b82565b6001600160a01b039093166000908152600660209081526040808320868452825280832085905593825260079052919091209190915550565b6001600160a01b0382166118385760405162461bcd60e51b81526004016106d09061214e565b61184181610fb7565b1561185e5760405162461bcd60e51b81526004016106d090611ee6565b61186a6000838361143d565b6001600160a01b038216600090815260036020526040812080546001929061189390849061244d565b909155505060008181526002602052604080822080546001600160a01b0319166001600160a01b03861690811790915590518392907fddf252ad1be2c89b69c2b068fc378daa952ba7f163c4a11628f55a4df523b3ef908290a45050565b3b151590565b604051806040016040528060008152602001606081525090565b82805461191d906124db565b90600052602060002090601f01602090048101928261193f5760008555611985565b82601f1061195857805160ff1916838001178555611985565b82800160010185558215611985579182015b8281111561198557825182559160200191906001019061196a565b50611991929150611995565b5090565b5b808211156119915760008155600101611996565b600067ffffffffffffffff808411156119c5576119c5612571565b604051601f8501601f1916810160200182811182821017156119e9576119e9612571565b604052848152915081838501861015611a0157600080fd5b8484602083013760006020868301015250509392505050565b80356001600160a01b038116811461060d57600080fd5b600060208284031215611a42578081fd5b61127082611a1a565b60008060408385031215611a5d578081fd5b611a6683611a1a565b9150611a7460208401611a1a565b90509250929050565b600080600060608486031215611a91578081fd5b611a9a84611a1a565b9250611aa860208501611a1a565b9150604084013590509250925092565b60008060008060808587031215611acd578081fd5b611ad685611a1a565b9350611ae460208601611a1a565b925060408501359150606085013567ffffffffffffffff811115611b06578182fd5b8501601f81018713611b16578182fd5b611b25878235602084016119aa565b91505092959194509250565b60008060408385031215611b43578182fd5b611b4c83611a1a565b915060208301358015158114611b60578182fd5b809150509250929050565b60008060408385031215611b7d578182fd5b611b8683611a1a565b946020939093013593505050565b600060208284031215611ba5578081fd5b813561127081612587565b600060208284031215611bc1578081fd5b815161127081612587565b600060208284031215611bdd578081fd5b813567ffffffffffffffff811115611bf3578182fd5b8201601f81018413611c03578182fd5b6110c3848235602084016119aa565b600060208284031215611c23578081fd5b5035919050565b60008151808452611c428160208601602086016124af565b601f01601f19169290920160200192915050565b60007f68747470733a2f2f74696e79747572746c65732e73332e75732d656173742d3282527f2e616d617a6f6e6177732e636f6d2f6d657461646174612f000000000000000060208301528251611cb48160388501602087016124af565b64173539b7b760d91b6038939091019283015250603d01919050565b6001600160a01b0391909116815260200190565b6001600160a01b0385811682528416602082015260408101839052608060608201819052600090611d1790830184611c2a565b9695505050505050565b60208082528251828201819052600091906040908185019080840286018301878501865b83811015611d8457888303603f19018552815180518452870151878401879052611d7187850182611c2a565b9588019593505090860190600101611d45565b509098975050505050505050565b901515815260200190565b6000602082526112706020830184611c2a565b60208082526033908201527f4e756d626572206f6620746f6b656e732063616e206e6f74206265206c6573736040820152720207468616e206f7220657175616c20746f203606c1b606082015260800190565b6020808252602b908201527f455243373231456e756d657261626c653a206f776e657220696e646578206f7560408201526a74206f6620626f756e647360a81b606082015260800190565b60208082526032908201527f4552433732313a207472616e7366657220746f206e6f6e20455243373231526560408201527131b2b4bb32b91034b6b83632b6b2b73a32b960711b606082015260800190565b60208082526026908201527f4f776e61626c653a206e6577206f776e657220697320746865207a65726f206160408201526564647265737360d01b606082015260800190565b6020808252601c908201527f4552433732313a20746f6b656e20616c7265616479206d696e74656400000000604082015260600190565b60208082526024908201527f4552433732313a207472616e7366657220746f20746865207a65726f206164646040820152637265737360e01b606082015260800190565b60208082526019908201527f4552433732313a20617070726f766520746f2063616c6c657200000000000000604082015260600190565b6020808252602c908201527f4552433732313a206f70657261746f7220717565727920666f72206e6f6e657860408201526b34b9ba32b73a103a37b5b2b760a11b606082015260800190565b60208082526023908201527f43616e206f6e6c79206d696e7420757020746f2032302070657220707572636860408201526261736560e81b606082015260800190565b60208082526038908201527f4552433732313a20617070726f76652063616c6c6572206973206e6f74206f7760408201527f6e6572206e6f7220617070726f76656420666f7220616c6c0000000000000000606082015260800190565b6020808252602a908201527f4552433732313a2062616c616e636520717565727920666f7220746865207a65604082015269726f206164647265737360b01b606082015260800190565b60208082526029908201527f4552433732313a206f776e657220717565727920666f72206e6f6e657869737460408201526832b73a103a37b5b2b760b91b606082015260800190565b6020808252601d908201527f53656e742065746865722076616c756520697320696e636f7272656374000000604082015260600190565b6020808252818101527f4552433732313a206d696e7420746f20746865207a65726f2061646472657373604082015260600190565b6020808252602c908201527f4552433732313a20617070726f76656420717565727920666f72206e6f6e657860408201526b34b9ba32b73a103a37b5b2b760a11b606082015260800190565b6020808252602c908201527f4552433732314d657461646174613a2055524920736574206f66206e6f6e657860408201526b34b9ba32b73a103a37b5b2b760a11b606082015260800190565b6020808252818101527f4f776e61626c653a2063616c6c6572206973206e6f7420746865206f776e6572604082015260600190565b60208082526029908201527f4552433732313a207472616e73666572206f6620746f6b656e2074686174206960408201526839903737ba1037bbb760b91b606082015260800190565b6020808252602f908201527f4552433732314d657461646174613a2055524920717565727920666f72206e6f60408201526e3732bc34b9ba32b73a103a37b5b2b760891b606082015260800190565b60208082526021908201527f4552433732313a20617070726f76616c20746f2063757272656e74206f776e656040820152603960f91b606082015260800190565b60208082526031908201527f4552433732313a207472616e736665722063616c6c6572206973206e6f74206f6040820152701ddb995c881b9bdc88185c1c1c9bdd9959607a1b606082015260800190565b6020808252602c908201527f455243373231456e756d657261626c653a20676c6f62616c20696e646578206f60408201526b7574206f6620626f756e647360a01b606082015260800190565b60208082526029908201527f507572636861736520776f756c6420657863656564206d617820737570706c79604082015268206f662042756c6c7360b81b606082015260800190565b6020808252818101527f53616c65206973206e6f742061637469766520617420746865206d6f6d656e74604082015260600190565b90815260200190565b6000821982111561246057612460612545565b500190565b6000826124745761247461255b565b500490565b600081600019048311821515161561249357612493612545565b500290565b6000828210156124aa576124aa612545565b500390565b60005b838110156124ca5781810151838201526020016124b2565b83811115610e575750506000910152565b6002810460018216806124ef57607f821691505b6020821081141561251057634e487b7160e01b600052602260045260246000fd5b50919050565b600060001982141561252a5761252a612545565b5060010190565b6000826125405761254061255b565b500690565b634e487b7160e01b600052601160045260246000fd5b634e487b7160e01b600052601260045260246000fd5b634e487b7160e01b600052604160045260246000fd5b6001600160e01b031981168114610f7457600080fdfea26469706673582212205408b192169db3ac1e44be2557a5e6afcdc06e1156ffb5c28b3fc020232b906764736f6c63430008000033",
  "immutableReferences": {},
  "source": "// SPDX-License-Identifier: MIT\npragma solidity ^0.8.0;\n\nimport \"@openzeppelin/contracts/token/ERC721/ERC721.sol\";\nimport \"@openzeppelin/contracts/access/Ownable.sol\";\nimport \"@openzeppelin/contracts/utils/Counters.sol\";\nimport \"@openzeppelin/contracts/utils/math/SafeMath.sol\";\nimport \"@openzeppelin/contracts/token/ERC721/extensions/ERC721Enumerable.sol\";\n\ncontract TinyTurtles is ERC721Enumerable, Ownable {\n    using Counters for Counters.Counter;\n\n    using Strings for uint256;\n    using SafeMath for uint256;\n\n    string public TT_PROVENANCE = \"\";\n    uint256 public constant NFT_PRICE = 60000000000000000; // 0.06 ETH\n    uint256 public constant MAX_NFT_PURCHASE = 20;\n    uint256 public MAX_SUPPLY = 10000;\n    bool public saleIsActive = true;\n\n    string private _baseURIExtended;\n    mapping(uint256 => string) _tokenURIs;\n    Counters.Counter _tokenIds;\n\n    uint256 fee = 0.06 ether;\n\n    struct RenderToken {\n        uint256 id;\n        string uri;\n    }\n\n    constructor() ERC721(\"Tiny Turtles\", \"TT\") {}\n\n    function flipSaleState() public onlyOwner {\n        saleIsActive = !saleIsActive;\n    }\n\n    function setBaseURI(string memory baseURI_) external onlyOwner {\n        _baseURIExtended = baseURI_;\n    }\n\n    function _setTokenURI(uint256 tokenId, string memory _tokenURI)\n        internal\n        virtual\n    {\n        require(\n            _exists(tokenId),\n            \"ERC721Metadata: URI set of nonexistent token\"\n        );\n        _tokenURIs[tokenId] = _tokenURI;\n    }\n\n    function _baseURI() internal view virtual override returns (string memory) {\n        return _baseURIExtended;\n    }\n\n    function tokenURI(uint256 tokenId)\n        public\n        view\n        virtual\n        override\n        returns (string memory)\n    {\n        require(\n            _exists(tokenId),\n            \"ERC721Metadata: URI query for nonexistent token\"\n        );\n\n        // string memory _tokenURI = _tokenURIs[tokenId];\n        string memory base = _baseURI();\n\n        // // If there is no base URI, return the token URI.\n        // if (bytes(base).length == 0) {\n        //     return _tokenURI;\n        // }\n        // // If both are set, concatenate the baseURI and tokenURI (via abi.encodePacked).\n        // if (bytes(_tokenURI).length > 0) {\n        //     return string(abi.encodePacked(base, _tokenURI));\n        // }\n        // // If there is a baseURI but no tokenURI, concatenate the tokenID to the baseURI.\n        return\n            string(\n                abi.encodePacked(\n                    \"https://tinyturtles.s3.us-east-2.amazonaws.com/metadata/\",\n                    tokenId.toString(),\n                    \".json\"\n                )\n            );\n    }\n\n    function getTotalSupply() public view returns (uint256) {\n        return totalSupply();\n    }\n\n    function getAllTokens() public view returns (RenderToken[] memory) {\n        uint256 latestId = totalSupply();\n        uint256 counter = 0;\n        RenderToken[] memory res = new RenderToken[](latestId);\n        for (uint256 i = 0; i < latestId; i++) {\n            if (_exists(counter)) {\n                string memory uri = tokenURI(counter);\n                res[counter] = RenderToken(counter, uri);\n            }\n            counter++;\n        }\n        return res;\n    }\n\n    function withdraw() external onlyOwner {\n        uint256 balance = address(this).balance;\n        payable(_msgSender()).transfer(balance);\n    }\n\n    function reserveTokens() public onlyOwner {\n        uint256 supply = totalSupply();\n        uint256 i;\n        for (i = 0; i < MAX_NFT_PURCHASE; i++) {\n            _safeMint(msg.sender, supply + i);\n        }\n    }\n\n    // return uint256? // onlyOwner()\n    // supply + i == identifier/index of NFT you're minting\n    // supply + i reserved for reserving\n    function mint(uint256 numberOfTokens) public payable {\n        require(saleIsActive, \"Sale is not active at the moment\");\n        require(\n            numberOfTokens > 0,\n            \"Number of tokens can not be less than or equal to 0\"\n        );\n        require(\n            totalSupply().add(numberOfTokens).add(1) <= MAX_SUPPLY,\n            \"Purchase would exceed max supply of Bulls\"\n        );\n        require(\n            numberOfTokens <= MAX_NFT_PURCHASE,\n            \"Can only mint up to 20 per purchase\"\n        );\n        require(\n            NFT_PRICE.mul(numberOfTokens) == msg.value,\n            \"Sent ether value is incorrect\"\n        );\n\n        for (uint256 i = 0; i < numberOfTokens; i++) {\n            uint256 newId = totalSupply();\n            if (totalSupply() < MAX_SUPPLY) {\n                _safeMint(msg.sender, newId);\n                _setTokenURI(newId, tokenURI(newId));\n            }\n        }\n    }\n}\n",
  "sourcePath": "/Users/ishreetbhullar/Documents/coding-folder/TinyTurtlesNFT/contracts/TinyTurtles.sol",
  "compiler": {
    "name": "solc",
    "version": "0.8.0+commit.c7dfd78e.Emscripten.clang"
  },
  "schemaVersion": "3.4.3",
  "updatedAt": "2021-09-13T07:08:21.719Z",
  "networkType": "ethereum",
  "devdoc": {
    "kind": "dev",
    "methods": {
      "approve(address,uint256)": {
        "details": "See {IERC721-approve}."
      },
      "balanceOf(address)": {
        "details": "See {IERC721-balanceOf}."
      },
      "getApproved(uint256)": {
        "details": "See {IERC721-getApproved}."
      },
      "isApprovedForAll(address,address)": {
        "details": "See {IERC721-isApprovedForAll}."
      },
      "name()": {
        "details": "See {IERC721Metadata-name}."
      },
      "owner()": {
        "details": "Returns the address of the current owner."
      },
      "ownerOf(uint256)": {
        "details": "See {IERC721-ownerOf}."
      },
      "renounceOwnership()": {
        "details": "Leaves the contract without owner. It will not be possible to call `onlyOwner` functions anymore. Can only be called by the current owner. NOTE: Renouncing ownership will leave the contract without an owner, thereby removing any functionality that is only available to the owner."
      },
      "safeTransferFrom(address,address,uint256)": {
        "details": "See {IERC721-safeTransferFrom}."
      },
      "safeTransferFrom(address,address,uint256,bytes)": {
        "details": "See {IERC721-safeTransferFrom}."
      },
      "setApprovalForAll(address,bool)": {
        "details": "See {IERC721-setApprovalForAll}."
      },
      "supportsInterface(bytes4)": {
        "details": "See {IERC165-supportsInterface}."
      },
      "symbol()": {
        "details": "See {IERC721Metadata-symbol}."
      },
      "tokenByIndex(uint256)": {
        "details": "See {IERC721Enumerable-tokenByIndex}."
      },
      "tokenOfOwnerByIndex(address,uint256)": {
        "details": "See {IERC721Enumerable-tokenOfOwnerByIndex}."
      },
      "tokenURI(uint256)": {
        "details": "See {IERC721Metadata-tokenURI}."
      },
      "totalSupply()": {
        "details": "See {IERC721Enumerable-totalSupply}."
      },
      "transferFrom(address,address,uint256)": {
        "details": "See {IERC721-transferFrom}."
      },
      "transferOwnership(address)": {
        "details": "Transfers ownership of the contract to a new account (`newOwner`). Can only be called by the current owner."
      }
    },
    "version": 1
  },
  "userdoc": {
    "kind": "user",
    "methods": {},
    "version": 1
  }
}