{
  "contractName": "TinyTurtles",
  "abi": [
    {
      "inputs": [],
      "stateMutability": "nonpayable",
      "type": "constructor"
    },
    {
      "anonymous": false,
      "inputs": [
        {
          "indexed": true,
          "internalType": "address",
          "name": "owner",
          "type": "address"
        },
        {
          "indexed": true,
          "internalType": "address",
          "name": "approved",
          "type": "address"
        },
        {
          "indexed": true,
          "internalType": "uint256",
          "name": "tokenId",
          "type": "uint256"
        }
      ],
      "name": "Approval",
      "type": "event"
    },
    {
      "anonymous": false,
      "inputs": [
        {
          "indexed": true,
          "internalType": "address",
          "name": "owner",
          "type": "address"
        },
        {
          "indexed": true,
          "internalType": "address",
          "name": "operator",
          "type": "address"
        },
        {
          "indexed": false,
          "internalType": "bool",
          "name": "approved",
          "type": "bool"
        }
      ],
      "name": "ApprovalForAll",
      "type": "event"
    },
    {
      "anonymous": false,
      "inputs": [
        {
          "indexed": true,
          "internalType": "address",
          "name": "previousOwner",
          "type": "address"
        },
        {
          "indexed": true,
          "internalType": "address",
          "name": "newOwner",
          "type": "address"
        }
      ],
      "name": "OwnershipTransferred",
      "type": "event"
    },
    {
      "anonymous": false,
      "inputs": [
        {
          "indexed": true,
          "internalType": "address",
          "name": "from",
          "type": "address"
        },
        {
          "indexed": true,
          "internalType": "address",
          "name": "to",
          "type": "address"
        },
        {
          "indexed": true,
          "internalType": "uint256",
          "name": "tokenId",
          "type": "uint256"
        }
      ],
      "name": "Transfer",
      "type": "event"
    },
    {
      "inputs": [],
      "name": "MAX_NFT_PURCHASE",
      "outputs": [
        {
          "internalType": "uint256",
          "name": "",
          "type": "uint256"
        }
      ],
      "stateMutability": "view",
      "type": "function",
      "constant": true
    },
    {
      "inputs": [],
      "name": "MAX_SUPPLY",
      "outputs": [
        {
          "internalType": "uint256",
          "name": "",
          "type": "uint256"
        }
      ],
      "stateMutability": "view",
      "type": "function",
      "constant": true
    },
    {
      "inputs": [],
      "name": "NFT_PRICE",
      "outputs": [
        {
          "internalType": "uint256",
          "name": "",
          "type": "uint256"
        }
      ],
      "stateMutability": "view",
      "type": "function",
      "constant": true
    },
    {
      "inputs": [
        {
          "internalType": "address",
          "name": "to",
          "type": "address"
        },
        {
          "internalType": "uint256",
          "name": "tokenId",
          "type": "uint256"
        }
      ],
      "name": "approve",
      "outputs": [],
      "stateMutability": "nonpayable",
      "type": "function"
    },
    {
      "inputs": [
        {
          "internalType": "address",
          "name": "owner",
          "type": "address"
        }
      ],
      "name": "balanceOf",
      "outputs": [
        {
          "internalType": "uint256",
          "name": "",
          "type": "uint256"
        }
      ],
      "stateMutability": "view",
      "type": "function",
      "constant": true
    },
    {
      "inputs": [
        {
          "internalType": "uint256",
          "name": "tokenId",
          "type": "uint256"
        }
      ],
      "name": "getApproved",
      "outputs": [
        {
          "internalType": "address",
          "name": "",
          "type": "address"
        }
      ],
      "stateMutability": "view",
      "type": "function",
      "constant": true
    },
    {
      "inputs": [
        {
          "internalType": "address",
          "name": "owner",
          "type": "address"
        },
        {
          "internalType": "address",
          "name": "operator",
          "type": "address"
        }
      ],
      "name": "isApprovedForAll",
      "outputs": [
        {
          "internalType": "bool",
          "name": "",
          "type": "bool"
        }
      ],
      "stateMutability": "view",
      "type": "function",
      "constant": true
    },
    {
      "inputs": [],
      "name": "name",
      "outputs": [
        {
          "internalType": "string",
          "name": "",
          "type": "string"
        }
      ],
      "stateMutability": "view",
      "type": "function",
      "constant": true
    },
    {
      "inputs": [],
      "name": "nftPerAddressLimit",
      "outputs": [
        {
          "internalType": "uint256",
          "name": "",
          "type": "uint256"
        }
      ],
      "stateMutability": "view",
      "type": "function",
      "constant": true
    },
    {
      "inputs": [],
      "name": "notRevealedUri",
      "outputs": [
        {
          "internalType": "string",
          "name": "",
          "type": "string"
        }
      ],
      "stateMutability": "view",
      "type": "function",
      "constant": true
    },
    {
      "inputs": [],
      "name": "onlyWhitelisted",
      "outputs": [
        {
          "internalType": "bool",
          "name": "",
          "type": "bool"
        }
      ],
      "stateMutability": "view",
      "type": "function",
      "constant": true
    },
    {
      "inputs": [],
      "name": "owner",
      "outputs": [
        {
          "internalType": "address",
          "name": "",
          "type": "address"
        }
      ],
      "stateMutability": "view",
      "type": "function",
      "constant": true
    },
    {
      "inputs": [
        {
          "internalType": "uint256",
          "name": "tokenId",
          "type": "uint256"
        }
      ],
      "name": "ownerOf",
      "outputs": [
        {
          "internalType": "address",
          "name": "",
          "type": "address"
        }
      ],
      "stateMutability": "view",
      "type": "function",
      "constant": true
    },
    {
      "inputs": [],
      "name": "publicMintingStatus",
      "outputs": [
        {
          "internalType": "bool",
          "name": "",
          "type": "bool"
        }
      ],
      "stateMutability": "view",
      "type": "function",
      "constant": true
    },
    {
      "inputs": [],
      "name": "renounceOwnership",
      "outputs": [],
      "stateMutability": "nonpayable",
      "type": "function"
    },
    {
      "inputs": [],
      "name": "revealed",
      "outputs": [
        {
          "internalType": "bool",
          "name": "",
          "type": "bool"
        }
      ],
      "stateMutability": "view",
      "type": "function",
      "constant": true
    },
    {
      "inputs": [
        {
          "internalType": "address",
          "name": "from",
          "type": "address"
        },
        {
          "internalType": "address",
          "name": "to",
          "type": "address"
        },
        {
          "internalType": "uint256",
          "name": "tokenId",
          "type": "uint256"
        }
      ],
      "name": "safeTransferFrom",
      "outputs": [],
      "stateMutability": "nonpayable",
      "type": "function"
    },
    {
      "inputs": [
        {
          "internalType": "address",
          "name": "from",
          "type": "address"
        },
        {
          "internalType": "address",
          "name": "to",
          "type": "address"
        },
        {
          "internalType": "uint256",
          "name": "tokenId",
          "type": "uint256"
        },
        {
          "internalType": "bytes",
          "name": "_data",
          "type": "bytes"
        }
      ],
      "name": "safeTransferFrom",
      "outputs": [],
      "stateMutability": "nonpayable",
      "type": "function"
    },
    {
      "inputs": [],
      "name": "saleIsActive",
      "outputs": [
        {
          "internalType": "bool",
          "name": "",
          "type": "bool"
        }
      ],
      "stateMutability": "view",
      "type": "function",
      "constant": true
    },
    {
      "inputs": [
        {
          "internalType": "address",
          "name": "operator",
          "type": "address"
        },
        {
          "internalType": "bool",
          "name": "approved",
          "type": "bool"
        }
      ],
      "name": "setApprovalForAll",
      "outputs": [],
      "stateMutability": "nonpayable",
      "type": "function"
    },
    {
      "inputs": [
        {
          "internalType": "bytes4",
          "name": "interfaceId",
          "type": "bytes4"
        }
      ],
      "name": "supportsInterface",
      "outputs": [
        {
          "internalType": "bool",
          "name": "",
          "type": "bool"
        }
      ],
      "stateMutability": "view",
      "type": "function",
      "constant": true
    },
    {
      "inputs": [],
      "name": "symbol",
      "outputs": [
        {
          "internalType": "string",
          "name": "",
          "type": "string"
        }
      ],
      "stateMutability": "view",
      "type": "function",
      "constant": true
    },
    {
      "inputs": [
        {
          "internalType": "uint256",
          "name": "index",
          "type": "uint256"
        }
      ],
      "name": "tokenByIndex",
      "outputs": [
        {
          "internalType": "uint256",
          "name": "",
          "type": "uint256"
        }
      ],
      "stateMutability": "view",
      "type": "function",
      "constant": true
    },
    {
      "inputs": [
        {
          "internalType": "address",
          "name": "owner",
          "type": "address"
        },
        {
          "internalType": "uint256",
          "name": "index",
          "type": "uint256"
        }
      ],
      "name": "tokenOfOwnerByIndex",
      "outputs": [
        {
          "internalType": "uint256",
          "name": "",
          "type": "uint256"
        }
      ],
      "stateMutability": "view",
      "type": "function",
      "constant": true
    },
    {
      "inputs": [],
      "name": "totalSupply",
      "outputs": [
        {
          "internalType": "uint256",
          "name": "",
          "type": "uint256"
        }
      ],
      "stateMutability": "view",
      "type": "function",
      "constant": true
    },
    {
      "inputs": [
        {
          "internalType": "address",
          "name": "from",
          "type": "address"
        },
        {
          "internalType": "address",
          "name": "to",
          "type": "address"
        },
        {
          "internalType": "uint256",
          "name": "tokenId",
          "type": "uint256"
        }
      ],
      "name": "transferFrom",
      "outputs": [],
      "stateMutability": "nonpayable",
      "type": "function"
    },
    {
      "inputs": [
        {
          "internalType": "address",
          "name": "newOwner",
          "type": "address"
        }
      ],
      "name": "transferOwnership",
      "outputs": [],
      "stateMutability": "nonpayable",
      "type": "function"
    },
    {
      "inputs": [
        {
          "internalType": "uint256",
          "name": "",
          "type": "uint256"
        }
      ],
      "name": "whitelistAddresses",
      "outputs": [
        {
          "internalType": "address",
          "name": "",
          "type": "address"
        }
      ],
      "stateMutability": "view",
      "type": "function",
      "constant": true
    },
    {
      "inputs": [],
      "name": "getBalance",
      "outputs": [
        {
          "internalType": "uint256",
          "name": "",
          "type": "uint256"
        }
      ],
      "stateMutability": "view",
      "type": "function",
      "constant": true
    },
    {
      "inputs": [],
      "name": "getWhitelistedAddresses",
      "outputs": [
        {
          "internalType": "address[]",
          "name": "",
          "type": "address[]"
        }
      ],
      "stateMutability": "view",
      "type": "function",
      "constant": true
    },
    {
      "inputs": [],
      "name": "flipPublicMintingStatus",
      "outputs": [],
      "stateMutability": "nonpayable",
      "type": "function"
    },
    {
      "inputs": [],
      "name": "flipSaleState",
      "outputs": [],
      "stateMutability": "nonpayable",
      "type": "function"
    },
    {
      "inputs": [
        {
          "internalType": "string",
          "name": "baseURI_",
          "type": "string"
        }
      ],
      "name": "setBaseURI",
      "outputs": [],
      "stateMutability": "nonpayable",
      "type": "function"
    },
    {
      "inputs": [
        {
          "internalType": "uint256",
          "name": "tokenId",
          "type": "uint256"
        }
      ],
      "name": "tokenURI",
      "outputs": [
        {
          "internalType": "string",
          "name": "",
          "type": "string"
        }
      ],
      "stateMutability": "view",
      "type": "function",
      "constant": true
    },
    {
      "inputs": [],
      "name": "withdraw",
      "outputs": [],
      "stateMutability": "payable",
      "type": "function",
      "payable": true
    },
    {
      "inputs": [
        {
          "internalType": "uint256",
          "name": "numberOfTokens",
          "type": "uint256"
        }
      ],
      "name": "mint",
      "outputs": [],
      "stateMutability": "payable",
      "type": "function",
      "payable": true
    },
    {
      "inputs": [
        {
          "internalType": "address",
          "name": "_user",
          "type": "address"
        }
      ],
      "name": "isWhitelisted",
      "outputs": [
        {
          "internalType": "bool",
          "name": "",
          "type": "bool"
        }
      ],
      "stateMutability": "view",
      "type": "function",
      "constant": true
    },
    {
      "inputs": [
        {
          "internalType": "address[]",
          "name": "_users",
          "type": "address[]"
        }
      ],
      "name": "whitelistUsers",
      "outputs": [],
      "stateMutability": "nonpayable",
      "type": "function"
    },
    {
      "inputs": [
        {
          "internalType": "uint256",
          "name": "_limit",
          "type": "uint256"
        }
      ],
      "name": "setNftPerAddressLimit",
      "outputs": [],
      "stateMutability": "nonpayable",
      "type": "function"
    },
    {
      "inputs": [
        {
          "internalType": "bool",
          "name": "_state",
          "type": "bool"
        }
      ],
      "name": "setOnlyWhitelisted",
      "outputs": [],
      "stateMutability": "nonpayable",
      "type": "function"
    }
  ],
  "bytecode": "0x6080604052612710600b556005600c55600d805463ff0000001962ffff001960ff199092166001179190911662010000171663010000001790553480156200004657600080fd5b50604080518082018252600c81526b54696e7920547572746c657360a01b602080830191825283518085019094526002845261151560f21b908401528151919291620000959160009162000124565b508051620000ab90600190602084019062000124565b505050620000c8620000c2620000ce60201b60201c565b620000d2565b62000207565b3390565b600a80546001600160a01b038381166001600160a01b0319831681179093556040519116919082907f8be0079c531659141344cd1fd0a4f28419497f9722a3daafe3b4186f6b6457e090600090a35050565b8280546200013290620001ca565b90600052602060002090601f016020900481019282620001565760008555620001a1565b82601f106200017157805160ff1916838001178555620001a1565b82800160010185558215620001a1579182015b82811115620001a157825182559160200191906001019062000184565b50620001af929150620001b3565b5090565b5b80821115620001af5760008155600101620001b4565b600281046001821680620001df57607f821691505b602082108114156200020157634e487b7160e01b600052602260045260246000fd5b50919050565b612b1380620002176000396000f3fe60806040526004361061023b5760003560e01c80635d1235d41161012e578063a0712d68116100ab578063d0eb26b01161006f578063d0eb26b01461060c578063e985e9c51461062c578063eb8d24441461064c578063edec5f2714610661578063f2fde38b146106815761023b565b8063a0712d6814610584578063a22cb46514610597578063b88d4fde146105b7578063ba7d2c76146105d7578063c87b56dd146105ec5761023b565b806370a08231116100f257806370a0823114610510578063715018a6146105305780638da5cb5b1461054557806395d89b411461055a5780639c70b5121461056f5761023b565b80635d1235d4146104845780636352211e146104a4578063676dd563146104c45780636c47a431146104d95780636d028027146104ee5761023b565b80632f745c59116101bc5780633ccfd60b116101805780633ccfd60b1461040757806342842e0e1461040f5780634f6ccce71461042f578063518302271461044f57806355f804b3146104645761023b565b80632f745c591461037d57806332cb6b0c1461039d57806334918dfd146103b25780633af32abf146103c75780633c952764146103e75761023b565b806308c8507e1161020357806308c8507e146102fc578063095ea7b31461031357806312065fe01461033357806318160ddd1461034857806323b872dd1461035d5761023b565b806301ffc9a714610240578063020b39cc1461027657806306fdde0314610298578063081812fc146102ba578063081c8c44146102e7575b600080fd5b34801561024c57600080fd5b5061026061025b36600461200c565b6106a1565b60405161026d919061224a565b60405180910390f35b34801561028257600080fd5b5061028b6106ce565b60405161026d9190612978565b3480156102a457600080fd5b506102ad6106d3565b60405161026d9190612255565b3480156102c657600080fd5b506102da6102d536600461208a565b610765565b60405161026d91906121ac565b3480156102f357600080fd5b506102ad6107b1565b34801561030857600080fd5b5061031161083f565b005b34801561031f57600080fd5b5061031161032e366004611f5a565b61089b565b34801561033f57600080fd5b5061028b610933565b34801561035457600080fd5b5061028b610937565b34801561036957600080fd5b50610311610378366004611e7d565b61093d565b34801561038957600080fd5b5061028b610398366004611f5a565b610975565b3480156103a957600080fd5b5061028b6109c7565b3480156103be57600080fd5b506103116109cd565b3480156103d357600080fd5b506102606103e2366004611e31565b610a20565b3480156103f357600080fd5b50610311610402366004611ff2565b610a99565b610311610af4565b34801561041b57600080fd5b5061031161042a366004611e7d565b610b9f565b34801561043b57600080fd5b5061028b61044a36600461208a565b610bba565b34801561045b57600080fd5b50610260610c15565b34801561047057600080fd5b5061031161047f366004612044565b610c25565b34801561049057600080fd5b506102da61049f36600461208a565b610c7b565b3480156104b057600080fd5b506102da6104bf36600461208a565b610ca5565b3480156104d057600080fd5b5061028b610cda565b3480156104e557600080fd5b50610260610ce5565b3480156104fa57600080fd5b50610503610cf3565b60405161026d91906121fd565b34801561051c57600080fd5b5061028b61052b366004611e31565b610d54565b34801561053c57600080fd5b50610311610d98565b34801561055157600080fd5b506102da610de3565b34801561056657600080fd5b506102ad610df2565b34801561057b57600080fd5b50610260610e01565b61031161059236600461208a565b610e10565b3480156105a357600080fd5b506103116105b2366004611f31565b611073565b3480156105c357600080fd5b506103116105d2366004611eb8565b611141565b3480156105e357600080fd5b5061028b611180565b3480156105f857600080fd5b506102ad61060736600461208a565b611186565b34801561061857600080fd5b5061031161062736600461208a565b6111df565b34801561063857600080fd5b50610260610647366004611e4b565b611223565b34801561065857600080fd5b50610260611251565b34801561066d57600080fd5b5061031161067c366004611f83565b61125a565b34801561068d57600080fd5b5061031161069c366004611e31565b6112b1565b60006001600160e01b0319821663780e9d6360e01b14806106c657506106c68261131f565b90505b919050565b601481565b6060600080546106e290612a1b565b80601f016020809104026020016040519081016040528092919081815260200182805461070e90612a1b565b801561075b5780601f106107305761010080835404028352916020019161075b565b820191906000526020600020905b81548152906001019060200180831161073e57829003601f168201915b5050505050905090565b60006107708261135f565b6107955760405162461bcd60e51b815260040161078c906126fe565b60405180910390fd5b506000908152600460205260409020546001600160a01b031690565b601080546107be90612a1b565b80601f01602080910402602001604051908101604052809291908181526020018280546107ea90612a1b565b80156108375780601f1061080c57610100808354040283529160200191610837565b820191906000526020600020905b81548152906001019060200180831161081a57829003601f168201915b505050505081565b61084761137c565b6001600160a01b0316610858610de3565b6001600160a01b03161461087e5760405162461bcd60e51b815260040161078c90612796565b600d805461ff001981166101009182900460ff1615909102179055565b60006108a682610ca5565b9050806001600160a01b0316836001600160a01b031614156108da5760405162461bcd60e51b815260040161078c90612863565b806001600160a01b03166108ec61137c565b6001600160a01b0316148061090857506109088161064761137c565b6109245760405162461bcd60e51b815260040161078c90612561565b61092e8383611380565b505050565b4790565b60085490565b61094e61094861137c565b826113ee565b61096a5760405162461bcd60e51b815260040161078c906128a4565b61092e838383611473565b600061098083610d54565b821061099e5760405162461bcd60e51b815260040161078c90612306565b506001600160a01b03919091166000908152600660209081526040808320938352929052205490565b600b5481565b6109d561137c565b6001600160a01b03166109e6610de3565b6001600160a01b031614610a0c5760405162461bcd60e51b815260040161078c90612796565b600d805460ff19811660ff90911615179055565b6000805b600e54811015610a9057826001600160a01b0316600e8281548110610a5957634e487b7160e01b600052603260045260246000fd5b6000918252602090912001546001600160a01b03161415610a7e5760019150506106c9565b80610a8881612a56565b915050610a24565b50600092915050565b610aa161137c565b6001600160a01b0316610ab2610de3565b6001600160a01b031614610ad85760405162461bcd60e51b815260040161078c90612796565b600d8054911515620100000262ff000019909216919091179055565b610afc61137c565b6001600160a01b0316610b0d610de3565b6001600160a01b031614610b335760405162461bcd60e51b815260040161078c90612796565b6000336001600160a01b031647604051610b4c906121a9565b60006040518083038185875af1925050503d8060008114610b89576040519150601f19603f3d011682016040523d82523d6000602084013e610b8e565b606091505b5050905080610b9c57600080fd5b50565b61092e83838360405180602001604052806000815250611141565b6000610bc4610937565b8210610be25760405162461bcd60e51b815260040161078c906128f5565b60088281548110610c0357634e487b7160e01b600052603260045260246000fd5b90600052602060002001549050919050565b600d546301000000900460ff1681565b610c2d61137c565b6001600160a01b0316610c3e610de3565b6001600160a01b031614610c645760405162461bcd60e51b815260040161078c90612796565b8051610c77906011906020840190611c90565b5050565b600e8181548110610c8b57600080fd5b6000918252602090912001546001600160a01b0316905081565b6000818152600260205260408120546001600160a01b0316806106c65760405162461bcd60e51b815260040161078c90612608565b668e1bc9bf04000081565b600d54610100900460ff1681565b6060600e80548060200260200160405190810160405280929190818152602001828054801561075b57602002820191906000526020600020905b81546001600160a01b03168152600190910190602001808311610d2d575050505050905090565b60006001600160a01b038216610d7c5760405162461bcd60e51b815260040161078c906125be565b506001600160a01b031660009081526003602052604090205490565b610da061137c565b6001600160a01b0316610db1610de3565b6001600160a01b031614610dd75760405162461bcd60e51b815260040161078c90612796565b610de160006115a0565b565b600a546001600160a01b031690565b6060600180546106e290612a1b565b600d5462010000900460ff1681565b600d5460ff16610e325760405162461bcd60e51b815260040161078c906124e7565b60008111610e525760405162461bcd60e51b815260040161078c906122b3565b600b54610e6782610e61610937565b906115f2565b1115610e855760405162461bcd60e51b815260040161078c90612268565b6014811115610ea65760405162461bcd60e51b815260040161078c9061251e565b610eae610de3565b6001600160a01b0316336001600160a01b0316146110215734610ed8668e1bc9bf04000083611605565b1115610ef65760405162461bcd60e51b815260040161078c90612651565b600d54610100900460ff1615610f635760005b81811015610f5d576000610f1b610937565b9050600b54610f28610937565b1015610f4a57610f383382611611565b610f4a81610f4583611186565b61162b565b5080610f5581612a56565b915050610f09565b50611021565b600d5462010000900460ff1615156001141561102157610f8233610a20565b610f9e5760405162461bcd60e51b815260040161078c90612941565b6000610fa933610d54565b9050600c548110610fcc5760405162461bcd60e51b815260040161078c906126bd565b60005b8281101561101e576000610fe1610937565b9050600b54610fee610937565b101561100b57610ffe3382611611565b61100b81610f4583611186565b508061101681612a56565b915050610fcf565b50505b60005b81811015610c77576000611036610937565b9050600b54611043610937565b1015611060576110533382611611565b61106081610f4583611186565b508061106b81612a56565b915050611024565b61107b61137c565b6001600160a01b0316826001600160a01b031614156110ac5760405162461bcd60e51b815260040161078c90612464565b80600560006110b961137c565b6001600160a01b03908116825260208083019390935260409182016000908120918716808252919093529120805460ff1916921515929092179091556110fd61137c565b6001600160a01b03167f17307eab39ab6107e8899845ad3d59bd9653f200f220920489ca2b5937696c3183604051611135919061224a565b60405180910390a35050565b61115261114c61137c565b836113ee565b61116e5760405162461bcd60e51b815260040161078c906128a4565b61117a8484848461166f565b50505050565b600c5481565b60606111918261135f565b6111ad5760405162461bcd60e51b815260040161078c90612814565b60116111b8836116a2565b6040516020016111c99291906120fb565b6040516020818303038152906040529050919050565b6111e761137c565b6001600160a01b03166111f8610de3565b6001600160a01b03161461121e5760405162461bcd60e51b815260040161078c90612796565b600c55565b6001600160a01b03918216600090815260056020908152604080832093909416825291909152205460ff1690565b600d5460ff1681565b61126261137c565b6001600160a01b0316611273610de3565b6001600160a01b0316146112995760405162461bcd60e51b815260040161078c90612796565b6112a5600e6000611d14565b61092e600e8383611d32565b6112b961137c565b6001600160a01b03166112ca610de3565b6001600160a01b0316146112f05760405162461bcd60e51b815260040161078c90612796565b6001600160a01b0381166113165760405162461bcd60e51b815260040161078c906123a3565b610b9c816115a0565b60006001600160e01b031982166380ac58cd60e01b148061135057506001600160e01b03198216635b5e139f60e01b145b806106c657506106c6826117bd565b6000908152600260205260409020546001600160a01b0316151590565b3390565b600081815260046020526040902080546001600160a01b0319166001600160a01b03841690811790915581906113b582610ca5565b6001600160a01b03167f8c5be1e5ebec7d5bd14f71427d1e84f3dd0314c0f7b2291e5b200ac8c7c3b92560405160405180910390a45050565b60006113f98261135f565b6114155760405162461bcd60e51b815260040161078c9061249b565b600061142083610ca5565b9050806001600160a01b0316846001600160a01b0316148061145b5750836001600160a01b031661145084610765565b6001600160a01b0316145b8061146b575061146b8185611223565b949350505050565b826001600160a01b031661148682610ca5565b6001600160a01b0316146114ac5760405162461bcd60e51b815260040161078c906127cb565b6001600160a01b0382166114d25760405162461bcd60e51b815260040161078c90612420565b6114dd8383836117d6565b6114e8600082611380565b6001600160a01b03831660009081526003602052604081208054600192906115119084906129d8565b90915550506001600160a01b038216600090815260036020526040812080546001929061153f90849061298d565b909155505060008181526002602052604080822080546001600160a01b0319166001600160a01b0386811691821790925591518493918716917fddf252ad1be2c89b69c2b068fc378daa952ba7f163c4a11628f55a4df523b3ef91a4505050565b600a80546001600160a01b038381166001600160a01b0319831681179093556040519116919082907f8be0079c531659141344cd1fd0a4f28419497f9722a3daafe3b4186f6b6457e090600090a35050565b60006115fe828461298d565b9392505050565b60006115fe82846129b9565b610c7782826040518060200160405280600081525061185f565b6116348261135f565b6116505760405162461bcd60e51b815260040161078c9061274a565b6000828152600f60209081526040909120825161092e92840190611c90565b61167a848484611473565b61168684848484611892565b61117a5760405162461bcd60e51b815260040161078c90612351565b6060816116c757506040805180820190915260018152600360fc1b60208201526106c9565b8160005b81156116f157806116db81612a56565b91506116ea9050600a836129a5565b91506116cb565b60008167ffffffffffffffff81111561171a57634e487b7160e01b600052604160045260246000fd5b6040519080825280601f01601f191660200182016040528015611744576020820181803683370190505b5090505b841561146b576117596001836129d8565b9150611766600a86612a71565b61177190603061298d565b60f81b81838151811061179457634e487b7160e01b600052603260045260246000fd5b60200101906001600160f81b031916908160001a9053506117b6600a866129a5565b9450611748565b6001600160e01b031981166301ffc9a760e01b14919050565b6117e183838361092e565b6001600160a01b0383166117fd576117f8816119ad565b611820565b816001600160a01b0316836001600160a01b0316146118205761182083826119f1565b6001600160a01b03821661183c5761183781611a8e565b61092e565b826001600160a01b0316826001600160a01b03161461092e5761092e8282611b67565b6118698383611bab565b6118766000848484611892565b61092e5760405162461bcd60e51b815260040161078c90612351565b60006118a6846001600160a01b0316611c8a565b156119a257836001600160a01b031663150b7a026118c261137c565b8786866040518563ffffffff1660e01b81526004016118e494939291906121c0565b602060405180830381600087803b1580156118fe57600080fd5b505af192505050801561192e575060408051601f3d908101601f1916820190925261192b91810190612028565b60015b611988573d80801561195c576040519150601f19603f3d011682016040523d82523d6000602084013e611961565b606091505b5080516119805760405162461bcd60e51b815260040161078c90612351565b805181602001fd5b6001600160e01b031916630a85bd0160e11b14905061146b565b506001949350505050565b600880546000838152600960205260408120829055600182018355919091527ff3f7a9fe364faab93b216da50a3214154f22a0a2b415b23a84c8169e8b636ee30155565b600060016119fe84610d54565b611a0891906129d8565b600083815260076020526040902054909150808214611a5b576001600160a01b03841660009081526006602090815260408083208584528252808320548484528184208190558352600790915290208190555b5060009182526007602090815260408084208490556001600160a01b039094168352600681528383209183525290812055565b600854600090611aa0906001906129d8565b60008381526009602052604081205460088054939450909284908110611ad657634e487b7160e01b600052603260045260246000fd5b906000526020600020015490508060088381548110611b0557634e487b7160e01b600052603260045260246000fd5b6000918252602080832090910192909255828152600990915260408082208490558582528120556008805480611b4b57634e487b7160e01b600052603160045260246000fd5b6001900381819060005260206000200160009055905550505050565b6000611b7283610d54565b6001600160a01b039093166000908152600660209081526040808320868452825280832085905593825260079052919091209190915550565b6001600160a01b038216611bd15760405162461bcd60e51b815260040161078c90612688565b611bda8161135f565b15611bf75760405162461bcd60e51b815260040161078c906123e9565b611c03600083836117d6565b6001600160a01b0382166000908152600360205260408120805460019290611c2c90849061298d565b909155505060008181526002602052604080822080546001600160a01b0319166001600160a01b03861690811790915590518392907fddf252ad1be2c89b69c2b068fc378daa952ba7f163c4a11628f55a4df523b3ef908290a45050565b3b151590565b828054611c9c90612a1b565b90600052602060002090601f016020900481019282611cbe5760008555611d04565b82601f10611cd757805160ff1916838001178555611d04565b82800160010185558215611d04579182015b82811115611d04578251825591602001919060010190611ce9565b50611d10929150611d85565b5090565b5080546000825590600052602060002090810190610b9c9190611d85565b828054828255906000526020600020908101928215611d04579160200282015b82811115611d045781546001600160a01b0319166001600160a01b03843516178255602090920191600190910190611d52565b5b80821115611d105760008155600101611d86565b600067ffffffffffffffff80841115611db557611db5612ab1565b604051601f8501601f191681016020018281118282101715611dd957611dd9612ab1565b604052848152915081838501861015611df157600080fd5b8484602083013760006020868301015250509392505050565b80356001600160a01b03811681146106c957600080fd5b803580151581146106c957600080fd5b600060208284031215611e42578081fd5b6115fe82611e0a565b60008060408385031215611e5d578081fd5b611e6683611e0a565b9150611e7460208401611e0a565b90509250929050565b600080600060608486031215611e91578081fd5b611e9a84611e0a565b9250611ea860208501611e0a565b9150604084013590509250925092565b60008060008060808587031215611ecd578081fd5b611ed685611e0a565b9350611ee460208601611e0a565b925060408501359150606085013567ffffffffffffffff811115611f06578182fd5b8501601f81018713611f16578182fd5b611f2587823560208401611d9a565b91505092959194509250565b60008060408385031215611f43578182fd5b611f4c83611e0a565b9150611e7460208401611e21565b60008060408385031215611f6c578182fd5b611f7583611e0a565b946020939093013593505050565b60008060208385031215611f95578182fd5b823567ffffffffffffffff80821115611fac578384fd5b818501915085601f830112611fbf578384fd5b813581811115611fcd578485fd5b8660208083028501011115611fe0578485fd5b60209290920196919550909350505050565b600060208284031215612003578081fd5b6115fe82611e21565b60006020828403121561201d578081fd5b81356115fe81612ac7565b600060208284031215612039578081fd5b81516115fe81612ac7565b600060208284031215612055578081fd5b813567ffffffffffffffff81111561206b578182fd5b8201601f8101841361207b578182fd5b61146b84823560208401611d9a565b60006020828403121561209b578081fd5b5035919050565b600081518084526120ba8160208601602086016129ef565b601f01601f19169290920160200192915050565b600081516120e08185602086016129ef565b9290920192915050565b64173539b7b760d91b815260050190565b825460009081906002810460018083168061211757607f831692505b602080841082141561213757634e487b7160e01b87526022600452602487fd5b81801561214b576001811461215c57612188565b60ff19861689528489019650612188565b6121658b612981565b885b868110156121805781548b820152908501908301612167565b505084890196505b5050505050506121a061219b82866120ce565b6120ea565b95945050505050565b90565b6001600160a01b0391909116815260200190565b6001600160a01b03858116825284166020820152604081018390526080606082018190526000906121f3908301846120a2565b9695505050505050565b6020808252825182820181905260009190848201906040850190845b8181101561223e5783516001600160a01b031683529284019291840191600101612219565b50909695505050505050565b901515815260200190565b6000602082526115fe60208301846120a2565b6020808252602b908201527f507572636861736520776f756c6420657863656564206d617820737570706c7960408201526a206f6620547572746c657360a81b606082015260800190565b60208082526033908201527f4e756d626572206f6620746f6b656e732063616e206e6f74206265206c6573736040820152720207468616e206f7220657175616c20746f203606c1b606082015260800190565b6020808252602b908201527f455243373231456e756d657261626c653a206f776e657220696e646578206f7560408201526a74206f6620626f756e647360a81b606082015260800190565b60208082526032908201527f4552433732313a207472616e7366657220746f206e6f6e20455243373231526560408201527131b2b4bb32b91034b6b83632b6b2b73a32b960711b606082015260800190565b60208082526026908201527f4f776e61626c653a206e6577206f776e657220697320746865207a65726f206160408201526564647265737360d01b606082015260800190565b6020808252601c908201527f4552433732313a20746f6b656e20616c7265616479206d696e74656400000000604082015260600190565b60208082526024908201527f4552433732313a207472616e7366657220746f20746865207a65726f206164646040820152637265737360e01b606082015260800190565b60208082526019908201527f4552433732313a20617070726f766520746f2063616c6c657200000000000000604082015260600190565b6020808252602c908201527f4552433732313a206f70657261746f7220717565727920666f72206e6f6e657860408201526b34b9ba32b73a103a37b5b2b760a11b606082015260800190565b6020808252601a908201527f54686520636f6e7472616374206973206e6f7420616374697665000000000000604082015260600190565b60208082526023908201527f43616e206f6e6c79206d696e7420757020746f2032302070657220707572636860408201526261736560e81b606082015260800190565b60208082526038908201527f4552433732313a20617070726f76652063616c6c6572206973206e6f74206f7760408201527f6e6572206e6f7220617070726f76656420666f7220616c6c0000000000000000606082015260800190565b6020808252602a908201527f4552433732313a2062616c616e636520717565727920666f7220746865207a65604082015269726f206164647265737360b01b606082015260800190565b60208082526029908201527f4552433732313a206f776e657220717565727920666f72206e6f6e657869737460408201526832b73a103a37b5b2b760b91b606082015260800190565b6020808252601d908201527f53656e742065746865722076616c756520697320696e636f7272656374000000604082015260600190565b6020808252818101527f4552433732313a206d696e7420746f20746865207a65726f2061646472657373604082015260600190565b60208082526021908201527f63616e6e6f74206d696e74206d6f7265207468616e2035207269676874206e6f6040820152607760f81b606082015260800190565b6020808252602c908201527f4552433732313a20617070726f76656420717565727920666f72206e6f6e657860408201526b34b9ba32b73a103a37b5b2b760a11b606082015260800190565b6020808252602c908201527f4552433732314d657461646174613a2055524920736574206f66206e6f6e657860408201526b34b9ba32b73a103a37b5b2b760a11b606082015260800190565b6020808252818101527f4f776e61626c653a2063616c6c6572206973206e6f7420746865206f776e6572604082015260600190565b60208082526029908201527f4552433732313a207472616e73666572206f6620746f6b656e2074686174206960408201526839903737ba1037bbb760b91b606082015260800190565b6020808252602f908201527f4552433732314d657461646174613a2055524920717565727920666f72206e6f60408201526e3732bc34b9ba32b73a103a37b5b2b760891b606082015260800190565b60208082526021908201527f4552433732313a20617070726f76616c20746f2063757272656e74206f776e656040820152603960f91b606082015260800190565b60208082526031908201527f4552433732313a207472616e736665722063616c6c6572206973206e6f74206f6040820152701ddb995c881b9bdc88185c1c1c9bdd9959607a1b606082015260800190565b6020808252602c908201527f455243373231456e756d657261626c653a20676c6f62616c20696e646578206f60408201526b7574206f6620626f756e647360a01b606082015260800190565b60208082526017908201527f75736572206973206e6f742077686974656c6973746564000000000000000000604082015260600190565b90815260200190565b60009081526020902090565b600082198211156129a0576129a0612a85565b500190565b6000826129b4576129b4612a9b565b500490565b60008160001904831182151516156129d3576129d3612a85565b500290565b6000828210156129ea576129ea612a85565b500390565b60005b83811015612a0a5781810151838201526020016129f2565b8381111561117a5750506000910152565b600281046001821680612a2f57607f821691505b60208210811415612a5057634e487b7160e01b600052602260045260246000fd5b50919050565b6000600019821415612a6a57612a6a612a85565b5060010190565b600082612a8057612a80612a9b565b500690565b634e487b7160e01b600052601160045260246000fd5b634e487b7160e01b600052601260045260246000fd5b634e487b7160e01b600052604160045260246000fd5b6001600160e01b031981168114610b9c57600080fdfea2646970667358221220646d216c58c1fefef90ef0732ea10682e0e921351e652d60b130646786b1083664736f6c63430008000033",
  "immutableReferences": {},
  "source": "// SPDX-License-Identifier: MIT\npragma solidity ^0.8.0;\n\nimport \"@openzeppelin/contracts/token/ERC721/ERC721.sol\";\nimport \"@openzeppelin/contracts/access/Ownable.sol\";\nimport \"@openzeppelin/contracts/utils/math/SafeMath.sol\";\nimport \"@openzeppelin/contracts/token/ERC721/extensions/ERC721Enumerable.sol\";\n\ncontract TinyTurtles is ERC721Enumerable, Ownable {\n    using Strings for uint256;\n    using SafeMath for uint256;\n\n    uint256 public constant NFT_PRICE = 40000000000000000;\n    uint256 public constant MAX_NFT_PURCHASE = 20;\n    uint256 public MAX_SUPPLY = 10000;\n    uint256 public nftPerAddressLimit = 5;\n\n    bool public saleIsActive = true;\n    bool public publicMintingStatus = false;\n    bool public onlyWhitelisted = true;\n    bool public revealed = true;\n\n    address[] public whitelistAddresses;\n    mapping(uint256 => string) _tokenURIs;\n\n    string public notRevealedUri;\n    string private _baseURIExtended;\n\n    struct RenderToken {\n        uint256 id;\n        string uri;\n    }\n\n    constructor() ERC721(\"Tiny Turtles\", \"TT\") {}\n\n    function getBalance() public view returns (uint256) {\n        return address(this).balance;\n    }\n\n    function getWhitelistedAddresses() public view returns (address[] memory) {\n        return whitelistAddresses;\n    }\n\n    function getBaseURI() internal view virtual returns (string memory) {\n        return _baseURIExtended;\n    }\n\n    function flipPublicMintingStatus() public onlyOwner {\n        publicMintingStatus = !publicMintingStatus;\n    }\n\n    function flipSaleState() public onlyOwner {\n        saleIsActive = !saleIsActive;\n    }\n\n    function setBaseURI(string memory baseURI_) external onlyOwner {\n        _baseURIExtended = baseURI_;\n    }\n\n    function _setTokenURI(uint256 tokenId, string memory _tokenURI)\n        internal\n        virtual\n    {\n        require(\n            _exists(tokenId),\n            \"ERC721Metadata: URI set of nonexistent token\"\n        );\n        _tokenURIs[tokenId] = _tokenURI;\n    }\n\n    function tokenURI(uint256 tokenId)\n        public\n        view\n        virtual\n        override\n        returns (string memory)\n    {\n        require(\n            _exists(tokenId),\n            \"ERC721Metadata: URI query for nonexistent token\"\n        );\n\n        return\n            string(\n                abi.encodePacked(_baseURIExtended, tokenId.toString(), \".json\")\n            );\n    }\n\n    function withdraw() public payable onlyOwner {\n        (bool success, ) = payable(msg.sender).call{\n            value: address(this).balance\n        }(\"\");\n        require(success);\n    }\n\n    // seperate minting loop?\n    function mint(uint256 numberOfTokens) public payable {\n        require(saleIsActive, \"The contract is not active\");\n        require(\n            numberOfTokens > 0,\n            \"Number of tokens can not be less than or equal to 0\"\n        );\n        require(\n            totalSupply().add(numberOfTokens) <= MAX_SUPPLY,\n            \"Purchase would exceed max supply of Turtles\"\n        );\n        require(\n            numberOfTokens <= MAX_NFT_PURCHASE,\n            \"Can only mint up to 20 per purchase\"\n        );\n\n        if (msg.sender != owner()) {\n            require(\n                NFT_PRICE.mul(numberOfTokens) <= msg.value,\n                \"Sent ether value is incorrect\"\n            );\n            if (publicMintingStatus) {\n                for (uint256 i = 0; i < numberOfTokens; i++) {\n                    uint256 newId = totalSupply();\n                    if (totalSupply() < MAX_SUPPLY) {\n                        _safeMint(msg.sender, newId);\n                        _setTokenURI(newId, tokenURI(newId));\n                    }\n                }\n            } else if (onlyWhitelisted == true) {\n                require(isWhitelisted(msg.sender), \"user is not whitelisted\");\n                uint256 ownerTokenCount = balanceOf(msg.sender);\n                require(\n                    ownerTokenCount < nftPerAddressLimit,\n                    \"cannot mint more than 5 right now\"\n                );\n                for (uint256 i = 0; i < numberOfTokens; i++) {\n                    uint256 newId = totalSupply();\n                    if (totalSupply() < MAX_SUPPLY) {\n                        _safeMint(msg.sender, newId);\n                        _setTokenURI(newId, tokenURI(newId));\n                    }\n                }\n            }\n        }\n        for (uint256 i = 0; i < numberOfTokens; i++) {\n            uint256 newId = totalSupply();\n            if (totalSupply() < MAX_SUPPLY) {\n                _safeMint(msg.sender, newId);\n                _setTokenURI(newId, tokenURI(newId));\n            }\n        }\n    }\n\n    function isWhitelisted(address _user) public view returns (bool) {\n        for (uint256 i = 0; i < whitelistAddresses.length; i++) {\n            if (whitelistAddresses[i] == _user) {\n                return true;\n            }\n        }\n        return false;\n    }\n\n    function whitelistUsers(address[] calldata _users) public onlyOwner {\n        delete whitelistAddresses;\n        whitelistAddresses = _users;\n    }\n\n    function setNftPerAddressLimit(uint256 _limit) public onlyOwner {\n        nftPerAddressLimit = _limit;\n    }\n\n    function setOnlyWhitelisted(bool _state) public onlyOwner {\n        onlyWhitelisted = _state;\n    }\n}\n",
  "sourcePath": "/Users/ishreetbhullar/Documents/coding-folder/TinyTurtlesNFT/contracts/TinyTurtles.sol",
  "compiler": {
    "name": "solc",
    "version": "0.8.0+commit.c7dfd78e.Emscripten.clang"
  },
  "schemaVersion": "3.4.3",
  "updatedAt": "2021-10-17T10:13:14.992Z",
  "networkType": "ethereum",
  "devdoc": {
    "kind": "dev",
    "methods": {
      "approve(address,uint256)": {
        "details": "See {IERC721-approve}."
      },
      "balanceOf(address)": {
        "details": "See {IERC721-balanceOf}."
      },
      "getApproved(uint256)": {
        "details": "See {IERC721-getApproved}."
      },
      "isApprovedForAll(address,address)": {
        "details": "See {IERC721-isApprovedForAll}."
      },
      "name()": {
        "details": "See {IERC721Metadata-name}."
      },
      "owner()": {
        "details": "Returns the address of the current owner."
      },
      "ownerOf(uint256)": {
        "details": "See {IERC721-ownerOf}."
      },
      "renounceOwnership()": {
        "details": "Leaves the contract without owner. It will not be possible to call `onlyOwner` functions anymore. Can only be called by the current owner. NOTE: Renouncing ownership will leave the contract without an owner, thereby removing any functionality that is only available to the owner."
      },
      "safeTransferFrom(address,address,uint256)": {
        "details": "See {IERC721-safeTransferFrom}."
      },
      "safeTransferFrom(address,address,uint256,bytes)": {
        "details": "See {IERC721-safeTransferFrom}."
      },
      "setApprovalForAll(address,bool)": {
        "details": "See {IERC721-setApprovalForAll}."
      },
      "supportsInterface(bytes4)": {
        "details": "See {IERC165-supportsInterface}."
      },
      "symbol()": {
        "details": "See {IERC721Metadata-symbol}."
      },
      "tokenByIndex(uint256)": {
        "details": "See {IERC721Enumerable-tokenByIndex}."
      },
      "tokenOfOwnerByIndex(address,uint256)": {
        "details": "See {IERC721Enumerable-tokenOfOwnerByIndex}."
      },
      "tokenURI(uint256)": {
        "details": "See {IERC721Metadata-tokenURI}."
      },
      "totalSupply()": {
        "details": "See {IERC721Enumerable-totalSupply}."
      },
      "transferFrom(address,address,uint256)": {
        "details": "See {IERC721-transferFrom}."
      },
      "transferOwnership(address)": {
        "details": "Transfers ownership of the contract to a new account (`newOwner`). Can only be called by the current owner."
      }
    },
    "version": 1
  },
  "userdoc": {
    "kind": "user",
    "methods": {},
    "version": 1
  }
}