{
  "contractName": "TinyTurtles",
  "abi": [
    {
      "inputs": [],
      "stateMutability": "nonpayable",
      "type": "constructor"
    },
    {
      "anonymous": false,
      "inputs": [
        {
          "indexed": true,
          "internalType": "address",
          "name": "owner",
          "type": "address"
        },
        {
          "indexed": true,
          "internalType": "address",
          "name": "approved",
          "type": "address"
        },
        {
          "indexed": true,
          "internalType": "uint256",
          "name": "tokenId",
          "type": "uint256"
        }
      ],
      "name": "Approval",
      "type": "event"
    },
    {
      "anonymous": false,
      "inputs": [
        {
          "indexed": true,
          "internalType": "address",
          "name": "owner",
          "type": "address"
        },
        {
          "indexed": true,
          "internalType": "address",
          "name": "operator",
          "type": "address"
        },
        {
          "indexed": false,
          "internalType": "bool",
          "name": "approved",
          "type": "bool"
        }
      ],
      "name": "ApprovalForAll",
      "type": "event"
    },
    {
      "anonymous": false,
      "inputs": [
        {
          "indexed": true,
          "internalType": "address",
          "name": "previousOwner",
          "type": "address"
        },
        {
          "indexed": true,
          "internalType": "address",
          "name": "newOwner",
          "type": "address"
        }
      ],
      "name": "OwnershipTransferred",
      "type": "event"
    },
    {
      "anonymous": false,
      "inputs": [
        {
          "indexed": true,
          "internalType": "address",
          "name": "from",
          "type": "address"
        },
        {
          "indexed": true,
          "internalType": "address",
          "name": "to",
          "type": "address"
        },
        {
          "indexed": true,
          "internalType": "uint256",
          "name": "tokenId",
          "type": "uint256"
        }
      ],
      "name": "Transfer",
      "type": "event"
    },
    {
      "inputs": [],
      "name": "MAX_NFT_PURCHASE",
      "outputs": [
        {
          "internalType": "uint256",
          "name": "",
          "type": "uint256"
        }
      ],
      "stateMutability": "view",
      "type": "function",
      "constant": true
    },
    {
      "inputs": [],
      "name": "MAX_SUPPLY",
      "outputs": [
        {
          "internalType": "uint256",
          "name": "",
          "type": "uint256"
        }
      ],
      "stateMutability": "view",
      "type": "function",
      "constant": true
    },
    {
      "inputs": [],
      "name": "NFT_PRICE",
      "outputs": [
        {
          "internalType": "uint256",
          "name": "",
          "type": "uint256"
        }
      ],
      "stateMutability": "view",
      "type": "function",
      "constant": true
    },
    {
      "inputs": [
        {
          "internalType": "address",
          "name": "to",
          "type": "address"
        },
        {
          "internalType": "uint256",
          "name": "tokenId",
          "type": "uint256"
        }
      ],
      "name": "approve",
      "outputs": [],
      "stateMutability": "nonpayable",
      "type": "function"
    },
    {
      "inputs": [
        {
          "internalType": "address",
          "name": "owner",
          "type": "address"
        }
      ],
      "name": "balanceOf",
      "outputs": [
        {
          "internalType": "uint256",
          "name": "",
          "type": "uint256"
        }
      ],
      "stateMutability": "view",
      "type": "function",
      "constant": true
    },
    {
      "inputs": [
        {
          "internalType": "uint256",
          "name": "tokenId",
          "type": "uint256"
        }
      ],
      "name": "getApproved",
      "outputs": [
        {
          "internalType": "address",
          "name": "",
          "type": "address"
        }
      ],
      "stateMutability": "view",
      "type": "function",
      "constant": true
    },
    {
      "inputs": [
        {
          "internalType": "address",
          "name": "owner",
          "type": "address"
        },
        {
          "internalType": "address",
          "name": "operator",
          "type": "address"
        }
      ],
      "name": "isApprovedForAll",
      "outputs": [
        {
          "internalType": "bool",
          "name": "",
          "type": "bool"
        }
      ],
      "stateMutability": "view",
      "type": "function",
      "constant": true
    },
    {
      "inputs": [],
      "name": "name",
      "outputs": [
        {
          "internalType": "string",
          "name": "",
          "type": "string"
        }
      ],
      "stateMutability": "view",
      "type": "function",
      "constant": true
    },
    {
      "inputs": [],
      "name": "nftPerAddressLimit",
      "outputs": [
        {
          "internalType": "uint256",
          "name": "",
          "type": "uint256"
        }
      ],
      "stateMutability": "view",
      "type": "function",
      "constant": true
    },
    {
      "inputs": [],
      "name": "notRevealedUri",
      "outputs": [
        {
          "internalType": "string",
          "name": "",
          "type": "string"
        }
      ],
      "stateMutability": "view",
      "type": "function",
      "constant": true
    },
    {
      "inputs": [],
      "name": "onlyWhitelisted",
      "outputs": [
        {
          "internalType": "bool",
          "name": "",
          "type": "bool"
        }
      ],
      "stateMutability": "view",
      "type": "function",
      "constant": true
    },
    {
      "inputs": [],
      "name": "owner",
      "outputs": [
        {
          "internalType": "address",
          "name": "",
          "type": "address"
        }
      ],
      "stateMutability": "view",
      "type": "function",
      "constant": true
    },
    {
      "inputs": [
        {
          "internalType": "uint256",
          "name": "tokenId",
          "type": "uint256"
        }
      ],
      "name": "ownerOf",
      "outputs": [
        {
          "internalType": "address",
          "name": "",
          "type": "address"
        }
      ],
      "stateMutability": "view",
      "type": "function",
      "constant": true
    },
    {
      "inputs": [],
      "name": "paused",
      "outputs": [
        {
          "internalType": "bool",
          "name": "",
          "type": "bool"
        }
      ],
      "stateMutability": "view",
      "type": "function",
      "constant": true
    },
    {
      "inputs": [],
      "name": "renounceOwnership",
      "outputs": [],
      "stateMutability": "nonpayable",
      "type": "function"
    },
    {
      "inputs": [],
      "name": "revealed",
      "outputs": [
        {
          "internalType": "bool",
          "name": "",
          "type": "bool"
        }
      ],
      "stateMutability": "view",
      "type": "function",
      "constant": true
    },
    {
      "inputs": [
        {
          "internalType": "address",
          "name": "from",
          "type": "address"
        },
        {
          "internalType": "address",
          "name": "to",
          "type": "address"
        },
        {
          "internalType": "uint256",
          "name": "tokenId",
          "type": "uint256"
        }
      ],
      "name": "safeTransferFrom",
      "outputs": [],
      "stateMutability": "nonpayable",
      "type": "function"
    },
    {
      "inputs": [
        {
          "internalType": "address",
          "name": "from",
          "type": "address"
        },
        {
          "internalType": "address",
          "name": "to",
          "type": "address"
        },
        {
          "internalType": "uint256",
          "name": "tokenId",
          "type": "uint256"
        },
        {
          "internalType": "bytes",
          "name": "_data",
          "type": "bytes"
        }
      ],
      "name": "safeTransferFrom",
      "outputs": [],
      "stateMutability": "nonpayable",
      "type": "function"
    },
    {
      "inputs": [
        {
          "internalType": "address",
          "name": "operator",
          "type": "address"
        },
        {
          "internalType": "bool",
          "name": "approved",
          "type": "bool"
        }
      ],
      "name": "setApprovalForAll",
      "outputs": [],
      "stateMutability": "nonpayable",
      "type": "function"
    },
    {
      "inputs": [
        {
          "internalType": "bytes4",
          "name": "interfaceId",
          "type": "bytes4"
        }
      ],
      "name": "supportsInterface",
      "outputs": [
        {
          "internalType": "bool",
          "name": "",
          "type": "bool"
        }
      ],
      "stateMutability": "view",
      "type": "function",
      "constant": true
    },
    {
      "inputs": [],
      "name": "symbol",
      "outputs": [
        {
          "internalType": "string",
          "name": "",
          "type": "string"
        }
      ],
      "stateMutability": "view",
      "type": "function",
      "constant": true
    },
    {
      "inputs": [
        {
          "internalType": "uint256",
          "name": "index",
          "type": "uint256"
        }
      ],
      "name": "tokenByIndex",
      "outputs": [
        {
          "internalType": "uint256",
          "name": "",
          "type": "uint256"
        }
      ],
      "stateMutability": "view",
      "type": "function",
      "constant": true
    },
    {
      "inputs": [
        {
          "internalType": "address",
          "name": "owner",
          "type": "address"
        },
        {
          "internalType": "uint256",
          "name": "index",
          "type": "uint256"
        }
      ],
      "name": "tokenOfOwnerByIndex",
      "outputs": [
        {
          "internalType": "uint256",
          "name": "",
          "type": "uint256"
        }
      ],
      "stateMutability": "view",
      "type": "function",
      "constant": true
    },
    {
      "inputs": [],
      "name": "totalSupply",
      "outputs": [
        {
          "internalType": "uint256",
          "name": "",
          "type": "uint256"
        }
      ],
      "stateMutability": "view",
      "type": "function",
      "constant": true
    },
    {
      "inputs": [
        {
          "internalType": "address",
          "name": "from",
          "type": "address"
        },
        {
          "internalType": "address",
          "name": "to",
          "type": "address"
        },
        {
          "internalType": "uint256",
          "name": "tokenId",
          "type": "uint256"
        }
      ],
      "name": "transferFrom",
      "outputs": [],
      "stateMutability": "nonpayable",
      "type": "function"
    },
    {
      "inputs": [
        {
          "internalType": "address",
          "name": "newOwner",
          "type": "address"
        }
      ],
      "name": "transferOwnership",
      "outputs": [],
      "stateMutability": "nonpayable",
      "type": "function"
    },
    {
      "inputs": [
        {
          "internalType": "uint256",
          "name": "",
          "type": "uint256"
        }
      ],
      "name": "whitelistAddresses",
      "outputs": [
        {
          "internalType": "address",
          "name": "",
          "type": "address"
        }
      ],
      "stateMutability": "view",
      "type": "function",
      "constant": true
    },
    {
      "inputs": [],
      "name": "getOwner",
      "outputs": [
        {
          "internalType": "address",
          "name": "",
          "type": "address"
        }
      ],
      "stateMutability": "view",
      "type": "function",
      "constant": true
    },
    {
      "inputs": [],
      "name": "getBalance",
      "outputs": [
        {
          "internalType": "uint256",
          "name": "",
          "type": "uint256"
        }
      ],
      "stateMutability": "view",
      "type": "function",
      "constant": true
    },
    {
      "inputs": [],
      "name": "getwhitelistAddresses",
      "outputs": [
        {
          "internalType": "address[]",
          "name": "",
          "type": "address[]"
        }
      ],
      "stateMutability": "view",
      "type": "function",
      "constant": true
    },
    {
      "inputs": [],
      "name": "getTotalSupply",
      "outputs": [
        {
          "internalType": "uint256",
          "name": "",
          "type": "uint256"
        }
      ],
      "stateMutability": "view",
      "type": "function",
      "constant": true
    },
    {
      "inputs": [
        {
          "internalType": "bool",
          "name": "_state",
          "type": "bool"
        }
      ],
      "name": "pause",
      "outputs": [],
      "stateMutability": "nonpayable",
      "type": "function"
    },
    {
      "inputs": [
        {
          "internalType": "string",
          "name": "baseURI_",
          "type": "string"
        }
      ],
      "name": "setBaseURI",
      "outputs": [],
      "stateMutability": "nonpayable",
      "type": "function"
    },
    {
      "inputs": [
        {
          "internalType": "uint256",
          "name": "tokenId",
          "type": "uint256"
        }
      ],
      "name": "tokenURI",
      "outputs": [
        {
          "internalType": "string",
          "name": "",
          "type": "string"
        }
      ],
      "stateMutability": "view",
      "type": "function",
      "constant": true
    },
    {
      "inputs": [],
      "name": "getAllTokens",
      "outputs": [
        {
          "components": [
            {
              "internalType": "uint256",
              "name": "id",
              "type": "uint256"
            },
            {
              "internalType": "string",
              "name": "uri",
              "type": "string"
            }
          ],
          "internalType": "struct TinyTurtles.RenderToken[]",
          "name": "",
          "type": "tuple[]"
        }
      ],
      "stateMutability": "view",
      "type": "function",
      "constant": true
    },
    {
      "inputs": [],
      "name": "withdraw",
      "outputs": [],
      "stateMutability": "payable",
      "type": "function",
      "payable": true
    },
    {
      "inputs": [],
      "name": "reserveTokens",
      "outputs": [],
      "stateMutability": "nonpayable",
      "type": "function"
    },
    {
      "inputs": [
        {
          "internalType": "uint256",
          "name": "numberOfTokens",
          "type": "uint256"
        }
      ],
      "name": "mint",
      "outputs": [],
      "stateMutability": "payable",
      "type": "function",
      "payable": true
    },
    {
      "inputs": [
        {
          "internalType": "address",
          "name": "_user",
          "type": "address"
        }
      ],
      "name": "isWhitelisted",
      "outputs": [
        {
          "internalType": "bool",
          "name": "",
          "type": "bool"
        }
      ],
      "stateMutability": "view",
      "type": "function",
      "constant": true
    },
    {
      "inputs": [
        {
          "internalType": "address[]",
          "name": "_users",
          "type": "address[]"
        }
      ],
      "name": "whitelistUsers",
      "outputs": [],
      "stateMutability": "nonpayable",
      "type": "function"
    },
    {
      "inputs": [
        {
          "internalType": "uint256",
          "name": "_limit",
          "type": "uint256"
        }
      ],
      "name": "setNftPerAddressLimit",
      "outputs": [],
      "stateMutability": "nonpayable",
      "type": "function"
    },
    {
      "inputs": [
        {
          "internalType": "bool",
          "name": "_state",
          "type": "bool"
        }
      ],
      "name": "setOnlyWhitelisted",
      "outputs": [],
      "stateMutability": "nonpayable",
      "type": "function"
    }
  ],
  "bytecode": "0x6080604052612710600b556003600c55600d805462ff00001961ffff199091166101001716620100001790553480156200003857600080fd5b50604080518082018252600c81526b54696e7920547572746c657360a01b602080830191825283518085019094526002845261151560f21b908401528151919291620000879160009162000116565b5080516200009d90600190602084019062000116565b505050620000ba620000b4620000c060201b60201c565b620000c4565b620001f9565b3390565b600a80546001600160a01b038381166001600160a01b0319831681179093556040519116919082907f8be0079c531659141344cd1fd0a4f28419497f9722a3daafe3b4186f6b6457e090600090a35050565b8280546200012490620001bc565b90600052602060002090601f01602090048101928262000148576000855562000193565b82601f106200016357805160ff191683800117855562000193565b8280016001018555821562000193579182015b828111156200019357825182559160200191906001019062000176565b50620001a1929150620001a5565b5090565b5b80821115620001a15760008155600101620001a6565b600281046001821680620001d157607f821691505b60208210811415620001f357634e487b7160e01b600052602260045260246000fd5b50919050565b612b9a80620002096000396000f3fe6080604052600436106102515760003560e01c80635c975abb11610139578063a0712d68116100b6578063c4e41b221161007a578063c4e41b2214610644578063c87b56dd14610659578063d0eb26b014610679578063e985e9c514610699578063edec5f27146106b9578063f2fde38b146106d957610251565b8063a0712d68146105ba578063a22cb465146105cd578063b71fd5a9146105ed578063b88d4fde1461060f578063ba7d2c761461062f57610251565b8063715018a6116100fd578063715018a614610551578063893d20e8146105665780638da5cb5b1461057b57806395d89b41146105905780639c70b512146105a557610251565b80635c975abb146104c75780635d1235d4146104dc5780636352211e146104fc578063676dd5631461051c57806370a082311461053157610251565b806327ac36c4116101d25780633c952764116101965780633c9527641461042a5780633ccfd60b1461044a57806342842e0e146104525780634f6ccce714610472578063518302271461049257806355f804b3146104a757610251565b806327ac36c41461039e5780632a5c792a146103b35780632f745c59146103d557806332cb6b0c146103f55780633af32abf1461040a57610251565b8063081c8c4411610219578063081c8c441461031f578063095ea7b31461033457806312065fe01461035457806318160ddd1461036957806323b872dd1461037e57610251565b806301ffc9a714610256578063020b39cc1461028c57806302329a29146102ae57806306fdde03146102d0578063081812fc146102f2575b600080fd5b34801561026257600080fd5b506102766102713660046120d7565b6106f9565b6040516102839190612325565b60405180910390f35b34801561029857600080fd5b506102a1610726565b6040516102839190612a0b565b3480156102ba57600080fd5b506102ce6102c93660046120bd565b61072b565b005b3480156102dc57600080fd5b506102e5610786565b6040516102839190612330565b3480156102fe57600080fd5b5061031261030d366004612155565b610818565b6040516102839190612216565b34801561032b57600080fd5b506102e561085b565b34801561034057600080fd5b506102ce61034f366004612025565b6108e9565b34801561036057600080fd5b506102a1610981565b34801561037557600080fd5b506102a1610985565b34801561038a57600080fd5b506102ce610399366004611f48565b61098b565b3480156103aa57600080fd5b506102ce6109c3565b3480156103bf57600080fd5b506103c8610a43565b60405161028391906122b4565b3480156103e157600080fd5b506102a16103f0366004612025565b610b47565b34801561040157600080fd5b506102a1610b99565b34801561041657600080fd5b50610276610425366004611efc565b610b9f565b34801561043657600080fd5b506102ce6104453660046120bd565b610c18565b6102ce610c71565b34801561045e57600080fd5b506102ce61046d366004611f48565b610d1c565b34801561047e57600080fd5b506102a161048d366004612155565b610d37565b34801561049e57600080fd5b50610276610d92565b3480156104b357600080fd5b506102ce6104c236600461210f565b610da1565b3480156104d357600080fd5b50610276610df3565b3480156104e857600080fd5b506103126104f7366004612155565b610dfc565b34801561050857600080fd5b50610312610517366004612155565b610e26565b34801561052857600080fd5b506102a1610e5b565b34801561053d57600080fd5b506102a161054c366004611efc565b610e66565b34801561055d57600080fd5b506102ce610eaa565b34801561057257600080fd5b50610312610ef5565b34801561058757600080fd5b50610312610f04565b34801561059c57600080fd5b506102e5610f13565b3480156105b157600080fd5b50610276610f22565b6102ce6105c8366004612155565b610f30565b3480156105d957600080fd5b506102ce6105e8366004611ffc565b6110c5565b3480156105f957600080fd5b50610602611193565b6040516102839190612267565b34801561061b57600080fd5b506102ce61062a366004611f83565b6111f4565b34801561063b57600080fd5b506102a1611233565b34801561065057600080fd5b506102a1611239565b34801561066557600080fd5b506102e5610674366004612155565b611243565b34801561068557600080fd5b506102ce610694366004612155565b611299565b3480156106a557600080fd5b506102766106b4366004611f16565b6112dd565b3480156106c557600080fd5b506102ce6106d436600461204e565b61130b565b3480156106e557600080fd5b506102ce6106f4366004611efc565b611362565b60006001600160e01b0319821663780e9d6360e01b148061071e575061071e826113d0565b90505b919050565b601481565b610733611410565b6001600160a01b0316610744610f04565b6001600160a01b0316146107735760405162461bcd60e51b815260040161076a906127f9565b60405180910390fd5b600d805460ff1916911515919091179055565b60606000805461079590612aa2565b80601f01602080910402602001604051908101604052809291908181526020018280546107c190612aa2565b801561080e5780601f106107e35761010080835404028352916020019161080e565b820191906000526020600020905b8154815290600101906020018083116107f157829003601f168201915b5050505050905090565b600061082382611414565b61083f5760405162461bcd60e51b815260040161076a90612761565b506000908152600460205260409020546001600160a01b031690565b6010805461086890612aa2565b80601f016020809104026020016040519081016040528092919081815260200182805461089490612aa2565b80156108e15780601f106108b6576101008083540402835291602001916108e1565b820191906000526020600020905b8154815290600101906020018083116108c457829003601f168201915b505050505081565b60006108f482610e26565b9050806001600160a01b0316836001600160a01b031614156109285760405162461bcd60e51b815260040161076a906128f6565b806001600160a01b031661093a611410565b6001600160a01b031614806109565750610956816106b4611410565b6109725760405162461bcd60e51b815260040161076a90612605565b61097c8383611431565b505050565b4790565b60085490565b61099c610996611410565b8261149f565b6109b85760405162461bcd60e51b815260040161076a90612937565b61097c838383611524565b6109cb611410565b6001600160a01b03166109dc610f04565b6001600160a01b031614610a025760405162461bcd60e51b815260040161076a906127f9565b6000610a0c610985565b905060005b6014811015610a3f57610a2d33610a288385612a14565b611651565b80610a3781612add565b915050610a11565b5050565b60606000610a4f610985565b90506000808267ffffffffffffffff811115610a7b57634e487b7160e01b600052604160045260246000fd5b604051908082528060200260200182016040528015610ab457816020015b610aa1611d41565b815260200190600190039081610a995790505b50905060005b83811015610b3f57610acb83611414565b15610b1f576000610adb84611243565b9050604051806040016040528085815260200182815250838581518110610b1257634e487b7160e01b600052603260045260246000fd5b6020026020010181905250505b82610b2981612add565b9350508080610b3790612add565b915050610aba565b509250505090565b6000610b5283610e66565b8210610b705760405162461bcd60e51b815260040161076a906123e1565b506001600160a01b03919091166000908152600660209081526040808320938352929052205490565b600b5481565b6000805b600e54811015610c0f57826001600160a01b0316600e8281548110610bd857634e487b7160e01b600052603260045260246000fd5b6000918252602090912001546001600160a01b03161415610bfd576001915050610721565b80610c0781612add565b915050610ba3565b50600092915050565b610c20611410565b6001600160a01b0316610c31610f04565b6001600160a01b031614610c575760405162461bcd60e51b815260040161076a906127f9565b600d80549115156101000261ff0019909216919091179055565b610c79611410565b6001600160a01b0316610c8a610f04565b6001600160a01b031614610cb05760405162461bcd60e51b815260040161076a906127f9565b6000336001600160a01b031647604051610cc990612213565b60006040518083038185875af1925050503d8060008114610d06576040519150601f19603f3d011682016040523d82523d6000602084013e610d0b565b606091505b5050905080610d1957600080fd5b50565b61097c838383604051806020016040528060008152506111f4565b6000610d41610985565b8210610d5f5760405162461bcd60e51b815260040161076a90612988565b60088281548110610d8057634e487b7160e01b600052603260045260246000fd5b90600052602060002001549050919050565b600d5462010000900460ff1681565b610da9611410565b6001600160a01b0316610dba610f04565b6001600160a01b031614610de05760405162461bcd60e51b815260040161076a906127f9565b8051610a3f906011906020840190611d5b565b600d5460ff1681565b600e8181548110610e0c57600080fd5b6000918252602090912001546001600160a01b0316905081565b6000818152600260205260408120546001600160a01b03168061071e5760405162461bcd60e51b815260040161076a906126ac565b66d529ae9e86000081565b60006001600160a01b038216610e8e5760405162461bcd60e51b815260040161076a90612662565b506001600160a01b031660009081526003602052604090205490565b610eb2611410565b6001600160a01b0316610ec3610f04565b6001600160a01b031614610ee95760405162461bcd60e51b815260040161076a906127f9565b610ef3600061166b565b565b6000610eff610f04565b905090565b600a546001600160a01b031690565b60606001805461079590612aa2565b600d54610100900460ff1681565b600d5460ff1615610f535760405162461bcd60e51b815260040161076a9061282e565b60008111610f735760405162461bcd60e51b815260040161076a9061238e565b600b54610f8882610f82610985565b906116bd565b1115610fa65760405162461bcd60e51b815260040161076a90612343565b6014811115610fc75760405162461bcd60e51b815260040161076a906125c2565b34610fd966d529ae9e860000836116d0565b14610ff65760405162461bcd60e51b815260040161076a906126f5565b610ffe610f04565b6001600160a01b0316336001600160a01b03161461106e57600d5460ff6101009091041615156001141561106e5761103533610b9f565b6110515760405162461bcd60e51b815260040161076a906129d4565b600061105c33610e66565b9050600c54811061106c57600080fd5b505b60005b81811015610a3f576000611083610985565b9050600b54611090610985565b10156110b2576110a03382611651565b6110b2816110ad83611243565b6116dc565b50806110bd81612add565b915050611071565b6110cd611410565b6001600160a01b0316826001600160a01b031614156110fe5760405162461bcd60e51b815260040161076a9061253f565b806005600061110b611410565b6001600160a01b03908116825260208083019390935260409182016000908120918716808252919093529120805460ff19169215159290921790915561114f611410565b6001600160a01b03167f17307eab39ab6107e8899845ad3d59bd9653f200f220920489ca2b5937696c31836040516111879190612325565b60405180910390a35050565b6060600e80548060200260200160405190810160405280929190818152602001828054801561080e57602002820191906000526020600020905b81546001600160a01b031681526001909101906020018083116111cd575050505050905090565b6112056111ff611410565b8361149f565b6112215760405162461bcd60e51b815260040161076a90612937565b61122d84848484611720565b50505050565b600c5481565b6000610eff610985565b606061124e82611414565b61126a5760405162461bcd60e51b815260040161076a906128a7565b61127382611753565b6040516020016112839190612199565b6040516020818303038152906040529050919050565b6112a1611410565b6001600160a01b03166112b2610f04565b6001600160a01b0316146112d85760405162461bcd60e51b815260040161076a906127f9565b600c55565b6001600160a01b03918216600090815260056020908152604080832093909416825291909152205460ff1690565b611313611410565b6001600160a01b0316611324610f04565b6001600160a01b03161461134a5760405162461bcd60e51b815260040161076a906127f9565b611356600e6000611ddf565b61097c600e8383611dfd565b61136a611410565b6001600160a01b031661137b610f04565b6001600160a01b0316146113a15760405162461bcd60e51b815260040161076a906127f9565b6001600160a01b0381166113c75760405162461bcd60e51b815260040161076a9061247e565b610d198161166b565b60006001600160e01b031982166380ac58cd60e01b148061140157506001600160e01b03198216635b5e139f60e01b145b8061071e575061071e8261186e565b3390565b6000908152600260205260409020546001600160a01b0316151590565b600081815260046020526040902080546001600160a01b0319166001600160a01b038416908117909155819061146682610e26565b6001600160a01b03167f8c5be1e5ebec7d5bd14f71427d1e84f3dd0314c0f7b2291e5b200ac8c7c3b92560405160405180910390a45050565b60006114aa82611414565b6114c65760405162461bcd60e51b815260040161076a90612576565b60006114d183610e26565b9050806001600160a01b0316846001600160a01b0316148061150c5750836001600160a01b031661150184610818565b6001600160a01b0316145b8061151c575061151c81856112dd565b949350505050565b826001600160a01b031661153782610e26565b6001600160a01b03161461155d5760405162461bcd60e51b815260040161076a9061285e565b6001600160a01b0382166115835760405162461bcd60e51b815260040161076a906124fb565b61158e838383611887565b611599600082611431565b6001600160a01b03831660009081526003602052604081208054600192906115c2908490612a5f565b90915550506001600160a01b03821660009081526003602052604081208054600192906115f0908490612a14565b909155505060008181526002602052604080822080546001600160a01b0319166001600160a01b0386811691821790925591518493918716917fddf252ad1be2c89b69c2b068fc378daa952ba7f163c4a11628f55a4df523b3ef91a4505050565b610a3f828260405180602001604052806000815250611910565b600a80546001600160a01b038381166001600160a01b0319831681179093556040519116919082907f8be0079c531659141344cd1fd0a4f28419497f9722a3daafe3b4186f6b6457e090600090a35050565b60006116c98284612a14565b9392505050565b60006116c98284612a40565b6116e582611414565b6117015760405162461bcd60e51b815260040161076a906127ad565b6000828152600f60209081526040909120825161097c92840190611d5b565b61172b848484611524565b61173784848484611943565b61122d5760405162461bcd60e51b815260040161076a9061242c565b60608161177857506040805180820190915260018152600360fc1b6020820152610721565b8160005b81156117a2578061178c81612add565b915061179b9050600a83612a2c565b915061177c565b60008167ffffffffffffffff8111156117cb57634e487b7160e01b600052604160045260246000fd5b6040519080825280601f01601f1916602001820160405280156117f5576020820181803683370190505b5090505b841561151c5761180a600183612a5f565b9150611817600a86612af8565b611822906030612a14565b60f81b81838151811061184557634e487b7160e01b600052603260045260246000fd5b60200101906001600160f81b031916908160001a905350611867600a86612a2c565b94506117f9565b6001600160e01b031981166301ffc9a760e01b14919050565b61189283838361097c565b6001600160a01b0383166118ae576118a981611a5e565b6118d1565b816001600160a01b0316836001600160a01b0316146118d1576118d18382611aa2565b6001600160a01b0382166118ed576118e881611b3f565b61097c565b826001600160a01b0316826001600160a01b03161461097c5761097c8282611c18565b61191a8383611c5c565b6119276000848484611943565b61097c5760405162461bcd60e51b815260040161076a9061242c565b6000611957846001600160a01b0316611d3b565b15611a5357836001600160a01b031663150b7a02611973611410565b8786866040518563ffffffff1660e01b8152600401611995949392919061222a565b602060405180830381600087803b1580156119af57600080fd5b505af19250505080156119df575060408051601f3d908101601f191682019092526119dc918101906120f3565b60015b611a39573d808015611a0d576040519150601f19603f3d011682016040523d82523d6000602084013e611a12565b606091505b508051611a315760405162461bcd60e51b815260040161076a9061242c565b805181602001fd5b6001600160e01b031916630a85bd0160e11b14905061151c565b506001949350505050565b600880546000838152600960205260408120829055600182018355919091527ff3f7a9fe364faab93b216da50a3214154f22a0a2b415b23a84c8169e8b636ee30155565b60006001611aaf84610e66565b611ab99190612a5f565b600083815260076020526040902054909150808214611b0c576001600160a01b03841660009081526006602090815260408083208584528252808320548484528184208190558352600790915290208190555b5060009182526007602090815260408084208490556001600160a01b039094168352600681528383209183525290812055565b600854600090611b5190600190612a5f565b60008381526009602052604081205460088054939450909284908110611b8757634e487b7160e01b600052603260045260246000fd5b906000526020600020015490508060088381548110611bb657634e487b7160e01b600052603260045260246000fd5b6000918252602080832090910192909255828152600990915260408082208490558582528120556008805480611bfc57634e487b7160e01b600052603160045260246000fd5b6001900381819060005260206000200160009055905550505050565b6000611c2383610e66565b6001600160a01b039093166000908152600660209081526040808320868452825280832085905593825260079052919091209190915550565b6001600160a01b038216611c825760405162461bcd60e51b815260040161076a9061272c565b611c8b81611414565b15611ca85760405162461bcd60e51b815260040161076a906124c4565b611cb460008383611887565b6001600160a01b0382166000908152600360205260408120805460019290611cdd908490612a14565b909155505060008181526002602052604080822080546001600160a01b0319166001600160a01b03861690811790915590518392907fddf252ad1be2c89b69c2b068fc378daa952ba7f163c4a11628f55a4df523b3ef908290a45050565b3b151590565b604051806040016040528060008152602001606081525090565b828054611d6790612aa2565b90600052602060002090601f016020900481019282611d895760008555611dcf565b82601f10611da257805160ff1916838001178555611dcf565b82800160010185558215611dcf579182015b82811115611dcf578251825591602001919060010190611db4565b50611ddb929150611e50565b5090565b5080546000825590600052602060002090810190610d199190611e50565b828054828255906000526020600020908101928215611dcf579160200282015b82811115611dcf5781546001600160a01b0319166001600160a01b03843516178255602090920191600190910190611e1d565b5b80821115611ddb5760008155600101611e51565b600067ffffffffffffffff80841115611e8057611e80612b38565b604051601f8501601f191681016020018281118282101715611ea457611ea4612b38565b604052848152915081838501861015611ebc57600080fd5b8484602083013760006020868301015250509392505050565b80356001600160a01b038116811461072157600080fd5b8035801515811461072157600080fd5b600060208284031215611f0d578081fd5b6116c982611ed5565b60008060408385031215611f28578081fd5b611f3183611ed5565b9150611f3f60208401611ed5565b90509250929050565b600080600060608486031215611f5c578081fd5b611f6584611ed5565b9250611f7360208501611ed5565b9150604084013590509250925092565b60008060008060808587031215611f98578081fd5b611fa185611ed5565b9350611faf60208601611ed5565b925060408501359150606085013567ffffffffffffffff811115611fd1578182fd5b8501601f81018713611fe1578182fd5b611ff087823560208401611e65565b91505092959194509250565b6000806040838503121561200e578182fd5b61201783611ed5565b9150611f3f60208401611eec565b60008060408385031215612037578182fd5b61204083611ed5565b946020939093013593505050565b60008060208385031215612060578182fd5b823567ffffffffffffffff80821115612077578384fd5b818501915085601f83011261208a578384fd5b813581811115612098578485fd5b86602080830285010111156120ab578485fd5b60209290920196919550909350505050565b6000602082840312156120ce578081fd5b6116c982611eec565b6000602082840312156120e8578081fd5b81356116c981612b4e565b600060208284031215612104578081fd5b81516116c981612b4e565b600060208284031215612120578081fd5b813567ffffffffffffffff811115612136578182fd5b8201601f81018413612146578182fd5b61151c84823560208401611e65565b600060208284031215612166578081fd5b5035919050565b60008151808452612185816020860160208601612a76565b601f01601f19169290920160200192915050565b60007f68747470733a2f2f74696e79747572746c65732e73332e75732d656173742d3282527f2e616d617a6f6e6177732e636f6d2f6d657461646174612f0000000000000000602083015282516121f7816038850160208701612a76565b64173539b7b760d91b6038939091019283015250603d01919050565b90565b6001600160a01b0391909116815260200190565b6001600160a01b038581168252841660208201526040810183905260806060820181905260009061225d9083018461216d565b9695505050505050565b6020808252825182820181905260009190848201906040850190845b818110156122a85783516001600160a01b031683529284019291840191600101612283565b50909695505050505050565b60208082528251828201819052600091906040908185019080840286018301878501865b8381101561231757888303603f190185528151805184528701518784018790526123048785018261216d565b95880195935050908601906001016122d8565b509098975050505050505050565b901515815260200190565b6000602082526116c9602083018461216d565b6020808252602b908201527f507572636861736520776f756c6420657863656564206d617820737570706c7960408201526a206f6620547572746c657360a81b606082015260800190565b60208082526033908201527f4e756d626572206f6620746f6b656e732063616e206e6f74206265206c6573736040820152720207468616e206f7220657175616c20746f203606c1b606082015260800190565b6020808252602b908201527f455243373231456e756d657261626c653a206f776e657220696e646578206f7560408201526a74206f6620626f756e647360a81b606082015260800190565b60208082526032908201527f4552433732313a207472616e7366657220746f206e6f6e20455243373231526560408201527131b2b4bb32b91034b6b83632b6b2b73a32b960711b606082015260800190565b60208082526026908201527f4f776e61626c653a206e6577206f776e657220697320746865207a65726f206160408201526564647265737360d01b606082015260800190565b6020808252601c908201527f4552433732313a20746f6b656e20616c7265616479206d696e74656400000000604082015260600190565b60208082526024908201527f4552433732313a207472616e7366657220746f20746865207a65726f206164646040820152637265737360e01b606082015260800190565b60208082526019908201527f4552433732313a20617070726f766520746f2063616c6c657200000000000000604082015260600190565b6020808252602c908201527f4552433732313a206f70657261746f7220717565727920666f72206e6f6e657860408201526b34b9ba32b73a103a37b5b2b760a11b606082015260800190565b60208082526023908201527f43616e206f6e6c79206d696e7420757020746f2032302070657220707572636860408201526261736560e81b606082015260800190565b60208082526038908201527f4552433732313a20617070726f76652063616c6c6572206973206e6f74206f7760408201527f6e6572206e6f7220617070726f76656420666f7220616c6c0000000000000000606082015260800190565b6020808252602a908201527f4552433732313a2062616c616e636520717565727920666f7220746865207a65604082015269726f206164647265737360b01b606082015260800190565b60208082526029908201527f4552433732313a206f776e657220717565727920666f72206e6f6e657869737460408201526832b73a103a37b5b2b760b91b606082015260800190565b6020808252601d908201527f53656e742065746865722076616c756520697320696e636f7272656374000000604082015260600190565b6020808252818101527f4552433732313a206d696e7420746f20746865207a65726f2061646472657373604082015260600190565b6020808252602c908201527f4552433732313a20617070726f76656420717565727920666f72206e6f6e657860408201526b34b9ba32b73a103a37b5b2b760a11b606082015260800190565b6020808252602c908201527f4552433732314d657461646174613a2055524920736574206f66206e6f6e657860408201526b34b9ba32b73a103a37b5b2b760a11b606082015260800190565b6020808252818101527f4f776e61626c653a2063616c6c6572206973206e6f7420746865206f776e6572604082015260600190565b6020808252601690820152751d1a194818dbdb9d1c9858dd081a5cc81c185d5cd95960521b604082015260600190565b60208082526029908201527f4552433732313a207472616e73666572206f6620746f6b656e2074686174206960408201526839903737ba1037bbb760b91b606082015260800190565b6020808252602f908201527f4552433732314d657461646174613a2055524920717565727920666f72206e6f60408201526e3732bc34b9ba32b73a103a37b5b2b760891b606082015260800190565b60208082526021908201527f4552433732313a20617070726f76616c20746f2063757272656e74206f776e656040820152603960f91b606082015260800190565b60208082526031908201527f4552433732313a207472616e736665722063616c6c6572206973206e6f74206f6040820152701ddb995c881b9bdc88185c1c1c9bdd9959607a1b606082015260800190565b6020808252602c908201527f455243373231456e756d657261626c653a20676c6f62616c20696e646578206f60408201526b7574206f6620626f756e647360a01b606082015260800190565b60208082526017908201527f75736572206973206e6f742077686974656c6973746564000000000000000000604082015260600190565b90815260200190565b60008219821115612a2757612a27612b0c565b500190565b600082612a3b57612a3b612b22565b500490565b6000816000190483118215151615612a5a57612a5a612b0c565b500290565b600082821015612a7157612a71612b0c565b500390565b60005b83811015612a91578181015183820152602001612a79565b8381111561122d5750506000910152565b600281046001821680612ab657607f821691505b60208210811415612ad757634e487b7160e01b600052602260045260246000fd5b50919050565b6000600019821415612af157612af1612b0c565b5060010190565b600082612b0757612b07612b22565b500690565b634e487b7160e01b600052601160045260246000fd5b634e487b7160e01b600052601260045260246000fd5b634e487b7160e01b600052604160045260246000fd5b6001600160e01b031981168114610d1957600080fdfea264697066735822122013f750541a391d25332d02186c59b8272d5ded8aa1052245ec37d66673ec842364736f6c63430008000033",
  "immutableReferences": {},
  "source": "// SPDX-License-Identifier: MIT\npragma solidity ^0.8.0;\n\nimport \"@openzeppelin/contracts/token/ERC721/ERC721.sol\";\nimport \"@openzeppelin/contracts/access/Ownable.sol\";\nimport \"@openzeppelin/contracts/utils/Counters.sol\";\nimport \"@openzeppelin/contracts/utils/math/SafeMath.sol\";\nimport \"@openzeppelin/contracts/token/ERC721/extensions/ERC721Enumerable.sol\";\n\ncontract TinyTurtles is ERC721Enumerable, Ownable {\n    using Counters for Counters.Counter;\n    using Strings for uint256;\n    using SafeMath for uint256;\n\n    uint256 public constant NFT_PRICE = 60000000000000000; // 0.06 ETH\n    uint256 public constant MAX_NFT_PURCHASE = 20;\n    uint256 public MAX_SUPPLY = 10000;\n    uint256 public nftPerAddressLimit = 3;\n\n    bool public paused = false;\n    bool public onlyWhitelisted = true;\n    bool public revealed = true;\n\n    address[] public whitelistAddresses;\n    mapping(uint256 => string) _tokenURIs;\n\n    string public notRevealedUri;\n    string private _baseURIExtended;\n\n    Counters.Counter _tokenIds;\n\n    struct RenderToken {\n        uint256 id;\n        string uri;\n    }\n    \n    constructor() ERC721(\"Tiny Turtles\", \"TT\") {}\n\n    function getOwner() public view virtual returns (address) {\n        return owner();\n    }\n\n    function getBalance() public view returns (uint256) {\n        return address(this).balance;\n    }\n\n    function getwhitelistAddresses() public view returns (address[] memory) {\n        return whitelistAddresses;\n    }\n\n    function getTotalSupply() public view returns (uint256) {\n        return totalSupply();\n    }\n\n    function getBaseURI() internal view virtual returns (string memory) {\n        return _baseURIExtended;\n    }\n\n    function pause(bool _state) public onlyOwner {\n        paused = _state;\n    }\n\n    function setBaseURI(string memory baseURI_) external onlyOwner {\n        _baseURIExtended = baseURI_;\n    }\n\n    function _setTokenURI(uint256 tokenId, string memory _tokenURI)\n        internal\n        virtual\n    {\n        require(\n            _exists(tokenId),\n            \"ERC721Metadata: URI set of nonexistent token\"\n        );\n        _tokenURIs[tokenId] = _tokenURI;\n    }\n\n    function tokenURI(uint256 tokenId)\n        public\n        view\n        virtual\n        override\n        returns (string memory)\n    {\n        require(\n            _exists(tokenId),\n            \"ERC721Metadata: URI query for nonexistent token\"\n        );\n\n        return\n            string(\n                abi.encodePacked(\n                    \"https://tinyturtles.s3.us-east-2.amazonaws.com/metadata/\",\n                    tokenId.toString(),\n                    \".json\"\n                )\n            );\n    }\n\n    function getAllTokens() public view returns (RenderToken[] memory) {\n        uint256 latestId = totalSupply();\n        uint256 counter = 0;\n        RenderToken[] memory res = new RenderToken[](latestId);\n        for (uint256 i = 0; i < latestId; i++) {\n            if (_exists(counter)) {\n                string memory uri = tokenURI(counter);\n                res[counter] = RenderToken(counter, uri);\n            }\n            counter++;\n        }\n        return res;\n    }\n\n    function withdraw() public payable onlyOwner {\n        (bool success, ) = payable(msg.sender).call{\n            value: address(this).balance\n        }(\"\");\n        require(success);\n    }\n\n    function reserveTokens() public onlyOwner {\n        uint256 supply = totalSupply();\n        uint256 i;\n        for (i = 0; i < MAX_NFT_PURCHASE; i++) {\n            _safeMint(msg.sender, supply + i);\n        }\n    }\n\n    function mint(uint256 numberOfTokens) public payable {\n        require(!paused, \"the contract is paused\");\n        require(\n            numberOfTokens > 0,\n            \"Number of tokens can not be less than or equal to 0\"\n        );\n        require(\n            totalSupply().add(numberOfTokens) <= MAX_SUPPLY,\n            \"Purchase would exceed max supply of Turtles\"\n        );\n        require(\n            numberOfTokens <= MAX_NFT_PURCHASE,\n            \"Can only mint up to 20 per purchase\"\n        );\n        require(\n            NFT_PRICE.mul(numberOfTokens) == msg.value,\n            \"Sent ether value is incorrect\"\n        );\n\n        if (msg.sender != owner()) {\n            if (onlyWhitelisted == true) {\n                require(isWhitelisted(msg.sender), \"user is not whitelisted\");\n                uint256 ownerTokenCount = balanceOf(msg.sender);\n                require(ownerTokenCount < nftPerAddressLimit);\n            }\n        }\n\n        for (uint256 i = 0; i < numberOfTokens; i++) {\n            uint256 newId = totalSupply();\n            if (totalSupply() < MAX_SUPPLY) {\n                _safeMint(msg.sender, newId);\n                _setTokenURI(newId, tokenURI(newId));\n            }\n        }\n    }\n\n    function isWhitelisted(address _user) public view returns (bool) {\n        for (uint256 i = 0; i < whitelistAddresses.length; i++) {\n            if (whitelistAddresses[i] == _user) {\n                return true;\n            }\n        }\n        return false;\n    }\n\n    function whitelistUsers(address[] calldata _users) public onlyOwner {\n        delete whitelistAddresses;\n        whitelistAddresses = _users;\n    }\n\n    function setNftPerAddressLimit(uint256 _limit) public onlyOwner {\n        nftPerAddressLimit = _limit;\n    }\n\n    function setOnlyWhitelisted(bool _state) public onlyOwner {\n        onlyWhitelisted = _state;\n    }\n}\n",
  "sourcePath": "/Users/ishreetbhullar/Documents/coding-folder/TinyTurtlesNFT/contracts/TinyTurtles.sol",
  "compiler": {
    "name": "solc",
    "version": "0.8.0+commit.c7dfd78e.Emscripten.clang"
  },
  "schemaVersion": "3.4.3",
  "updatedAt": "2021-10-03T05:34:26.391Z",
  "networkType": "ethereum",
  "devdoc": {
    "kind": "dev",
    "methods": {
      "approve(address,uint256)": {
        "details": "See {IERC721-approve}."
      },
      "balanceOf(address)": {
        "details": "See {IERC721-balanceOf}."
      },
      "getApproved(uint256)": {
        "details": "See {IERC721-getApproved}."
      },
      "isApprovedForAll(address,address)": {
        "details": "See {IERC721-isApprovedForAll}."
      },
      "name()": {
        "details": "See {IERC721Metadata-name}."
      },
      "owner()": {
        "details": "Returns the address of the current owner."
      },
      "ownerOf(uint256)": {
        "details": "See {IERC721-ownerOf}."
      },
      "renounceOwnership()": {
        "details": "Leaves the contract without owner. It will not be possible to call `onlyOwner` functions anymore. Can only be called by the current owner. NOTE: Renouncing ownership will leave the contract without an owner, thereby removing any functionality that is only available to the owner."
      },
      "safeTransferFrom(address,address,uint256)": {
        "details": "See {IERC721-safeTransferFrom}."
      },
      "safeTransferFrom(address,address,uint256,bytes)": {
        "details": "See {IERC721-safeTransferFrom}."
      },
      "setApprovalForAll(address,bool)": {
        "details": "See {IERC721-setApprovalForAll}."
      },
      "supportsInterface(bytes4)": {
        "details": "See {IERC165-supportsInterface}."
      },
      "symbol()": {
        "details": "See {IERC721Metadata-symbol}."
      },
      "tokenByIndex(uint256)": {
        "details": "See {IERC721Enumerable-tokenByIndex}."
      },
      "tokenOfOwnerByIndex(address,uint256)": {
        "details": "See {IERC721Enumerable-tokenOfOwnerByIndex}."
      },
      "tokenURI(uint256)": {
        "details": "See {IERC721Metadata-tokenURI}."
      },
      "totalSupply()": {
        "details": "See {IERC721Enumerable-totalSupply}."
      },
      "transferFrom(address,address,uint256)": {
        "details": "See {IERC721-transferFrom}."
      },
      "transferOwnership(address)": {
        "details": "Transfers ownership of the contract to a new account (`newOwner`). Can only be called by the current owner."
      }
    },
    "version": 1
  },
  "userdoc": {
    "kind": "user",
    "methods": {},
    "version": 1
  }
}