{
  "contractName": "TinyTurtles",
  "abi": [
    {
      "inputs": [],
      "stateMutability": "nonpayable",
      "type": "constructor"
    },
    {
      "anonymous": false,
      "inputs": [
        {
          "indexed": true,
          "internalType": "address",
          "name": "owner",
          "type": "address"
        },
        {
          "indexed": true,
          "internalType": "address",
          "name": "approved",
          "type": "address"
        },
        {
          "indexed": true,
          "internalType": "uint256",
          "name": "tokenId",
          "type": "uint256"
        }
      ],
      "name": "Approval",
      "type": "event"
    },
    {
      "anonymous": false,
      "inputs": [
        {
          "indexed": true,
          "internalType": "address",
          "name": "owner",
          "type": "address"
        },
        {
          "indexed": true,
          "internalType": "address",
          "name": "operator",
          "type": "address"
        },
        {
          "indexed": false,
          "internalType": "bool",
          "name": "approved",
          "type": "bool"
        }
      ],
      "name": "ApprovalForAll",
      "type": "event"
    },
    {
      "anonymous": false,
      "inputs": [
        {
          "indexed": true,
          "internalType": "address",
          "name": "previousOwner",
          "type": "address"
        },
        {
          "indexed": true,
          "internalType": "address",
          "name": "newOwner",
          "type": "address"
        }
      ],
      "name": "OwnershipTransferred",
      "type": "event"
    },
    {
      "anonymous": false,
      "inputs": [
        {
          "indexed": true,
          "internalType": "address",
          "name": "from",
          "type": "address"
        },
        {
          "indexed": true,
          "internalType": "address",
          "name": "to",
          "type": "address"
        },
        {
          "indexed": true,
          "internalType": "uint256",
          "name": "tokenId",
          "type": "uint256"
        }
      ],
      "name": "Transfer",
      "type": "event"
    },
    {
      "inputs": [],
      "name": "MAX_NFT_PURCHASE",
      "outputs": [
        {
          "internalType": "uint256",
          "name": "",
          "type": "uint256"
        }
      ],
      "stateMutability": "view",
      "type": "function",
      "constant": true
    },
    {
      "inputs": [],
      "name": "MAX_SUPPLY",
      "outputs": [
        {
          "internalType": "uint256",
          "name": "",
          "type": "uint256"
        }
      ],
      "stateMutability": "view",
      "type": "function",
      "constant": true
    },
    {
      "inputs": [],
      "name": "NFT_PRICE",
      "outputs": [
        {
          "internalType": "uint256",
          "name": "",
          "type": "uint256"
        }
      ],
      "stateMutability": "view",
      "type": "function",
      "constant": true
    },
    {
      "inputs": [
        {
          "internalType": "address",
          "name": "to",
          "type": "address"
        },
        {
          "internalType": "uint256",
          "name": "tokenId",
          "type": "uint256"
        }
      ],
      "name": "approve",
      "outputs": [],
      "stateMutability": "nonpayable",
      "type": "function"
    },
    {
      "inputs": [
        {
          "internalType": "address",
          "name": "owner",
          "type": "address"
        }
      ],
      "name": "balanceOf",
      "outputs": [
        {
          "internalType": "uint256",
          "name": "",
          "type": "uint256"
        }
      ],
      "stateMutability": "view",
      "type": "function",
      "constant": true
    },
    {
      "inputs": [],
      "name": "contractOwner",
      "outputs": [
        {
          "internalType": "address",
          "name": "",
          "type": "address"
        }
      ],
      "stateMutability": "view",
      "type": "function",
      "constant": true
    },
    {
      "inputs": [
        {
          "internalType": "uint256",
          "name": "tokenId",
          "type": "uint256"
        }
      ],
      "name": "getApproved",
      "outputs": [
        {
          "internalType": "address",
          "name": "",
          "type": "address"
        }
      ],
      "stateMutability": "view",
      "type": "function",
      "constant": true
    },
    {
      "inputs": [
        {
          "internalType": "address",
          "name": "owner",
          "type": "address"
        },
        {
          "internalType": "address",
          "name": "operator",
          "type": "address"
        }
      ],
      "name": "isApprovedForAll",
      "outputs": [
        {
          "internalType": "bool",
          "name": "",
          "type": "bool"
        }
      ],
      "stateMutability": "view",
      "type": "function",
      "constant": true
    },
    {
      "inputs": [],
      "name": "name",
      "outputs": [
        {
          "internalType": "string",
          "name": "",
          "type": "string"
        }
      ],
      "stateMutability": "view",
      "type": "function",
      "constant": true
    },
    {
      "inputs": [],
      "name": "nftPerAddressLimit",
      "outputs": [
        {
          "internalType": "uint256",
          "name": "",
          "type": "uint256"
        }
      ],
      "stateMutability": "view",
      "type": "function",
      "constant": true
    },
    {
      "inputs": [],
      "name": "notRevealedUri",
      "outputs": [
        {
          "internalType": "string",
          "name": "",
          "type": "string"
        }
      ],
      "stateMutability": "view",
      "type": "function",
      "constant": true
    },
    {
      "inputs": [],
      "name": "onlyWhitelisted",
      "outputs": [
        {
          "internalType": "bool",
          "name": "",
          "type": "bool"
        }
      ],
      "stateMutability": "view",
      "type": "function",
      "constant": true
    },
    {
      "inputs": [],
      "name": "owner",
      "outputs": [
        {
          "internalType": "address",
          "name": "",
          "type": "address"
        }
      ],
      "stateMutability": "view",
      "type": "function",
      "constant": true
    },
    {
      "inputs": [
        {
          "internalType": "uint256",
          "name": "tokenId",
          "type": "uint256"
        }
      ],
      "name": "ownerOf",
      "outputs": [
        {
          "internalType": "address",
          "name": "",
          "type": "address"
        }
      ],
      "stateMutability": "view",
      "type": "function",
      "constant": true
    },
    {
      "inputs": [],
      "name": "publicMintingStatus",
      "outputs": [
        {
          "internalType": "bool",
          "name": "",
          "type": "bool"
        }
      ],
      "stateMutability": "view",
      "type": "function",
      "constant": true
    },
    {
      "inputs": [],
      "name": "renounceOwnership",
      "outputs": [],
      "stateMutability": "nonpayable",
      "type": "function"
    },
    {
      "inputs": [],
      "name": "revealed",
      "outputs": [
        {
          "internalType": "bool",
          "name": "",
          "type": "bool"
        }
      ],
      "stateMutability": "view",
      "type": "function",
      "constant": true
    },
    {
      "inputs": [
        {
          "internalType": "address",
          "name": "from",
          "type": "address"
        },
        {
          "internalType": "address",
          "name": "to",
          "type": "address"
        },
        {
          "internalType": "uint256",
          "name": "tokenId",
          "type": "uint256"
        }
      ],
      "name": "safeTransferFrom",
      "outputs": [],
      "stateMutability": "nonpayable",
      "type": "function"
    },
    {
      "inputs": [
        {
          "internalType": "address",
          "name": "from",
          "type": "address"
        },
        {
          "internalType": "address",
          "name": "to",
          "type": "address"
        },
        {
          "internalType": "uint256",
          "name": "tokenId",
          "type": "uint256"
        },
        {
          "internalType": "bytes",
          "name": "_data",
          "type": "bytes"
        }
      ],
      "name": "safeTransferFrom",
      "outputs": [],
      "stateMutability": "nonpayable",
      "type": "function"
    },
    {
      "inputs": [],
      "name": "saleIsActive",
      "outputs": [
        {
          "internalType": "bool",
          "name": "",
          "type": "bool"
        }
      ],
      "stateMutability": "view",
      "type": "function",
      "constant": true
    },
    {
      "inputs": [
        {
          "internalType": "address",
          "name": "operator",
          "type": "address"
        },
        {
          "internalType": "bool",
          "name": "approved",
          "type": "bool"
        }
      ],
      "name": "setApprovalForAll",
      "outputs": [],
      "stateMutability": "nonpayable",
      "type": "function"
    },
    {
      "inputs": [
        {
          "internalType": "bytes4",
          "name": "interfaceId",
          "type": "bytes4"
        }
      ],
      "name": "supportsInterface",
      "outputs": [
        {
          "internalType": "bool",
          "name": "",
          "type": "bool"
        }
      ],
      "stateMutability": "view",
      "type": "function",
      "constant": true
    },
    {
      "inputs": [],
      "name": "symbol",
      "outputs": [
        {
          "internalType": "string",
          "name": "",
          "type": "string"
        }
      ],
      "stateMutability": "view",
      "type": "function",
      "constant": true
    },
    {
      "inputs": [
        {
          "internalType": "uint256",
          "name": "index",
          "type": "uint256"
        }
      ],
      "name": "tokenByIndex",
      "outputs": [
        {
          "internalType": "uint256",
          "name": "",
          "type": "uint256"
        }
      ],
      "stateMutability": "view",
      "type": "function",
      "constant": true
    },
    {
      "inputs": [
        {
          "internalType": "address",
          "name": "owner",
          "type": "address"
        },
        {
          "internalType": "uint256",
          "name": "index",
          "type": "uint256"
        }
      ],
      "name": "tokenOfOwnerByIndex",
      "outputs": [
        {
          "internalType": "uint256",
          "name": "",
          "type": "uint256"
        }
      ],
      "stateMutability": "view",
      "type": "function",
      "constant": true
    },
    {
      "inputs": [],
      "name": "totalSupply",
      "outputs": [
        {
          "internalType": "uint256",
          "name": "",
          "type": "uint256"
        }
      ],
      "stateMutability": "view",
      "type": "function",
      "constant": true
    },
    {
      "inputs": [
        {
          "internalType": "address",
          "name": "from",
          "type": "address"
        },
        {
          "internalType": "address",
          "name": "to",
          "type": "address"
        },
        {
          "internalType": "uint256",
          "name": "tokenId",
          "type": "uint256"
        }
      ],
      "name": "transferFrom",
      "outputs": [],
      "stateMutability": "nonpayable",
      "type": "function"
    },
    {
      "inputs": [
        {
          "internalType": "address",
          "name": "newOwner",
          "type": "address"
        }
      ],
      "name": "transferOwnership",
      "outputs": [],
      "stateMutability": "nonpayable",
      "type": "function"
    },
    {
      "inputs": [
        {
          "internalType": "uint256",
          "name": "",
          "type": "uint256"
        }
      ],
      "name": "whitelistAddresses",
      "outputs": [
        {
          "internalType": "address",
          "name": "",
          "type": "address"
        }
      ],
      "stateMutability": "view",
      "type": "function",
      "constant": true
    },
    {
      "inputs": [],
      "name": "getBalance",
      "outputs": [
        {
          "internalType": "uint256",
          "name": "",
          "type": "uint256"
        }
      ],
      "stateMutability": "view",
      "type": "function",
      "constant": true
    },
    {
      "inputs": [],
      "name": "flipPublicMintingStatus",
      "outputs": [],
      "stateMutability": "nonpayable",
      "type": "function"
    },
    {
      "inputs": [],
      "name": "flipSaleState",
      "outputs": [],
      "stateMutability": "nonpayable",
      "type": "function"
    },
    {
      "inputs": [
        {
          "internalType": "string",
          "name": "baseURI_",
          "type": "string"
        }
      ],
      "name": "setBaseURI",
      "outputs": [],
      "stateMutability": "nonpayable",
      "type": "function"
    },
    {
      "inputs": [
        {
          "internalType": "uint256",
          "name": "tokenId",
          "type": "uint256"
        }
      ],
      "name": "tokenURI",
      "outputs": [
        {
          "internalType": "string",
          "name": "",
          "type": "string"
        }
      ],
      "stateMutability": "view",
      "type": "function",
      "constant": true
    },
    {
      "inputs": [],
      "name": "withdraw",
      "outputs": [],
      "stateMutability": "payable",
      "type": "function",
      "payable": true
    },
    {
      "inputs": [
        {
          "internalType": "uint256",
          "name": "numberOfTokens",
          "type": "uint256"
        }
      ],
      "name": "mint",
      "outputs": [],
      "stateMutability": "payable",
      "type": "function",
      "payable": true
    },
    {
      "inputs": [
        {
          "internalType": "address",
          "name": "_user",
          "type": "address"
        }
      ],
      "name": "isWhitelisted",
      "outputs": [
        {
          "internalType": "bool",
          "name": "",
          "type": "bool"
        }
      ],
      "stateMutability": "view",
      "type": "function",
      "constant": true
    },
    {
      "inputs": [
        {
          "internalType": "address[]",
          "name": "_users",
          "type": "address[]"
        }
      ],
      "name": "whitelistUsers",
      "outputs": [],
      "stateMutability": "nonpayable",
      "type": "function"
    },
    {
      "inputs": [
        {
          "internalType": "uint256",
          "name": "_limit",
          "type": "uint256"
        }
      ],
      "name": "setNftPerAddressLimit",
      "outputs": [],
      "stateMutability": "nonpayable",
      "type": "function"
    },
    {
      "inputs": [
        {
          "internalType": "bool",
          "name": "_state",
          "type": "bool"
        }
      ],
      "name": "setOnlyWhitelisted",
      "outputs": [],
      "stateMutability": "nonpayable",
      "type": "function"
    }
  ],
  "bytecode": "0x6080604052612710600b556005600c55600d805463ff0000001962ffff001960ff1990921660011791909116620100001716630100000017905562000043620000f8565b600f80546001600160a01b0319166001600160a01b03929092169190911790553480156200007057600080fd5b50604080518082018252600c81526b54696e7920547572746c657360a01b602080830191825283518085019094526002845261151560f21b908401528151919291620000bf916000916200015d565b508051620000d59060019060208401906200015d565b505050620000f2620000ec6200010760201b60201c565b6200010b565b62000240565b600a546001600160a01b031690565b3390565b600a80546001600160a01b038381166001600160a01b0319831681179093556040519116919082907f8be0079c531659141344cd1fd0a4f28419497f9722a3daafe3b4186f6b6457e090600090a35050565b8280546200016b9062000203565b90600052602060002090601f0160209004810192826200018f5760008555620001da565b82601f10620001aa57805160ff1916838001178555620001da565b82800160010185558215620001da579182015b82811115620001da578251825591602001919060010190620001bd565b50620001e8929150620001ec565b5090565b5b80821115620001e85760008155600101620001ed565b6002810460018216806200021857607f821691505b602082108114156200023a57634e487b7160e01b600052602260045260246000fd5b50919050565b612a6780620002506000396000f3fe60806040526004361061023b5760003560e01c80635d1235d41161012e578063a22cb465116100ab578063d0eb26b01161006f578063d0eb26b0146105ff578063e985e9c51461061f578063eb8d24441461063f578063edec5f2714610654578063f2fde38b146106745761023b565b8063a22cb46514610575578063b88d4fde14610595578063ba7d2c76146105b5578063c87b56dd146105ca578063ce606ee0146105ea5761023b565b8063715018a6116100f2578063715018a61461050e5780638da5cb5b1461052357806395d89b41146105385780639c70b5121461054d578063a0712d68146105625761023b565b80635d1235d4146104845780636352211e146104a4578063676dd563146104c45780636c47a431146104d957806370a08231146104ee5761023b565b80632f745c59116101bc5780633ccfd60b116101805780633ccfd60b1461040757806342842e0e1461040f5780634f6ccce71461042f578063518302271461044f57806355f804b3146104645761023b565b80632f745c591461037d57806332cb6b0c1461039d57806334918dfd146103b25780633af32abf146103c75780633c952764146103e75761023b565b806308c8507e1161020357806308c8507e146102fc578063095ea7b31461031357806312065fe01461033357806318160ddd1461034857806323b872dd1461035d5761023b565b806301ffc9a714610240578063020b39cc1461027657806306fdde0314610298578063081812fc146102ba578063081c8c44146102e7575b600080fd5b34801561024c57600080fd5b5061026061025b366004611fad565b610694565b60405161026d919061219e565b60405180910390f35b34801561028257600080fd5b5061028b6106c1565b60405161026d91906128cc565b3480156102a457600080fd5b506102ad6106c6565b60405161026d91906121a9565b3480156102c657600080fd5b506102da6102d536600461202b565b610758565b60405161026d919061214d565b3480156102f357600080fd5b506102ad6107a4565b34801561030857600080fd5b50610311610832565b005b34801561031f57600080fd5b5061031161032e366004611efb565b61088e565b34801561033f57600080fd5b5061028b610926565b34801561035457600080fd5b5061028b61092a565b34801561036957600080fd5b50610311610378366004611e1e565b610930565b34801561038957600080fd5b5061028b610398366004611efb565b610968565b3480156103a957600080fd5b5061028b6109ba565b3480156103be57600080fd5b506103116109c0565b3480156103d357600080fd5b506102606103e2366004611dd2565b610a13565b3480156103f357600080fd5b50610311610402366004611f93565b610a8c565b610311610ae7565b34801561041b57600080fd5b5061031161042a366004611e1e565b610b92565b34801561043b57600080fd5b5061028b61044a36600461202b565b610bad565b34801561045b57600080fd5b50610260610c08565b34801561047057600080fd5b5061031161047f366004611fe5565b610c18565b34801561049057600080fd5b506102da61049f36600461202b565b610c6e565b3480156104b057600080fd5b506102da6104bf36600461202b565b610c98565b3480156104d057600080fd5b5061028b610ccd565b3480156104e557600080fd5b50610260610cd8565b3480156104fa57600080fd5b5061028b610509366004611dd2565b610ce6565b34801561051a57600080fd5b50610311610d2a565b34801561052f57600080fd5b506102da610d75565b34801561054457600080fd5b506102ad610d84565b34801561055957600080fd5b50610260610d93565b61031161057036600461202b565b610da2565b34801561058157600080fd5b50610311610590366004611ed2565b611005565b3480156105a157600080fd5b506103116105b0366004611e59565b6110d3565b3480156105c157600080fd5b5061028b611112565b3480156105d657600080fd5b506102ad6105e536600461202b565b611118565b3480156105f657600080fd5b506102da611171565b34801561060b57600080fd5b5061031161061a36600461202b565b611180565b34801561062b57600080fd5b5061026061063a366004611dec565b6111c4565b34801561064b57600080fd5b506102606111f2565b34801561066057600080fd5b5061031161066f366004611f24565b6111fb565b34801561068057600080fd5b5061031161068f366004611dd2565b611252565b60006001600160e01b0319821663780e9d6360e01b14806106b957506106b9826112c0565b90505b919050565b601481565b6060600080546106d59061296f565b80601f01602080910402602001604051908101604052809291908181526020018280546107019061296f565b801561074e5780601f106107235761010080835404028352916020019161074e565b820191906000526020600020905b81548152906001019060200180831161073157829003601f168201915b5050505050905090565b600061076382611300565b6107885760405162461bcd60e51b815260040161077f90612652565b60405180910390fd5b506000908152600460205260409020546001600160a01b031690565b601180546107b19061296f565b80601f01602080910402602001604051908101604052809291908181526020018280546107dd9061296f565b801561082a5780601f106107ff5761010080835404028352916020019161082a565b820191906000526020600020905b81548152906001019060200180831161080d57829003601f168201915b505050505081565b61083a61131d565b6001600160a01b031661084b610d75565b6001600160a01b0316146108715760405162461bcd60e51b815260040161077f906126ea565b600d805461ff001981166101009182900460ff1615909102179055565b600061089982610c98565b9050806001600160a01b0316836001600160a01b031614156108cd5760405162461bcd60e51b815260040161077f906127b7565b806001600160a01b03166108df61131d565b6001600160a01b031614806108fb57506108fb8161063a61131d565b6109175760405162461bcd60e51b815260040161077f906124b5565b6109218383611321565b505050565b4790565b60085490565b61094161093b61131d565b8261138f565b61095d5760405162461bcd60e51b815260040161077f906127f8565b610921838383611414565b600061097383610ce6565b82106109915760405162461bcd60e51b815260040161077f9061225a565b506001600160a01b03919091166000908152600660209081526040808320938352929052205490565b600b5481565b6109c861131d565b6001600160a01b03166109d9610d75565b6001600160a01b0316146109ff5760405162461bcd60e51b815260040161077f906126ea565b600d805460ff19811660ff90911615179055565b6000805b600e54811015610a8357826001600160a01b0316600e8281548110610a4c57634e487b7160e01b600052603260045260246000fd5b6000918252602090912001546001600160a01b03161415610a715760019150506106bc565b80610a7b816129aa565b915050610a17565b50600092915050565b610a9461131d565b6001600160a01b0316610aa5610d75565b6001600160a01b031614610acb5760405162461bcd60e51b815260040161077f906126ea565b600d8054911515620100000262ff000019909216919091179055565b610aef61131d565b6001600160a01b0316610b00610d75565b6001600160a01b031614610b265760405162461bcd60e51b815260040161077f906126ea565b6000336001600160a01b031647604051610b3f9061214a565b60006040518083038185875af1925050503d8060008114610b7c576040519150601f19603f3d011682016040523d82523d6000602084013e610b81565b606091505b5050905080610b8f57600080fd5b50565b610921838383604051806020016040528060008152506110d3565b6000610bb761092a565b8210610bd55760405162461bcd60e51b815260040161077f90612849565b60088281548110610bf657634e487b7160e01b600052603260045260246000fd5b90600052602060002001549050919050565b600d546301000000900460ff1681565b610c2061131d565b6001600160a01b0316610c31610d75565b6001600160a01b031614610c575760405162461bcd60e51b815260040161077f906126ea565b8051610c6a906012906020840190611c31565b5050565b600e8181548110610c7e57600080fd5b6000918252602090912001546001600160a01b0316905081565b6000818152600260205260408120546001600160a01b0316806106b95760405162461bcd60e51b815260040161077f9061255c565b668e1bc9bf04000081565b600d54610100900460ff1681565b60006001600160a01b038216610d0e5760405162461bcd60e51b815260040161077f90612512565b506001600160a01b031660009081526003602052604090205490565b610d3261131d565b6001600160a01b0316610d43610d75565b6001600160a01b031614610d695760405162461bcd60e51b815260040161077f906126ea565b610d736000611541565b565b600a546001600160a01b031690565b6060600180546106d59061296f565b600d5462010000900460ff1681565b600d5460ff16610dc45760405162461bcd60e51b815260040161077f9061243b565b60008111610de45760405162461bcd60e51b815260040161077f90612207565b600b54610df982610df361092a565b90611593565b1115610e175760405162461bcd60e51b815260040161077f906121bc565b6014811115610e385760405162461bcd60e51b815260040161077f90612472565b610e40610d75565b6001600160a01b0316336001600160a01b031614610fb35734610e6a668e1bc9bf040000836115a6565b1115610e885760405162461bcd60e51b815260040161077f906125a5565b600d54610100900460ff1615610ef55760005b81811015610eef576000610ead61092a565b9050600b54610eba61092a565b1015610edc57610eca33826115b2565b610edc81610ed783611118565b6115cc565b5080610ee7816129aa565b915050610e9b565b50610fb3565b600d5462010000900460ff16151560011415610fb357610f1433610a13565b610f305760405162461bcd60e51b815260040161077f90612895565b6000610f3b33610ce6565b9050600c548110610f5e5760405162461bcd60e51b815260040161077f90612611565b60005b82811015610fb0576000610f7361092a565b9050600b54610f8061092a565b1015610f9d57610f9033826115b2565b610f9d81610ed783611118565b5080610fa8816129aa565b915050610f61565b50505b60005b81811015610c6a576000610fc861092a565b9050600b54610fd561092a565b1015610ff257610fe533826115b2565b610ff281610ed783611118565b5080610ffd816129aa565b915050610fb6565b61100d61131d565b6001600160a01b0316826001600160a01b0316141561103e5760405162461bcd60e51b815260040161077f906123b8565b806005600061104b61131d565b6001600160a01b03908116825260208083019390935260409182016000908120918716808252919093529120805460ff19169215159290921790915561108f61131d565b6001600160a01b03167f17307eab39ab6107e8899845ad3d59bd9653f200f220920489ca2b5937696c31836040516110c7919061219e565b60405180910390a35050565b6110e46110de61131d565b8361138f565b6111005760405162461bcd60e51b815260040161077f906127f8565b61110c84848484611610565b50505050565b600c5481565b606061112382611300565b61113f5760405162461bcd60e51b815260040161077f90612768565b601261114a83611643565b60405160200161115b92919061209c565b6040516020818303038152906040529050919050565b600f546001600160a01b031681565b61118861131d565b6001600160a01b0316611199610d75565b6001600160a01b0316146111bf5760405162461bcd60e51b815260040161077f906126ea565b600c55565b6001600160a01b03918216600090815260056020908152604080832093909416825291909152205460ff1690565b600d5460ff1681565b61120361131d565b6001600160a01b0316611214610d75565b6001600160a01b03161461123a5760405162461bcd60e51b815260040161077f906126ea565b611246600e6000611cb5565b610921600e8383611cd3565b61125a61131d565b6001600160a01b031661126b610d75565b6001600160a01b0316146112915760405162461bcd60e51b815260040161077f906126ea565b6001600160a01b0381166112b75760405162461bcd60e51b815260040161077f906122f7565b610b8f81611541565b60006001600160e01b031982166380ac58cd60e01b14806112f157506001600160e01b03198216635b5e139f60e01b145b806106b957506106b98261175e565b6000908152600260205260409020546001600160a01b0316151590565b3390565b600081815260046020526040902080546001600160a01b0319166001600160a01b038416908117909155819061135682610c98565b6001600160a01b03167f8c5be1e5ebec7d5bd14f71427d1e84f3dd0314c0f7b2291e5b200ac8c7c3b92560405160405180910390a45050565b600061139a82611300565b6113b65760405162461bcd60e51b815260040161077f906123ef565b60006113c183610c98565b9050806001600160a01b0316846001600160a01b031614806113fc5750836001600160a01b03166113f184610758565b6001600160a01b0316145b8061140c575061140c81856111c4565b949350505050565b826001600160a01b031661142782610c98565b6001600160a01b03161461144d5760405162461bcd60e51b815260040161077f9061271f565b6001600160a01b0382166114735760405162461bcd60e51b815260040161077f90612374565b61147e838383611777565b611489600082611321565b6001600160a01b03831660009081526003602052604081208054600192906114b290849061292c565b90915550506001600160a01b03821660009081526003602052604081208054600192906114e09084906128e1565b909155505060008181526002602052604080822080546001600160a01b0319166001600160a01b0386811691821790925591518493918716917fddf252ad1be2c89b69c2b068fc378daa952ba7f163c4a11628f55a4df523b3ef91a4505050565b600a80546001600160a01b038381166001600160a01b0319831681179093556040519116919082907f8be0079c531659141344cd1fd0a4f28419497f9722a3daafe3b4186f6b6457e090600090a35050565b600061159f82846128e1565b9392505050565b600061159f828461290d565b610c6a828260405180602001604052806000815250611800565b6115d582611300565b6115f15760405162461bcd60e51b815260040161077f9061269e565b6000828152601060209081526040909120825161092192840190611c31565b61161b848484611414565b61162784848484611833565b61110c5760405162461bcd60e51b815260040161077f906122a5565b60608161166857506040805180820190915260018152600360fc1b60208201526106bc565b8160005b8115611692578061167c816129aa565b915061168b9050600a836128f9565b915061166c565b60008167ffffffffffffffff8111156116bb57634e487b7160e01b600052604160045260246000fd5b6040519080825280601f01601f1916602001820160405280156116e5576020820181803683370190505b5090505b841561140c576116fa60018361292c565b9150611707600a866129c5565b6117129060306128e1565b60f81b81838151811061173557634e487b7160e01b600052603260045260246000fd5b60200101906001600160f81b031916908160001a905350611757600a866128f9565b94506116e9565b6001600160e01b031981166301ffc9a760e01b14919050565b611782838383610921565b6001600160a01b03831661179e576117998161194e565b6117c1565b816001600160a01b0316836001600160a01b0316146117c1576117c18382611992565b6001600160a01b0382166117dd576117d881611a2f565b610921565b826001600160a01b0316826001600160a01b031614610921576109218282611b08565b61180a8383611b4c565b6118176000848484611833565b6109215760405162461bcd60e51b815260040161077f906122a5565b6000611847846001600160a01b0316611c2b565b1561194357836001600160a01b031663150b7a0261186361131d565b8786866040518563ffffffff1660e01b81526004016118859493929190612161565b602060405180830381600087803b15801561189f57600080fd5b505af19250505080156118cf575060408051601f3d908101601f191682019092526118cc91810190611fc9565b60015b611929573d8080156118fd576040519150601f19603f3d011682016040523d82523d6000602084013e611902565b606091505b5080516119215760405162461bcd60e51b815260040161077f906122a5565b805181602001fd5b6001600160e01b031916630a85bd0160e11b14905061140c565b506001949350505050565b600880546000838152600960205260408120829055600182018355919091527ff3f7a9fe364faab93b216da50a3214154f22a0a2b415b23a84c8169e8b636ee30155565b6000600161199f84610ce6565b6119a9919061292c565b6000838152600760205260409020549091508082146119fc576001600160a01b03841660009081526006602090815260408083208584528252808320548484528184208190558352600790915290208190555b5060009182526007602090815260408084208490556001600160a01b039094168352600681528383209183525290812055565b600854600090611a419060019061292c565b60008381526009602052604081205460088054939450909284908110611a7757634e487b7160e01b600052603260045260246000fd5b906000526020600020015490508060088381548110611aa657634e487b7160e01b600052603260045260246000fd5b6000918252602080832090910192909255828152600990915260408082208490558582528120556008805480611aec57634e487b7160e01b600052603160045260246000fd5b6001900381819060005260206000200160009055905550505050565b6000611b1383610ce6565b6001600160a01b039093166000908152600660209081526040808320868452825280832085905593825260079052919091209190915550565b6001600160a01b038216611b725760405162461bcd60e51b815260040161077f906125dc565b611b7b81611300565b15611b985760405162461bcd60e51b815260040161077f9061233d565b611ba460008383611777565b6001600160a01b0382166000908152600360205260408120805460019290611bcd9084906128e1565b909155505060008181526002602052604080822080546001600160a01b0319166001600160a01b03861690811790915590518392907fddf252ad1be2c89b69c2b068fc378daa952ba7f163c4a11628f55a4df523b3ef908290a45050565b3b151590565b828054611c3d9061296f565b90600052602060002090601f016020900481019282611c5f5760008555611ca5565b82601f10611c7857805160ff1916838001178555611ca5565b82800160010185558215611ca5579182015b82811115611ca5578251825591602001919060010190611c8a565b50611cb1929150611d26565b5090565b5080546000825590600052602060002090810190610b8f9190611d26565b828054828255906000526020600020908101928215611ca5579160200282015b82811115611ca55781546001600160a01b0319166001600160a01b03843516178255602090920191600190910190611cf3565b5b80821115611cb15760008155600101611d27565b600067ffffffffffffffff80841115611d5657611d56612a05565b604051601f8501601f191681016020018281118282101715611d7a57611d7a612a05565b604052848152915081838501861015611d9257600080fd5b8484602083013760006020868301015250509392505050565b80356001600160a01b03811681146106bc57600080fd5b803580151581146106bc57600080fd5b600060208284031215611de3578081fd5b61159f82611dab565b60008060408385031215611dfe578081fd5b611e0783611dab565b9150611e1560208401611dab565b90509250929050565b600080600060608486031215611e32578081fd5b611e3b84611dab565b9250611e4960208501611dab565b9150604084013590509250925092565b60008060008060808587031215611e6e578081fd5b611e7785611dab565b9350611e8560208601611dab565b925060408501359150606085013567ffffffffffffffff811115611ea7578182fd5b8501601f81018713611eb7578182fd5b611ec687823560208401611d3b565b91505092959194509250565b60008060408385031215611ee4578182fd5b611eed83611dab565b9150611e1560208401611dc2565b60008060408385031215611f0d578182fd5b611f1683611dab565b946020939093013593505050565b60008060208385031215611f36578182fd5b823567ffffffffffffffff80821115611f4d578384fd5b818501915085601f830112611f60578384fd5b813581811115611f6e578485fd5b8660208083028501011115611f81578485fd5b60209290920196919550909350505050565b600060208284031215611fa4578081fd5b61159f82611dc2565b600060208284031215611fbe578081fd5b813561159f81612a1b565b600060208284031215611fda578081fd5b815161159f81612a1b565b600060208284031215611ff6578081fd5b813567ffffffffffffffff81111561200c578182fd5b8201601f8101841361201c578182fd5b61140c84823560208401611d3b565b60006020828403121561203c578081fd5b5035919050565b6000815180845261205b816020860160208601612943565b601f01601f19169290920160200192915050565b60008151612081818560208601612943565b9290920192915050565b64173539b7b760d91b815260050190565b82546000908190600281046001808316806120b857607f831692505b60208084108214156120d857634e487b7160e01b87526022600452602487fd5b8180156120ec57600181146120fd57612129565b60ff19861689528489019650612129565b6121068b6128d5565b885b868110156121215781548b820152908501908301612108565b505084890196505b50505050505061214161213c828661206f565b61208b565b95945050505050565b90565b6001600160a01b0391909116815260200190565b6001600160a01b038581168252841660208201526040810183905260806060820181905260009061219490830184612043565b9695505050505050565b901515815260200190565b60006020825261159f6020830184612043565b6020808252602b908201527f507572636861736520776f756c6420657863656564206d617820737570706c7960408201526a206f6620547572746c657360a81b606082015260800190565b60208082526033908201527f4e756d626572206f6620746f6b656e732063616e206e6f74206265206c6573736040820152720207468616e206f7220657175616c20746f203606c1b606082015260800190565b6020808252602b908201527f455243373231456e756d657261626c653a206f776e657220696e646578206f7560408201526a74206f6620626f756e647360a81b606082015260800190565b60208082526032908201527f4552433732313a207472616e7366657220746f206e6f6e20455243373231526560408201527131b2b4bb32b91034b6b83632b6b2b73a32b960711b606082015260800190565b60208082526026908201527f4f776e61626c653a206e6577206f776e657220697320746865207a65726f206160408201526564647265737360d01b606082015260800190565b6020808252601c908201527f4552433732313a20746f6b656e20616c7265616479206d696e74656400000000604082015260600190565b60208082526024908201527f4552433732313a207472616e7366657220746f20746865207a65726f206164646040820152637265737360e01b606082015260800190565b60208082526019908201527f4552433732313a20617070726f766520746f2063616c6c657200000000000000604082015260600190565b6020808252602c908201527f4552433732313a206f70657261746f7220717565727920666f72206e6f6e657860408201526b34b9ba32b73a103a37b5b2b760a11b606082015260800190565b6020808252601a908201527f54686520636f6e7472616374206973206e6f7420616374697665000000000000604082015260600190565b60208082526023908201527f43616e206f6e6c79206d696e7420757020746f2032302070657220707572636860408201526261736560e81b606082015260800190565b60208082526038908201527f4552433732313a20617070726f76652063616c6c6572206973206e6f74206f7760408201527f6e6572206e6f7220617070726f76656420666f7220616c6c0000000000000000606082015260800190565b6020808252602a908201527f4552433732313a2062616c616e636520717565727920666f7220746865207a65604082015269726f206164647265737360b01b606082015260800190565b60208082526029908201527f4552433732313a206f776e657220717565727920666f72206e6f6e657869737460408201526832b73a103a37b5b2b760b91b606082015260800190565b6020808252601d908201527f53656e742065746865722076616c756520697320696e636f7272656374000000604082015260600190565b6020808252818101527f4552433732313a206d696e7420746f20746865207a65726f2061646472657373604082015260600190565b60208082526021908201527f63616e6e6f74206d696e74206d6f7265207468616e2035207269676874206e6f6040820152607760f81b606082015260800190565b6020808252602c908201527f4552433732313a20617070726f76656420717565727920666f72206e6f6e657860408201526b34b9ba32b73a103a37b5b2b760a11b606082015260800190565b6020808252602c908201527f4552433732314d657461646174613a2055524920736574206f66206e6f6e657860408201526b34b9ba32b73a103a37b5b2b760a11b606082015260800190565b6020808252818101527f4f776e61626c653a2063616c6c6572206973206e6f7420746865206f776e6572604082015260600190565b60208082526029908201527f4552433732313a207472616e73666572206f6620746f6b656e2074686174206960408201526839903737ba1037bbb760b91b606082015260800190565b6020808252602f908201527f4552433732314d657461646174613a2055524920717565727920666f72206e6f60408201526e3732bc34b9ba32b73a103a37b5b2b760891b606082015260800190565b60208082526021908201527f4552433732313a20617070726f76616c20746f2063757272656e74206f776e656040820152603960f91b606082015260800190565b60208082526031908201527f4552433732313a207472616e736665722063616c6c6572206973206e6f74206f6040820152701ddb995c881b9bdc88185c1c1c9bdd9959607a1b606082015260800190565b6020808252602c908201527f455243373231456e756d657261626c653a20676c6f62616c20696e646578206f60408201526b7574206f6620626f756e647360a01b606082015260800190565b60208082526017908201527f75736572206973206e6f742077686974656c6973746564000000000000000000604082015260600190565b90815260200190565b60009081526020902090565b600082198211156128f4576128f46129d9565b500190565b600082612908576129086129ef565b500490565b6000816000190483118215151615612927576129276129d9565b500290565b60008282101561293e5761293e6129d9565b500390565b60005b8381101561295e578181015183820152602001612946565b8381111561110c5750506000910152565b60028104600182168061298357607f821691505b602082108114156129a457634e487b7160e01b600052602260045260246000fd5b50919050565b60006000198214156129be576129be6129d9565b5060010190565b6000826129d4576129d46129ef565b500690565b634e487b7160e01b600052601160045260246000fd5b634e487b7160e01b600052601260045260246000fd5b634e487b7160e01b600052604160045260246000fd5b6001600160e01b031981168114610b8f57600080fdfea26469706673582212206537ff90fba2084f03f3f5b6b744e85f41b7a147e5e36c736ec208907ec0e96764736f6c63430008000033",
  "immutableReferences": {},
  "source": "// SPDX-License-Identifier: MIT\npragma solidity ^0.8.0;\n\nimport \"@openzeppelin/contracts/token/ERC721/ERC721.sol\";\nimport \"@openzeppelin/contracts/access/Ownable.sol\";\nimport \"@openzeppelin/contracts/utils/math/SafeMath.sol\";\nimport \"@openzeppelin/contracts/token/ERC721/extensions/ERC721Enumerable.sol\";\n\ncontract TinyTurtles is ERC721Enumerable, Ownable {\n    using Strings for uint256;\n    using SafeMath for uint256;\n\n    uint256 public constant NFT_PRICE = 40000000000000000;\n    uint256 public constant MAX_NFT_PURCHASE = 20;\n    uint256 public MAX_SUPPLY = 10000;\n    uint256 public nftPerAddressLimit = 5;\n\n    bool public saleIsActive = true;\n    bool public publicMintingStatus = false;\n    bool public onlyWhitelisted = true;\n    bool public revealed = true;\n\n    address[] public whitelistAddresses;\n    address public contractOwner = owner();\n    mapping(uint256 => string) _tokenURIs;\n\n    string public notRevealedUri;\n    string private _baseURIExtended;\n\n    struct RenderToken {\n        uint256 id;\n        string uri;\n    }\n\n    constructor() ERC721(\"Tiny Turtles\", \"TT\") {}\n\n    function getBalance() public view returns (uint256) {\n        return address(this).balance;\n    }\n\n    function getBaseURI() internal view virtual returns (string memory) {\n        return _baseURIExtended;\n    }\n\n    function flipPublicMintingStatus() public onlyOwner {\n        publicMintingStatus = !publicMintingStatus;\n    }\n\n    function flipSaleState() public onlyOwner {\n        saleIsActive = !saleIsActive;\n    }\n\n    function setBaseURI(string memory baseURI_) external onlyOwner {\n        _baseURIExtended = baseURI_;\n    }\n\n    function _setTokenURI(uint256 tokenId, string memory _tokenURI)\n        internal\n        virtual\n    {\n        require(\n            _exists(tokenId),\n            \"ERC721Metadata: URI set of nonexistent token\"\n        );\n        _tokenURIs[tokenId] = _tokenURI;\n    }\n\n    function tokenURI(uint256 tokenId)\n        public\n        view\n        virtual\n        override\n        returns (string memory)\n    {\n        require(\n            _exists(tokenId),\n            \"ERC721Metadata: URI query for nonexistent token\"\n        );\n\n        return\n            string(\n                abi.encodePacked(_baseURIExtended, tokenId.toString(), \".json\")\n            );\n    }\n\n    function withdraw() public payable onlyOwner {\n        (bool success, ) = payable(msg.sender).call{\n            value: address(this).balance\n        }(\"\");\n        require(success);\n    }\n\n    // seperate minting loop?\n    function mint(uint256 numberOfTokens) public payable {\n        require(saleIsActive, \"The contract is not active\");\n        require(\n            numberOfTokens > 0,\n            \"Number of tokens can not be less than or equal to 0\"\n        );\n        require(\n            totalSupply().add(numberOfTokens) <= MAX_SUPPLY,\n            \"Purchase would exceed max supply of Turtles\"\n        );\n        require(\n            numberOfTokens <= MAX_NFT_PURCHASE,\n            \"Can only mint up to 20 per purchase\"\n        );\n\n        if (msg.sender != owner()) {\n            require(\n                NFT_PRICE.mul(numberOfTokens) <= msg.value,\n                \"Sent ether value is incorrect\"\n            );\n            if (publicMintingStatus) {\n                for (uint256 i = 0; i < numberOfTokens; i++) {\n                    uint256 newId = totalSupply();\n                    if (totalSupply() < MAX_SUPPLY) {\n                        _safeMint(msg.sender, newId);\n                        _setTokenURI(newId, tokenURI(newId));\n                    }\n                }\n            } else if (onlyWhitelisted == true) {\n                require(isWhitelisted(msg.sender), \"user is not whitelisted\");\n                uint256 ownerTokenCount = balanceOf(msg.sender);\n                require(\n                    ownerTokenCount < nftPerAddressLimit,\n                    \"cannot mint more than 5 right now\"\n                );\n                for (uint256 i = 0; i < numberOfTokens; i++) {\n                    uint256 newId = totalSupply();\n                    if (totalSupply() < MAX_SUPPLY) {\n                        _safeMint(msg.sender, newId);\n                        _setTokenURI(newId, tokenURI(newId));\n                    }\n                }\n            }\n        }\n        for (uint256 i = 0; i < numberOfTokens; i++) {\n            uint256 newId = totalSupply();\n            if (totalSupply() < MAX_SUPPLY) {\n                _safeMint(msg.sender, newId);\n                _setTokenURI(newId, tokenURI(newId));\n            }\n        }\n    }\n\n    function isWhitelisted(address _user) public view returns (bool) {\n        for (uint256 i = 0; i < whitelistAddresses.length; i++) {\n            if (whitelistAddresses[i] == _user) {\n                return true;\n            }\n        }\n        return false;\n    }\n\n    function whitelistUsers(address[] calldata _users) public onlyOwner {\n        delete whitelistAddresses;\n        whitelistAddresses = _users;\n    }\n\n    function setNftPerAddressLimit(uint256 _limit) public onlyOwner {\n        nftPerAddressLimit = _limit;\n    }\n\n    function setOnlyWhitelisted(bool _state) public onlyOwner {\n        onlyWhitelisted = _state;\n    }\n}\n",
  "sourcePath": "/Users/ishreetbhullar/Documents/coding-folder/TinyTurtlesNFT/contracts/TinyTurtles.sol",
  "compiler": {
    "name": "solc",
    "version": "0.8.0+commit.c7dfd78e.Emscripten.clang"
  },
  "schemaVersion": "3.4.3",
  "updatedAt": "2021-10-17T07:34:02.863Z",
  "networkType": "ethereum",
  "devdoc": {
    "kind": "dev",
    "methods": {
      "approve(address,uint256)": {
        "details": "See {IERC721-approve}."
      },
      "balanceOf(address)": {
        "details": "See {IERC721-balanceOf}."
      },
      "getApproved(uint256)": {
        "details": "See {IERC721-getApproved}."
      },
      "isApprovedForAll(address,address)": {
        "details": "See {IERC721-isApprovedForAll}."
      },
      "name()": {
        "details": "See {IERC721Metadata-name}."
      },
      "owner()": {
        "details": "Returns the address of the current owner."
      },
      "ownerOf(uint256)": {
        "details": "See {IERC721-ownerOf}."
      },
      "renounceOwnership()": {
        "details": "Leaves the contract without owner. It will not be possible to call `onlyOwner` functions anymore. Can only be called by the current owner. NOTE: Renouncing ownership will leave the contract without an owner, thereby removing any functionality that is only available to the owner."
      },
      "safeTransferFrom(address,address,uint256)": {
        "details": "See {IERC721-safeTransferFrom}."
      },
      "safeTransferFrom(address,address,uint256,bytes)": {
        "details": "See {IERC721-safeTransferFrom}."
      },
      "setApprovalForAll(address,bool)": {
        "details": "See {IERC721-setApprovalForAll}."
      },
      "supportsInterface(bytes4)": {
        "details": "See {IERC165-supportsInterface}."
      },
      "symbol()": {
        "details": "See {IERC721Metadata-symbol}."
      },
      "tokenByIndex(uint256)": {
        "details": "See {IERC721Enumerable-tokenByIndex}."
      },
      "tokenOfOwnerByIndex(address,uint256)": {
        "details": "See {IERC721Enumerable-tokenOfOwnerByIndex}."
      },
      "tokenURI(uint256)": {
        "details": "See {IERC721Metadata-tokenURI}."
      },
      "totalSupply()": {
        "details": "See {IERC721Enumerable-totalSupply}."
      },
      "transferFrom(address,address,uint256)": {
        "details": "See {IERC721-transferFrom}."
      },
      "transferOwnership(address)": {
        "details": "Transfers ownership of the contract to a new account (`newOwner`). Can only be called by the current owner."
      }
    },
    "version": 1
  },
  "userdoc": {
    "kind": "user",
    "methods": {},
    "version": 1
  }
}