{
  "contractName": "VoxelVille",
  "abi": [
    {
      "inputs": [],
      "stateMutability": "nonpayable",
      "type": "constructor"
    },
    {
      "anonymous": false,
      "inputs": [
        {
          "indexed": true,
          "internalType": "address",
          "name": "owner",
          "type": "address"
        },
        {
          "indexed": true,
          "internalType": "address",
          "name": "approved",
          "type": "address"
        },
        {
          "indexed": true,
          "internalType": "uint256",
          "name": "tokenId",
          "type": "uint256"
        }
      ],
      "name": "Approval",
      "type": "event"
    },
    {
      "anonymous": false,
      "inputs": [
        {
          "indexed": true,
          "internalType": "address",
          "name": "owner",
          "type": "address"
        },
        {
          "indexed": true,
          "internalType": "address",
          "name": "operator",
          "type": "address"
        },
        {
          "indexed": false,
          "internalType": "bool",
          "name": "approved",
          "type": "bool"
        }
      ],
      "name": "ApprovalForAll",
      "type": "event"
    },
    {
      "anonymous": false,
      "inputs": [
        {
          "indexed": false,
          "internalType": "string",
          "name": "baseURI",
          "type": "string"
        }
      ],
      "name": "BaseURI",
      "type": "event"
    },
    {
      "anonymous": false,
      "inputs": [
        {
          "indexed": false,
          "internalType": "bool",
          "name": "mintable",
          "type": "bool"
        }
      ],
      "name": "Mintable",
      "type": "event"
    },
    {
      "anonymous": false,
      "inputs": [
        {
          "indexed": true,
          "internalType": "address",
          "name": "previousOwner",
          "type": "address"
        },
        {
          "indexed": true,
          "internalType": "address",
          "name": "newOwner",
          "type": "address"
        }
      ],
      "name": "OwnershipTransferred",
      "type": "event"
    },
    {
      "anonymous": false,
      "inputs": [
        {
          "indexed": false,
          "internalType": "bool",
          "name": "revealed",
          "type": "bool"
        }
      ],
      "name": "Revealed",
      "type": "event"
    },
    {
      "anonymous": false,
      "inputs": [
        {
          "indexed": false,
          "internalType": "string",
          "name": "revealedURI",
          "type": "string"
        }
      ],
      "name": "RevealedURI",
      "type": "event"
    },
    {
      "anonymous": false,
      "inputs": [
        {
          "indexed": true,
          "internalType": "address",
          "name": "from",
          "type": "address"
        },
        {
          "indexed": true,
          "internalType": "address",
          "name": "to",
          "type": "address"
        },
        {
          "indexed": true,
          "internalType": "uint256",
          "name": "tokenId",
          "type": "uint256"
        }
      ],
      "name": "Transfer",
      "type": "event"
    },
    {
      "inputs": [],
      "name": "MAX_MINT_PER_TX",
      "outputs": [
        {
          "internalType": "uint256",
          "name": "",
          "type": "uint256"
        }
      ],
      "stateMutability": "view",
      "type": "function"
    },
    {
      "inputs": [],
      "name": "MAX_SUPPLY",
      "outputs": [
        {
          "internalType": "uint256",
          "name": "",
          "type": "uint256"
        }
      ],
      "stateMutability": "view",
      "type": "function"
    },
    {
      "inputs": [],
      "name": "PRICE",
      "outputs": [
        {
          "internalType": "uint256",
          "name": "",
          "type": "uint256"
        }
      ],
      "stateMutability": "view",
      "type": "function"
    },
    {
      "inputs": [
        {
          "internalType": "address",
          "name": "to",
          "type": "address"
        },
        {
          "internalType": "uint256",
          "name": "tokenId",
          "type": "uint256"
        }
      ],
      "name": "approve",
      "outputs": [],
      "stateMutability": "nonpayable",
      "type": "function"
    },
    {
      "inputs": [
        {
          "internalType": "address",
          "name": "owner",
          "type": "address"
        }
      ],
      "name": "balanceOf",
      "outputs": [
        {
          "internalType": "uint256",
          "name": "",
          "type": "uint256"
        }
      ],
      "stateMutability": "view",
      "type": "function"
    },
    {
      "inputs": [],
      "name": "baseURI",
      "outputs": [
        {
          "internalType": "string",
          "name": "",
          "type": "string"
        }
      ],
      "stateMutability": "view",
      "type": "function"
    },
    {
      "inputs": [
        {
          "internalType": "uint256",
          "name": "tokenId",
          "type": "uint256"
        }
      ],
      "name": "getApproved",
      "outputs": [
        {
          "internalType": "address",
          "name": "",
          "type": "address"
        }
      ],
      "stateMutability": "view",
      "type": "function"
    },
    {
      "inputs": [
        {
          "internalType": "address",
          "name": "owner",
          "type": "address"
        },
        {
          "internalType": "address",
          "name": "operator",
          "type": "address"
        }
      ],
      "name": "isApprovedForAll",
      "outputs": [
        {
          "internalType": "bool",
          "name": "",
          "type": "bool"
        }
      ],
      "stateMutability": "view",
      "type": "function"
    },
    {
      "inputs": [],
      "name": "mintable",
      "outputs": [
        {
          "internalType": "bool",
          "name": "",
          "type": "bool"
        }
      ],
      "stateMutability": "view",
      "type": "function"
    },
    {
      "inputs": [],
      "name": "name",
      "outputs": [
        {
          "internalType": "string",
          "name": "",
          "type": "string"
        }
      ],
      "stateMutability": "view",
      "type": "function"
    },
    {
      "inputs": [],
      "name": "nextOwnerToExplicitlySet",
      "outputs": [
        {
          "internalType": "uint256",
          "name": "",
          "type": "uint256"
        }
      ],
      "stateMutability": "view",
      "type": "function"
    },
    {
      "inputs": [],
      "name": "owner",
      "outputs": [
        {
          "internalType": "address",
          "name": "",
          "type": "address"
        }
      ],
      "stateMutability": "view",
      "type": "function"
    },
    {
      "inputs": [
        {
          "internalType": "uint256",
          "name": "tokenId",
          "type": "uint256"
        }
      ],
      "name": "ownerOf",
      "outputs": [
        {
          "internalType": "address",
          "name": "",
          "type": "address"
        }
      ],
      "stateMutability": "view",
      "type": "function"
    },
    {
      "inputs": [],
      "name": "renounceOwnership",
      "outputs": [],
      "stateMutability": "nonpayable",
      "type": "function"
    },
    {
      "inputs": [],
      "name": "revealed",
      "outputs": [
        {
          "internalType": "bool",
          "name": "",
          "type": "bool"
        }
      ],
      "stateMutability": "view",
      "type": "function"
    },
    {
      "inputs": [],
      "name": "revealedURI",
      "outputs": [
        {
          "internalType": "string",
          "name": "",
          "type": "string"
        }
      ],
      "stateMutability": "view",
      "type": "function"
    },
    {
      "inputs": [
        {
          "internalType": "address",
          "name": "from",
          "type": "address"
        },
        {
          "internalType": "address",
          "name": "to",
          "type": "address"
        },
        {
          "internalType": "uint256",
          "name": "tokenId",
          "type": "uint256"
        }
      ],
      "name": "safeTransferFrom",
      "outputs": [],
      "stateMutability": "nonpayable",
      "type": "function"
    },
    {
      "inputs": [
        {
          "internalType": "address",
          "name": "from",
          "type": "address"
        },
        {
          "internalType": "address",
          "name": "to",
          "type": "address"
        },
        {
          "internalType": "uint256",
          "name": "tokenId",
          "type": "uint256"
        },
        {
          "internalType": "bytes",
          "name": "_data",
          "type": "bytes"
        }
      ],
      "name": "safeTransferFrom",
      "outputs": [],
      "stateMutability": "nonpayable",
      "type": "function"
    },
    {
      "inputs": [
        {
          "internalType": "address",
          "name": "operator",
          "type": "address"
        },
        {
          "internalType": "bool",
          "name": "approved",
          "type": "bool"
        }
      ],
      "name": "setApprovalForAll",
      "outputs": [],
      "stateMutability": "nonpayable",
      "type": "function"
    },
    {
      "inputs": [
        {
          "internalType": "bytes4",
          "name": "interfaceId",
          "type": "bytes4"
        }
      ],
      "name": "supportsInterface",
      "outputs": [
        {
          "internalType": "bool",
          "name": "",
          "type": "bool"
        }
      ],
      "stateMutability": "view",
      "type": "function"
    },
    {
      "inputs": [],
      "name": "symbol",
      "outputs": [
        {
          "internalType": "string",
          "name": "",
          "type": "string"
        }
      ],
      "stateMutability": "view",
      "type": "function"
    },
    {
      "inputs": [
        {
          "internalType": "uint256",
          "name": "index",
          "type": "uint256"
        }
      ],
      "name": "tokenByIndex",
      "outputs": [
        {
          "internalType": "uint256",
          "name": "",
          "type": "uint256"
        }
      ],
      "stateMutability": "view",
      "type": "function"
    },
    {
      "inputs": [
        {
          "internalType": "address",
          "name": "owner",
          "type": "address"
        },
        {
          "internalType": "uint256",
          "name": "index",
          "type": "uint256"
        }
      ],
      "name": "tokenOfOwnerByIndex",
      "outputs": [
        {
          "internalType": "uint256",
          "name": "",
          "type": "uint256"
        }
      ],
      "stateMutability": "view",
      "type": "function"
    },
    {
      "inputs": [
        {
          "internalType": "uint256",
          "name": "tokenId",
          "type": "uint256"
        }
      ],
      "name": "tokenURI",
      "outputs": [
        {
          "internalType": "string",
          "name": "",
          "type": "string"
        }
      ],
      "stateMutability": "view",
      "type": "function"
    },
    {
      "inputs": [],
      "name": "totalSupply",
      "outputs": [
        {
          "internalType": "uint256",
          "name": "",
          "type": "uint256"
        }
      ],
      "stateMutability": "view",
      "type": "function"
    },
    {
      "inputs": [
        {
          "internalType": "address",
          "name": "from",
          "type": "address"
        },
        {
          "internalType": "address",
          "name": "to",
          "type": "address"
        },
        {
          "internalType": "uint256",
          "name": "tokenId",
          "type": "uint256"
        }
      ],
      "name": "transferFrom",
      "outputs": [],
      "stateMutability": "nonpayable",
      "type": "function"
    },
    {
      "inputs": [
        {
          "internalType": "address",
          "name": "newOwner",
          "type": "address"
        }
      ],
      "name": "transferOwnership",
      "outputs": [],
      "stateMutability": "nonpayable",
      "type": "function"
    },
    {
      "inputs": [
        {
          "internalType": "string",
          "name": "_URI",
          "type": "string"
        }
      ],
      "name": "setBaseURI",
      "outputs": [],
      "stateMutability": "nonpayable",
      "type": "function"
    },
    {
      "inputs": [
        {
          "internalType": "string",
          "name": "_URI",
          "type": "string"
        }
      ],
      "name": "setRevealedURI",
      "outputs": [],
      "stateMutability": "nonpayable",
      "type": "function"
    },
    {
      "inputs": [],
      "name": "flipMintable",
      "outputs": [],
      "stateMutability": "nonpayable",
      "type": "function"
    },
    {
      "inputs": [],
      "name": "flipRevealed",
      "outputs": [],
      "stateMutability": "nonpayable",
      "type": "function"
    },
    {
      "inputs": [
        {
          "internalType": "uint256",
          "name": "amount",
          "type": "uint256"
        }
      ],
      "name": "mint",
      "outputs": [],
      "stateMutability": "payable",
      "type": "function"
    },
    {
      "inputs": [],
      "name": "withdraw",
      "outputs": [],
      "stateMutability": "nonpayable",
      "type": "function"
    }
  ],
  "bytecode": "0x60a06040526000808055600755600b805461ffff191690553480156200002457600080fd5b506040518060400160405280600e81526020016d42616279506978656c446f6f647360901b8152506040518060400160405280600381526020016210941160ea1b815250600a60008111620000965760405162461bcd60e51b81526004016200008d90620001de565b60405180910390fd5b8251620000ab90600190602086019062000138565b508151620000c190600290602085019062000138565b5060805250620000dc9050620000d6620000e2565b620000e6565b62000262565b3390565b600880546001600160a01b038381166001600160a01b0319831681179093556040519116919082907f8be0079c531659141344cd1fd0a4f28419497f9722a3daafe3b4186f6b6457e090600090a35050565b828054620001469062000225565b90600052602060002090601f0160209004810192826200016a5760008555620001b5565b82601f106200018557805160ff1916838001178555620001b5565b82800160010185558215620001b5579182015b82811115620001b557825182559160200191906001019062000198565b50620001c3929150620001c7565b5090565b5b80821115620001c35760008155600101620001c8565b60208082526027908201527f455243373231413a206d61782062617463682073697a65206d757374206265206040820152666e6f6e7a65726f60c81b606082015260800190565b6002810460018216806200023a57607f821691505b602082108114156200025c57634e487b7160e01b600052602260045260246000fd5b50919050565b6080516127f26200028c6000396000818161147b015281816114a5015261186401526127f26000f3fe6080604052600436106101ee5760003560e01c80636352211e1161010d578063a0712d68116100a0578063c87b56dd1161006f578063c87b56dd1461050b578063d7224ba01461052b578063e985e9c514610540578063f2fde38b14610560578063f7e8d6ea14610580576101ee565b8063a0712d68146104a3578063a22cb465146104b6578063b7076681146104d6578063b88d4fde146104eb576101ee565b80638d859f3e116100dc5780638d859f3e1461044f5780638da5cb5b146104645780638ecad7211461047957806395d89b411461048e576101ee565b80636352211e146103e55780636c0360eb1461040557806370a082311461041a578063715018a61461043a576101ee565b806332cb6b0c116101855780634bf365df116101545780634bf365df1461037b5780634f6ccce71461039057806351830227146103b057806355f804b3146103c5576101ee565b806332cb6b0c1461031c5780633b2c3fb6146103315780633ccfd60b1461034657806342842e0e1461035b576101ee565b806318160ddd116101c157806318160ddd1461029a57806323b872dd146102bc5780632f745c59146102dc578063326d4388146102fc576101ee565b806301ffc9a7146101f357806306fdde0314610229578063081812fc1461024b578063095ea7b314610278575b600080fd5b3480156101ff57600080fd5b5061021361020e366004611d22565b610595565b6040516102209190611e74565b60405180910390f35b34801561023557600080fd5b5061023e6105f8565b6040516102209190611e7f565b34801561025757600080fd5b5061026b610266366004611da0565b61068a565b6040516102209190611e23565b34801561028457600080fd5b50610298610293366004611cf9565b6106d6565b005b3480156102a657600080fd5b506102af61076f565b60405161022091906125ed565b3480156102c857600080fd5b506102986102d7366004611c0b565b610775565b3480156102e857600080fd5b506102af6102f7366004611cf9565b610780565b34801561030857600080fd5b50610298610317366004611d5a565b61087c565b34801561032857600080fd5b506102af61090a565b34801561033d57600080fd5b50610298610910565b34801561035257600080fd5b506102986109ad565b34801561036757600080fd5b50610298610376366004611c0b565b610a2f565b34801561038757600080fd5b50610213610a4a565b34801561039c57600080fd5b506102af6103ab366004611da0565b610a53565b3480156103bc57600080fd5b50610213610a7f565b3480156103d157600080fd5b506102986103e0366004611d5a565b610a8d565b3480156103f157600080fd5b5061026b610400366004611da0565b610b10565b34801561041157600080fd5b5061023e610b22565b34801561042657600080fd5b506102af610435366004611bbf565b610bb0565b34801561044657600080fd5b50610298610bfd565b34801561045b57600080fd5b506102af610c48565b34801561047057600080fd5b5061026b610c53565b34801561048557600080fd5b506102af610c62565b34801561049a57600080fd5b5061023e610c67565b6102986104b1366004611da0565b610c76565b3480156104c257600080fd5b506102986104d1366004611cbf565b610e00565b3480156104e257600080fd5b50610298610ece565b3480156104f757600080fd5b50610298610506366004611c46565b610f51565b34801561051757600080fd5b5061023e610526366004611da0565b610f84565b34801561053757600080fd5b506102af611007565b34801561054c57600080fd5b5061021361055b366004611bd9565b61100d565b34801561056c57600080fd5b5061029861057b366004611bbf565b61103b565b34801561058c57600080fd5b5061023e6110a9565b60006001600160e01b031982166380ac58cd60e01b14806105c657506001600160e01b03198216635b5e139f60e01b145b806105e157506001600160e01b0319821663780e9d6360e01b145b806105f057506105f0826110b6565b90505b919050565b606060018054610607906126fa565b80601f0160208091040260200160405190810160405280929190818152602001828054610633906126fa565b80156106805780601f1061065557610100808354040283529160200191610680565b820191906000526020600020905b81548152906001019060200180831161066357829003601f168201915b5050505050905090565b6000610695826110cf565b6106ba5760405162461bcd60e51b81526004016106b19061255e565b60405180910390fd5b506000908152600560205260409020546001600160a01b031690565b60006106e182610b10565b9050806001600160a01b0316836001600160a01b031614156107155760405162461bcd60e51b81526004016106b1906123b4565b806001600160a01b03166107276110d6565b6001600160a01b0316148061074357506107438161055b6110d6565b61075f5760405162461bcd60e51b81526004016106b190612117565b61076a8383836110da565b505050565b60005490565b61076a838383611136565b600061078b83610bb0565b82106107a95760405162461bcd60e51b81526004016106b190611f3c565b60006107b361076f565b905060008060005b8381101561085d576000818152600360209081526040918290208251808401909352546001600160a01b038116808452600160a01b90910467ffffffffffffffff16918301919091521561080e57805192505b876001600160a01b0316836001600160a01b0316141561084a578684141561083c5750935061087692505050565b8361084681612735565b9450505b508061085581612735565b9150506107bb565b5060405162461bcd60e51b81526004016106b1906124c1565b92915050565b6108846110d6565b6001600160a01b0316610895610c53565b6001600160a01b0316146108bb5760405162461bcd60e51b81526004016106b190612262565b80516108ce90600a906020840190611a8c565b507f07b1ec03dab8cb8f2f82e2aa7eadf13c8e60fcddfffd3dc107758e4fcea377cf600a6040516108ff9190611e92565b60405180910390a150565b610ea681565b6109186110d6565b6001600160a01b0316610929610c53565b6001600160a01b03161461094f5760405162461bcd60e51b81526004016106b190612262565b600b805460ff610100808304821615810261ff001990931692909217928390556040517f20a5b4e05b29089957b31c76110692167d828e9ecb1be33824e11609370e8021936109a393900490911690611e74565b60405180910390a1565b6109b56110d6565b6001600160a01b03166109c6610c53565b6001600160a01b0316146109ec5760405162461bcd60e51b81526004016106b190612262565b6109f4610c53565b6001600160a01b03166108fc479081150290604051600060405180830381858888f19350505050158015610a2c573d6000803e3d6000fd5b50565b61076a83838360405180602001604052806000815250610f51565b600b5460ff1681565b6000610a5d61076f565b8210610a7b5760405162461bcd60e51b81526004016106b19061208f565b5090565b600b54610100900460ff1681565b610a956110d6565b6001600160a01b0316610aa6610c53565b6001600160a01b031614610acc5760405162461bcd60e51b81526004016106b190612262565b8051610adf906009906020840190611a8c565b507f01e56a02aca7f26a28165a040851ba78f30282b55ca81c63a804cdc1e2dcea7260096040516108ff9190611e92565b6000610b1b8261144a565b5192915050565b60098054610b2f906126fa565b80601f0160208091040260200160405190810160405280929190818152602001828054610b5b906126fa565b8015610ba85780601f10610b7d57610100808354040283529160200191610ba8565b820191906000526020600020905b815481529060010190602001808311610b8b57829003601f168201915b505050505081565b60006001600160a01b038216610bd85760405162461bcd60e51b81526004016106b190612174565b506001600160a01b03166000908152600460205260409020546001600160801b031690565b610c056110d6565b6001600160a01b0316610c16610c53565b6001600160a01b031614610c3c5760405162461bcd60e51b81526004016106b190612262565b610c46600061155d565b565b666a94d74f43000081565b6008546001600160a01b031690565b600a81565b606060028054610607906126fa565b600b5460ff16610c985760405162461bcd60e51b81526004016106b190611f7e565b8060008111610cb95760405162461bcd60e51b81526004016106b19061236f565b600a811115610cda5760405162461bcd60e51b81526004016106b19061236f565b81610ea681610ce761076f565b610cf1919061262d565b1115610d0f5760405162461bcd60e51b81526004016106b190611fb5565b82600f81610d1b61076f565b610d25919061262d565b118015610d395750600f610d3761076f565b105b15610d925734600f82610d4a61076f565b610d54919061262d565b610d5e91906126a0565b610d6f90666a94d74f430000612659565b1115610d8d5760405162461bcd60e51b81526004016106b190612205565b610df0565b600f81610d9d61076f565b610da7919061262d565b118015610dbb5750600f610db961076f565b115b15610df05734610dd282666a94d74f430000612659565b1115610df05760405162461bcd60e51b81526004016106b190612205565b610dfa33856115af565b50505050565b610e086110d6565b6001600160a01b0316826001600160a01b03161415610e395760405162461bcd60e51b81526004016106b1906122e6565b8060066000610e466110d6565b6001600160a01b03908116825260208083019390935260409182016000908120918716808252919093529120805460ff191692151592909217909155610e8a6110d6565b6001600160a01b03167f17307eab39ab6107e8899845ad3d59bd9653f200f220920489ca2b5937696c3183604051610ec29190611e74565b60405180910390a35050565b610ed66110d6565b6001600160a01b0316610ee7610c53565b6001600160a01b031614610f0d5760405162461bcd60e51b81526004016106b190612262565b600b805460ff19811660ff9182161517918290556040517f376fb9037f5cd4338df0a05e4b353c0c01adbc9a440d6db61d829606a8bec978926109a3921690611e74565b610f5c848484611136565b610f68848484846115cd565b610dfa5760405162461bcd60e51b81526004016106b1906123f6565b6060610f8f826110cf565b610fab5760405162461bcd60e51b81526004016106b190612297565b6000610fb56116e9565b90506000815111610fd55760405180602001604052806000815250611000565b80610fdf846116f8565b604051602001610ff0929190611de4565b6040516020818303038152906040525b9392505050565b60075481565b6001600160a01b03918216600090815260066020908152604080832093909416825291909152205460ff1690565b6110436110d6565b6001600160a01b0316611054610c53565b6001600160a01b03161461107a5760405162461bcd60e51b81526004016106b190612262565b6001600160a01b0381166110a05760405162461bcd60e51b81526004016106b190611fff565b610a2c8161155d565b600a8054610b2f906126fa565b6001600160e01b031981166301ffc9a760e01b14919050565b6000541190565b3390565b60008281526005602052604080822080546001600160a01b0319166001600160a01b0387811691821790925591518593918516917f8c5be1e5ebec7d5bd14f71427d1e84f3dd0314c0f7b2291e5b200ac8c7c3b92591a4505050565b60006111418261144a565b9050600081600001516001600160a01b031661115b6110d6565b6001600160a01b0316148061119057506111736110d6565b6001600160a01b03166111858461068a565b6001600160a01b0316145b806111a4575081516111a49061055b6110d6565b9050806111c35760405162461bcd60e51b81526004016106b19061231d565b846001600160a01b031682600001516001600160a01b0316146111f85760405162461bcd60e51b81526004016106b1906121bf565b6001600160a01b03841661121e5760405162461bcd60e51b81526004016106b1906120d2565b61122b8585856001610dfa565b61123b60008484600001516110da565b6001600160a01b038516600090815260046020526040812080546001929061126d9084906001600160801b0316612678565b82546101009290920a6001600160801b038181021990931691831602179091556001600160a01b038616600090815260046020526040812080546001945090926112b991859116612602565b82546001600160801b039182166101009390930a9283029190920219909116179055506040805180820182526001600160a01b03808716825267ffffffffffffffff428116602080850191825260008981526003909152948520935184549151909216600160a01b0267ffffffffffffffff60a01b19929093166001600160a01b0319909116171617905561134f84600161262d565b6000818152600360205260409020549091506001600160a01b03166113f457611377816110cf565b156113f45760408051808201825284516001600160a01b03908116825260208087015167ffffffffffffffff90811682850190815260008781526003909352949091209251835494516001600160a01b031990951692169190911767ffffffffffffffff60a01b1916600160a01b93909116929092029190911790555b83856001600160a01b0316876001600160a01b03167fddf252ad1be2c89b69c2b068fc378daa952ba7f163c4a11628f55a4df523b3ef60405160405180910390a46114428686866001610dfa565b505050505050565b611452611b0c565b61145b826110cf565b6114775760405162461bcd60e51b81526004016106b190612045565b60007f000000000000000000000000000000000000000000000000000000000000000083106114d8576114ca7f0000000000000000000000000000000000000000000000000000000000000000846126a0565b6114d590600161262d565b90505b825b818110611544576000818152600360209081526040918290208251808401909352546001600160a01b038116808452600160a01b90910467ffffffffffffffff1691830191909152156115315792506105f3915050565b508061153c816126e3565b9150506114da565b5060405162461bcd60e51b81526004016106b19061250f565b600880546001600160a01b038381166001600160a01b0319831681179093556040519116919082907f8be0079c531659141344cd1fd0a4f28419497f9722a3daafe3b4186f6b6457e090600090a35050565b6115c9828260405180602001604052806000815250611813565b5050565b60006115e1846001600160a01b0316611a86565b156116dd57836001600160a01b031663150b7a026115fd6110d6565b8786866040518563ffffffff1660e01b815260040161161f9493929190611e37565b602060405180830381600087803b15801561163957600080fd5b505af1925050508015611669575060408051601f3d908101601f1916820190925261166691810190611d3e565b60015b6116c3573d808015611697576040519150601f19603f3d011682016040523d82523d6000602084013e61169c565b606091505b5080516116bb5760405162461bcd60e51b81526004016106b1906123f6565b805181602001fd5b6001600160e01b031916630a85bd0160e11b1490506116e1565b5060015b949350505050565b606060098054610607906126fa565b60608161171d57506040805180820190915260018152600360fc1b60208201526105f3565b8160005b8115611747578061173181612735565b91506117409050600a83612645565b9150611721565b60008167ffffffffffffffff81111561177057634e487b7160e01b600052604160045260246000fd5b6040519080825280601f01601f19166020018201604052801561179a576020820181803683370190505b5090505b84156116e1576117af6001836126a0565b91506117bc600a86612750565b6117c790603061262d565b60f81b8183815181106117ea57634e487b7160e01b600052603260045260246000fd5b60200101906001600160f81b031916908160001a90535061180c600a86612645565b945061179e565b6000546001600160a01b03841661183c5760405162461bcd60e51b81526004016106b190612480565b611845816110cf565b156118625760405162461bcd60e51b81526004016106b190612449565b7f00000000000000000000000000000000000000000000000000000000000000008311156118a25760405162461bcd60e51b81526004016106b1906125ab565b6118af6000858386610dfa565b6001600160a01b0384166000908152600460209081526040918290208251808401845290546001600160801b038082168352600160801b909104169181019190915281518083019092528051909190819061190b908790612602565b6001600160801b031681526020018583602001516119299190612602565b6001600160801b039081169091526001600160a01b03808816600081815260046020908152604080832087518154988401518816600160801b029088166fffffffffffffffffffffffffffffffff1990991698909817909616969096179094558451808601865291825267ffffffffffffffff4281168386019081528883526003909552948120915182549451909516600160a01b0267ffffffffffffffff60a01b19959093166001600160a01b031990941693909317939093161790915582905b85811015611a745760405182906001600160a01b038916906000907fddf252ad1be2c89b69c2b068fc378daa952ba7f163c4a11628f55a4df523b3ef908290a4611a3860008884886115cd565b611a545760405162461bcd60e51b81526004016106b1906123f6565b81611a5e81612735565b9250508080611a6c90612735565b9150506119eb565b50600081815561144290878588610dfa565b3b151590565b828054611a98906126fa565b90600052602060002090601f016020900481019282611aba5760008555611b00565b82601f10611ad357805160ff1916838001178555611b00565b82800160010185558215611b00579182015b82811115611b00578251825591602001919060010190611ae5565b50610a7b929150611b23565b604080518082019091526000808252602082015290565b5b80821115610a7b5760008155600101611b24565b600067ffffffffffffffff80841115611b5357611b53612790565b604051601f8501601f191681016020018281118282101715611b7757611b77612790565b604052848152915081838501861015611b8f57600080fd5b8484602083013760006020868301015250509392505050565b80356001600160a01b03811681146105f357600080fd5b600060208284031215611bd0578081fd5b61100082611ba8565b60008060408385031215611beb578081fd5b611bf483611ba8565b9150611c0260208401611ba8565b90509250929050565b600080600060608486031215611c1f578081fd5b611c2884611ba8565b9250611c3660208501611ba8565b9150604084013590509250925092565b60008060008060808587031215611c5b578081fd5b611c6485611ba8565b9350611c7260208601611ba8565b925060408501359150606085013567ffffffffffffffff811115611c94578182fd5b8501601f81018713611ca4578182fd5b611cb387823560208401611b38565b91505092959194509250565b60008060408385031215611cd1578182fd5b611cda83611ba8565b915060208301358015158114611cee578182fd5b809150509250929050565b60008060408385031215611d0b578182fd5b611d1483611ba8565b946020939093013593505050565b600060208284031215611d33578081fd5b8135611000816127a6565b600060208284031215611d4f578081fd5b8151611000816127a6565b600060208284031215611d6b578081fd5b813567ffffffffffffffff811115611d81578182fd5b8201601f81018413611d91578182fd5b6116e184823560208401611b38565b600060208284031215611db1578081fd5b5035919050565b60008151808452611dd08160208601602086016126b7565b601f01601f19169290920160200192915050565b60008351611df68184602088016126b7565b835190830190611e0a8183602088016126b7565b64173539b7b760d91b9101908152600501949350505050565b6001600160a01b0391909116815260200190565b6001600160a01b0385811682528416602082015260408101839052608060608201819052600090611e6a90830184611db8565b9695505050505050565b901515815260200190565b6000602082526110006020830184611db8565b6000602080835281845483600282049050600180831680611eb457607f831692505b858310811415611ed257634e487b7160e01b87526022600452602487fd5b611ede83878a016125ed565b818015611ef25760018114611f0357611f2d565b60ff19861682528782019650611f2d565b611f0c8b6125f6565b895b86811015611f2757815484820152908501908901611f0e565b83019750505b50949998505050505050505050565b60208082526022908201527f455243373231413a206f776e657220696e646578206f7574206f6620626f756e604082015261647360f01b606082015260800190565b60208082526019908201527f4e46542063616e6e6f74206265206d696e746564207965742e00000000000000604082015260600190565b6020808252602a908201527f546865726520617265206e6f206d6f72652072656d61696e696e67204e46542760408201526939903a379036b4b73a1760b11b606082015260800190565b60208082526026908201527f4f776e61626c653a206e6577206f776e657220697320746865207a65726f206160408201526564647265737360d01b606082015260800190565b6020808252602a908201527f455243373231413a206f776e657220717565727920666f72206e6f6e657869736040820152693a32b73a103a37b5b2b760b11b606082015260800190565b60208082526023908201527f455243373231413a20676c6f62616c20696e646578206f7574206f6620626f756040820152626e647360e81b606082015260800190565b60208082526025908201527f455243373231413a207472616e7366657220746f20746865207a65726f206164604082015264647265737360d81b606082015260800190565b60208082526039908201527f455243373231413a20617070726f76652063616c6c6572206973206e6f74206f60408201527f776e6572206e6f7220617070726f76656420666f7220616c6c00000000000000606082015260800190565b6020808252602b908201527f455243373231413a2062616c616e636520717565727920666f7220746865207a60408201526a65726f206164647265737360a81b606082015260800190565b60208082526026908201527f455243373231413a207472616e736665722066726f6d20696e636f72726563746040820152651037bbb732b960d11b606082015260800190565b6020808252603a908201527f546865726520776173206e6f7420656e6f7567682f657874726120455448207460408201527f72616e7366657272656420746f206d696e7420616e204e46542e000000000000606082015260800190565b6020808252818101527f4f776e61626c653a2063616c6c6572206973206e6f7420746865206f776e6572604082015260600190565b6020808252602f908201527f4552433732314d657461646174613a2055524920717565727920666f72206e6f60408201526e3732bc34b9ba32b73a103a37b5b2b760891b606082015260800190565b6020808252601a908201527f455243373231413a20617070726f766520746f2063616c6c6572000000000000604082015260600190565b60208082526032908201527f455243373231413a207472616e736665722063616c6c6572206973206e6f74206040820152711bdddb995c881b9bdc88185c1c1c9bdd995960721b606082015260800190565b60208082526025908201527f4d696e7420616d6f756e742065786365656473206d6178206c696d697420706560408201526439103a3c1760d91b606082015260800190565b60208082526022908201527f455243373231413a20617070726f76616c20746f2063757272656e74206f776e60408201526132b960f11b606082015260800190565b60208082526033908201527f455243373231413a207472616e7366657220746f206e6f6e204552433732315260408201527232b1b2b4bb32b91034b6b83632b6b2b73a32b960691b606082015260800190565b6020808252601d908201527f455243373231413a20746f6b656e20616c7265616479206d696e746564000000604082015260600190565b60208082526021908201527f455243373231413a206d696e7420746f20746865207a65726f206164647265736040820152607360f81b606082015260800190565b6020808252602e908201527f455243373231413a20756e61626c6520746f2067657420746f6b656e206f662060408201526d0deeedccae440c4f240d2dcc8caf60931b606082015260800190565b6020808252602f908201527f455243373231413a20756e61626c6520746f2064657465726d696e652074686560408201526e1037bbb732b91037b3103a37b5b2b760891b606082015260800190565b6020808252602d908201527f455243373231413a20617070726f76656420717565727920666f72206e6f6e6560408201526c3c34b9ba32b73a103a37b5b2b760991b606082015260800190565b60208082526022908201527f455243373231413a207175616e7469747920746f206d696e7420746f6f2068696040820152610ced60f31b606082015260800190565b90815260200190565b60009081526020902090565b60006001600160801b0380831681851680830382111561262457612624612764565b01949350505050565b6000821982111561264057612640612764565b500190565b6000826126545761265461277a565b500490565b600081600019048311821515161561267357612673612764565b500290565b60006001600160801b038381169083168181101561269857612698612764565b039392505050565b6000828210156126b2576126b2612764565b500390565b60005b838110156126d25781810151838201526020016126ba565b83811115610dfa5750506000910152565b6000816126f2576126f2612764565b506000190190565b60028104600182168061270e57607f821691505b6020821081141561272f57634e487b7160e01b600052602260045260246000fd5b50919050565b600060001982141561274957612749612764565b5060010190565b60008261275f5761275f61277a565b500690565b634e487b7160e01b600052601160045260246000fd5b634e487b7160e01b600052601260045260246000fd5b634e487b7160e01b600052604160045260246000fd5b6001600160e01b031981168114610a2c57600080fdfea264697066735822122096835fb0858b3238002fd5e8a620d5121dd56604258cd8f1c67db1612fc8dece64736f6c63430008000033",
  "immutableReferences": {
    "1167": [
      {
        "length": 32,
        "start": 5243
      },
      {
        "length": 32,
        "start": 5285
      },
      {
        "length": 32,
        "start": 6244
      }
    ]
  },
  "source": "// SPDX-License-Identifier: MIT\npragma solidity ^0.8.0;\n\nimport \"./ERC721A.sol\";\nimport \"@openzeppelin/contracts/access/Ownable.sol\";\n\ncontract VoxelVille is ERC721A, Ownable {\n    using Strings for uint256;\n\n    uint256 public constant MAX_SUPPLY = 3750;\n\n    uint256 public constant MAX_MINT_PER_TX = 10;\n\n    uint256 public constant PRICE = 0.03 ether;\n\n    string public baseURI;\n\n    string public revealedURI;\n\n    bool public mintable = false;\n\n    bool public revealed = false;\n\n    event Mintable(bool mintable);\n\n    event Revealed(bool revealed);\n\n    event BaseURI(string baseURI);\n    \n    event RevealedURI(string revealedURI);\n\n    constructor() ERC721A(\"BabyPixelDoods\", \"BPD\", MAX_MINT_PER_TX) {}\n\n    modifier isMintable() {\n        require(mintable, \"NFT cannot be minted yet.\");\n        _;\n    }\n\n    modifier isNotExceedMaxMintPerTx(uint256 amount) {\n        require(amount > 0, \"Mint amount exceeds max limit per tx.\");\n        require(\n            amount <= MAX_MINT_PER_TX,\n            \"Mint amount exceeds max limit per tx.\"\n        );\n        _;\n    }\n\n    modifier isNotExceedAvailableSupply(uint256 amount) {\n        require(\n            totalSupply() + amount <= MAX_SUPPLY,\n            \"There are no more remaining NFT's to mint.\"\n        );\n        _;\n    }\n\n    modifier isPaymentSufficient(uint256 amount) {\n        if (totalSupply() + amount > 15 && totalSupply() < 15) {\n            require(\n                PRICE * (totalSupply() + amount - 15) <= msg.value,\n                \"There was not enough/extra ETH transferred to mint an NFT.\"\n            );\n        } else if (totalSupply() + amount > 15 && totalSupply() > 15) {\n            require(\n                PRICE * amount <= msg.value,\n                \"There was not enough/extra ETH transferred to mint an NFT.\"\n            );\n        }\n        _;\n    }\n\n    function setBaseURI(string memory _URI) public onlyOwner {\n        baseURI = _URI;\n\n        emit BaseURI(baseURI);\n    }\n\n    function setRevealedURI(string memory _URI) public onlyOwner {\n        revealedURI = _URI;\n\n        emit RevealedURI(revealedURI);\n    }\n\n    function flipMintable() public onlyOwner {\n        mintable = !mintable;\n\n        emit Mintable(mintable);\n    }\n\n    function flipRevealed() public onlyOwner {\n        revealed = !revealed;\n\n        emit Revealed(revealed);\n    }\n\n    function mint(uint256 amount)\n        public\n        payable\n        isMintable\n        isNotExceedMaxMintPerTx(amount)\n        isNotExceedAvailableSupply(amount)\n        isPaymentSufficient(amount)\n    {\n        _safeMint(msg.sender, amount);\n    }\n\n    function _baseURI() internal view virtual override returns (string memory) {\n        return baseURI;\n    }\n\n    function withdraw() public onlyOwner {\n        payable(owner()).transfer(address(this).balance);\n    }\n}\n",
  "sourcePath": "/Users/ishreetbhullar/Documents/coding-folder/BabyPixelDoods/contracts/BabyPixelDoods.sol",
  "compiler": {
    "name": "solc",
    "version": "0.8.0+commit.c7dfd78e.Emscripten.clang"
  },
  "schemaVersion": "3.4.3",
  "updatedAt": "2022-01-14T17:22:28.311Z",
  "devdoc": {
    "kind": "dev",
    "methods": {
      "approve(address,uint256)": {
        "details": "See {IERC721-approve}."
      },
      "balanceOf(address)": {
        "details": "See {IERC721-balanceOf}."
      },
      "getApproved(uint256)": {
        "details": "See {IERC721-getApproved}."
      },
      "isApprovedForAll(address,address)": {
        "details": "See {IERC721-isApprovedForAll}."
      },
      "name()": {
        "details": "See {IERC721Metadata-name}."
      },
      "owner()": {
        "details": "Returns the address of the current owner."
      },
      "ownerOf(uint256)": {
        "details": "See {IERC721-ownerOf}."
      },
      "renounceOwnership()": {
        "details": "Leaves the contract without owner. It will not be possible to call `onlyOwner` functions anymore. Can only be called by the current owner. NOTE: Renouncing ownership will leave the contract without an owner, thereby removing any functionality that is only available to the owner."
      },
      "safeTransferFrom(address,address,uint256)": {
        "details": "See {IERC721-safeTransferFrom}."
      },
      "safeTransferFrom(address,address,uint256,bytes)": {
        "details": "See {IERC721-safeTransferFrom}."
      },
      "setApprovalForAll(address,bool)": {
        "details": "See {IERC721-setApprovalForAll}."
      },
      "supportsInterface(bytes4)": {
        "details": "See {IERC165-supportsInterface}."
      },
      "symbol()": {
        "details": "See {IERC721Metadata-symbol}."
      },
      "tokenByIndex(uint256)": {
        "details": "See {IERC721Enumerable-tokenByIndex}."
      },
      "tokenOfOwnerByIndex(address,uint256)": {
        "details": "See {IERC721Enumerable-tokenOfOwnerByIndex}. This read function is O(totalSupply). If calling from a separate contract, be sure to test gas first. It may also degrade with extremely large collection sizes (e.g >> 10000), test for your use case."
      },
      "tokenURI(uint256)": {
        "details": "See {IERC721Metadata-tokenURI}."
      },
      "totalSupply()": {
        "details": "See {IERC721Enumerable-totalSupply}."
      },
      "transferFrom(address,address,uint256)": {
        "details": "See {IERC721-transferFrom}."
      },
      "transferOwnership(address)": {
        "details": "Transfers ownership of the contract to a new account (`newOwner`). Can only be called by the current owner."
      }
    },
    "version": 1
  },
  "userdoc": {
    "kind": "user",
    "methods": {},
    "version": 1
  }
}